Archive member included to satisfy reference by file (symbol)

c:/program files (x86)/atmel/studio/7.0/toolchain/avr8/avr8-gnu-toolchain/bin/../lib/gcc/avr/5.4.0/../../../../avr/lib/avr5\libm.a(addsf3.o)
                              src/arduino/Print.o (__subsf3)
c:/program files (x86)/atmel/studio/7.0/toolchain/avr8/avr8-gnu-toolchain/bin/../lib/gcc/avr/5.4.0/../../../../avr/lib/avr5\libm.a(addsf3x.o)
                              c:/program files (x86)/atmel/studio/7.0/toolchain/avr8/avr8-gnu-toolchain/bin/../lib/gcc/avr/5.4.0/../../../../avr/lib/avr5\libm.a(addsf3.o) (__addsf3x)
c:/program files (x86)/atmel/studio/7.0/toolchain/avr8/avr8-gnu-toolchain/bin/../lib/gcc/avr/5.4.0/../../../../avr/lib/avr5\libm.a(atan2.o)
                              src/main.o (atan2)
c:/program files (x86)/atmel/studio/7.0/toolchain/avr8/avr8-gnu-toolchain/bin/../lib/gcc/avr/5.4.0/../../../../avr/lib/avr5\libm.a(atan.o)
                              c:/program files (x86)/atmel/studio/7.0/toolchain/avr8/avr8-gnu-toolchain/bin/../lib/gcc/avr/5.4.0/../../../../avr/lib/avr5\libm.a(atan2.o) (atan)
c:/program files (x86)/atmel/studio/7.0/toolchain/avr8/avr8-gnu-toolchain/bin/../lib/gcc/avr/5.4.0/../../../../avr/lib/avr5\libm.a(cmpsf2.o)
                              src/main.o (__eqsf2)
c:/program files (x86)/atmel/studio/7.0/toolchain/avr8/avr8-gnu-toolchain/bin/../lib/gcc/avr/5.4.0/../../../../avr/lib/avr5\libm.a(divsf3.o)
                              src/arduino/Print.o (__divsf3)
c:/program files (x86)/atmel/studio/7.0/toolchain/avr8/avr8-gnu-toolchain/bin/../lib/gcc/avr/5.4.0/../../../../avr/lib/avr5\libm.a(divsf3x.o)
                              c:/program files (x86)/atmel/studio/7.0/toolchain/avr8/avr8-gnu-toolchain/bin/../lib/gcc/avr/5.4.0/../../../../avr/lib/avr5\libm.a(divsf3.o) (__divsf3x)
c:/program files (x86)/atmel/studio/7.0/toolchain/avr8/avr8-gnu-toolchain/bin/../lib/gcc/avr/5.4.0/../../../../avr/lib/avr5\libm.a(fixsfsi.o)
                              src/main.o (__fixsfsi)
c:/program files (x86)/atmel/studio/7.0/toolchain/avr8/avr8-gnu-toolchain/bin/../lib/gcc/avr/5.4.0/../../../../avr/lib/avr5\libm.a(fixunssfsi.o)
                              src/arduino/Print.o (__fixunssfsi)
c:/program files (x86)/atmel/studio/7.0/toolchain/avr8/avr8-gnu-toolchain/bin/../lib/gcc/avr/5.4.0/../../../../avr/lib/avr5\libm.a(floatsisf.o)
                              src/arduino/Print.o (__floatunsisf)
c:/program files (x86)/atmel/studio/7.0/toolchain/avr8/avr8-gnu-toolchain/bin/../lib/gcc/avr/5.4.0/../../../../avr/lib/avr5\libm.a(fp_cmp.o)
                              c:/program files (x86)/atmel/studio/7.0/toolchain/avr8/avr8-gnu-toolchain/bin/../lib/gcc/avr/5.4.0/../../../../avr/lib/avr5\libm.a(cmpsf2.o) (__fp_cmp)
c:/program files (x86)/atmel/studio/7.0/toolchain/avr8/avr8-gnu-toolchain/bin/../lib/gcc/avr/5.4.0/../../../../avr/lib/avr5\libm.a(fp_inf.o)
                              c:/program files (x86)/atmel/studio/7.0/toolchain/avr8/avr8-gnu-toolchain/bin/../lib/gcc/avr/5.4.0/../../../../avr/lib/avr5\libm.a(addsf3x.o) (__fp_inf)
c:/program files (x86)/atmel/studio/7.0/toolchain/avr8/avr8-gnu-toolchain/bin/../lib/gcc/avr/5.4.0/../../../../avr/lib/avr5\libm.a(fp_nan.o)
                              c:/program files (x86)/atmel/studio/7.0/toolchain/avr8/avr8-gnu-toolchain/bin/../lib/gcc/avr/5.4.0/../../../../avr/lib/avr5\libm.a(addsf3x.o) (__fp_nan)
c:/program files (x86)/atmel/studio/7.0/toolchain/avr8/avr8-gnu-toolchain/bin/../lib/gcc/avr/5.4.0/../../../../avr/lib/avr5\libm.a(fp_powser.o)
                              c:/program files (x86)/atmel/studio/7.0/toolchain/avr8/avr8-gnu-toolchain/bin/../lib/gcc/avr/5.4.0/../../../../avr/lib/avr5\libm.a(atan.o) (__fp_powser)
c:/program files (x86)/atmel/studio/7.0/toolchain/avr8/avr8-gnu-toolchain/bin/../lib/gcc/avr/5.4.0/../../../../avr/lib/avr5\libm.a(fp_pscA.o)
                              c:/program files (x86)/atmel/studio/7.0/toolchain/avr8/avr8-gnu-toolchain/bin/../lib/gcc/avr/5.4.0/../../../../avr/lib/avr5\libm.a(addsf3x.o) (__fp_pscA)
c:/program files (x86)/atmel/studio/7.0/toolchain/avr8/avr8-gnu-toolchain/bin/../lib/gcc/avr/5.4.0/../../../../avr/lib/avr5\libm.a(fp_pscB.o)
                              c:/program files (x86)/atmel/studio/7.0/toolchain/avr8/avr8-gnu-toolchain/bin/../lib/gcc/avr/5.4.0/../../../../avr/lib/avr5\libm.a(addsf3x.o) (__fp_pscB)
c:/program files (x86)/atmel/studio/7.0/toolchain/avr8/avr8-gnu-toolchain/bin/../lib/gcc/avr/5.4.0/../../../../avr/lib/avr5\libm.a(fp_round.o)
                              c:/program files (x86)/atmel/studio/7.0/toolchain/avr8/avr8-gnu-toolchain/bin/../lib/gcc/avr/5.4.0/../../../../avr/lib/avr5\libm.a(addsf3.o) (__fp_round)
c:/program files (x86)/atmel/studio/7.0/toolchain/avr8/avr8-gnu-toolchain/bin/../lib/gcc/avr/5.4.0/../../../../avr/lib/avr5\libm.a(fp_split3.o)
                              c:/program files (x86)/atmel/studio/7.0/toolchain/avr8/avr8-gnu-toolchain/bin/../lib/gcc/avr/5.4.0/../../../../avr/lib/avr5\libm.a(addsf3x.o) (__fp_split3)
c:/program files (x86)/atmel/studio/7.0/toolchain/avr8/avr8-gnu-toolchain/bin/../lib/gcc/avr/5.4.0/../../../../avr/lib/avr5\libm.a(fp_zero.o)
                              c:/program files (x86)/atmel/studio/7.0/toolchain/avr8/avr8-gnu-toolchain/bin/../lib/gcc/avr/5.4.0/../../../../avr/lib/avr5\libm.a(addsf3x.o) (__fp_zero)
c:/program files (x86)/atmel/studio/7.0/toolchain/avr8/avr8-gnu-toolchain/bin/../lib/gcc/avr/5.4.0/../../../../avr/lib/avr5\libm.a(gesf2.o)
                              src/arduino/Print.o (__gtsf2)
c:/program files (x86)/atmel/studio/7.0/toolchain/avr8/avr8-gnu-toolchain/bin/../lib/gcc/avr/5.4.0/../../../../avr/lib/avr5\libm.a(inverse.o)
                              c:/program files (x86)/atmel/studio/7.0/toolchain/avr8/avr8-gnu-toolchain/bin/../lib/gcc/avr/5.4.0/../../../../avr/lib/avr5\libm.a(atan.o) (inverse)
c:/program files (x86)/atmel/studio/7.0/toolchain/avr8/avr8-gnu-toolchain/bin/../lib/gcc/avr/5.4.0/../../../../avr/lib/avr5\libm.a(mulsf3.o)
                              src/arduino/Print.o (__mulsf3)
c:/program files (x86)/atmel/studio/7.0/toolchain/avr8/avr8-gnu-toolchain/bin/../lib/gcc/avr/5.4.0/../../../../avr/lib/avr5\libm.a(mulsf3x.o)
                              c:/program files (x86)/atmel/studio/7.0/toolchain/avr8/avr8-gnu-toolchain/bin/../lib/gcc/avr/5.4.0/../../../../avr/lib/avr5\libm.a(atan.o) (__mulsf3x)
c:/program files (x86)/atmel/studio/7.0/toolchain/avr8/avr8-gnu-toolchain/bin/../lib/gcc/avr/5.4.0/../../../../avr/lib/avr5\libm.a(square.o)
                              c:/program files (x86)/atmel/studio/7.0/toolchain/avr8/avr8-gnu-toolchain/bin/../lib/gcc/avr/5.4.0/../../../../avr/lib/avr5\libm.a(atan.o) (square)
c:/program files (x86)/atmel/studio/7.0/toolchain/avr8/avr8-gnu-toolchain/bin/../lib/gcc/avr/5.4.0/../../../../avr/lib/avr5\libm.a(unordsf2.o)
                              src/arduino/Print.o (__unordsf2)
c:/program files (x86)/atmel/studio/7.0/toolchain/avr8/avr8-gnu-toolchain/bin/../lib/gcc/avr/5.4.0/avr5\libgcc.a(_mulsi3.o)
                              src/arduino/WMath.o (__mulsi3)
c:/program files (x86)/atmel/studio/7.0/toolchain/avr8/avr8-gnu-toolchain/bin/../lib/gcc/avr/5.4.0/avr5\libgcc.a(_divmodhi4.o)
                              src/main.o (__divmodhi4)
c:/program files (x86)/atmel/studio/7.0/toolchain/avr8/avr8-gnu-toolchain/bin/../lib/gcc/avr/5.4.0/avr5\libgcc.a(_udivmodsi4.o)
                              src/arduino/HardwareSerial.o (__udivmodsi4)
c:/program files (x86)/atmel/studio/7.0/toolchain/avr8/avr8-gnu-toolchain/bin/../lib/gcc/avr/5.4.0/avr5\libgcc.a(_divmodsi4.o)
                              src/arduino/Tone.o (__divmodsi4)
c:/program files (x86)/atmel/studio/7.0/toolchain/avr8/avr8-gnu-toolchain/bin/../lib/gcc/avr/5.4.0/avr5\libgcc.a(_negsi2.o)
                              c:/program files (x86)/atmel/studio/7.0/toolchain/avr8/avr8-gnu-toolchain/bin/../lib/gcc/avr/5.4.0/avr5\libgcc.a(_divmodsi4.o) (__negsi2)
c:/program files (x86)/atmel/studio/7.0/toolchain/avr8/avr8-gnu-toolchain/bin/../lib/gcc/avr/5.4.0/avr5\libgcc.a(_exit.o)
                              C:/Program Files (x86)/Atmel/Studio/7.0/Packs/atmel/ATmega_DFP/1.1.130/gcc/dev/atmega328p/avr5/crtatmega328p.o (exit)
c:/program files (x86)/atmel/studio/7.0/toolchain/avr8/avr8-gnu-toolchain/bin/../lib/gcc/avr/5.4.0/avr5\libgcc.a(_copy_data.o)
                              src/arduino/HardwareSerial.o (__do_copy_data)
c:/program files (x86)/atmel/studio/7.0/toolchain/avr8/avr8-gnu-toolchain/bin/../lib/gcc/avr/5.4.0/avr5\libgcc.a(_clear_bss.o)
                              src/arduino/HardwareSerial0.o (__do_clear_bss)
c:/program files (x86)/atmel/studio/7.0/toolchain/avr8/avr8-gnu-toolchain/bin/../lib/gcc/avr/5.4.0/avr5\libgcc.a(_ctors.o)
                              src/arduino/HardwareSerial0.o (__do_global_ctors)
c:/program files (x86)/atmel/studio/7.0/toolchain/avr8/avr8-gnu-toolchain/bin/../lib/gcc/avr/5.4.0/avr5\libgcc.a(_bswapsi2.o)
                              src/mpu6050/MPU6050.o (__bswapsi2)
c:/program files (x86)/atmel/studio/7.0/toolchain/avr8/avr8-gnu-toolchain/bin/../lib/gcc/avr/5.4.0/avr5\libgcc.a(_umulhisi3.o)
                              src/battery.o (__umulhisi3)
c:/program files (x86)/atmel/studio/7.0/toolchain/avr8/avr8-gnu-toolchain/bin/../lib/gcc/avr/5.4.0/avr5\libgcc.a(_muluhisi3.o)
                              src/arduino/Tone.o (__muluhisi3)
c:/program files (x86)/atmel/studio/7.0/toolchain/avr8/avr8-gnu-toolchain/bin/../lib/gcc/avr/5.4.0/avr5\libgcc.a(_udivmodhi4.o)
                              c:/program files (x86)/atmel/studio/7.0/toolchain/avr8/avr8-gnu-toolchain/bin/../lib/gcc/avr/5.4.0/avr5\libgcc.a(_divmodhi4.o) (__udivmodhi4)
c:/program files (x86)/atmel/studio/7.0/toolchain/avr8/avr8-gnu-toolchain/bin/../lib/gcc/avr/5.4.0/avr5\libgcc.a(_tablejump2.o)
                              c:/program files (x86)/atmel/studio/7.0/toolchain/avr8/avr8-gnu-toolchain/bin/../lib/gcc/avr/5.4.0/avr5\libgcc.a(_ctors.o) (__tablejump2__)
c:/program files (x86)/atmel/studio/7.0/toolchain/avr8/avr8-gnu-toolchain/bin/../lib/gcc/avr/5.4.0/../../../../avr/lib/avr5\libc.a(dtostrf.o)
                              src/arduino/WString.o (dtostrf)
c:/program files (x86)/atmel/studio/7.0/toolchain/avr8/avr8-gnu-toolchain/bin/../lib/gcc/avr/5.4.0/../../../../avr/lib/avr5\libc.a(malloc.o)
                              src/arduino/new.o (malloc)
c:/program files (x86)/atmel/studio/7.0/toolchain/avr8/avr8-gnu-toolchain/bin/../lib/gcc/avr/5.4.0/../../../../avr/lib/avr5\libc.a(random.o)
                              src/arduino/WMath.o (random)
c:/program files (x86)/atmel/studio/7.0/toolchain/avr8/avr8-gnu-toolchain/bin/../lib/gcc/avr/5.4.0/../../../../avr/lib/avr5\libc.a(realloc.o)
                              src/arduino/WString.o (realloc)
c:/program files (x86)/atmel/studio/7.0/toolchain/avr8/avr8-gnu-toolchain/bin/../lib/gcc/avr/5.4.0/../../../../avr/lib/avr5\libc.a(abort.o)
                              src/arduino/abi.o (abort)
c:/program files (x86)/atmel/studio/7.0/toolchain/avr8/avr8-gnu-toolchain/bin/../lib/gcc/avr/5.4.0/../../../../avr/lib/avr5\libc.a(atof.o)
                              src/arduino/WString.o (atof)
c:/program files (x86)/atmel/studio/7.0/toolchain/avr8/avr8-gnu-toolchain/bin/../lib/gcc/avr/5.4.0/../../../../avr/lib/avr5\libc.a(atol.o)
                              src/arduino/WString.o (atol)
c:/program files (x86)/atmel/studio/7.0/toolchain/avr8/avr8-gnu-toolchain/bin/../lib/gcc/avr/5.4.0/../../../../avr/lib/avr5\libc.a(isspace.o)
                              src/arduino/WString.o (isspace)
c:/program files (x86)/atmel/studio/7.0/toolchain/avr8/avr8-gnu-toolchain/bin/../lib/gcc/avr/5.4.0/../../../../avr/lib/avr5\libc.a(tolower.o)
                              src/arduino/WString.o (tolower)
c:/program files (x86)/atmel/studio/7.0/toolchain/avr8/avr8-gnu-toolchain/bin/../lib/gcc/avr/5.4.0/../../../../avr/lib/avr5\libc.a(toupper.o)
                              src/arduino/WString.o (toupper)
c:/program files (x86)/atmel/studio/7.0/toolchain/avr8/avr8-gnu-toolchain/bin/../lib/gcc/avr/5.4.0/../../../../avr/lib/avr5\libc.a(strcpy_P.o)
                              src/arduino/WString.o (strcpy_P)
c:/program files (x86)/atmel/studio/7.0/toolchain/avr8/avr8-gnu-toolchain/bin/../lib/gcc/avr/5.4.0/../../../../avr/lib/avr5\libc.a(strlen_P.o)
                              src/arduino/WString.o (__strlen_P)
c:/program files (x86)/atmel/studio/7.0/toolchain/avr8/avr8-gnu-toolchain/bin/../lib/gcc/avr/5.4.0/../../../../avr/lib/avr5\libc.a(memcmp.o)
                              src/arduino/IPAddress.o (memcmp)
c:/program files (x86)/atmel/studio/7.0/toolchain/avr8/avr8-gnu-toolchain/bin/../lib/gcc/avr/5.4.0/../../../../avr/lib/avr5\libc.a(memcpy.o)
                              src/arduino/WString.o (memcpy)
c:/program files (x86)/atmel/studio/7.0/toolchain/avr8/avr8-gnu-toolchain/bin/../lib/gcc/avr/5.4.0/../../../../avr/lib/avr5\libc.a(memmove.o)
                              src/arduino/WString.o (memmove)
c:/program files (x86)/atmel/studio/7.0/toolchain/avr8/avr8-gnu-toolchain/bin/../lib/gcc/avr/5.4.0/../../../../avr/lib/avr5\libc.a(strchr.o)
                              src/arduino/WString.o (strchr)
c:/program files (x86)/atmel/studio/7.0/toolchain/avr8/avr8-gnu-toolchain/bin/../lib/gcc/avr/5.4.0/../../../../avr/lib/avr5\libc.a(strcmp.o)
                              src/arduino/WString.o (strcmp)
c:/program files (x86)/atmel/studio/7.0/toolchain/avr8/avr8-gnu-toolchain/bin/../lib/gcc/avr/5.4.0/../../../../avr/lib/avr5\libc.a(strcpy.o)
                              src/arduino/WString.o (strcpy)
c:/program files (x86)/atmel/studio/7.0/toolchain/avr8/avr8-gnu-toolchain/bin/../lib/gcc/avr/5.4.0/../../../../avr/lib/avr5\libc.a(strncmp.o)
                              src/arduino/WString.o (strncmp)
c:/program files (x86)/atmel/studio/7.0/toolchain/avr8/avr8-gnu-toolchain/bin/../lib/gcc/avr/5.4.0/../../../../avr/lib/avr5\libc.a(strncpy.o)
                              src/arduino/WString.o (strncpy)
c:/program files (x86)/atmel/studio/7.0/toolchain/avr8/avr8-gnu-toolchain/bin/../lib/gcc/avr/5.4.0/../../../../avr/lib/avr5\libc.a(strrchr.o)
                              src/arduino/WString.o (strrchr)
c:/program files (x86)/atmel/studio/7.0/toolchain/avr8/avr8-gnu-toolchain/bin/../lib/gcc/avr/5.4.0/../../../../avr/lib/avr5\libc.a(strstr.o)
                              src/arduino/WString.o (strstr)
c:/program files (x86)/atmel/studio/7.0/toolchain/avr8/avr8-gnu-toolchain/bin/../lib/gcc/avr/5.4.0/../../../../avr/lib/avr5\libc.a(itoa.o)
                              src/arduino/WString.o (__itoa)
c:/program files (x86)/atmel/studio/7.0/toolchain/avr8/avr8-gnu-toolchain/bin/../lib/gcc/avr/5.4.0/../../../../avr/lib/avr5\libc.a(itoa_ncheck.o)
                              src/arduino/WString.o (__itoa_ncheck)
c:/program files (x86)/atmel/studio/7.0/toolchain/avr8/avr8-gnu-toolchain/bin/../lib/gcc/avr/5.4.0/../../../../avr/lib/avr5\libc.a(ltoa.o)
                              src/arduino/WString.o (__ltoa)
c:/program files (x86)/atmel/studio/7.0/toolchain/avr8/avr8-gnu-toolchain/bin/../lib/gcc/avr/5.4.0/../../../../avr/lib/avr5\libc.a(ltoa_ncheck.o)
                              src/arduino/WString.o (__ltoa_ncheck)
c:/program files (x86)/atmel/studio/7.0/toolchain/avr8/avr8-gnu-toolchain/bin/../lib/gcc/avr/5.4.0/../../../../avr/lib/avr5\libc.a(mulsi10.o)
                              c:/program files (x86)/atmel/studio/7.0/toolchain/avr8/avr8-gnu-toolchain/bin/../lib/gcc/avr/5.4.0/../../../../avr/lib/avr5\libc.a(atol.o) (__mulsi_const_10)
c:/program files (x86)/atmel/studio/7.0/toolchain/avr8/avr8-gnu-toolchain/bin/../lib/gcc/avr/5.4.0/../../../../avr/lib/avr5\libc.a(ultoa.o)
                              src/arduino/WString.o (__ultoa)
c:/program files (x86)/atmel/studio/7.0/toolchain/avr8/avr8-gnu-toolchain/bin/../lib/gcc/avr/5.4.0/../../../../avr/lib/avr5\libc.a(ultoa_ncheck.o)
                              src/arduino/WString.o (__ultoa_ncheck)
c:/program files (x86)/atmel/studio/7.0/toolchain/avr8/avr8-gnu-toolchain/bin/../lib/gcc/avr/5.4.0/../../../../avr/lib/avr5\libc.a(utoa.o)
                              src/arduino/WString.o (__utoa)
c:/program files (x86)/atmel/studio/7.0/toolchain/avr8/avr8-gnu-toolchain/bin/../lib/gcc/avr/5.4.0/../../../../avr/lib/avr5\libc.a(utoa_ncheck.o)
                              src/arduino/WString.o (__utoa_ncheck)
c:/program files (x86)/atmel/studio/7.0/toolchain/avr8/avr8-gnu-toolchain/bin/../lib/gcc/avr/5.4.0/../../../../avr/lib/avr5\libc.a(dtoa_prf.o)
                              c:/program files (x86)/atmel/studio/7.0/toolchain/avr8/avr8-gnu-toolchain/bin/../lib/gcc/avr/5.4.0/../../../../avr/lib/avr5\libc.a(dtostrf.o) (dtoa_prf)
c:/program files (x86)/atmel/studio/7.0/toolchain/avr8/avr8-gnu-toolchain/bin/../lib/gcc/avr/5.4.0/../../../../avr/lib/avr5\libc.a(strtod.o)
                              c:/program files (x86)/atmel/studio/7.0/toolchain/avr8/avr8-gnu-toolchain/bin/../lib/gcc/avr/5.4.0/../../../../avr/lib/avr5\libc.a(atof.o) (strtod)
c:/program files (x86)/atmel/studio/7.0/toolchain/avr8/avr8-gnu-toolchain/bin/../lib/gcc/avr/5.4.0/../../../../avr/lib/avr5\libc.a(ftoa_engine.o)
                              c:/program files (x86)/atmel/studio/7.0/toolchain/avr8/avr8-gnu-toolchain/bin/../lib/gcc/avr/5.4.0/../../../../avr/lib/avr5\libc.a(dtoa_prf.o) (__ftoa_engine)
c:/program files (x86)/atmel/studio/7.0/toolchain/avr8/avr8-gnu-toolchain/bin/../lib/gcc/avr/5.4.0/../../../../avr/lib/avr5\libc.a(cty_isfalse.o)
                              c:/program files (x86)/atmel/studio/7.0/toolchain/avr8/avr8-gnu-toolchain/bin/../lib/gcc/avr/5.4.0/../../../../avr/lib/avr5\libc.a(isspace.o) (__ctype_isfalse)
c:/program files (x86)/atmel/studio/7.0/toolchain/avr8/avr8-gnu-toolchain/bin/../lib/gcc/avr/5.4.0/../../../../avr/lib/avr5\libc.a(strncasecmp_P.o)
                              c:/program files (x86)/atmel/studio/7.0/toolchain/avr8/avr8-gnu-toolchain/bin/../lib/gcc/avr/5.4.0/../../../../avr/lib/avr5\libc.a(strtod.o) (strncasecmp_P)
c:/program files (x86)/atmel/studio/7.0/toolchain/avr8/avr8-gnu-toolchain/bin/../lib/gcc/avr/5.4.0/../../../../avr/lib/avr5\libc.a(strrev.o)
                              c:/program files (x86)/atmel/studio/7.0/toolchain/avr8/avr8-gnu-toolchain/bin/../lib/gcc/avr/5.4.0/../../../../avr/lib/avr5\libc.a(ultoa_ncheck.o) (strrev)
c:/program files (x86)/atmel/studio/7.0/toolchain/avr8/avr8-gnu-toolchain/bin/../lib/gcc/avr/5.4.0/../../../../avr/lib/avr5\libc.a(errno.o)
                              c:/program files (x86)/atmel/studio/7.0/toolchain/avr8/avr8-gnu-toolchain/bin/../lib/gcc/avr/5.4.0/../../../../avr/lib/avr5\libc.a(strtod.o) (errno)
C:/Program Files (x86)/Atmel/Studio/7.0/Packs/atmel/ATmega_DFP/1.1.130/gcc/dev/atmega328p/avr5\libatmega328p.a(eerd_block.o)
                              src/main.o (eeprom_read_block)
C:/Program Files (x86)/Atmel/Studio/7.0/Packs/atmel/ATmega_DFP/1.1.130/gcc/dev/atmega328p/avr5\libatmega328p.a(eerd_byte.o)
                              src/main.o (eeprom_read_byte)
C:/Program Files (x86)/Atmel/Studio/7.0/Packs/atmel/ATmega_DFP/1.1.130/gcc/dev/atmega328p/avr5\libatmega328p.a(eewr_block.o)
                              src/main.o (eeprom_write_block)
C:/Program Files (x86)/Atmel/Studio/7.0/Packs/atmel/ATmega_DFP/1.1.130/gcc/dev/atmega328p/avr5\libatmega328p.a(eewr_byte.o)
                              src/main.o (eeprom_write_byte)
c:/program files (x86)/atmel/studio/7.0/toolchain/avr8/avr8-gnu-toolchain/bin/../lib/gcc/avr/5.4.0/avr5\libgcc.a(_mulshisi3.o)
                              c:/program files (x86)/atmel/studio/7.0/toolchain/avr8/avr8-gnu-toolchain/bin/../lib/gcc/avr/5.4.0/../../../../avr/lib/avr5\libc.a(random.o) (__mulohisi3)
c:/program files (x86)/atmel/studio/7.0/toolchain/avr8/avr8-gnu-toolchain/bin/../lib/gcc/avr/5.4.0/avr5\libgcc.a(_prologue.o)
                              c:/program files (x86)/atmel/studio/7.0/toolchain/avr8/avr8-gnu-toolchain/bin/../lib/gcc/avr/5.4.0/../../../../avr/lib/avr5\libc.a(realloc.o) (__prologue_saves__)
c:/program files (x86)/atmel/studio/7.0/toolchain/avr8/avr8-gnu-toolchain/bin/../lib/gcc/avr/5.4.0/avr5\libgcc.a(_epilogue.o)
                              c:/program files (x86)/atmel/studio/7.0/toolchain/avr8/avr8-gnu-toolchain/bin/../lib/gcc/avr/5.4.0/../../../../avr/lib/avr5\libc.a(realloc.o) (__epilogue_restores__)

Allocating common symbols
Common symbol       size              file

errno               0x2               c:/program files (x86)/atmel/studio/7.0/toolchain/avr8/avr8-gnu-toolchain/bin/../lib/gcc/avr/5.4.0/../../../../avr/lib/avr5\libc.a(errno.o)
__brkval            0x2               c:/program files (x86)/atmel/studio/7.0/toolchain/avr8/avr8-gnu-toolchain/bin/../lib/gcc/avr/5.4.0/../../../../avr/lib/avr5\libc.a(malloc.o)
__flp               0x2               c:/program files (x86)/atmel/studio/7.0/toolchain/avr8/avr8-gnu-toolchain/bin/../lib/gcc/avr/5.4.0/../../../../avr/lib/avr5\libc.a(malloc.o)

Discarded input sections

 .data          0x00000000        0x0 C:/Program Files (x86)/Atmel/Studio/7.0/Packs/atmel/ATmega_DFP/1.1.130/gcc/dev/atmega328p/avr5/crtatmega328p.o
 .bss           0x00000000        0x0 C:/Program Files (x86)/Atmel/Studio/7.0/Packs/atmel/ATmega_DFP/1.1.130/gcc/dev/atmega328p/avr5/crtatmega328p.o
 .text          0x00000000        0x0 src/arduino/abi.o
 .data          0x00000000        0x0 src/arduino/abi.o
 .bss           0x00000000        0x0 src/arduino/abi.o
 .text.__cxa_pure_virtual
                0x00000000        0x4 src/arduino/abi.o
 .text.__cxa_deleted_virtual
                0x00000000        0x4 src/arduino/abi.o
 .comment       0x00000000       0x31 src/arduino/abi.o
 .text          0x00000000        0x0 src/arduino/CDC.o
 .data          0x00000000        0x0 src/arduino/CDC.o
 .bss           0x00000000        0x0 src/arduino/CDC.o
 .comment       0x00000000       0x31 src/arduino/CDC.o
 .group         0x00000000        0x8 src/arduino/HardwareSerial.o
 .text          0x00000000        0x0 src/arduino/HardwareSerial.o
 .data          0x00000000        0x0 src/arduino/HardwareSerial.o
 .bss           0x00000000        0x0 src/arduino/HardwareSerial.o
Memory Configuration

Name             Origin             Length             Attributes
text             0x00000000         0x00020000         xr
data             0x00800060         0x0000ffa0         rw !x
eeprom           0x00810000         0x00010000         rw !x
fuse             0x00820000         0x00000003         rw !x
lock             0x00830000         0x00000400         rw !x
signature        0x00840000         0x00000400         rw !x
user_signatures  0x00850000         0x00000400         rw !x
*default*        0x00000000         0xffffffff

Linker script and memory map

Address of section .data set to 0x800100
LOAD C:/Program Files (x86)/Atmel/Studio/7.0/Packs/atmel/ATmega_DFP/1.1.130/gcc/dev/atmega328p/avr5/crtatmega328p.o
LOAD src/arduino/abi.o
LOAD src/arduino/CDC.o
LOAD src/arduino/HardwareSerial.o
LOAD src/arduino/HardwareSerial0.o
LOAD src/arduino/HardwareSerial1.o
LOAD src/arduino/HardwareSerial2.o
LOAD src/arduino/HardwareSerial3.o
LOAD src/arduino/hooks.o
LOAD src/arduino/IPAddress.o
LOAD src/arduino/new.o
LOAD src/arduino/PluggableUSB.o
LOAD src/arduino/Print.o
LOAD src/arduino/SPI.o
LOAD src/arduino/Stream.o
LOAD src/arduino/Tone.o
LOAD src/arduino/USBCore.o
LOAD src/arduino/WInterrupts.o
LOAD src/arduino/wiring.o
LOAD src/arduino/wiring_analog.o
LOAD src/arduino/wiring_digital.o
LOAD src/arduino/wiring_pulse.o
LOAD src/arduino/wiring_shift.o
LOAD src/arduino/WMath.o
LOAD src/arduino/WString.o
LOAD src/battery.o
LOAD src/circularbuffer.o
LOAD src/led.o
LOAD src/main.o
LOAD src/motors.o
LOAD src/mpu6050/I2Cdev.o
LOAD src/mpu6050/ic2.o
LOAD src/mpu6050/MPU6050.o
LOAD src/pidcontroller.o
LOAD src/rfm69/RFM69.o
LOAD src/rfm69/RFM69_ATC.o
LOAD src/steplimitfilter.o
START GROUP
LOAD c:/program files (x86)/atmel/studio/7.0/toolchain/avr8/avr8-gnu-toolchain/bin/../lib/gcc/avr/5.4.0/../../../../avr/lib/avr5\libm.a
END GROUP
LOAD c:/program files (x86)/atmel/studio/7.0/toolchain/avr8/avr8-gnu-toolchain/bin/../lib/gcc/avr/5.4.0/avr5\libgcc.a
LOAD c:/program files (x86)/atmel/studio/7.0/toolchain/avr8/avr8-gnu-toolchain/bin/../lib/gcc/avr/5.4.0/../../../../avr/lib/avr5\libm.a
START GROUP
LOAD c:/program files (x86)/atmel/studio/7.0/toolchain/avr8/avr8-gnu-toolchain/bin/../lib/gcc/avr/5.4.0/avr5\libgcc.a
LOAD c:/program files (x86)/atmel/studio/7.0/toolchain/avr8/avr8-gnu-toolchain/bin/../lib/gcc/avr/5.4.0/../../../../avr/lib/avr5\libm.a
LOAD c:/program files (x86)/atmel/studio/7.0/toolchain/avr8/avr8-gnu-toolchain/bin/../lib/gcc/avr/5.4.0/../../../../avr/lib/avr5\libc.a
LOAD C:/Program Files (x86)/Atmel/Studio/7.0/Packs/atmel/ATmega_DFP/1.1.130/gcc/dev/atmega328p/avr5\libatmega328p.a
END GROUP
                0x00020000                __TEXT_REGION_LENGTH__ = DEFINED (__TEXT_REGION_LENGTH__)?__TEXT_REGION_LENGTH__:0x20000
                0x0000ffa0                __DATA_REGION_LENGTH__ = DEFINED (__DATA_REGION_LENGTH__)?__DATA_REGION_LENGTH__:0xffa0
                0x00010000                __EEPROM_REGION_LENGTH__ = DEFINED (__EEPROM_REGION_LENGTH__)?__EEPROM_REGION_LENGTH__:0x10000
                [0x00000003]                __FUSE_REGION_LENGTH__ = DEFINED (__FUSE_REGION_LENGTH__)?__FUSE_REGION_LENGTH__:0x400
                0x00000400                __LOCK_REGION_LENGTH__ = DEFINED (__LOCK_REGION_LENGTH__)?__LOCK_REGION_LENGTH__:0x400
                0x00000400                __SIGNATURE_REGION_LENGTH__ = DEFINED (__SIGNATURE_REGION_LENGTH__)?__SIGNATURE_REGION_LENGTH__:0x400
                0x00000400                __USER_SIGNATURE_REGION_LENGTH__ = DEFINED (__USER_SIGNATURE_REGION_LENGTH__)?__USER_SIGNATURE_REGION_LENGTH__:0x400

.hash
 *(.hash)

.dynsym
 *(.dynsym)

.dynstr
 *(.dynstr)

.gnu.version
 *(.gnu.version)

.gnu.version_d
 *(.gnu.version_d)

.gnu.version_r
 *(.gnu.version_r)

.rel.init
 *(.rel.init)

.rela.init
 *(.rela.init)

.rel.text
 *(.rel.text)
 *(.rel.text.*)
 *(.rel.gnu.linkonce.t*)

.rela.text
 *(.rela.text)
 *(.rela.text.*)
 *(.rela.gnu.linkonce.t*)

.rel.fini
 *(.rel.fini)

.rela.fini
 *(.rela.fini)

.rel.rodata
 *(.rel.rodata)
 *(.rel.rodata.*)
 *(.rel.gnu.linkonce.r*)

.rela.rodata
 *(.rela.rodata)
 *(.rela.rodata.*)
 *(.rela.gnu.linkonce.r*)

.rel.data
 *(.rel.data)
 *(.rel.data.*)
 *(.rel.gnu.linkonce.d*)

.rela.data
 *(.rela.data)
 *(.rela.data.*)
 *(.rela.gnu.linkonce.d*)

.rel.ctors
 *(.rel.ctors)

.rela.ctors
 *(.rela.ctors)

.rel.dtors
 *(.rel.dtors)

.rela.dtors
 *(.rela.dtors)

.rel.got
 *(.rel.got)

.rela.got
 *(.rela.got)

.rel.bss
 *(.rel.bss)

.rela.bss
 *(.rela.bss)

.rel.plt
 *(.rel.plt)

.rela.plt
 *(.rela.plt)

.text           0x00000000     0x532e
 *(.vectors)
 .vectors       0x00000000       0x68 C:/Program Files (x86)/Atmel/Studio/7.0/Packs/atmel/ATmega_DFP/1.1.130/gcc/dev/atmega328p/avr5/crtatmega328p.o
                0x00000000                __vector_default
                0x00000000                __vectors
 *(.vectors)
 *(.progmem.gcc*)
 .progmem.gcc_fplib
                0x00000068       0x2d c:/program files (x86)/atmel/studio/7.0/toolchain/avr8/avr8-gnu-toolchain/bin/../lib/gcc/avr/5.4.0/../../../../avr/lib/avr5\libm.a(atan.o)
                0x00000096                . = ALIGN (0x2)
 *fill*         0x00000095        0x1 
                0x00000096                __trampolines_start = .
 *(.trampolines)
 .trampolines   0x00000096        0x0 linker stubs
 *(.trampolines*)
                0x00000096                __trampolines_end = .
 *libprintf_flt.a:*(.progmem.data)
 *libc.a:*(.progmem.data)
 *(.progmem*)
 .progmem.data._ZL21tone_pin_to_timer_PGM
                0x00000096        0x1 src/arduino/Tone.o
 .progmem.data.digital_pin_to_timer_PGM
                0x00000097       0x14 src/arduino/wiring_digital.o
                0x00000097                digital_pin_to_timer_PGM
 .progmem.data.digital_pin_to_bit_mask_PGM
                0x000000ab       0x14 src/arduino/wiring_digital.o
                0x000000ab                digital_pin_to_bit_mask_PGM
 .progmem.data.digital_pin_to_port_PGM
                0x000000bf       0x14 src/arduino/wiring_digital.o
                0x000000bf                digital_pin_to_port_PGM
 .progmem.data.port_to_input_PGM
                0x000000d3        0xa src/arduino/wiring_digital.o
                0x000000d3                port_to_input_PGM
 .progmem.data.port_to_output_PGM
                0x000000dd        0xa src/arduino/wiring_digital.o
                0x000000dd                port_to_output_PGM
 .progmem.data.port_to_mode_PGM
                0x000000e7        0xa src/arduino/wiring_digital.o
                0x000000e7                port_to_mode_PGM
                0x000000f2                . = ALIGN (0x2)
 *fill*         0x000000f1        0x1 
 *(.jumptables)
 *(.jumptables*)
 *(.lowtext)
 *(.lowtext*)
                0x000000f2                __ctors_start = .
 *(.ctors)
 .ctors         0x000000f2        0x2 src/arduino/HardwareSerial0.o
 .ctors         0x000000f4        0x2 src/main.o
                0x000000f6                __ctors_end = .
                0x000000f6                __dtors_start = .
 *(.dtors)
                0x000000f6                __dtors_end = .
 SORT(*)(.ctors)
 SORT(*)(.dtors)
 *(.init0)
 .init0         0x000000f6        0x0 C:/Program Files (x86)/Atmel/Studio/7.0/Packs/atmel/ATmega_DFP/1.1.130/gcc/dev/atmega328p/avr5/crtatmega328p.o
                0x000000f6                __init
 *(.init0)
 *(.init1)
 *(.init1)
 *(.init2)
 .init2         0x000000f6        0xc C:/Program Files (x86)/Atmel/Studio/7.0/Packs/atmel/ATmega_DFP/1.1.130/gcc/dev/atmega328p/avr5/crtatmega328p.o
 *(.init2)
 *(.init3)
 *(.init3)
 *(.init4)
 .init4         0x00000102       0x16 c:/program files (x86)/atmel/studio/7.0/toolchain/avr8/avr8-gnu-toolchain/bin/../lib/gcc/avr/5.4.0/avr5\libgcc.a(_copy_data.o)
                0x00000102                __do_copy_data
 .init4         0x00000118       0x10 c:/program files (x86)/atmel/studio/7.0/toolchain/avr8/avr8-gnu-toolchain/bin/../lib/gcc/avr/5.4.0/avr5\libgcc.a(_clear_bss.o)
                0x00000118                __do_clear_bss
 *(.init4)
 *(.init5)
 *(.init5)
 *(.init6)
 .init6         0x00000128       0x16 c:/program files (x86)/atmel/studio/7.0/toolchain/avr8/avr8-gnu-toolchain/bin/../lib/gcc/avr/5.4.0/avr5\libgcc.a(_ctors.o)
                0x00000128                __do_global_ctors
 *(.init6)
 *(.init7)
 *(.init7)
 *(.init8)
 *(.init8)
 *(.init9)
 .init9         0x0000013e        0x8 C:/Program Files (x86)/Atmel/Studio/7.0/Packs/atmel/ATmega_DFP/1.1.130/gcc/dev/atmega328p/avr5/crtatmega328p.o
 *(.init9)
 *(.text)
 .text          0x00000146        0x4 C:/Program Files (x86)/Atmel/Studio/7.0/Packs/atmel/ATmega_DFP/1.1.130/gcc/dev/atmega328p/avr5/crtatmega328p.o
                0x00000146                __vector_22
                0x00000146                __vector_24
                0x00000146                __vector_12
                0x00000146                __bad_interrupt
                0x00000146                __vector_6
                0x00000146                __vector_3
                0x00000146                __vector_23
                0x00000146                __vector_25
                0x00000146                __vector_11
                0x00000146                __vector_13
                0x00000146                __vector_17
                0x00000146                __vector_5
                0x00000146                __vector_4
                0x00000146                __vector_9
                0x00000146                __vector_21
                0x00000146                __vector_15
                0x00000146                __vector_8
                0x00000146                __vector_14
                0x00000146                __vector_10
                0x00000146                __vector_20
                0x0000014a                . = ALIGN (0x2)
 *(.text.*)
 .text._ZN14HardwareSerial9availableEv
                0x0000014a       0x18 src/arduino/HardwareSerial.o
                0x0000014a                _ZN14HardwareSerial9availableEv
 .text._ZN14HardwareSerial4peekEv
                0x00000162       0x1c src/arduino/HardwareSerial.o
                0x00000162                _ZN14HardwareSerial4peekEv
 .text._ZN14HardwareSerial4readEv
                0x0000017e       0x28 src/arduino/HardwareSerial.o
                0x0000017e                _ZN14HardwareSerial4readEv
 .text._ZN14HardwareSerial17availableForWriteEv
                0x000001a6       0x24 src/arduino/HardwareSerial.o
                0x000001a6                _ZN14HardwareSerial17availableForWriteEv
 .text._ZN14HardwareSerial5flushEv
                0x000001ca       0xa4 src/arduino/HardwareSerial.o
                0x000001ca                _ZN14HardwareSerial5flushEv
 .text._ZN14HardwareSerial5writeEh
                0x0000026e       0xba src/arduino/HardwareSerial.o
                0x0000026e                _ZN14HardwareSerial5writeEh
 .text._ZN14HardwareSerial17_tx_udr_empty_irqEv
                0x00000328       0x42 src/arduino/HardwareSerial.o
                0x00000328                _ZN14HardwareSerial17_tx_udr_empty_irqEv
 .text.__vector_18
                0x0000036a       0x64 src/arduino/HardwareSerial0.o
                0x0000036a                __vector_18
 .text.__vector_19
                0x000003ce       0x4c src/arduino/HardwareSerial0.o
                0x000003ce                __vector_19
 .text.startup._GLOBAL__sub_I___vector_18
                0x0000041a       0x5a src/arduino/HardwareSerial0.o
 .text._ZN5Print5writeEPKhj
                0x00000474       0x5e src/arduino/Print.o
                0x00000474                _ZN5Print5writeEPKhj
 .text._ZN8SPIClass5beginEv
                0x000004d2       0x6e src/arduino/SPI.o
                0x000004d2                _ZN8SPIClass5beginEv
 .text.__vector_7
                0x00000540      0x102 src/arduino/Tone.o
                0x00000540                __vector_7
 .text.nothing  0x00000642        0x2 src/arduino/WInterrupts.o
 .text.attachInterrupt
                0x00000644       0x42 src/arduino/WInterrupts.o
                0x00000644                attachInterrupt
 .text.__vector_1
                0x00000686       0x4e src/arduino/WInterrupts.o
                0x00000686                __vector_1
 .text.__vector_2
                0x000006d4       0x4e src/arduino/WInterrupts.o
                0x000006d4                __vector_2
 .text.__vector_16
                0x00000722       0xa8 src/arduino/wiring.o
                0x00000722                __vector_16
 .text.micros   0x000007ca       0x18 src/arduino/wiring.o
                0x000007ca                micros
 .text.millis   0x000007e2       0x18 src/arduino/wiring.o
                0x000007e2                millis
 .text.init     0x000007fa       0x76 src/arduino/wiring.o
                0x000007fa                init
 .text.pinMode  0x00000870       0x82 src/arduino/wiring_digital.o
                0x00000870                pinMode
 .text.digitalWrite
                0x000008f2       0xac src/arduino/wiring_digital.o
                0x000008f2                digitalWrite
 .text.digitalRead
                0x0000099e       0xa2 src/arduino/wiring_digital.o
                0x0000099e                digitalRead
 .text._Z18initBatteryMonitorv
                0x00000a40       0x34 src/battery.o
                0x00000a40                _Z18initBatteryMonitorv
 .text._Z20handleBatteryMonitorj
                0x00000a74      0x116 src/battery.o
                0x00000a74                _Z20handleBatteryMonitorj
 .text._Z20getBatteryMillivoltsv
                0x00000b8a        0xa src/battery.o
                0x00000b8a                _Z20getBatteryMillivoltsv
 .text._ZN14CircularBufferC2Eh
                0x00000b94       0x36 src/circularbuffer.o
                0x00000b94                _ZN14CircularBufferC2Eh
                0x00000b94                _ZN14CircularBufferC1Eh
 .text._Z7initLEDv
                0x00000bca        0x6 src/led.o
                0x00000bca                _Z7initLEDv
 .text._Z12ledFlashSlowh
                0x00000bd0       0x2c src/led.o
                0x00000bd0                _Z12ledFlashSlowh
 .text._Z12ledFlashFasth
                0x00000bfc       0x2c src/led.o
                0x00000bfc                _Z12ledFlashFasth
 .text._Z5ledOnv
                0x00000c28        0x4 src/led.o
                0x00000c28                _Z5ledOnv
 .text._Z3ledb  0x00000c2c        0xc src/led.o
                0x00000c2c                _Z3ledb
 .text._Z12handleFlightj
                0x00000c38      0x6f4 src/main.o
                0x00000c38                _Z12handleFlightj
 .text._Z12calibrateIMUv
                0x0000132c      0x22c src/main.o
                0x0000132c                _Z12calibrateIMUv
 .text._Z20loadParamsFromEEPROMv
                0x00001558      0x25a src/main.o
                0x00001558                _Z20loadParamsFromEEPROMv
 .text._Z18saveParamsToEEPROMv
                0x000017b2      0x23e src/main.o
                0x000017b2                _Z18saveParamsToEEPROMv
 .text._Z31loadCalibrationParamsFromEEPROMv
                0x000019f0       0x7e src/main.o
                0x000019f0                _Z31loadCalibrationParamsFromEEPROMv
 .text._Z19resetPIDControllersv
                0x00001a6e       0x28 src/main.o
                0x00001a6e                _Z19resetPIDControllersv
 .text._Z14copyParamsFromhPh
                0x00001a96      0x2a6 src/main.o
                0x00001a96                _Z14copyParamsFromhPh
 .text._Z12copyParamsTohPh
                0x00001d3c      0x31e src/main.o
                0x00001d3c                _Z12copyParamsTohPh
 .text.startup._GLOBAL__sub_I_rfm
                0x0000205a       0x48 src/main.o
 .text._Z13handleIMUTestj.part.3
                0x000020a2      0x1f2 src/main.o
 .text.startup.main
                0x00002294      0x33c src/main.o
                0x00002294                main
 .text._Z10initMotorsv
                0x000025d0       0xe0 src/motors.o
                0x000025d0                _Z10initMotorsv
 .text._Z14setMotor1Speedi
                0x000026b0       0x1c src/motors.o
                0x000026b0                _Z14setMotor1Speedi
 .text._Z14setMotor2Speedi
                0x000026cc       0x1c src/motors.o
                0x000026cc                _Z14setMotor2Speedi
 .text._Z14setMotor3Speedi
                0x000026e8       0x20 src/motors.o
                0x000026e8                _Z14setMotor3Speedi
 .text._Z14setMotor4Speedi
                0x00002708       0x28 src/motors.o
                0x00002708                _Z14setMotor4Speedi
 .text._ZN8Fastwire7readBufEhhPhh.constprop.2
                0x00002730      0x16a src/mpu6050/I2Cdev.o
 .text._ZN6I2Cdev8writeBitEhhhh
                0x0000289a      0x124 src/mpu6050/I2Cdev.o
                0x0000289a                _ZN6I2Cdev8writeBitEhhhh
 .text._ZN6I2Cdev9writeBitsEhhhhh
                0x000029be      0x14e src/mpu6050/I2Cdev.o
                0x000029be                _ZN6I2Cdev9writeBitsEhhhhh
 .text._ZN8Fastwire5setupEib
                0x00002b0c       0x26 src/mpu6050/I2Cdev.o
                0x00002b0c                _ZN8Fastwire5setupEib
 .text._ZN8Fastwire7readBufEhhPhh
                0x00002b32      0x18c src/mpu6050/I2Cdev.o
                0x00002b32                _ZN8Fastwire7readBufEhhPhh
 .text._ZN6I2Cdev9readBytesEhhhPhj
                0x00002cbe       0x1c src/mpu6050/I2Cdev.o
                0x00002cbe                _ZN6I2Cdev9readBytesEhhhPhj
 .text._ZN7MPU6050C2Ev
                0x00002cda        0x8 src/mpu6050/MPU6050.o
                0x00002cda                _ZN7MPU6050C2Ev
                0x00002cda                _ZN7MPU6050C1Ev
 .text._ZN7MPU605010initializeEv
                0x00002ce2       0x52 src/mpu6050/MPU6050.o
                0x00002ce2                _ZN7MPU605010initializeEv
 .text._ZN7MPU605015getAccelerationEPiS0_S0_
                0x00002d34       0x7a src/mpu6050/MPU6050.o
                0x00002d34                _ZN7MPU605015getAccelerationEPiS0_S0_
 .text._ZN7MPU605011getRotationEPiS0_S0_
                0x00002dae       0x7a src/mpu6050/MPU6050.o
                0x00002dae                _ZN7MPU605011getRotationEPiS0_S0_
 .text._ZN13PIDControllerC2Ev
                0x00002e28       0x2c src/pidcontroller.o
                0x00002e28                _ZN13PIDControllerC1Ev
                0x00002e28                _ZN13PIDControllerC2Ev
 .text._ZN13PIDController6updateEff
                0x00002e54      0x166 src/pidcontroller.o
                0x00002e54                _ZN13PIDController6updateEff
 .text._ZN13PIDController5resetEv
                0x00002fba       0x1c src/pidcontroller.o
                0x00002fba                _ZN13PIDController5resetEv
 .text._ZN5RFM6913interruptHookEh
                0x00002fd6        0x2 src/rfm69/RFM69.o
                0x00002fd6                _ZN5RFM6913interruptHookEh
 .text._ZN5RFM694isr0Ev
                0x00002fd8       0x22 src/rfm69/RFM69.o
                0x00002fd8                _ZN5RFM694isr0Ev
 .text._ZN5RFM696selectEv
                0x00002ffa       0x2c src/rfm69/RFM69.o
                0x00002ffa                _ZN5RFM696selectEv
 .text._ZN5RFM698unselectEv
                0x00003026       0x26 src/rfm69/RFM69.o
                0x00003026                _ZN5RFM698unselectEv
 .text._ZN5RFM69C2Ehhb
                0x0000304c       0x1e src/rfm69/RFM69.o
                0x0000304c                _ZN5RFM69C1Ehhb
                0x0000304c                _ZN5RFM69C2Ehhb
 .text._ZN5RFM6912ACKRequestedEv
                0x0000306a       0x18 src/rfm69/RFM69.o
                0x0000306a                _ZN5RFM6912ACKRequestedEv
 .text._ZN5RFM697readRegEh
                0x00003082       0xac src/rfm69/RFM69.o
                0x00003082                _ZN5RFM697readRegEh
 .text._ZN5RFM6913setPowerLevelEh
                0x0000312e       0xc6 src/rfm69/RFM69.o
                0x0000312e                _ZN5RFM6913setPowerLevelEh
 .text._ZN5RFM698writeRegEhh
                0x000031f4       0xae src/rfm69/RFM69.o
                0x000031f4                _ZN5RFM698writeRegEhh
 .text._ZN5RFM6916setHighPowerRegsEb
                0x000032a2       0xce src/rfm69/RFM69.o
                0x000032a2                _ZN5RFM6916setHighPowerRegsEb
 .text._ZN5RFM6912setHighPowerEb
                0x00003370       0xd8 src/rfm69/RFM69.o
                0x00003370                _ZN5RFM6912setHighPowerEb
 .text._ZN5RFM697setModeEh
                0x00003448      0x146 src/rfm69/RFM69.o
                0x00003448                _ZN5RFM697setModeEh
 .text._ZN5RFM6913sendWithRetryEhPKvhhh
                0x0000358e      0x2d6 src/rfm69/RFM69.o
                0x0000358e                _ZN5RFM6913sendWithRetryEhPKvhhh
 .text._ZN5RFM6912receiveBeginEv
                0x00003864       0xe0 src/rfm69/RFM69.o
                0x00003864                _ZN5RFM6912receiveBeginEv
 .text._ZN5RFM694sendEhPKvhb
                0x00003944      0x2a8 src/rfm69/RFM69.o
                0x00003944                _ZN5RFM694sendEhPKvhb
 .text._ZN5RFM697sendACKEPKvh
                0x00003bec      0x2ce src/rfm69/RFM69.o
                0x00003bec                _ZN5RFM697sendACKEPKvh
 .text._ZN5RFM697canSendEv
                0x00003eba       0x94 src/rfm69/RFM69.o
                0x00003eba                _ZN5RFM697canSendEv
 .text._ZN5RFM699sendFrameEhPKvhbb
                0x00003f4e      0x2b4 src/rfm69/RFM69.o
                0x00003f4e                _ZN5RFM699sendFrameEhPKvhbb
 .text._ZN5RFM6916interruptHandlerEv
                0x00004202      0x38a src/rfm69/RFM69.o
                0x00004202                _ZN5RFM6916interruptHandlerEv
 .text._ZN5RFM6910initializeEhhh
                0x0000458c      0x3c2 src/rfm69/RFM69.o
                0x0000458c                _ZN5RFM6910initializeEhhh
 .text._ZN5RFM6911receiveDoneEv
                0x0000494e       0xa0 src/rfm69/RFM69.o
                0x0000494e                _ZN5RFM6911receiveDoneEv
 .text.avr-libc.fplib
                0x000049ee        0xe c:/program files (x86)/atmel/studio/7.0/toolchain/avr8/avr8-gnu-toolchain/bin/../lib/gcc/avr/5.4.0/../../../../avr/lib/avr5\libm.a(addsf3.o)
                0x000049ee                __subsf3
                0x000049f0                __addsf3
 .text.avr-libc.fplib
                0x000049fc       0xcc c:/program files (x86)/atmel/studio/7.0/toolchain/avr8/avr8-gnu-toolchain/bin/../lib/gcc/avr/5.4.0/../../../../avr/lib/avr5\libm.a(addsf3x.o)
                0x00004a1e                __addsf3x
 .text.avr-libc.fplib
                0x00004ac8       0x86 c:/program files (x86)/atmel/studio/7.0/toolchain/avr8/avr8-gnu-toolchain/bin/../lib/gcc/avr/5.4.0/../../../../avr/lib/avr5\libm.a(atan2.o)
                0x00004aee                atan2
 .text.avr-libc.fplib
                0x00004b4e       0x5e c:/program files (x86)/atmel/studio/7.0/toolchain/avr8/avr8-gnu-toolchain/bin/../lib/gcc/avr/5.4.0/../../../../avr/lib/avr5\libm.a(atan.o)
                0x00004b4e                atan
 .text.avr-libc.fplib
                0x00004bac        0xa c:/program files (x86)/atmel/studio/7.0/toolchain/avr8/avr8-gnu-toolchain/bin/../lib/gcc/avr/5.4.0/../../../../avr/lib/avr5\libm.a(cmpsf2.o)
                0x00004bac                __nesf2
                0x00004bac                __eqsf2
                0x00004bac                __cmpsf2
                0x00004bac                __ltsf2
                0x00004bac                __lesf2
 .text.avr-libc.fplib
                0x00004bb6        0x8 c:/program files (x86)/atmel/studio/7.0/toolchain/avr8/avr8-gnu-toolchain/bin/../lib/gcc/avr/5.4.0/../../../../avr/lib/avr5\libm.a(divsf3.o)
                0x00004bb6                __divsf3
 .text.avr-libc.fplib
                0x00004bbe       0xdc c:/program files (x86)/atmel/studio/7.0/toolchain/avr8/avr8-gnu-toolchain/bin/../lib/gcc/avr/5.4.0/../../../../avr/lib/avr5\libm.a(divsf3x.o)
                0x00004bde                __divsf3x
                0x00004be4                __divsf3_pse
 .text.avr-libc.fplib
                0x00004c9a        0xe c:/program files (x86)/atmel/studio/7.0/toolchain/avr8/avr8-gnu-toolchain/bin/../lib/gcc/avr/5.4.0/../../../../avr/lib/avr5\libm.a(fixsfsi.o)
                0x00004c9a                __fixsfsi
 .text.avr-libc.fplib
                0x00004ca8       0x5e c:/program files (x86)/atmel/studio/7.0/toolchain/avr8/avr8-gnu-toolchain/bin/../lib/gcc/avr/5.4.0/../../../../avr/lib/avr5\libm.a(fixunssfsi.o)
                0x00004ca8                __fixunssfsi
 .text.avr-libc.fplib
                0x00004d06       0x7a c:/program files (x86)/atmel/studio/7.0/toolchain/avr8/avr8-gnu-toolchain/bin/../lib/gcc/avr/5.4.0/../../../../avr/lib/avr5\libm.a(floatsisf.o)
                0x00004d06                __floatunsisf
                0x00004d0a                __floatsisf
 .text.avr-libc.fplib
                0x00004d80       0x48 c:/program files (x86)/atmel/studio/7.0/toolchain/avr8/avr8-gnu-toolchain/bin/../lib/gcc/avr/5.4.0/../../../../avr/lib/avr5\libm.a(fp_cmp.o)
                0x00004d80                __fp_cmp
 .text.avr-libc.fplib
                0x00004dc8        0xc c:/program files (x86)/atmel/studio/7.0/toolchain/avr8/avr8-gnu-toolchain/bin/../lib/gcc/avr/5.4.0/../../../../avr/lib/avr5\libm.a(fp_inf.o)
                0x00004dc8                __fp_inf
 .text.avr-libc.fplib
                0x00004dd4        0x6 c:/program files (x86)/atmel/studio/7.0/toolchain/avr8/avr8-gnu-toolchain/bin/../lib/gcc/avr/5.4.0/../../../../avr/lib/avr5\libm.a(fp_nan.o)
                0x00004dd4                __fp_nan
 .text.avr-libc.fplib
                0x00004dda       0x4e c:/program files (x86)/atmel/studio/7.0/toolchain/avr8/avr8-gnu-toolchain/bin/../lib/gcc/avr/5.4.0/../../../../avr/lib/avr5\libm.a(fp_powser.o)
                0x00004dda                __fp_powser
 .text.avr-libc.fplib
                0x00004e28        0xe c:/program files (x86)/atmel/studio/7.0/toolchain/avr8/avr8-gnu-toolchain/bin/../lib/gcc/avr/5.4.0/../../../../avr/lib/avr5\libm.a(fp_pscA.o)
                0x00004e28                __fp_pscA
 .text.avr-libc.fplib
                0x00004e36        0xe c:/program files (x86)/atmel/studio/7.0/toolchain/avr8/avr8-gnu-toolchain/bin/../lib/gcc/avr/5.4.0/../../../../avr/lib/avr5\libm.a(fp_pscB.o)
                0x00004e36                __fp_pscB
 .text.avr-libc.fplib
                0x00004e44       0x22 c:/program files (x86)/atmel/studio/7.0/toolchain/avr8/avr8-gnu-toolchain/bin/../lib/gcc/avr/5.4.0/../../../../avr/lib/avr5\libm.a(fp_round.o)
                0x00004e44                __fp_round
 .text.avr-libc.fplib
                0x00004e66       0x44 c:/program files (x86)/atmel/studio/7.0/toolchain/avr8/avr8-gnu-toolchain/bin/../lib/gcc/avr/5.4.0/../../../../avr/lib/avr5\libm.a(fp_split3.o)
                0x00004e66                __fp_split3
                0x00004e76                __fp_splitA
 .text.avr-libc.fplib
                0x00004eaa        0xe c:/program files (x86)/atmel/studio/7.0/toolchain/avr8/avr8-gnu-toolchain/bin/../lib/gcc/avr/5.4.0/../../../../avr/lib/avr5\libm.a(fp_zero.o)
                0x00004eaa                __fp_zero
                0x00004eac                __fp_szero
 .text.avr-libc.fplib
                0x00004eb8        0xa c:/program files (x86)/atmel/studio/7.0/toolchain/avr8/avr8-gnu-toolchain/bin/../lib/gcc/avr/5.4.0/../../../../avr/lib/avr5\libm.a(gesf2.o)
                0x00004eb8                __gesf2
                0x00004eb8                __gtsf2
 .text.avr-libc.fplib
                0x00004ec2       0x10 c:/program files (x86)/atmel/studio/7.0/toolchain/avr8/avr8-gnu-toolchain/bin/../lib/gcc/avr/5.4.0/../../../../avr/lib/avr5\libm.a(inverse.o)
                0x00004ec2                inverse
 .text.avr-libc.fplib
                0x00004ed2        0x8 c:/program files (x86)/atmel/studio/7.0/toolchain/avr8/avr8-gnu-toolchain/bin/../lib/gcc/avr/5.4.0/../../../../avr/lib/avr5\libm.a(mulsf3.o)
                0x00004ed2                __mulsf3
 .text.avr-libc.fplib
                0x00004eda       0xd2 c:/program files (x86)/atmel/studio/7.0/toolchain/avr8/avr8-gnu-toolchain/bin/../lib/gcc/avr/5.4.0/../../../../avr/lib/avr5\libm.a(mulsf3x.o)
                0x00004ef8                __mulsf3x
                0x00004efe                __mulsf3_pse
 .text.avr-libc.fplib
                0x00004fac        0x8 c:/program files (x86)/atmel/studio/7.0/toolchain/avr8/avr8-gnu-toolchain/bin/../lib/gcc/avr/5.4.0/../../../../avr/lib/avr5\libm.a(square.o)
                0x00004fac                square
 .text.libgcc.div
                0x00004fb4       0x28 c:/program files (x86)/atmel/studio/7.0/toolchain/avr8/avr8-gnu-toolchain/bin/../lib/gcc/avr/5.4.0/avr5\libgcc.a(_divmodhi4.o)
                0x00004fb4                _div
                0x00004fb4                __divmodhi4
 .text.libgcc.div
                0x00004fdc       0x44 c:/program files (x86)/atmel/studio/7.0/toolchain/avr8/avr8-gnu-toolchain/bin/../lib/gcc/avr/5.4.0/avr5\libgcc.a(_udivmodsi4.o)
                0x00004fdc                __udivmodsi4
 .text.libgcc.mul
                0x00005020       0x1e c:/program files (x86)/atmel/studio/7.0/toolchain/avr8/avr8-gnu-toolchain/bin/../lib/gcc/avr/5.4.0/avr5\libgcc.a(_umulhisi3.o)
                0x00005020                __umulhisi3
 .text.libgcc.mul
                0x0000503e       0x16 c:/program files (x86)/atmel/studio/7.0/toolchain/avr8/avr8-gnu-toolchain/bin/../lib/gcc/avr/5.4.0/avr5\libgcc.a(_muluhisi3.o)
                0x0000503e                __muluhisi3
 .text.libgcc.div
                0x00005054       0x28 c:/program files (x86)/atmel/studio/7.0/toolchain/avr8/avr8-gnu-toolchain/bin/../lib/gcc/avr/5.4.0/avr5\libgcc.a(_udivmodhi4.o)
                0x00005054                __udivmodhi4
 .text.libgcc   0x0000507c        0xc c:/program files (x86)/atmel/studio/7.0/toolchain/avr8/avr8-gnu-toolchain/bin/../lib/gcc/avr/5.4.0/avr5\libgcc.a(_tablejump2.o)
                0x0000507c                __tablejump2__
 .text.avr-libc
                0x00005088      0x242 c:/program files (x86)/atmel/studio/7.0/toolchain/avr8/avr8-gnu-toolchain/bin/../lib/gcc/avr/5.4.0/../../../../avr/lib/avr5\libc.a(malloc.o)
                0x00005088                malloc
                0x000051b8                free
 .text.avr-libc
                0x000052ca       0x20 C:/Program Files (x86)/Atmel/Studio/7.0/Packs/atmel/ATmega_DFP/1.1.130/gcc/dev/atmega328p/avr5\libatmega328p.a(eerd_block.o)
                0x000052ca                eeprom_read_block
                0x000052ce                eeprom_read_blraw
 .text.avr-libc
                0x000052ea       0x10 C:/Program Files (x86)/Atmel/Studio/7.0/Packs/atmel/ATmega_DFP/1.1.130/gcc/dev/atmega328p/avr5\libatmega328p.a(eerd_byte.o)
                0x000052ea                eeprom_read_byte
 .text.avr-libc
                0x000052fa       0x14 C:/Program Files (x86)/Atmel/Studio/7.0/Packs/atmel/ATmega_DFP/1.1.130/gcc/dev/atmega328p/avr5\libatmega328p.a(eewr_block.o)
                0x000052fa                eeprom_write_block
 .text.avr-libc
                0x0000530e       0x1c C:/Program Files (x86)/Atmel/Studio/7.0/Packs/atmel/ATmega_DFP/1.1.130/gcc/dev/atmega328p/avr5\libatmega328p.a(eewr_byte.o)
                0x0000530e                eeprom_write_byte
                0x00005310                eeprom_write_r18
                0x0000532a                . = ALIGN (0x2)
 *(.fini9)
 .fini9         0x0000532a        0x0 c:/program files (x86)/atmel/studio/7.0/toolchain/avr8/avr8-gnu-toolchain/bin/../lib/gcc/avr/5.4.0/avr5\libgcc.a(_exit.o)
                0x0000532a                _exit
                0x0000532a                exit
 *(.fini9)
 *(.fini8)
 *(.fini8)
 *(.fini7)
 *(.fini7)
 *(.fini6)
 *(.fini6)
 *(.fini5)
 *(.fini5)
 *(.fini4)
 *(.fini4)
 *(.fini3)
 *(.fini3)
 *(.fini2)
 *(.fini2)
 *(.fini1)
 *(.fini1)
 *(.fini0)
 .fini0         0x0000532a        0x4 c:/program files (x86)/atmel/studio/7.0/toolchain/avr8/avr8-gnu-toolchain/bin/../lib/gcc/avr/5.4.0/avr5\libgcc.a(_exit.o)
 *(.fini0)
                0x0000532e                _etext = .

.data           0x00800100       0x46 load address 0x0000532e
                0x00800100                PROVIDE (__data_start, .)
 *(.data)
 .data          0x00800100        0x6 c:/program files (x86)/atmel/studio/7.0/toolchain/avr8/avr8-gnu-toolchain/bin/../lib/gcc/avr/5.4.0/../../../../avr/lib/avr5\libc.a(malloc.o)
                0x00800100                __malloc_heap_end
                0x00800102                __malloc_heap_start
                0x00800104                __malloc_margin
 *(.data*)
 .data._ZL9tone_pins
                0x00800106        0x1 src/arduino/Tone.o
 .data.intFunc  0x00800107        0x4 src/arduino/WInterrupts.o
 .data._ZL4secs
                0x0080010b        0x2 src/battery.o
 .data.maxThrust
                0x0080010d        0x1 src/main.o
                0x0080010d                maxThrust
 .data.yawThrust
                0x0080010e        0x1 src/main.o
                0x0080010e                yawThrust
 .data.rollThrust
                0x0080010f        0x1 src/main.o
                0x0080010f                rollThrust
 .data.pitchThrust
                0x00800110        0x1 src/main.o
                0x00800110                pitchThrust
 .data._ZN6I2Cdev11readTimeoutE
                0x00800111        0x2 src/mpu6050/I2Cdev.o
                0x00800111                _ZN6I2Cdev11readTimeoutE
 *(.gnu.linkonce.d*)
 *(.rodata)
 *(.rodata*)
 .rodata._ZTV14HardwareSerial
                0x00800113       0x12 src/arduino/HardwareSerial.o
                0x00800113                _ZTV14HardwareSerial
 .rodata.str1.1
                0x00800125        0x1 src/main.o
 .rodata._ZTV5RFM69
                0x00800126       0x20 src/rfm69/RFM69.o
                0x00800126                _ZTV5RFM69
 *(.gnu.linkonce.r*)
                0x00800146                . = ALIGN (0x2)
                0x00800146                _edata = .
                0x00800146                PROVIDE (__data_end, .)

.bss            0x00800146      0x205
                0x00800146                PROVIDE (__bss_start, .)
 *(.bss)
 *(.bss*)
 .bss.Serial    0x00800146       0x9d src/arduino/HardwareSerial0.o
                0x00800146                Serial
 .bss._ZN8SPIClass11initializedE
                0x008001e3        0x1 src/arduino/SPI.o
                0x008001e3                _ZN8SPIClass11initializedE
 .bss.timer2_pin_mask
                0x008001e4        0x1 src/arduino/Tone.o
                0x008001e4                timer2_pin_mask
 .bss.timer2_pin_port
                0x008001e5        0x2 src/arduino/Tone.o
                0x008001e5                timer2_pin_port
 .bss.timer2_toggle_count
                0x008001e7        0x4 src/arduino/Tone.o
                0x008001e7                timer2_toggle_count
 .bss.millisCount
                0x008001eb        0x4 src/arduino/wiring.o
 .bss.milliAccum
                0x008001ef        0x2 src/arduino/wiring.o
 .bss.microsCount
                0x008001f1        0x4 src/arduino/wiring.o
 .bss._ZL5msecs
                0x008001f5        0x2 src/battery.o
 .bss._ZL5usecs
                0x008001f7        0x2 src/battery.o
 .bss._ZL10lowBattery
                0x008001f9        0x1 src/battery.o
 .bss._ZL17batteryMillivolts
                0x008001fa        0x4 src/battery.o
 .bss.oneMinusCompFilterAlpha
                0x008001fe        0x4 src/main.o
                0x008001fe                oneMinusCompFilterAlpha
 .bss.compFilterAlpha
                0x00800202        0x4 src/main.o
                0x00800202                compFilterAlpha
 .bss.yawDemandGain
                0x00800206        0x4 src/main.o
                0x00800206                yawDemandGain
 .bss.rollDemandGain
                0x0080020a        0x4 src/main.o
                0x0080020a                rollDemandGain
 .bss.pitchDemandGain
                0x0080020e        0x4 src/main.o
                0x0080020e                pitchDemandGain
 .bss.rollTrim  0x00800212        0x4 src/main.o
                0x00800212                rollTrim
 .bss.pitchTrim
                0x00800216        0x4 src/main.o
                0x00800216                pitchTrim
 .bss.yawRatePID
                0x0080021a       0x1c src/main.o
                0x0080021a                yawRatePID
 .bss.rollRatePID
                0x00800236       0x1c src/main.o
                0x00800236                rollRatePID
 .bss.pitchRatePID
                0x00800252       0x1c src/main.o
                0x00800252                pitchRatePID
 .bss.rollPID   0x0080026e       0x1c src/main.o
                0x0080026e                rollPID
 .bss.pitchPID  0x0080028a       0x1c src/main.o
                0x0080028a                pitchPID
 .bss.motor4Speed
                0x008002a6        0x2 src/main.o
                0x008002a6                motor4Speed
 .bss.motor3Speed
                0x008002a8        0x2 src/main.o
                0x008002a8                motor3Speed
 .bss.motor2Speed
                0x008002aa        0x2 src/main.o
                0x008002aa                motor2Speed
 .bss.motor1Speed
                0x008002ac        0x2 src/main.o
                0x008002ac                motor1Speed
 .bss.throttle  0x008002ae        0x1 src/main.o
                0x008002ae                throttle
 .bss.accelZCenter
                0x008002af        0x4 src/main.o
                0x008002af                accelZCenter
 .bss.rollCenter
                0x008002b3        0x4 src/main.o
                0x008002b3                rollCenter
 .bss.pitchCenter
                0x008002b7        0x4 src/main.o
                0x008002b7                pitchCenter
 .bss.yawFilter
                0x008002bb        0xd src/main.o
                0x008002bb                yawFilter
 .bss.imuStateMS
                0x008002c8        0x2 src/main.o
                0x008002c8                imuStateMS
 .bss.imuStateUS
                0x008002ca        0x2 src/main.o
                0x008002ca                imuStateUS
 .bss.reportingIMUState
                0x008002cc        0x1 src/main.o
                0x008002cc                reportingIMUState
 .bss.yawRate   0x008002cd        0x4 src/main.o
                0x008002cd                yawRate
 .bss.rollRate  0x008002d1        0x4 src/main.o
                0x008002d1                rollRate
 .bss.pitchRate
                0x008002d5        0x4 src/main.o
                0x008002d5                pitchRate
 .bss.roll      0x008002d9        0x4 src/main.o
                0x008002d9                roll
 .bss.pitch     0x008002dd        0x4 src/main.o
                0x008002dd                pitch
 .bss.dt        0x008002e1        0x2 src/main.o
                0x008002e1                dt
 .bss.id        0x008002e3        0x1 src/main.o
                0x008002e3                id
 .bss.mpu6050   0x008002e4        0xf src/main.o
                0x008002e4                mpu6050
 .bss.rfm       0x008002f3        0xb src/main.o
                0x008002f3                rfm
 .bss._ZN5RFM6911selfPointerE
                0x008002fe        0x2 src/rfm69/RFM69.o
                0x008002fe                _ZN5RFM6911selfPointerE
 .bss._ZN5RFM696_inISRE
                0x00800300        0x1 src/rfm69/RFM69.o
                0x00800300                _ZN5RFM696_inISRE
 .bss._ZN5RFM694RSSIE
                0x00800301        0x2 src/rfm69/RFM69.o
                0x00800301                _ZN5RFM694RSSIE
 .bss._ZN5RFM6912ACK_RECEIVEDE
                0x00800303        0x1 src/rfm69/RFM69.o
                0x00800303                _ZN5RFM6912ACK_RECEIVEDE
 .bss._ZN5RFM6913ACK_REQUESTEDE
                0x00800304        0x1 src/rfm69/RFM69.o
                0x00800304                _ZN5RFM6913ACK_REQUESTEDE
 .bss._ZN5RFM6910PAYLOADLENE
                0x00800305        0x1 src/rfm69/RFM69.o
                0x00800305                _ZN5RFM6910PAYLOADLENE
 .bss._ZN5RFM698TARGETIDE
                0x00800306        0x1 src/rfm69/RFM69.o
                0x00800306                _ZN5RFM698TARGETIDE
 .bss._ZN5RFM698SENDERIDE
                0x00800307        0x1 src/rfm69/RFM69.o
                0x00800307                _ZN5RFM698SENDERIDE
 .bss._ZN5RFM697DATALENE
                0x00800308        0x1 src/rfm69/RFM69.o
                0x00800308                _ZN5RFM697DATALENE
 .bss._ZN5RFM695_modeE
                0x00800309        0x1 src/rfm69/RFM69.o
                0x00800309                _ZN5RFM695_modeE
 .bss._ZN5RFM694DATAE
                0x0080030a       0x3d src/rfm69/RFM69.o
                0x0080030a                _ZN5RFM694DATAE
 *(COMMON)
 COMMON         0x00800347        0x4 c:/program files (x86)/atmel/studio/7.0/toolchain/avr8/avr8-gnu-toolchain/bin/../lib/gcc/avr/5.4.0/../../../../avr/lib/avr5\libc.a(malloc.o)
                0x00800347                __brkval
                0x00800349                __flp
                0x0080034b                PROVIDE (__bss_end, .)
                0x0000532e                __data_load_start = LOADADDR (.data)
                0x00005374                __data_load_end = (__data_load_start + SIZEOF (.data))

.noinit         0x0080034b        0x0
                [!provide]                PROVIDE (__noinit_start, .)
 *(.noinit*)
                [!provide]                PROVIDE (__noinit_end, .)
                0x0080034b                _end = .
                0x0080034b                PROVIDE (__heap_start, .)

.eeprom         0x00810000        0x0
 *(.eeprom*)
                0x00810000                __eeprom_end = .

.fuse
 *(.fuse)
 *(.lfuse)
 *(.hfuse)
 *(.efuse)

.lock
 *(.lock*)

.signature
 *(.signature*)

.user_signatures
 *(.user_signatures*)

.stab
 *(.stab)

.stabstr
 *(.stabstr)

.stab.excl
 *(.stab.excl)

.stab.exclstr
 *(.stab.exclstr)

.stab.index
 *(.stab.index)

.stab.indexstr
 *(.stab.indexstr)

.comment        0x00000000       0x30
 *(.comment)
 .comment       0x00000000       0x30 src/arduino/HardwareSerial.o
                                 0x31 (size before relaxing)
 .comment       0x00000030       0x31 src/arduino/HardwareSerial0.o
 .comment       0x00000030       0x31 src/arduino/Print.o
 .comment       0x00000030       0x31 src/arduino/SPI.o
 .comment       0x00000030       0x31 src/arduino/Tone.o
 .comment       0x00000030       0x31 src/arduino/WInterrupts.o
 .comment       0x00000030       0x31 src/arduino/wiring.o
 .comment       0x00000030       0x31 src/arduino/wiring_digital.o
 .comment       0x00000030       0x31 src/battery.o
 .comment       0x00000030       0x31 src/circularbuffer.o
 .comment       0x00000030       0x31 src/led.o
 .comment       0x00000030       0x31 src/main.o
 .comment       0x00000030       0x31 src/motors.o
 .comment       0x00000030       0x31 src/mpu6050/I2Cdev.o
 .comment       0x00000030       0x31 src/mpu6050/MPU6050.o
 .comment       0x00000030       0x31 src/pidcontroller.o
 .comment       0x00000030       0x31 src/rfm69/RFM69.o
 .comment       0x00000030       0x31 c:/program files (x86)/atmel/studio/7.0/toolchain/avr8/avr8-gnu-toolchain/bin/../lib/gcc/avr/5.4.0/../../../../avr/lib/avr5\libc.a(malloc.o)

.note.gnu.avr.deviceinfo
                0x00000000       0x40
 .note.gnu.avr.deviceinfo
                0x00000000       0x40 C:/Program Files (x86)/Atmel/Studio/7.0/Packs/atmel/ATmega_DFP/1.1.130/gcc/dev/atmega328p/avr5/crtatmega328p.o

.note.gnu.build-id
 *(.note.gnu.build-id)

.debug
 *(.debug)

.line
 *(.line)

.debug_srcinfo
 *(.debug_srcinfo)

.debug_sfnames
 *(.debug_sfnames)

.debug_aranges  0x00000000       0x80
 *(.debug_aranges)
 .debug_aranges
                0x00000000       0x20 C:/Program Files (x86)/Atmel/Studio/7.0/Packs/atmel/ATmega_DFP/1.1.130/gcc/dev/atmega328p/avr5\libatmega328p.a(eerd_block.o)
 .debug_aranges
                0x00000020       0x20 C:/Program Files (x86)/Atmel/Studio/7.0/Packs/atmel/ATmega_DFP/1.1.130/gcc/dev/atmega328p/avr5\libatmega328p.a(eerd_byte.o)
 .debug_aranges
                0x00000040       0x20 C:/Program Files (x86)/Atmel/Studio/7.0/Packs/atmel/ATmega_DFP/1.1.130/gcc/dev/atmega328p/avr5\libatmega328p.a(eewr_block.o)
 .debug_aranges
                0x00000060       0x20 C:/Program Files (x86)/Atmel/Studio/7.0/Packs/atmel/ATmega_DFP/1.1.130/gcc/dev/atmega328p/avr5\libatmega328p.a(eewr_byte.o)

.debug_pubnames
 *(.debug_pubnames)

.debug_info     0x00000000      0x8a6
 *(.debug_info .gnu.linkonce.wi.*)
 .debug_info    0x00000000      0x5f4 C:/Program Files (x86)/Atmel/Studio/7.0/Packs/atmel/ATmega_DFP/1.1.130/gcc/dev/atmega328p/avr5/crtatmega328p.o
 .debug_info    0x000005f4       0xad C:/Program Files (x86)/Atmel/Studio/7.0/Packs/atmel/ATmega_DFP/1.1.130/gcc/dev/atmega328p/avr5\libatmega328p.a(eerd_block.o)
 .debug_info    0x000006a1       0xac C:/Program Files (x86)/Atmel/Studio/7.0/Packs/atmel/ATmega_DFP/1.1.130/gcc/dev/atmega328p/avr5\libatmega328p.a(eerd_byte.o)
 .debug_info    0x0000074d       0xad C:/Program Files (x86)/Atmel/Studio/7.0/Packs/atmel/ATmega_DFP/1.1.130/gcc/dev/atmega328p/avr5\libatmega328p.a(eewr_block.o)
 .debug_info    0x000007fa       0xac C:/Program Files (x86)/Atmel/Studio/7.0/Packs/atmel/ATmega_DFP/1.1.130/gcc/dev/atmega328p/avr5\libatmega328p.a(eewr_byte.o)

.debug_abbrev   0x00000000      0x5f2
 *(.debug_abbrev)
 .debug_abbrev  0x00000000      0x5a2 C:/Program Files (x86)/Atmel/Studio/7.0/Packs/atmel/ATmega_DFP/1.1.130/gcc/dev/atmega328p/avr5/crtatmega328p.o
 .debug_abbrev  0x000005a2       0x14 C:/Program Files (x86)/Atmel/Studio/7.0/Packs/atmel/ATmega_DFP/1.1.130/gcc/dev/atmega328p/avr5\libatmega328p.a(eerd_block.o)
 .debug_abbrev  0x000005b6       0x14 C:/Program Files (x86)/Atmel/Studio/7.0/Packs/atmel/ATmega_DFP/1.1.130/gcc/dev/atmega328p/avr5\libatmega328p.a(eerd_byte.o)
 .debug_abbrev  0x000005ca       0x14 C:/Program Files (x86)/Atmel/Studio/7.0/Packs/atmel/ATmega_DFP/1.1.130/gcc/dev/atmega328p/avr5\libatmega328p.a(eewr_block.o)
 .debug_abbrev  0x000005de       0x14 C:/Program Files (x86)/Atmel/Studio/7.0/Packs/atmel/ATmega_DFP/1.1.130/gcc/dev/atmega328p/avr5\libatmega328p.a(eewr_byte.o)

.debug_line     0x00000000      0x376
 *(.debug_line .debug_line.* .debug_line_end)
 .debug_line    0x00000000      0x133 C:/Program Files (x86)/Atmel/Studio/7.0/Packs/atmel/ATmega_DFP/1.1.130/gcc/dev/atmega328p/avr5/crtatmega328p.o
 .debug_line    0x00000133       0xab C:/Program Files (x86)/Atmel/Studio/7.0/Packs/atmel/ATmega_DFP/1.1.130/gcc/dev/atmega328p/avr5\libatmega328p.a(eerd_block.o)
 .debug_line    0x000001de       0x7a C:/Program Files (x86)/Atmel/Studio/7.0/Packs/atmel/ATmega_DFP/1.1.130/gcc/dev/atmega328p/avr5\libatmega328p.a(eerd_byte.o)
 .debug_line    0x00000258       0x80 C:/Program Files (x86)/Atmel/Studio/7.0/Packs/atmel/ATmega_DFP/1.1.130/gcc/dev/atmega328p/avr5\libatmega328p.a(eewr_block.o)
 .debug_line    0x000002d8       0x9e C:/Program Files (x86)/Atmel/Studio/7.0/Packs/atmel/ATmega_DFP/1.1.130/gcc/dev/atmega328p/avr5\libatmega328p.a(eewr_byte.o)

.debug_frame
 *(.debug_frame)

.debug_str      0x00000000      0x208
 *(.debug_str)
 .debug_str     0x00000000      0x208 C:/Program Files (x86)/Atmel/Studio/7.0/Packs/atmel/ATmega_DFP/1.1.130/gcc/dev/atmega328p/avr5/crtatmega328p.o

.debug_loc
 *(.debug_loc)

.debug_macinfo
 *(.debug_macinfo)

.debug_weaknames
 *(.debug_weaknames)

.debug_funcnames
 *(.debug_funcnames)

.debug_typenames
 *(.debug_typenames)

.debug_varnames
 *(.debug_varnames)

.debug_pubtypes
 *(.debug_pubtypes)

.debug_ranges
 *(.debug_ranges)

.debug_macro
 *(.debug_macro)
OUTPUT(atmega_mqc_firmware.elf elf32-avr)
LOAD linker stubs
