
ubee_firmware.elf:     file format elf32-avr

Sections:
Idx Name          Size      VMA       LMA       File off  Algn
  0 .data         00000046  00800100  00005446  000054da  2**0
                  CONTENTS, ALLOC, LOAD, DATA
  1 .text         00005446  00000000  00000000  00000094  2**1
                  CONTENTS, ALLOC, LOAD, READONLY, CODE
  2 .bss          00000205  00800146  00800146  00005520  2**0
                  ALLOC
  3 .comment      00000030  00000000  00000000  00005520  2**0
                  CONTENTS, READONLY
  4 .note.gnu.avr.deviceinfo 00000040  00000000  00000000  00005550  2**2
                  CONTENTS, READONLY
  5 .debug_aranges 00000080  00000000  00000000  00005590  2**3
                  CONTENTS, READONLY, DEBUGGING
  6 .debug_info   000008a6  00000000  00000000  00005610  2**0
                  CONTENTS, READONLY, DEBUGGING
  7 .debug_abbrev 000005f2  00000000  00000000  00005eb6  2**0
                  CONTENTS, READONLY, DEBUGGING
  8 .debug_line   00000376  00000000  00000000  000064a8  2**0
                  CONTENTS, READONLY, DEBUGGING
  9 .debug_str    00000208  00000000  00000000  0000681e  2**0
                  CONTENTS, READONLY, DEBUGGING

Disassembly of section .text:

00000000 <__vectors>:
       0:	0c 94 7b 00 	jmp	0xf6	; 0xf6 <__ctors_end>
       4:	0c 94 43 03 	jmp	0x686	; 0x686 <__vector_1>
       8:	0c 94 6a 03 	jmp	0x6d4	; 0x6d4 <__vector_2>
       c:	0c 94 a3 00 	jmp	0x146	; 0x146 <__bad_interrupt>
      10:	0c 94 a3 00 	jmp	0x146	; 0x146 <__bad_interrupt>
      14:	0c 94 a3 00 	jmp	0x146	; 0x146 <__bad_interrupt>
      18:	0c 94 a3 00 	jmp	0x146	; 0x146 <__bad_interrupt>
      1c:	0c 94 a0 02 	jmp	0x540	; 0x540 <__vector_7>
      20:	0c 94 a3 00 	jmp	0x146	; 0x146 <__bad_interrupt>
      24:	0c 94 a3 00 	jmp	0x146	; 0x146 <__bad_interrupt>
      28:	0c 94 a3 00 	jmp	0x146	; 0x146 <__bad_interrupt>
      2c:	0c 94 a3 00 	jmp	0x146	; 0x146 <__bad_interrupt>
      30:	0c 94 a3 00 	jmp	0x146	; 0x146 <__bad_interrupt>
      34:	0c 94 a3 00 	jmp	0x146	; 0x146 <__bad_interrupt>
      38:	0c 94 a3 00 	jmp	0x146	; 0x146 <__bad_interrupt>
      3c:	0c 94 a3 00 	jmp	0x146	; 0x146 <__bad_interrupt>
      40:	0c 94 91 03 	jmp	0x722	; 0x722 <__vector_16>
      44:	0c 94 a3 00 	jmp	0x146	; 0x146 <__bad_interrupt>
      48:	0c 94 b5 01 	jmp	0x36a	; 0x36a <__vector_18>
      4c:	0c 94 e7 01 	jmp	0x3ce	; 0x3ce <__vector_19>
      50:	0c 94 a3 00 	jmp	0x146	; 0x146 <__bad_interrupt>
      54:	0c 94 a3 00 	jmp	0x146	; 0x146 <__bad_interrupt>
      58:	0c 94 a3 00 	jmp	0x146	; 0x146 <__bad_interrupt>
      5c:	0c 94 a3 00 	jmp	0x146	; 0x146 <__bad_interrupt>
      60:	0c 94 a3 00 	jmp	0x146	; 0x146 <__bad_interrupt>
      64:	0c 94 a3 00 	jmp	0x146	; 0x146 <__bad_interrupt>
      68:	08 4a       	sbci	r16, 0xA8	; 168
      6a:	d7 3b       	cpi	r29, 0xB7	; 183
      6c:	3b ce       	rjmp	.-906    	; 0xfffffce4 <__eeprom_end+0xff7efce4>
      6e:	01 6e       	ori	r16, 0xE1	; 225
      70:	84 bc       	out	0x24, r8	; 36
      72:	bf fd       	.word	0xfdbf	; ????
      74:	c1 2f       	mov	r28, r17
      76:	3d 6c       	ori	r19, 0xCD	; 205
      78:	74 31       	cpi	r23, 0x14	; 20
      7a:	9a bd       	out	0x2a, r25	; 42
      7c:	56 83       	std	Z+6, r21	; 0x06
      7e:	3d da       	rcall	.-2950   	; 0xfffff4fa <__eeprom_end+0xff7ef4fa>
      80:	3d 00       	.word	0x003d	; ????
      82:	c7 7f       	andi	r28, 0xF7	; 247
      84:	11 be       	out	0x31, r1	; 49
      86:	d9 e4       	ldi	r29, 0x49	; 73
      88:	bb 4c       	sbci	r27, 0xCB	; 203
      8a:	3e 91       	ld	r19, -X
      8c:	6b aa       	std	Y+51, r6	; 0x33
      8e:	aa be       	out	0x3a, r10	; 58
      90:	00 00       	nop
      92:	00 80       	ld	r0, Z
      94:	3f 00       	.word	0x003f	; ????

00000096 <__trampolines_end>:
      96:	02 00       	Address 0x00000096 is out of bounds.
.word	0xffff	; ????

00000097 <digital_pin_to_timer_PGM>:
      97:	00 00 00 08 00 02 01 00 00 03 04 07 00 00 00 00     ................
      a7:	00 00 00 00                                         ....

000000ab <digital_pin_to_bit_mask_PGM>:
      ab:	01 02 04 08 10 20 40 80 01 02 04 08 10 20 01 02     ..... @...... ..
      bb:	04 08 10 20                                         ... 

000000bf <digital_pin_to_port_PGM>:
      bf:	04 04 04 04 04 04 04 04 02 02 02 02 02 02 03 03     ................
      cf:	03 03 03 03                                         ....

000000d3 <port_to_input_PGM>:
      d3:	00 00 00 00 23 00 26 00 29 00                       ....#.&.).

000000dd <port_to_output_PGM>:
      dd:	00 00 00 00 25 00 28 00 2b 00                       ....%.(.+.

000000e7 <port_to_mode_PGM>:
      e7:	00 00 00 00 24 00 27 00 2a 00 00                    ....$.'.*..

000000f2 <__ctors_start>:
      f2:	0d 02       	muls	r16, r29
      f4:	70 10       	cpse	r7, r0

000000f6 <__ctors_end>:
      f6:	11 24       	eor	r1, r1
      f8:	1f be       	out	0x3f, r1	; 63
      fa:	cf ef       	ldi	r28, 0xFF	; 255
      fc:	d8 e0       	ldi	r29, 0x08	; 8
      fe:	de bf       	out	0x3e, r29	; 62
     100:	cd bf       	out	0x3d, r28	; 61

00000102 <__do_copy_data>:
     102:	11 e0       	ldi	r17, 0x01	; 1
     104:	a0 e0       	ldi	r26, 0x00	; 0
     106:	b1 e0       	ldi	r27, 0x01	; 1
     108:	e6 e4       	ldi	r30, 0x46	; 70
     10a:	f4 e5       	ldi	r31, 0x54	; 84
     10c:	02 c0       	rjmp	.+4      	; 0x112 <__do_copy_data+0x10>
     10e:	05 90       	lpm	r0, Z+
     110:	0d 92       	st	X+, r0
     112:	a6 34       	cpi	r26, 0x46	; 70
     114:	b1 07       	cpc	r27, r17
     116:	d9 f7       	brne	.-10     	; 0x10e <__do_copy_data+0xc>

00000118 <__do_clear_bss>:
     118:	23 e0       	ldi	r18, 0x03	; 3
     11a:	a6 e4       	ldi	r26, 0x46	; 70
     11c:	b1 e0       	ldi	r27, 0x01	; 1
     11e:	01 c0       	rjmp	.+2      	; 0x122 <.do_clear_bss_start>

00000120 <.do_clear_bss_loop>:
     120:	1d 92       	st	X+, r1

00000122 <.do_clear_bss_start>:
     122:	ab 34       	cpi	r26, 0x4B	; 75
     124:	b2 07       	cpc	r27, r18
     126:	e1 f7       	brne	.-8      	; 0x120 <.do_clear_bss_loop>

00000128 <__do_global_ctors>:
     128:	10 e0       	ldi	r17, 0x00	; 0
     12a:	cb e7       	ldi	r28, 0x7B	; 123
     12c:	d0 e0       	ldi	r29, 0x00	; 0
     12e:	04 c0       	rjmp	.+8      	; 0x138 <__do_global_ctors+0x10>
     130:	21 97       	sbiw	r28, 0x01	; 1
     132:	fe 01       	movw	r30, r28
     134:	0e 94 ca 28 	call	0x5194	; 0x5194 <__tablejump2__>
     138:	c9 37       	cpi	r28, 0x79	; 121
     13a:	d1 07       	cpc	r29, r17
     13c:	c9 f7       	brne	.-14     	; 0x130 <__do_global_ctors+0x8>
     13e:	0e 94 8d 11 	call	0x231a	; 0x231a <main>
     142:	0c 94 21 2a 	jmp	0x5442	; 0x5442 <_exit>

00000146 <__bad_interrupt>:
     146:	0c 94 00 00 	jmp	0	; 0x0 <__vectors>

0000014a <_ZN14HardwareSerial9availableEv>:
     14a:	fc 01       	movw	r30, r24
     14c:	91 8d       	ldd	r25, Z+25	; 0x19
     14e:	22 8d       	ldd	r18, Z+26	; 0x1a
     150:	89 2f       	mov	r24, r25
     152:	90 e0       	ldi	r25, 0x00	; 0
     154:	80 5c       	subi	r24, 0xC0	; 192
     156:	9f 4f       	sbci	r25, 0xFF	; 255
     158:	82 1b       	sub	r24, r18
     15a:	91 09       	sbc	r25, r1
     15c:	8f 73       	andi	r24, 0x3F	; 63
     15e:	99 27       	eor	r25, r25
     160:	08 95       	ret

00000162 <_ZN14HardwareSerial4peekEv>:
     162:	fc 01       	movw	r30, r24
     164:	91 8d       	ldd	r25, Z+25	; 0x19
     166:	82 8d       	ldd	r24, Z+26	; 0x1a
     168:	98 17       	cp	r25, r24
     16a:	31 f0       	breq	.+12     	; 0x178 <_ZN14HardwareSerial4peekEv+0x16>
     16c:	82 8d       	ldd	r24, Z+26	; 0x1a
     16e:	e8 0f       	add	r30, r24
     170:	f1 1d       	adc	r31, r1
     172:	85 8d       	ldd	r24, Z+29	; 0x1d
     174:	90 e0       	ldi	r25, 0x00	; 0
     176:	08 95       	ret
     178:	8f ef       	ldi	r24, 0xFF	; 255
     17a:	9f ef       	ldi	r25, 0xFF	; 255
     17c:	08 95       	ret

0000017e <_ZN14HardwareSerial4readEv>:
     17e:	fc 01       	movw	r30, r24
     180:	91 8d       	ldd	r25, Z+25	; 0x19
     182:	82 8d       	ldd	r24, Z+26	; 0x1a
     184:	98 17       	cp	r25, r24
     186:	61 f0       	breq	.+24     	; 0x1a0 <_ZN14HardwareSerial4readEv+0x22>
     188:	82 8d       	ldd	r24, Z+26	; 0x1a
     18a:	df 01       	movw	r26, r30
     18c:	a8 0f       	add	r26, r24
     18e:	b1 1d       	adc	r27, r1
     190:	5d 96       	adiw	r26, 0x1d	; 29
     192:	8c 91       	ld	r24, X
     194:	92 8d       	ldd	r25, Z+26	; 0x1a
     196:	9f 5f       	subi	r25, 0xFF	; 255
     198:	9f 73       	andi	r25, 0x3F	; 63
     19a:	92 8f       	std	Z+26, r25	; 0x1a
     19c:	90 e0       	ldi	r25, 0x00	; 0
     19e:	08 95       	ret
     1a0:	8f ef       	ldi	r24, 0xFF	; 255
     1a2:	9f ef       	ldi	r25, 0xFF	; 255
     1a4:	08 95       	ret

000001a6 <_ZN14HardwareSerial17availableForWriteEv>:
     1a6:	fc 01       	movw	r30, r24
     1a8:	23 8d       	ldd	r18, Z+27	; 0x1b
     1aa:	34 8d       	ldd	r19, Z+28	; 0x1c
     1ac:	23 17       	cp	r18, r19
     1ae:	30 f4       	brcc	.+12     	; 0x1bc <_ZN14HardwareSerial17availableForWriteEv+0x16>
     1b0:	83 2f       	mov	r24, r19
     1b2:	90 e0       	ldi	r25, 0x00	; 0
     1b4:	82 1b       	sub	r24, r18
     1b6:	91 09       	sbc	r25, r1
     1b8:	01 97       	sbiw	r24, 0x01	; 1
     1ba:	08 95       	ret
     1bc:	8f e3       	ldi	r24, 0x3F	; 63
     1be:	90 e0       	ldi	r25, 0x00	; 0
     1c0:	82 1b       	sub	r24, r18
     1c2:	91 09       	sbc	r25, r1
     1c4:	83 0f       	add	r24, r19
     1c6:	91 1d       	adc	r25, r1
     1c8:	08 95       	ret

000001ca <_ZN14HardwareSerial5flushEv>:
     1ca:	cf 93       	push	r28
     1cc:	df 93       	push	r29
     1ce:	dc 01       	movw	r26, r24
     1d0:	58 96       	adiw	r26, 0x18	; 24
     1d2:	8c 91       	ld	r24, X
     1d4:	58 97       	sbiw	r26, 0x18	; 24
     1d6:	88 23       	and	r24, r24
     1d8:	09 f4       	brne	.+2      	; 0x1dc <_ZN14HardwareSerial5flushEv+0x12>
     1da:	46 c0       	rjmp	.+140    	; 0x268 <_ZN14HardwareSerial5flushEv+0x9e>
     1dc:	52 96       	adiw	r26, 0x12	; 18
     1de:	ed 91       	ld	r30, X+
     1e0:	fc 91       	ld	r31, X
     1e2:	53 97       	sbiw	r26, 0x13	; 19
     1e4:	50 96       	adiw	r26, 0x10	; 16
     1e6:	cd 91       	ld	r28, X+
     1e8:	dc 91       	ld	r29, X
     1ea:	51 97       	sbiw	r26, 0x11	; 17
     1ec:	90 81       	ld	r25, Z
     1ee:	95 ff       	sbrs	r25, 5
     1f0:	38 c0       	rjmp	.+112    	; 0x262 <_ZN14HardwareSerial5flushEv+0x98>
     1f2:	0f b6       	in	r0, 0x3f	; 63
     1f4:	07 fc       	sbrc	r0, 7
     1f6:	fa cf       	rjmp	.-12     	; 0x1ec <_ZN14HardwareSerial5flushEv+0x22>
     1f8:	90 81       	ld	r25, Z
     1fa:	95 ff       	sbrs	r25, 5
     1fc:	f7 cf       	rjmp	.-18     	; 0x1ec <_ZN14HardwareSerial5flushEv+0x22>
     1fe:	88 81       	ld	r24, Y
     200:	85 ff       	sbrs	r24, 5
     202:	f4 cf       	rjmp	.-24     	; 0x1ec <_ZN14HardwareSerial5flushEv+0x22>
     204:	5c 96       	adiw	r26, 0x1c	; 28
     206:	8c 91       	ld	r24, X
     208:	5c 97       	sbiw	r26, 0x1c	; 28
     20a:	fd 01       	movw	r30, r26
     20c:	e8 0f       	add	r30, r24
     20e:	f1 1d       	adc	r31, r1
     210:	e3 5a       	subi	r30, 0xA3	; 163
     212:	ff 4f       	sbci	r31, 0xFF	; 255
     214:	20 81       	ld	r18, Z
     216:	5c 96       	adiw	r26, 0x1c	; 28
     218:	8c 91       	ld	r24, X
     21a:	5c 97       	sbiw	r26, 0x1c	; 28
     21c:	90 e0       	ldi	r25, 0x00	; 0
     21e:	01 96       	adiw	r24, 0x01	; 1
     220:	8f 73       	andi	r24, 0x3F	; 63
     222:	99 27       	eor	r25, r25
     224:	5c 96       	adiw	r26, 0x1c	; 28
     226:	8c 93       	st	X, r24
     228:	5c 97       	sbiw	r26, 0x1c	; 28
     22a:	56 96       	adiw	r26, 0x16	; 22
     22c:	ed 91       	ld	r30, X+
     22e:	fc 91       	ld	r31, X
     230:	57 97       	sbiw	r26, 0x17	; 23
     232:	20 83       	st	Z, r18
     234:	50 96       	adiw	r26, 0x10	; 16
     236:	ed 91       	ld	r30, X+
     238:	fc 91       	ld	r31, X
     23a:	51 97       	sbiw	r26, 0x11	; 17
     23c:	80 81       	ld	r24, Z
     23e:	80 64       	ori	r24, 0x40	; 64
     240:	80 83       	st	Z, r24
     242:	5b 96       	adiw	r26, 0x1b	; 27
     244:	9c 91       	ld	r25, X
     246:	5b 97       	sbiw	r26, 0x1b	; 27
     248:	5c 96       	adiw	r26, 0x1c	; 28
     24a:	8c 91       	ld	r24, X
     24c:	5c 97       	sbiw	r26, 0x1c	; 28
     24e:	98 13       	cpse	r25, r24
     250:	c5 cf       	rjmp	.-118    	; 0x1dc <_ZN14HardwareSerial5flushEv+0x12>
     252:	52 96       	adiw	r26, 0x12	; 18
     254:	ed 91       	ld	r30, X+
     256:	fc 91       	ld	r31, X
     258:	53 97       	sbiw	r26, 0x13	; 19
     25a:	80 81       	ld	r24, Z
     25c:	8f 7d       	andi	r24, 0xDF	; 223
     25e:	80 83       	st	Z, r24
     260:	bd cf       	rjmp	.-134    	; 0x1dc <_ZN14HardwareSerial5flushEv+0x12>
     262:	88 81       	ld	r24, Y
     264:	86 ff       	sbrs	r24, 6
     266:	c5 cf       	rjmp	.-118    	; 0x1f2 <_ZN14HardwareSerial5flushEv+0x28>
     268:	df 91       	pop	r29
     26a:	cf 91       	pop	r28
     26c:	08 95       	ret

0000026e <_ZN14HardwareSerial5writeEh>:
     26e:	fc 01       	movw	r30, r24
     270:	81 e0       	ldi	r24, 0x01	; 1
     272:	80 8f       	std	Z+24, r24	; 0x18
     274:	93 8d       	ldd	r25, Z+27	; 0x1b
     276:	84 8d       	ldd	r24, Z+28	; 0x1c
     278:	98 17       	cp	r25, r24
     27a:	09 f4       	brne	.+2      	; 0x27e <_ZN14HardwareSerial5writeEh+0x10>
     27c:	44 c0       	rjmp	.+136    	; 0x306 <_ZN14HardwareSerial5writeEh+0x98>
     27e:	23 8d       	ldd	r18, Z+27	; 0x1b
     280:	30 e0       	ldi	r19, 0x00	; 0
     282:	2f 5f       	subi	r18, 0xFF	; 255
     284:	3f 4f       	sbci	r19, 0xFF	; 255
     286:	2f 73       	andi	r18, 0x3F	; 63
     288:	33 27       	eor	r19, r19
     28a:	82 2f       	mov	r24, r18
     28c:	03 c0       	rjmp	.+6      	; 0x294 <_ZN14HardwareSerial5writeEh+0x26>
     28e:	0f b6       	in	r0, 0x3f	; 63
     290:	07 fe       	sbrs	r0, 7
     292:	14 c0       	rjmp	.+40     	; 0x2bc <_ZN14HardwareSerial5writeEh+0x4e>
     294:	94 8d       	ldd	r25, Z+28	; 0x1c
     296:	89 17       	cp	r24, r25
     298:	d1 f3       	breq	.-12     	; 0x28e <_ZN14HardwareSerial5writeEh+0x20>
     29a:	83 8d       	ldd	r24, Z+27	; 0x1b
     29c:	df 01       	movw	r26, r30
     29e:	a8 0f       	add	r26, r24
     2a0:	b1 1d       	adc	r27, r1
     2a2:	a3 5a       	subi	r26, 0xA3	; 163
     2a4:	bf 4f       	sbci	r27, 0xFF	; 255
     2a6:	6c 93       	st	X, r22
     2a8:	23 8f       	std	Z+27, r18	; 0x1b
     2aa:	02 88       	ldd	r0, Z+18	; 0x12
     2ac:	f3 89       	ldd	r31, Z+19	; 0x13
     2ae:	e0 2d       	mov	r30, r0
     2b0:	80 81       	ld	r24, Z
     2b2:	80 62       	ori	r24, 0x20	; 32
     2b4:	80 83       	st	Z, r24
     2b6:	81 e0       	ldi	r24, 0x01	; 1
     2b8:	90 e0       	ldi	r25, 0x00	; 0
     2ba:	08 95       	ret
     2bc:	a0 89       	ldd	r26, Z+16	; 0x10
     2be:	b1 89       	ldd	r27, Z+17	; 0x11
     2c0:	9c 91       	ld	r25, X
     2c2:	95 ff       	sbrs	r25, 5
     2c4:	e7 cf       	rjmp	.-50     	; 0x294 <_ZN14HardwareSerial5writeEh+0x26>
     2c6:	94 8d       	ldd	r25, Z+28	; 0x1c
     2c8:	df 01       	movw	r26, r30
     2ca:	a9 0f       	add	r26, r25
     2cc:	b1 1d       	adc	r27, r1
     2ce:	a3 5a       	subi	r26, 0xA3	; 163
     2d0:	bf 4f       	sbci	r27, 0xFF	; 255
     2d2:	9c 91       	ld	r25, X
     2d4:	44 8d       	ldd	r20, Z+28	; 0x1c
     2d6:	50 e0       	ldi	r21, 0x00	; 0
     2d8:	4f 5f       	subi	r20, 0xFF	; 255
     2da:	5f 4f       	sbci	r21, 0xFF	; 255
     2dc:	4f 73       	andi	r20, 0x3F	; 63
     2de:	55 27       	eor	r21, r21
     2e0:	44 8f       	std	Z+28, r20	; 0x1c
     2e2:	a6 89       	ldd	r26, Z+22	; 0x16
     2e4:	b7 89       	ldd	r27, Z+23	; 0x17
     2e6:	9c 93       	st	X, r25
     2e8:	a0 89       	ldd	r26, Z+16	; 0x10
     2ea:	b1 89       	ldd	r27, Z+17	; 0x11
     2ec:	9c 91       	ld	r25, X
     2ee:	90 64       	ori	r25, 0x40	; 64
     2f0:	9c 93       	st	X, r25
     2f2:	43 8d       	ldd	r20, Z+27	; 0x1b
     2f4:	94 8d       	ldd	r25, Z+28	; 0x1c
     2f6:	49 13       	cpse	r20, r25
     2f8:	cd cf       	rjmp	.-102    	; 0x294 <_ZN14HardwareSerial5writeEh+0x26>
     2fa:	a2 89       	ldd	r26, Z+18	; 0x12
     2fc:	b3 89       	ldd	r27, Z+19	; 0x13
     2fe:	9c 91       	ld	r25, X
     300:	9f 7d       	andi	r25, 0xDF	; 223
     302:	9c 93       	st	X, r25
     304:	c7 cf       	rjmp	.-114    	; 0x294 <_ZN14HardwareSerial5writeEh+0x26>
     306:	a0 89       	ldd	r26, Z+16	; 0x10
     308:	b1 89       	ldd	r27, Z+17	; 0x11
     30a:	8c 91       	ld	r24, X
     30c:	85 ff       	sbrs	r24, 5
     30e:	b7 cf       	rjmp	.-146    	; 0x27e <_ZN14HardwareSerial5writeEh+0x10>
     310:	a6 89       	ldd	r26, Z+22	; 0x16
     312:	b7 89       	ldd	r27, Z+23	; 0x17
     314:	6c 93       	st	X, r22
     316:	00 88       	ldd	r0, Z+16	; 0x10
     318:	f1 89       	ldd	r31, Z+17	; 0x11
     31a:	e0 2d       	mov	r30, r0
     31c:	80 81       	ld	r24, Z
     31e:	80 64       	ori	r24, 0x40	; 64
     320:	80 83       	st	Z, r24
     322:	81 e0       	ldi	r24, 0x01	; 1
     324:	90 e0       	ldi	r25, 0x00	; 0
     326:	08 95       	ret

00000328 <_ZN14HardwareSerial17_tx_udr_empty_irqEv>:
     328:	fc 01       	movw	r30, r24
     32a:	84 8d       	ldd	r24, Z+28	; 0x1c
     32c:	df 01       	movw	r26, r30
     32e:	a8 0f       	add	r26, r24
     330:	b1 1d       	adc	r27, r1
     332:	a3 5a       	subi	r26, 0xA3	; 163
     334:	bf 4f       	sbci	r27, 0xFF	; 255
     336:	2c 91       	ld	r18, X
     338:	84 8d       	ldd	r24, Z+28	; 0x1c
     33a:	90 e0       	ldi	r25, 0x00	; 0
     33c:	01 96       	adiw	r24, 0x01	; 1
     33e:	8f 73       	andi	r24, 0x3F	; 63
     340:	99 27       	eor	r25, r25
     342:	84 8f       	std	Z+28, r24	; 0x1c
     344:	a6 89       	ldd	r26, Z+22	; 0x16
     346:	b7 89       	ldd	r27, Z+23	; 0x17
     348:	2c 93       	st	X, r18
     34a:	a0 89       	ldd	r26, Z+16	; 0x10
     34c:	b1 89       	ldd	r27, Z+17	; 0x11
     34e:	8c 91       	ld	r24, X
     350:	80 64       	ori	r24, 0x40	; 64
     352:	8c 93       	st	X, r24
     354:	93 8d       	ldd	r25, Z+27	; 0x1b
     356:	84 8d       	ldd	r24, Z+28	; 0x1c
     358:	98 13       	cpse	r25, r24
     35a:	08 95       	ret
     35c:	02 88       	ldd	r0, Z+18	; 0x12
     35e:	f3 89       	ldd	r31, Z+19	; 0x13
     360:	e0 2d       	mov	r30, r0
     362:	80 81       	ld	r24, Z
     364:	8f 7d       	andi	r24, 0xDF	; 223
     366:	80 83       	st	Z, r24
     368:	08 95       	ret

0000036a <__vector_18>:
     36a:	1f 92       	push	r1
     36c:	0f 92       	push	r0
     36e:	0f b6       	in	r0, 0x3f	; 63
     370:	0f 92       	push	r0
     372:	11 24       	eor	r1, r1
     374:	2f 93       	push	r18
     376:	8f 93       	push	r24
     378:	9f 93       	push	r25
     37a:	ef 93       	push	r30
     37c:	ff 93       	push	r31
     37e:	e0 91 56 01 	lds	r30, 0x0156	; 0x800156 <__data_end+0x10>
     382:	f0 91 57 01 	lds	r31, 0x0157	; 0x800157 <__data_end+0x11>
     386:	80 81       	ld	r24, Z
     388:	e0 91 5c 01 	lds	r30, 0x015C	; 0x80015c <__data_end+0x16>
     38c:	f0 91 5d 01 	lds	r31, 0x015D	; 0x80015d <__data_end+0x17>
     390:	82 ff       	sbrs	r24, 2
     392:	0b c0       	rjmp	.+22     	; 0x3aa <__vector_18+0x40>
     394:	80 81       	ld	r24, Z
     396:	ff 91       	pop	r31
     398:	ef 91       	pop	r30
     39a:	9f 91       	pop	r25
     39c:	8f 91       	pop	r24
     39e:	2f 91       	pop	r18
     3a0:	0f 90       	pop	r0
     3a2:	0f be       	out	0x3f, r0	; 63
     3a4:	0f 90       	pop	r0
     3a6:	1f 90       	pop	r1
     3a8:	18 95       	reti
     3aa:	20 81       	ld	r18, Z
     3ac:	80 91 5f 01 	lds	r24, 0x015F	; 0x80015f <__data_end+0x19>
     3b0:	8f 5f       	subi	r24, 0xFF	; 255
     3b2:	8f 73       	andi	r24, 0x3F	; 63
     3b4:	90 91 60 01 	lds	r25, 0x0160	; 0x800160 <__data_end+0x1a>
     3b8:	89 17       	cp	r24, r25
     3ba:	69 f3       	breq	.-38     	; 0x396 <__vector_18+0x2c>
     3bc:	e0 91 5f 01 	lds	r30, 0x015F	; 0x80015f <__data_end+0x19>
     3c0:	f0 e0       	ldi	r31, 0x00	; 0
     3c2:	ea 5b       	subi	r30, 0xBA	; 186
     3c4:	fe 4f       	sbci	r31, 0xFE	; 254
     3c6:	25 8f       	std	Z+29, r18	; 0x1d
     3c8:	80 93 5f 01 	sts	0x015F, r24	; 0x80015f <__data_end+0x19>
     3cc:	e4 cf       	rjmp	.-56     	; 0x396 <__vector_18+0x2c>

000003ce <__vector_19>:
     3ce:	1f 92       	push	r1
     3d0:	0f 92       	push	r0
     3d2:	0f b6       	in	r0, 0x3f	; 63
     3d4:	0f 92       	push	r0
     3d6:	11 24       	eor	r1, r1
     3d8:	2f 93       	push	r18
     3da:	3f 93       	push	r19
     3dc:	4f 93       	push	r20
     3de:	5f 93       	push	r21
     3e0:	6f 93       	push	r22
     3e2:	7f 93       	push	r23
     3e4:	8f 93       	push	r24
     3e6:	9f 93       	push	r25
     3e8:	af 93       	push	r26
     3ea:	bf 93       	push	r27
     3ec:	ef 93       	push	r30
     3ee:	ff 93       	push	r31
     3f0:	86 e4       	ldi	r24, 0x46	; 70
     3f2:	91 e0       	ldi	r25, 0x01	; 1
     3f4:	0e 94 94 01 	call	0x328	; 0x328 <_ZN14HardwareSerial17_tx_udr_empty_irqEv>
     3f8:	ff 91       	pop	r31
     3fa:	ef 91       	pop	r30
     3fc:	bf 91       	pop	r27
     3fe:	af 91       	pop	r26
     400:	9f 91       	pop	r25
     402:	8f 91       	pop	r24
     404:	7f 91       	pop	r23
     406:	6f 91       	pop	r22
     408:	5f 91       	pop	r21
     40a:	4f 91       	pop	r20
     40c:	3f 91       	pop	r19
     40e:	2f 91       	pop	r18
     410:	0f 90       	pop	r0
     412:	0f be       	out	0x3f, r0	; 63
     414:	0f 90       	pop	r0
     416:	1f 90       	pop	r1
     418:	18 95       	reti

0000041a <_GLOBAL__sub_I___vector_18>:
     41a:	e6 e4       	ldi	r30, 0x46	; 70
     41c:	f1 e0       	ldi	r31, 0x01	; 1
     41e:	13 82       	std	Z+3, r1	; 0x03
     420:	12 82       	std	Z+2, r1	; 0x02
     422:	88 ee       	ldi	r24, 0xE8	; 232
     424:	93 e0       	ldi	r25, 0x03	; 3
     426:	a0 e0       	ldi	r26, 0x00	; 0
     428:	b0 e0       	ldi	r27, 0x00	; 0
     42a:	84 83       	std	Z+4, r24	; 0x04
     42c:	95 83       	std	Z+5, r25	; 0x05
     42e:	a6 83       	std	Z+6, r26	; 0x06
     430:	b7 83       	std	Z+7, r27	; 0x07
     432:	87 e1       	ldi	r24, 0x17	; 23
     434:	91 e0       	ldi	r25, 0x01	; 1
     436:	91 83       	std	Z+1, r25	; 0x01
     438:	80 83       	st	Z, r24
     43a:	85 ec       	ldi	r24, 0xC5	; 197
     43c:	90 e0       	ldi	r25, 0x00	; 0
     43e:	95 87       	std	Z+13, r25	; 0x0d
     440:	84 87       	std	Z+12, r24	; 0x0c
     442:	84 ec       	ldi	r24, 0xC4	; 196
     444:	90 e0       	ldi	r25, 0x00	; 0
     446:	97 87       	std	Z+15, r25	; 0x0f
     448:	86 87       	std	Z+14, r24	; 0x0e
     44a:	80 ec       	ldi	r24, 0xC0	; 192
     44c:	90 e0       	ldi	r25, 0x00	; 0
     44e:	91 8b       	std	Z+17, r25	; 0x11
     450:	80 8b       	std	Z+16, r24	; 0x10
     452:	81 ec       	ldi	r24, 0xC1	; 193
     454:	90 e0       	ldi	r25, 0x00	; 0
     456:	93 8b       	std	Z+19, r25	; 0x13
     458:	82 8b       	std	Z+18, r24	; 0x12
     45a:	82 ec       	ldi	r24, 0xC2	; 194
     45c:	90 e0       	ldi	r25, 0x00	; 0
     45e:	95 8b       	std	Z+21, r25	; 0x15
     460:	84 8b       	std	Z+20, r24	; 0x14
     462:	86 ec       	ldi	r24, 0xC6	; 198
     464:	90 e0       	ldi	r25, 0x00	; 0
     466:	97 8b       	std	Z+23, r25	; 0x17
     468:	86 8b       	std	Z+22, r24	; 0x16
     46a:	11 8e       	std	Z+25, r1	; 0x19
     46c:	12 8e       	std	Z+26, r1	; 0x1a
     46e:	13 8e       	std	Z+27, r1	; 0x1b
     470:	14 8e       	std	Z+28, r1	; 0x1c
     472:	08 95       	ret

00000474 <_ZN5Print5writeEPKhj>:
     474:	cf 92       	push	r12
     476:	df 92       	push	r13
     478:	ef 92       	push	r14
     47a:	ff 92       	push	r15
     47c:	0f 93       	push	r16
     47e:	1f 93       	push	r17
     480:	cf 93       	push	r28
     482:	df 93       	push	r29
     484:	41 15       	cp	r20, r1
     486:	51 05       	cpc	r21, r1
     488:	09 f1       	breq	.+66     	; 0x4cc <_ZN5Print5writeEPKhj+0x58>
     48a:	6a 01       	movw	r12, r20
     48c:	8c 01       	movw	r16, r24
     48e:	7b 01       	movw	r14, r22
     490:	c0 e0       	ldi	r28, 0x00	; 0
     492:	d0 e0       	ldi	r29, 0x00	; 0
     494:	04 c0       	rjmp	.+8      	; 0x49e <_ZN5Print5writeEPKhj+0x2a>
     496:	21 96       	adiw	r28, 0x01	; 1
     498:	cc 16       	cp	r12, r28
     49a:	dd 06       	cpc	r13, r29
     49c:	69 f0       	breq	.+26     	; 0x4b8 <_ZN5Print5writeEPKhj+0x44>
     49e:	d7 01       	movw	r26, r14
     4a0:	6d 91       	ld	r22, X+
     4a2:	7d 01       	movw	r14, r26
     4a4:	d8 01       	movw	r26, r16
     4a6:	ed 91       	ld	r30, X+
     4a8:	fc 91       	ld	r31, X
     4aa:	01 90       	ld	r0, Z+
     4ac:	f0 81       	ld	r31, Z
     4ae:	e0 2d       	mov	r30, r0
     4b0:	c8 01       	movw	r24, r16
     4b2:	09 95       	icall
     4b4:	89 2b       	or	r24, r25
     4b6:	79 f7       	brne	.-34     	; 0x496 <_ZN5Print5writeEPKhj+0x22>
     4b8:	ce 01       	movw	r24, r28
     4ba:	df 91       	pop	r29
     4bc:	cf 91       	pop	r28
     4be:	1f 91       	pop	r17
     4c0:	0f 91       	pop	r16
     4c2:	ff 90       	pop	r15
     4c4:	ef 90       	pop	r14
     4c6:	df 90       	pop	r13
     4c8:	cf 90       	pop	r12
     4ca:	08 95       	ret
     4cc:	c0 e0       	ldi	r28, 0x00	; 0
     4ce:	d0 e0       	ldi	r29, 0x00	; 0
     4d0:	f3 cf       	rjmp	.-26     	; 0x4b8 <_ZN5Print5writeEPKhj+0x44>

000004d2 <_ZN8SPIClass5beginEv>:
     4d2:	cf 93       	push	r28
     4d4:	cf b7       	in	r28, 0x3f	; 63
     4d6:	f8 94       	cli
     4d8:	80 91 e3 01 	lds	r24, 0x01E3	; 0x8001e3 <_ZN8SPIClass11initializedE>
     4dc:	81 11       	cpse	r24, r1
     4de:	25 c0       	rjmp	.+74     	; 0x52a <_ZN8SPIClass5beginEv+0x58>
     4e0:	e9 ec       	ldi	r30, 0xC9	; 201
     4e2:	f0 e0       	ldi	r31, 0x00	; 0
     4e4:	84 91       	lpm	r24, Z
     4e6:	e5 eb       	ldi	r30, 0xB5	; 181
     4e8:	f0 e0       	ldi	r31, 0x00	; 0
     4ea:	94 91       	lpm	r25, Z
     4ec:	e8 2f       	mov	r30, r24
     4ee:	f0 e0       	ldi	r31, 0x00	; 0
     4f0:	ee 0f       	add	r30, r30
     4f2:	ff 1f       	adc	r31, r31
     4f4:	e9 51       	subi	r30, 0x19	; 25
     4f6:	ff 4f       	sbci	r31, 0xFF	; 255
     4f8:	a5 91       	lpm	r26, Z+
     4fa:	b4 91       	lpm	r27, Z
     4fc:	ec 91       	ld	r30, X
     4fe:	e9 23       	and	r30, r25
     500:	d1 f0       	breq	.+52     	; 0x536 <_ZN8SPIClass5beginEv+0x64>
     502:	61 e0       	ldi	r22, 0x01	; 1
     504:	8a e0       	ldi	r24, 0x0A	; 10
     506:	0e 94 38 04 	call	0x870	; 0x870 <pinMode>
     50a:	8c b5       	in	r24, 0x2c	; 44
     50c:	80 61       	ori	r24, 0x10	; 16
     50e:	8c bd       	out	0x2c, r24	; 44
     510:	8c b5       	in	r24, 0x2c	; 44
     512:	80 64       	ori	r24, 0x40	; 64
     514:	8c bd       	out	0x2c, r24	; 44
     516:	61 e0       	ldi	r22, 0x01	; 1
     518:	8d e0       	ldi	r24, 0x0D	; 13
     51a:	0e 94 38 04 	call	0x870	; 0x870 <pinMode>
     51e:	61 e0       	ldi	r22, 0x01	; 1
     520:	8b e0       	ldi	r24, 0x0B	; 11
     522:	0e 94 38 04 	call	0x870	; 0x870 <pinMode>
     526:	80 91 e3 01 	lds	r24, 0x01E3	; 0x8001e3 <_ZN8SPIClass11initializedE>
     52a:	8f 5f       	subi	r24, 0xFF	; 255
     52c:	80 93 e3 01 	sts	0x01E3, r24	; 0x8001e3 <_ZN8SPIClass11initializedE>
     530:	cf bf       	out	0x3f, r28	; 63
     532:	cf 91       	pop	r28
     534:	08 95       	ret
     536:	61 e0       	ldi	r22, 0x01	; 1
     538:	8a e0       	ldi	r24, 0x0A	; 10
     53a:	0e 94 79 04 	call	0x8f2	; 0x8f2 <digitalWrite>
     53e:	e1 cf       	rjmp	.-62     	; 0x502 <_ZN8SPIClass5beginEv+0x30>

00000540 <__vector_7>:
     540:	1f 92       	push	r1
     542:	0f 92       	push	r0
     544:	0f b6       	in	r0, 0x3f	; 63
     546:	0f 92       	push	r0
     548:	11 24       	eor	r1, r1
     54a:	2f 93       	push	r18
     54c:	3f 93       	push	r19
     54e:	4f 93       	push	r20
     550:	5f 93       	push	r21
     552:	6f 93       	push	r22
     554:	7f 93       	push	r23
     556:	8f 93       	push	r24
     558:	9f 93       	push	r25
     55a:	af 93       	push	r26
     55c:	bf 93       	push	r27
     55e:	ef 93       	push	r30
     560:	ff 93       	push	r31
     562:	80 91 e7 01 	lds	r24, 0x01E7	; 0x8001e7 <timer2_toggle_count>
     566:	90 91 e8 01 	lds	r25, 0x01E8	; 0x8001e8 <timer2_toggle_count+0x1>
     56a:	a0 91 e9 01 	lds	r26, 0x01E9	; 0x8001e9 <timer2_toggle_count+0x2>
     56e:	b0 91 ea 01 	lds	r27, 0x01EA	; 0x8001ea <timer2_toggle_count+0x3>
     572:	89 2b       	or	r24, r25
     574:	8a 2b       	or	r24, r26
     576:	8b 2b       	or	r24, r27
     578:	d1 f1       	breq	.+116    	; 0x5ee <__vector_7+0xae>
     57a:	90 91 e4 01 	lds	r25, 0x01E4	; 0x8001e4 <timer2_pin_mask>
     57e:	e0 91 e5 01 	lds	r30, 0x01E5	; 0x8001e5 <timer2_pin_port>
     582:	f0 91 e6 01 	lds	r31, 0x01E6	; 0x8001e6 <timer2_pin_port+0x1>
     586:	80 81       	ld	r24, Z
     588:	89 27       	eor	r24, r25
     58a:	80 83       	st	Z, r24
     58c:	80 91 e7 01 	lds	r24, 0x01E7	; 0x8001e7 <timer2_toggle_count>
     590:	90 91 e8 01 	lds	r25, 0x01E8	; 0x8001e8 <timer2_toggle_count+0x1>
     594:	a0 91 e9 01 	lds	r26, 0x01E9	; 0x8001e9 <timer2_toggle_count+0x2>
     598:	b0 91 ea 01 	lds	r27, 0x01EA	; 0x8001ea <timer2_toggle_count+0x3>
     59c:	18 16       	cp	r1, r24
     59e:	19 06       	cpc	r1, r25
     5a0:	1a 06       	cpc	r1, r26
     5a2:	1b 06       	cpc	r1, r27
     5a4:	9c f4       	brge	.+38     	; 0x5cc <__vector_7+0x8c>
     5a6:	80 91 e7 01 	lds	r24, 0x01E7	; 0x8001e7 <timer2_toggle_count>
     5aa:	90 91 e8 01 	lds	r25, 0x01E8	; 0x8001e8 <timer2_toggle_count+0x1>
     5ae:	a0 91 e9 01 	lds	r26, 0x01E9	; 0x8001e9 <timer2_toggle_count+0x2>
     5b2:	b0 91 ea 01 	lds	r27, 0x01EA	; 0x8001ea <timer2_toggle_count+0x3>
     5b6:	01 97       	sbiw	r24, 0x01	; 1
     5b8:	a1 09       	sbc	r26, r1
     5ba:	b1 09       	sbc	r27, r1
     5bc:	80 93 e7 01 	sts	0x01E7, r24	; 0x8001e7 <timer2_toggle_count>
     5c0:	90 93 e8 01 	sts	0x01E8, r25	; 0x8001e8 <timer2_toggle_count+0x1>
     5c4:	a0 93 e9 01 	sts	0x01E9, r26	; 0x8001e9 <timer2_toggle_count+0x2>
     5c8:	b0 93 ea 01 	sts	0x01EA, r27	; 0x8001ea <timer2_toggle_count+0x3>
     5cc:	ff 91       	pop	r31
     5ce:	ef 91       	pop	r30
     5d0:	bf 91       	pop	r27
     5d2:	af 91       	pop	r26
     5d4:	9f 91       	pop	r25
     5d6:	8f 91       	pop	r24
     5d8:	7f 91       	pop	r23
     5da:	6f 91       	pop	r22
     5dc:	5f 91       	pop	r21
     5de:	4f 91       	pop	r20
     5e0:	3f 91       	pop	r19
     5e2:	2f 91       	pop	r18
     5e4:	0f 90       	pop	r0
     5e6:	0f be       	out	0x3f, r0	; 63
     5e8:	0f 90       	pop	r0
     5ea:	1f 90       	pop	r1
     5ec:	18 95       	reti
     5ee:	80 91 06 01 	lds	r24, 0x0106	; 0x800106 <_ZL9tone_pins>
     5f2:	e6 e9       	ldi	r30, 0x96	; 150
     5f4:	f0 e0       	ldi	r31, 0x00	; 0
     5f6:	e4 91       	lpm	r30, Z
     5f8:	9f ef       	ldi	r25, 0xFF	; 255
     5fa:	90 93 06 01 	sts	0x0106, r25	; 0x800106 <_ZL9tone_pins>
     5fe:	e1 30       	cpi	r30, 0x01	; 1
     600:	d1 f0       	breq	.+52     	; 0x636 <__vector_7+0xf6>
     602:	b0 f0       	brcs	.+44     	; 0x630 <__vector_7+0xf0>
     604:	e2 30       	cpi	r30, 0x02	; 2
     606:	81 f4       	brne	.+32     	; 0x628 <__vector_7+0xe8>
     608:	90 91 70 00 	lds	r25, 0x0070	; 0x800070 <__TEXT_REGION_LENGTH__+0x7e0070>
     60c:	9d 7f       	andi	r25, 0xFD	; 253
     60e:	90 93 70 00 	sts	0x0070, r25	; 0x800070 <__TEXT_REGION_LENGTH__+0x7e0070>
     612:	91 e0       	ldi	r25, 0x01	; 1
     614:	90 93 b0 00 	sts	0x00B0, r25	; 0x8000b0 <__TEXT_REGION_LENGTH__+0x7e00b0>
     618:	90 91 b1 00 	lds	r25, 0x00B1	; 0x8000b1 <__TEXT_REGION_LENGTH__+0x7e00b1>
     61c:	98 7f       	andi	r25, 0xF8	; 248
     61e:	94 60       	ori	r25, 0x04	; 4
     620:	90 93 b1 00 	sts	0x00B1, r25	; 0x8000b1 <__TEXT_REGION_LENGTH__+0x7e00b1>
     624:	10 92 b3 00 	sts	0x00B3, r1	; 0x8000b3 <__TEXT_REGION_LENGTH__+0x7e00b3>
     628:	60 e0       	ldi	r22, 0x00	; 0
     62a:	0e 94 79 04 	call	0x8f2	; 0x8f2 <digitalWrite>
     62e:	ce cf       	rjmp	.-100    	; 0x5cc <__vector_7+0x8c>
     630:	10 92 6e 00 	sts	0x006E, r1	; 0x80006e <__TEXT_REGION_LENGTH__+0x7e006e>
     634:	f9 cf       	rjmp	.-14     	; 0x628 <__vector_7+0xe8>
     636:	90 91 6f 00 	lds	r25, 0x006F	; 0x80006f <__TEXT_REGION_LENGTH__+0x7e006f>
     63a:	9d 7f       	andi	r25, 0xFD	; 253
     63c:	90 93 6f 00 	sts	0x006F, r25	; 0x80006f <__TEXT_REGION_LENGTH__+0x7e006f>
     640:	f3 cf       	rjmp	.-26     	; 0x628 <__vector_7+0xe8>

00000642 <nothing>:
     642:	08 95       	ret

00000644 <attachInterrupt>:
     644:	82 30       	cpi	r24, 0x02	; 2
     646:	08 f0       	brcs	.+2      	; 0x64a <attachInterrupt+0x6>
     648:	08 95       	ret
     64a:	e8 2f       	mov	r30, r24
     64c:	f0 e0       	ldi	r31, 0x00	; 0
     64e:	ee 0f       	add	r30, r30
     650:	ff 1f       	adc	r31, r31
     652:	e9 5f       	subi	r30, 0xF9	; 249
     654:	fe 4f       	sbci	r31, 0xFE	; 254
     656:	71 83       	std	Z+1, r23	; 0x01
     658:	60 83       	st	Z, r22
     65a:	81 30       	cpi	r24, 0x01	; 1
     65c:	61 f4       	brne	.+24     	; 0x676 <attachInterrupt+0x32>
     65e:	80 91 69 00 	lds	r24, 0x0069	; 0x800069 <__TEXT_REGION_LENGTH__+0x7e0069>
     662:	83 7f       	andi	r24, 0xF3	; 243
     664:	44 0f       	add	r20, r20
     666:	55 1f       	adc	r21, r21
     668:	44 0f       	add	r20, r20
     66a:	55 1f       	adc	r21, r21
     66c:	48 2b       	or	r20, r24
     66e:	40 93 69 00 	sts	0x0069, r20	; 0x800069 <__TEXT_REGION_LENGTH__+0x7e0069>
     672:	e9 9a       	sbi	0x1d, 1	; 29
     674:	08 95       	ret
     676:	80 91 69 00 	lds	r24, 0x0069	; 0x800069 <__TEXT_REGION_LENGTH__+0x7e0069>
     67a:	8c 7f       	andi	r24, 0xFC	; 252
     67c:	48 2b       	or	r20, r24
     67e:	40 93 69 00 	sts	0x0069, r20	; 0x800069 <__TEXT_REGION_LENGTH__+0x7e0069>
     682:	e8 9a       	sbi	0x1d, 0	; 29
     684:	08 95       	ret

00000686 <__vector_1>:
     686:	1f 92       	push	r1
     688:	0f 92       	push	r0
     68a:	0f b6       	in	r0, 0x3f	; 63
     68c:	0f 92       	push	r0
     68e:	11 24       	eor	r1, r1
     690:	2f 93       	push	r18
     692:	3f 93       	push	r19
     694:	4f 93       	push	r20
     696:	5f 93       	push	r21
     698:	6f 93       	push	r22
     69a:	7f 93       	push	r23
     69c:	8f 93       	push	r24
     69e:	9f 93       	push	r25
     6a0:	af 93       	push	r26
     6a2:	bf 93       	push	r27
     6a4:	ef 93       	push	r30
     6a6:	ff 93       	push	r31
     6a8:	e0 91 07 01 	lds	r30, 0x0107	; 0x800107 <intFunc>
     6ac:	f0 91 08 01 	lds	r31, 0x0108	; 0x800108 <intFunc+0x1>
     6b0:	09 95       	icall
     6b2:	ff 91       	pop	r31
     6b4:	ef 91       	pop	r30
     6b6:	bf 91       	pop	r27
     6b8:	af 91       	pop	r26
     6ba:	9f 91       	pop	r25
     6bc:	8f 91       	pop	r24
     6be:	7f 91       	pop	r23
     6c0:	6f 91       	pop	r22
     6c2:	5f 91       	pop	r21
     6c4:	4f 91       	pop	r20
     6c6:	3f 91       	pop	r19
     6c8:	2f 91       	pop	r18
     6ca:	0f 90       	pop	r0
     6cc:	0f be       	out	0x3f, r0	; 63
     6ce:	0f 90       	pop	r0
     6d0:	1f 90       	pop	r1
     6d2:	18 95       	reti

000006d4 <__vector_2>:
     6d4:	1f 92       	push	r1
     6d6:	0f 92       	push	r0
     6d8:	0f b6       	in	r0, 0x3f	; 63
     6da:	0f 92       	push	r0
     6dc:	11 24       	eor	r1, r1
     6de:	2f 93       	push	r18
     6e0:	3f 93       	push	r19
     6e2:	4f 93       	push	r20
     6e4:	5f 93       	push	r21
     6e6:	6f 93       	push	r22
     6e8:	7f 93       	push	r23
     6ea:	8f 93       	push	r24
     6ec:	9f 93       	push	r25
     6ee:	af 93       	push	r26
     6f0:	bf 93       	push	r27
     6f2:	ef 93       	push	r30
     6f4:	ff 93       	push	r31
     6f6:	e0 91 09 01 	lds	r30, 0x0109	; 0x800109 <intFunc+0x2>
     6fa:	f0 91 0a 01 	lds	r31, 0x010A	; 0x80010a <intFunc+0x3>
     6fe:	09 95       	icall
     700:	ff 91       	pop	r31
     702:	ef 91       	pop	r30
     704:	bf 91       	pop	r27
     706:	af 91       	pop	r26
     708:	9f 91       	pop	r25
     70a:	8f 91       	pop	r24
     70c:	7f 91       	pop	r23
     70e:	6f 91       	pop	r22
     710:	5f 91       	pop	r21
     712:	4f 91       	pop	r20
     714:	3f 91       	pop	r19
     716:	2f 91       	pop	r18
     718:	0f 90       	pop	r0
     71a:	0f be       	out	0x3f, r0	; 63
     71c:	0f 90       	pop	r0
     71e:	1f 90       	pop	r1
     720:	18 95       	reti

00000722 <__vector_16>:
     722:	1f 92       	push	r1
     724:	0f 92       	push	r0
     726:	0f b6       	in	r0, 0x3f	; 63
     728:	0f 92       	push	r0
     72a:	11 24       	eor	r1, r1
     72c:	2f 93       	push	r18
     72e:	8f 93       	push	r24
     730:	9f 93       	push	r25
     732:	af 93       	push	r26
     734:	bf 93       	push	r27
     736:	80 91 f1 01 	lds	r24, 0x01F1	; 0x8001f1 <microsCount>
     73a:	90 91 f2 01 	lds	r25, 0x01F2	; 0x8001f2 <microsCount+0x1>
     73e:	a0 91 f3 01 	lds	r26, 0x01F3	; 0x8001f3 <microsCount+0x2>
     742:	b0 91 f4 01 	lds	r27, 0x01F4	; 0x8001f4 <microsCount+0x3>
     746:	80 96       	adiw	r24, 0x20	; 32
     748:	a1 1d       	adc	r26, r1
     74a:	b1 1d       	adc	r27, r1
     74c:	80 93 f1 01 	sts	0x01F1, r24	; 0x8001f1 <microsCount>
     750:	90 93 f2 01 	sts	0x01F2, r25	; 0x8001f2 <microsCount+0x1>
     754:	a0 93 f3 01 	sts	0x01F3, r26	; 0x8001f3 <microsCount+0x2>
     758:	b0 93 f4 01 	sts	0x01F4, r27	; 0x8001f4 <microsCount+0x3>
     75c:	80 91 ef 01 	lds	r24, 0x01EF	; 0x8001ef <milliAccum>
     760:	90 91 f0 01 	lds	r25, 0x01F0	; 0x8001f0 <milliAccum+0x1>
     764:	80 96       	adiw	r24, 0x20	; 32
     766:	90 93 f0 01 	sts	0x01F0, r25	; 0x8001f0 <milliAccum+0x1>
     76a:	80 93 ef 01 	sts	0x01EF, r24	; 0x8001ef <milliAccum>
     76e:	80 91 ef 01 	lds	r24, 0x01EF	; 0x8001ef <milliAccum>
     772:	90 91 f0 01 	lds	r25, 0x01F0	; 0x8001f0 <milliAccum+0x1>
     776:	89 3e       	cpi	r24, 0xE9	; 233
     778:	93 40       	sbci	r25, 0x03	; 3
     77a:	e8 f0       	brcs	.+58     	; 0x7b6 <__vector_16+0x94>
     77c:	80 91 ef 01 	lds	r24, 0x01EF	; 0x8001ef <milliAccum>
     780:	90 91 f0 01 	lds	r25, 0x01F0	; 0x8001f0 <milliAccum+0x1>
     784:	88 5e       	subi	r24, 0xE8	; 232
     786:	93 40       	sbci	r25, 0x03	; 3
     788:	90 93 f0 01 	sts	0x01F0, r25	; 0x8001f0 <milliAccum+0x1>
     78c:	80 93 ef 01 	sts	0x01EF, r24	; 0x8001ef <milliAccum>
     790:	80 91 eb 01 	lds	r24, 0x01EB	; 0x8001eb <millisCount>
     794:	90 91 ec 01 	lds	r25, 0x01EC	; 0x8001ec <millisCount+0x1>
     798:	a0 91 ed 01 	lds	r26, 0x01ED	; 0x8001ed <millisCount+0x2>
     79c:	b0 91 ee 01 	lds	r27, 0x01EE	; 0x8001ee <millisCount+0x3>
     7a0:	01 96       	adiw	r24, 0x01	; 1
     7a2:	a1 1d       	adc	r26, r1
     7a4:	b1 1d       	adc	r27, r1
     7a6:	80 93 eb 01 	sts	0x01EB, r24	; 0x8001eb <millisCount>
     7aa:	90 93 ec 01 	sts	0x01EC, r25	; 0x8001ec <millisCount+0x1>
     7ae:	a0 93 ed 01 	sts	0x01ED, r26	; 0x8001ed <millisCount+0x2>
     7b2:	b0 93 ee 01 	sts	0x01EE, r27	; 0x8001ee <millisCount+0x3>
     7b6:	bf 91       	pop	r27
     7b8:	af 91       	pop	r26
     7ba:	9f 91       	pop	r25
     7bc:	8f 91       	pop	r24
     7be:	2f 91       	pop	r18
     7c0:	0f 90       	pop	r0
     7c2:	0f be       	out	0x3f, r0	; 63
     7c4:	0f 90       	pop	r0
     7c6:	1f 90       	pop	r1
     7c8:	18 95       	reti

000007ca <micros>:
     7ca:	2f b7       	in	r18, 0x3f	; 63
     7cc:	f8 94       	cli
     7ce:	60 91 f1 01 	lds	r22, 0x01F1	; 0x8001f1 <microsCount>
     7d2:	70 91 f2 01 	lds	r23, 0x01F2	; 0x8001f2 <microsCount+0x1>
     7d6:	80 91 f3 01 	lds	r24, 0x01F3	; 0x8001f3 <microsCount+0x2>
     7da:	90 91 f4 01 	lds	r25, 0x01F4	; 0x8001f4 <microsCount+0x3>
     7de:	2f bf       	out	0x3f, r18	; 63
     7e0:	08 95       	ret

000007e2 <millis>:
     7e2:	2f b7       	in	r18, 0x3f	; 63
     7e4:	f8 94       	cli
     7e6:	60 91 eb 01 	lds	r22, 0x01EB	; 0x8001eb <millisCount>
     7ea:	70 91 ec 01 	lds	r23, 0x01EC	; 0x8001ec <millisCount+0x1>
     7ee:	80 91 ed 01 	lds	r24, 0x01ED	; 0x8001ed <millisCount+0x2>
     7f2:	90 91 ee 01 	lds	r25, 0x01EE	; 0x8001ee <millisCount+0x3>
     7f6:	2f bf       	out	0x3f, r18	; 63
     7f8:	08 95       	ret

000007fa <init>:
     7fa:	78 94       	sei
     7fc:	84 b5       	in	r24, 0x24	; 36
     7fe:	82 60       	ori	r24, 0x02	; 2
     800:	84 bd       	out	0x24, r24	; 36
     802:	84 b5       	in	r24, 0x24	; 36
     804:	81 60       	ori	r24, 0x01	; 1
     806:	84 bd       	out	0x24, r24	; 36
     808:	85 b5       	in	r24, 0x25	; 37
     80a:	82 60       	ori	r24, 0x02	; 2
     80c:	85 bd       	out	0x25, r24	; 37
     80e:	85 b5       	in	r24, 0x25	; 37
     810:	81 60       	ori	r24, 0x01	; 1
     812:	85 bd       	out	0x25, r24	; 37
     814:	ee e6       	ldi	r30, 0x6E	; 110
     816:	f0 e0       	ldi	r31, 0x00	; 0
     818:	80 81       	ld	r24, Z
     81a:	81 60       	ori	r24, 0x01	; 1
     81c:	80 83       	st	Z, r24
     81e:	e1 e8       	ldi	r30, 0x81	; 129
     820:	f0 e0       	ldi	r31, 0x00	; 0
     822:	10 82       	st	Z, r1
     824:	80 81       	ld	r24, Z
     826:	82 60       	ori	r24, 0x02	; 2
     828:	80 83       	st	Z, r24
     82a:	80 81       	ld	r24, Z
     82c:	81 60       	ori	r24, 0x01	; 1
     82e:	80 83       	st	Z, r24
     830:	e0 e8       	ldi	r30, 0x80	; 128
     832:	f0 e0       	ldi	r31, 0x00	; 0
     834:	80 81       	ld	r24, Z
     836:	81 60       	ori	r24, 0x01	; 1
     838:	80 83       	st	Z, r24
     83a:	e1 eb       	ldi	r30, 0xB1	; 177
     83c:	f0 e0       	ldi	r31, 0x00	; 0
     83e:	80 81       	ld	r24, Z
     840:	84 60       	ori	r24, 0x04	; 4
     842:	80 83       	st	Z, r24
     844:	e0 eb       	ldi	r30, 0xB0	; 176
     846:	f0 e0       	ldi	r31, 0x00	; 0
     848:	80 81       	ld	r24, Z
     84a:	81 60       	ori	r24, 0x01	; 1
     84c:	80 83       	st	Z, r24
     84e:	ea e7       	ldi	r30, 0x7A	; 122
     850:	f0 e0       	ldi	r31, 0x00	; 0
     852:	80 81       	ld	r24, Z
     854:	84 60       	ori	r24, 0x04	; 4
     856:	80 83       	st	Z, r24
     858:	80 81       	ld	r24, Z
     85a:	82 60       	ori	r24, 0x02	; 2
     85c:	80 83       	st	Z, r24
     85e:	80 81       	ld	r24, Z
     860:	8e 7f       	andi	r24, 0xFE	; 254
     862:	80 83       	st	Z, r24
     864:	80 81       	ld	r24, Z
     866:	80 68       	ori	r24, 0x80	; 128
     868:	80 83       	st	Z, r24
     86a:	10 92 c1 00 	sts	0x00C1, r1	; 0x8000c1 <__TEXT_REGION_LENGTH__+0x7e00c1>
     86e:	08 95       	ret

00000870 <pinMode>:
     870:	cf 93       	push	r28
     872:	df 93       	push	r29
     874:	90 e0       	ldi	r25, 0x00	; 0
     876:	fc 01       	movw	r30, r24
     878:	e5 55       	subi	r30, 0x55	; 85
     87a:	ff 4f       	sbci	r31, 0xFF	; 255
     87c:	24 91       	lpm	r18, Z
     87e:	fc 01       	movw	r30, r24
     880:	e1 54       	subi	r30, 0x41	; 65
     882:	ff 4f       	sbci	r31, 0xFF	; 255
     884:	84 91       	lpm	r24, Z
     886:	88 23       	and	r24, r24
     888:	b9 f0       	breq	.+46     	; 0x8b8 <pinMode+0x48>
     88a:	90 e0       	ldi	r25, 0x00	; 0
     88c:	88 0f       	add	r24, r24
     88e:	99 1f       	adc	r25, r25
     890:	fc 01       	movw	r30, r24
     892:	e9 51       	subi	r30, 0x19	; 25
     894:	ff 4f       	sbci	r31, 0xFF	; 255
     896:	a5 91       	lpm	r26, Z+
     898:	b4 91       	lpm	r27, Z
     89a:	fc 01       	movw	r30, r24
     89c:	e3 52       	subi	r30, 0x23	; 35
     89e:	ff 4f       	sbci	r31, 0xFF	; 255
     8a0:	c5 91       	lpm	r28, Z+
     8a2:	d4 91       	lpm	r29, Z
     8a4:	66 23       	and	r22, r22
     8a6:	59 f0       	breq	.+22     	; 0x8be <pinMode+0x4e>
     8a8:	62 30       	cpi	r22, 0x02	; 2
     8aa:	b9 f0       	breq	.+46     	; 0x8da <pinMode+0x6a>
     8ac:	8f b7       	in	r24, 0x3f	; 63
     8ae:	f8 94       	cli
     8b0:	ec 91       	ld	r30, X
     8b2:	e2 2b       	or	r30, r18
     8b4:	ec 93       	st	X, r30
     8b6:	8f bf       	out	0x3f, r24	; 63
     8b8:	df 91       	pop	r29
     8ba:	cf 91       	pop	r28
     8bc:	08 95       	ret
     8be:	9f b7       	in	r25, 0x3f	; 63
     8c0:	f8 94       	cli
     8c2:	8c 91       	ld	r24, X
     8c4:	e2 2f       	mov	r30, r18
     8c6:	e0 95       	com	r30
     8c8:	8e 23       	and	r24, r30
     8ca:	8c 93       	st	X, r24
     8cc:	28 81       	ld	r18, Y
     8ce:	e2 23       	and	r30, r18
     8d0:	e8 83       	st	Y, r30
     8d2:	9f bf       	out	0x3f, r25	; 63
     8d4:	df 91       	pop	r29
     8d6:	cf 91       	pop	r28
     8d8:	08 95       	ret
     8da:	9f b7       	in	r25, 0x3f	; 63
     8dc:	f8 94       	cli
     8de:	8c 91       	ld	r24, X
     8e0:	32 2f       	mov	r19, r18
     8e2:	30 95       	com	r19
     8e4:	83 23       	and	r24, r19
     8e6:	8c 93       	st	X, r24
     8e8:	e8 81       	ld	r30, Y
     8ea:	e2 2b       	or	r30, r18
     8ec:	e8 83       	st	Y, r30
     8ee:	9f bf       	out	0x3f, r25	; 63
     8f0:	e3 cf       	rjmp	.-58     	; 0x8b8 <pinMode+0x48>

000008f2 <digitalWrite>:
     8f2:	90 e0       	ldi	r25, 0x00	; 0
     8f4:	fc 01       	movw	r30, r24
     8f6:	e9 56       	subi	r30, 0x69	; 105
     8f8:	ff 4f       	sbci	r31, 0xFF	; 255
     8fa:	24 91       	lpm	r18, Z
     8fc:	fc 01       	movw	r30, r24
     8fe:	e5 55       	subi	r30, 0x55	; 85
     900:	ff 4f       	sbci	r31, 0xFF	; 255
     902:	34 91       	lpm	r19, Z
     904:	fc 01       	movw	r30, r24
     906:	e1 54       	subi	r30, 0x41	; 65
     908:	ff 4f       	sbci	r31, 0xFF	; 255
     90a:	84 91       	lpm	r24, Z
     90c:	88 23       	and	r24, r24
     90e:	a1 f0       	breq	.+40     	; 0x938 <__stack+0x39>
     910:	21 11       	cpse	r18, r1
     912:	18 c0       	rjmp	.+48     	; 0x944 <__stack+0x45>
     914:	e8 2f       	mov	r30, r24
     916:	f0 e0       	ldi	r31, 0x00	; 0
     918:	ee 0f       	add	r30, r30
     91a:	ff 1f       	adc	r31, r31
     91c:	e3 52       	subi	r30, 0x23	; 35
     91e:	ff 4f       	sbci	r31, 0xFF	; 255
     920:	a5 91       	lpm	r26, Z+
     922:	b4 91       	lpm	r27, Z
     924:	8f b7       	in	r24, 0x3f	; 63
     926:	f8 94       	cli
     928:	61 11       	cpse	r22, r1
     92a:	07 c0       	rjmp	.+14     	; 0x93a <__stack+0x3b>
     92c:	9c 91       	ld	r25, X
     92e:	e3 2f       	mov	r30, r19
     930:	e0 95       	com	r30
     932:	e9 23       	and	r30, r25
     934:	ec 93       	st	X, r30
     936:	8f bf       	out	0x3f, r24	; 63
     938:	08 95       	ret
     93a:	ec 91       	ld	r30, X
     93c:	e3 2b       	or	r30, r19
     93e:	ec 93       	st	X, r30
     940:	8f bf       	out	0x3f, r24	; 63
     942:	fa cf       	rjmp	.-12     	; 0x938 <__stack+0x39>
     944:	23 30       	cpi	r18, 0x03	; 3
     946:	29 f1       	breq	.+74     	; 0x992 <__stack+0x93>
     948:	60 f0       	brcs	.+24     	; 0x962 <__stack+0x63>
     94a:	27 30       	cpi	r18, 0x07	; 7
     94c:	e1 f0       	breq	.+56     	; 0x986 <__stack+0x87>
     94e:	28 30       	cpi	r18, 0x08	; 8
     950:	a1 f0       	breq	.+40     	; 0x97a <__stack+0x7b>
     952:	24 30       	cpi	r18, 0x04	; 4
     954:	f9 f6       	brne	.-66     	; 0x914 <__stack+0x15>
     956:	90 91 80 00 	lds	r25, 0x0080	; 0x800080 <__TEXT_REGION_LENGTH__+0x7e0080>
     95a:	9f 7d       	andi	r25, 0xDF	; 223
     95c:	90 93 80 00 	sts	0x0080, r25	; 0x800080 <__TEXT_REGION_LENGTH__+0x7e0080>
     960:	d9 cf       	rjmp	.-78     	; 0x914 <__stack+0x15>
     962:	21 30       	cpi	r18, 0x01	; 1
     964:	31 f0       	breq	.+12     	; 0x972 <__stack+0x73>
     966:	22 30       	cpi	r18, 0x02	; 2
     968:	a9 f6       	brne	.-86     	; 0x914 <__stack+0x15>
     96a:	94 b5       	in	r25, 0x24	; 36
     96c:	9f 7d       	andi	r25, 0xDF	; 223
     96e:	94 bd       	out	0x24, r25	; 36
     970:	d1 cf       	rjmp	.-94     	; 0x914 <__stack+0x15>
     972:	94 b5       	in	r25, 0x24	; 36
     974:	9f 77       	andi	r25, 0x7F	; 127
     976:	94 bd       	out	0x24, r25	; 36
     978:	cd cf       	rjmp	.-102    	; 0x914 <__stack+0x15>
     97a:	90 91 b0 00 	lds	r25, 0x00B0	; 0x8000b0 <__TEXT_REGION_LENGTH__+0x7e00b0>
     97e:	9f 7d       	andi	r25, 0xDF	; 223
     980:	90 93 b0 00 	sts	0x00B0, r25	; 0x8000b0 <__TEXT_REGION_LENGTH__+0x7e00b0>
     984:	c7 cf       	rjmp	.-114    	; 0x914 <__stack+0x15>
     986:	90 91 b0 00 	lds	r25, 0x00B0	; 0x8000b0 <__TEXT_REGION_LENGTH__+0x7e00b0>
     98a:	9f 77       	andi	r25, 0x7F	; 127
     98c:	90 93 b0 00 	sts	0x00B0, r25	; 0x8000b0 <__TEXT_REGION_LENGTH__+0x7e00b0>
     990:	c1 cf       	rjmp	.-126    	; 0x914 <__stack+0x15>
     992:	90 91 80 00 	lds	r25, 0x0080	; 0x800080 <__TEXT_REGION_LENGTH__+0x7e0080>
     996:	9f 77       	andi	r25, 0x7F	; 127
     998:	90 93 80 00 	sts	0x0080, r25	; 0x800080 <__TEXT_REGION_LENGTH__+0x7e0080>
     99c:	bb cf       	rjmp	.-138    	; 0x914 <__stack+0x15>

0000099e <digitalRead>:
     99e:	90 e0       	ldi	r25, 0x00	; 0
     9a0:	fc 01       	movw	r30, r24
     9a2:	e9 56       	subi	r30, 0x69	; 105
     9a4:	ff 4f       	sbci	r31, 0xFF	; 255
     9a6:	24 91       	lpm	r18, Z
     9a8:	fc 01       	movw	r30, r24
     9aa:	e5 55       	subi	r30, 0x55	; 85
     9ac:	ff 4f       	sbci	r31, 0xFF	; 255
     9ae:	34 91       	lpm	r19, Z
     9b0:	fc 01       	movw	r30, r24
     9b2:	e1 54       	subi	r30, 0x41	; 65
     9b4:	ff 4f       	sbci	r31, 0xFF	; 255
     9b6:	84 91       	lpm	r24, Z
     9b8:	88 23       	and	r24, r24
     9ba:	91 f0       	breq	.+36     	; 0x9e0 <digitalRead+0x42>
     9bc:	21 11       	cpse	r18, r1
     9be:	13 c0       	rjmp	.+38     	; 0x9e6 <digitalRead+0x48>
     9c0:	e8 2f       	mov	r30, r24
     9c2:	f0 e0       	ldi	r31, 0x00	; 0
     9c4:	ee 0f       	add	r30, r30
     9c6:	ff 1f       	adc	r31, r31
     9c8:	ed 52       	subi	r30, 0x2D	; 45
     9ca:	ff 4f       	sbci	r31, 0xFF	; 255
     9cc:	a5 91       	lpm	r26, Z+
     9ce:	b4 91       	lpm	r27, Z
     9d0:	ec 91       	ld	r30, X
     9d2:	e3 23       	and	r30, r19
     9d4:	81 e0       	ldi	r24, 0x01	; 1
     9d6:	90 e0       	ldi	r25, 0x00	; 0
     9d8:	09 f0       	breq	.+2      	; 0x9dc <digitalRead+0x3e>
     9da:	08 95       	ret
     9dc:	80 e0       	ldi	r24, 0x00	; 0
     9de:	08 95       	ret
     9e0:	80 e0       	ldi	r24, 0x00	; 0
     9e2:	90 e0       	ldi	r25, 0x00	; 0
     9e4:	08 95       	ret
     9e6:	23 30       	cpi	r18, 0x03	; 3
     9e8:	29 f1       	breq	.+74     	; 0xa34 <digitalRead+0x96>
     9ea:	60 f0       	brcs	.+24     	; 0xa04 <digitalRead+0x66>
     9ec:	27 30       	cpi	r18, 0x07	; 7
     9ee:	e1 f0       	breq	.+56     	; 0xa28 <digitalRead+0x8a>
     9f0:	28 30       	cpi	r18, 0x08	; 8
     9f2:	a1 f0       	breq	.+40     	; 0xa1c <digitalRead+0x7e>
     9f4:	24 30       	cpi	r18, 0x04	; 4
     9f6:	21 f7       	brne	.-56     	; 0x9c0 <digitalRead+0x22>
     9f8:	90 91 80 00 	lds	r25, 0x0080	; 0x800080 <__TEXT_REGION_LENGTH__+0x7e0080>
     9fc:	9f 7d       	andi	r25, 0xDF	; 223
     9fe:	90 93 80 00 	sts	0x0080, r25	; 0x800080 <__TEXT_REGION_LENGTH__+0x7e0080>
     a02:	de cf       	rjmp	.-68     	; 0x9c0 <digitalRead+0x22>
     a04:	21 30       	cpi	r18, 0x01	; 1
     a06:	31 f0       	breq	.+12     	; 0xa14 <digitalRead+0x76>
     a08:	22 30       	cpi	r18, 0x02	; 2
     a0a:	d1 f6       	brne	.-76     	; 0x9c0 <digitalRead+0x22>
     a0c:	94 b5       	in	r25, 0x24	; 36
     a0e:	9f 7d       	andi	r25, 0xDF	; 223
     a10:	94 bd       	out	0x24, r25	; 36
     a12:	d6 cf       	rjmp	.-84     	; 0x9c0 <digitalRead+0x22>
     a14:	94 b5       	in	r25, 0x24	; 36
     a16:	9f 77       	andi	r25, 0x7F	; 127
     a18:	94 bd       	out	0x24, r25	; 36
     a1a:	d2 cf       	rjmp	.-92     	; 0x9c0 <digitalRead+0x22>
     a1c:	90 91 b0 00 	lds	r25, 0x00B0	; 0x8000b0 <__TEXT_REGION_LENGTH__+0x7e00b0>
     a20:	9f 7d       	andi	r25, 0xDF	; 223
     a22:	90 93 b0 00 	sts	0x00B0, r25	; 0x8000b0 <__TEXT_REGION_LENGTH__+0x7e00b0>
     a26:	cc cf       	rjmp	.-104    	; 0x9c0 <digitalRead+0x22>
     a28:	90 91 b0 00 	lds	r25, 0x00B0	; 0x8000b0 <__TEXT_REGION_LENGTH__+0x7e00b0>
     a2c:	9f 77       	andi	r25, 0x7F	; 127
     a2e:	90 93 b0 00 	sts	0x00B0, r25	; 0x8000b0 <__TEXT_REGION_LENGTH__+0x7e00b0>
     a32:	c6 cf       	rjmp	.-116    	; 0x9c0 <digitalRead+0x22>
     a34:	90 91 80 00 	lds	r25, 0x0080	; 0x800080 <__TEXT_REGION_LENGTH__+0x7e0080>
     a38:	9f 77       	andi	r25, 0x7F	; 127
     a3a:	90 93 80 00 	sts	0x0080, r25	; 0x800080 <__TEXT_REGION_LENGTH__+0x7e0080>
     a3e:	c0 cf       	rjmp	.-128    	; 0x9c0 <digitalRead+0x22>

00000a40 <_Z18initBatteryMonitorv>:
     a40:	50 98       	cbi	0x0a, 0	; 10
     a42:	58 9a       	sbi	0x0b, 0	; 11
     a44:	ea e7       	ldi	r30, 0x7A	; 122
     a46:	f0 e0       	ldi	r31, 0x00	; 0
     a48:	80 81       	ld	r24, Z
     a4a:	80 68       	ori	r24, 0x80	; 128
     a4c:	80 83       	st	Z, r24
     a4e:	ec e7       	ldi	r30, 0x7C	; 124
     a50:	f0 e0       	ldi	r31, 0x00	; 0
     a52:	80 81       	ld	r24, Z
     a54:	8f 73       	andi	r24, 0x3F	; 63
     a56:	80 83       	st	Z, r24
     a58:	80 81       	ld	r24, Z
     a5a:	80 7f       	andi	r24, 0xF0	; 240
     a5c:	80 83       	st	Z, r24
     a5e:	10 92 fa 01 	sts	0x01FA, r1	; 0x8001fa <_ZL17batteryMillivolts>
     a62:	10 92 fb 01 	sts	0x01FB, r1	; 0x8001fb <_ZL17batteryMillivolts+0x1>
     a66:	10 92 fc 01 	sts	0x01FC, r1	; 0x8001fc <_ZL17batteryMillivolts+0x2>
     a6a:	10 92 fd 01 	sts	0x01FD, r1	; 0x8001fd <_ZL17batteryMillivolts+0x3>
     a6e:	10 92 f9 01 	sts	0x01F9, r1	; 0x8001f9 <_ZL10lowBattery>
     a72:	08 95       	ret

00000a74 <_Z20handleBatteryMonitorj>:
     a74:	20 91 f7 01 	lds	r18, 0x01F7	; 0x8001f7 <_ZL5usecs>
     a78:	30 91 f8 01 	lds	r19, 0x01F8	; 0x8001f8 <_ZL5usecs+0x1>
     a7c:	82 0f       	add	r24, r18
     a7e:	93 1f       	adc	r25, r19
     a80:	e0 91 0b 01 	lds	r30, 0x010B	; 0x80010b <_ZL4secs>
     a84:	f0 91 0c 01 	lds	r31, 0x010C	; 0x80010c <_ZL4secs+0x1>
     a88:	60 91 f5 01 	lds	r22, 0x01F5	; 0x8001f5 <_ZL5msecs>
     a8c:	70 91 f6 01 	lds	r23, 0x01F6	; 0x8001f6 <_ZL5msecs+0x1>
     a90:	9c 01       	movw	r18, r24
     a92:	0b c0       	rjmp	.+22     	; 0xaaa <_Z20handleBatteryMonitorj+0x36>
     a94:	28 5e       	subi	r18, 0xE8	; 232
     a96:	33 40       	sbci	r19, 0x03	; 3
     a98:	ab 01       	movw	r20, r22
     a9a:	4f 5f       	subi	r20, 0xFF	; 255
     a9c:	5f 4f       	sbci	r21, 0xFF	; 255
     a9e:	c9 01       	movw	r24, r18
     aa0:	48 3e       	cpi	r20, 0xE8	; 232
     aa2:	a3 e0       	ldi	r26, 0x03	; 3
     aa4:	5a 07       	cpc	r21, r26
     aa6:	c0 f4       	brcc	.+48     	; 0xad8 <_Z20handleBatteryMonitorj+0x64>
     aa8:	ba 01       	movw	r22, r20
     aaa:	28 3e       	cpi	r18, 0xE8	; 232
     aac:	43 e0       	ldi	r20, 0x03	; 3
     aae:	34 07       	cpc	r19, r20
     ab0:	88 f7       	brcc	.-30     	; 0xa94 <_Z20handleBatteryMonitorj+0x20>
     ab2:	70 93 f6 01 	sts	0x01F6, r23	; 0x8001f6 <_ZL5msecs+0x1>
     ab6:	60 93 f5 01 	sts	0x01F5, r22	; 0x8001f5 <_ZL5msecs>
     aba:	90 93 f8 01 	sts	0x01F8, r25	; 0x8001f8 <_ZL5usecs+0x1>
     abe:	80 93 f7 01 	sts	0x01F7, r24	; 0x8001f7 <_ZL5usecs>
     ac2:	f0 93 0c 01 	sts	0x010C, r31	; 0x80010c <_ZL4secs+0x1>
     ac6:	e0 93 0b 01 	sts	0x010B, r30	; 0x80010b <_ZL4secs>
     aca:	34 97       	sbiw	r30, 0x04	; 4
     acc:	48 f4       	brcc	.+18     	; 0xae0 <_Z20handleBatteryMonitorj+0x6c>
     ace:	80 91 f9 01 	lds	r24, 0x01F9	; 0x8001f9 <_ZL10lowBattery>
     ad2:	81 11       	cpse	r24, r1
     ad4:	49 c0       	rjmp	.+146    	; 0xb68 <_Z20handleBatteryMonitorj+0xf4>
     ad6:	08 95       	ret
     ad8:	31 96       	adiw	r30, 0x01	; 1
     ada:	67 5e       	subi	r22, 0xE7	; 231
     adc:	73 40       	sbci	r23, 0x03	; 3
     ade:	e5 cf       	rjmp	.-54     	; 0xaaa <_Z20handleBatteryMonitorj+0x36>
     ae0:	10 92 0c 01 	sts	0x010C, r1	; 0x80010c <_ZL4secs+0x1>
     ae4:	10 92 0b 01 	sts	0x010B, r1	; 0x80010b <_ZL4secs>
     ae8:	80 91 7a 00 	lds	r24, 0x007A	; 0x80007a <__TEXT_REGION_LENGTH__+0x7e007a>
     aec:	80 64       	ori	r24, 0x40	; 64
     aee:	80 93 7a 00 	sts	0x007A, r24	; 0x80007a <__TEXT_REGION_LENGTH__+0x7e007a>
     af2:	80 91 7a 00 	lds	r24, 0x007A	; 0x80007a <__TEXT_REGION_LENGTH__+0x7e007a>
     af6:	86 fd       	sbrc	r24, 6
     af8:	fc cf       	rjmp	.-8      	; 0xaf2 <_Z20handleBatteryMonitorj+0x7e>
     afa:	20 91 78 00 	lds	r18, 0x0078	; 0x800078 <__TEXT_REGION_LENGTH__+0x7e0078>
     afe:	30 91 79 00 	lds	r19, 0x0079	; 0x800079 <__TEXT_REGION_LENGTH__+0x7e0079>
     b02:	80 91 7a 00 	lds	r24, 0x007A	; 0x80007a <__TEXT_REGION_LENGTH__+0x7e007a>
     b06:	80 61       	ori	r24, 0x10	; 16
     b08:	80 93 7a 00 	sts	0x007A, r24	; 0x80007a <__TEXT_REGION_LENGTH__+0x7e007a>
     b0c:	a7 ef       	ldi	r26, 0xF7	; 247
     b0e:	bc e0       	ldi	r27, 0x0C	; 12
     b10:	0e 94 9c 28 	call	0x5138	; 0x5138 <__umulhisi3>
     b14:	9b 01       	movw	r18, r22
     b16:	ac 01       	movw	r20, r24
     b18:	8a e0       	ldi	r24, 0x0A	; 10
     b1a:	56 95       	lsr	r21
     b1c:	47 95       	ror	r20
     b1e:	37 95       	ror	r19
     b20:	27 95       	ror	r18
     b22:	8a 95       	dec	r24
     b24:	d1 f7       	brne	.-12     	; 0xb1a <_Z20handleBatteryMonitorj+0xa6>
     b26:	a0 e9       	ldi	r26, 0x90	; 144
     b28:	b1 e0       	ldi	r27, 0x01	; 1
     b2a:	0e 94 ab 28 	call	0x5156	; 0x5156 <__muluhisi3>
     b2e:	2c e2       	ldi	r18, 0x2C	; 44
     b30:	31 e0       	ldi	r19, 0x01	; 1
     b32:	40 e0       	ldi	r20, 0x00	; 0
     b34:	50 e0       	ldi	r21, 0x00	; 0
     b36:	0e 94 7a 28 	call	0x50f4	; 0x50f4 <__udivmodsi4>
     b3a:	ba 01       	movw	r22, r20
     b3c:	a9 01       	movw	r20, r18
     b3e:	66 27       	eor	r22, r22
     b40:	77 27       	eor	r23, r23
     b42:	40 93 fa 01 	sts	0x01FA, r20	; 0x8001fa <_ZL17batteryMillivolts>
     b46:	50 93 fb 01 	sts	0x01FB, r21	; 0x8001fb <_ZL17batteryMillivolts+0x1>
     b4a:	60 93 fc 01 	sts	0x01FC, r22	; 0x8001fc <_ZL17batteryMillivolts+0x2>
     b4e:	70 93 fd 01 	sts	0x01FD, r23	; 0x8001fd <_ZL17batteryMillivolts+0x3>
     b52:	81 e0       	ldi	r24, 0x01	; 1
     b54:	48 3d       	cpi	r20, 0xD8	; 216
     b56:	5e 40       	sbci	r21, 0x0E	; 14
     b58:	61 05       	cpc	r22, r1
     b5a:	71 05       	cpc	r23, r1
     b5c:	78 f4       	brcc	.+30     	; 0xb7c <_Z20handleBatteryMonitorj+0x108>
     b5e:	80 93 f9 01 	sts	0x01F9, r24	; 0x8001f9 <_ZL10lowBattery>
     b62:	88 23       	and	r24, r24
     b64:	09 f4       	brne	.+2      	; 0xb68 <_Z20handleBatteryMonitorj+0xf4>
     b66:	b7 cf       	rjmp	.-146    	; 0xad6 <_Z20handleBatteryMonitorj+0x62>
     b68:	81 e0       	ldi	r24, 0x01	; 1
     b6a:	20 91 f5 01 	lds	r18, 0x01F5	; 0x8001f5 <_ZL5msecs>
     b6e:	30 91 f6 01 	lds	r19, 0x01F6	; 0x8001f6 <_ZL5msecs+0x1>
     b72:	25 36       	cpi	r18, 0x65	; 101
     b74:	31 05       	cpc	r19, r1
     b76:	30 f4       	brcc	.+12     	; 0xb84 <_Z20handleBatteryMonitorj+0x110>
     b78:	0c 94 16 06 	jmp	0xc2c	; 0xc2c <_Z3ledb>
     b7c:	80 e0       	ldi	r24, 0x00	; 0
     b7e:	80 93 f9 01 	sts	0x01F9, r24	; 0x8001f9 <_ZL10lowBattery>
     b82:	ef cf       	rjmp	.-34     	; 0xb62 <_Z20handleBatteryMonitorj+0xee>
     b84:	80 e0       	ldi	r24, 0x00	; 0
     b86:	0c 94 16 06 	jmp	0xc2c	; 0xc2c <_Z3ledb>

00000b8a <_Z20getBatteryMillivoltsv>:
     b8a:	80 91 fa 01 	lds	r24, 0x01FA	; 0x8001fa <_ZL17batteryMillivolts>
     b8e:	90 91 fb 01 	lds	r25, 0x01FB	; 0x8001fb <_ZL17batteryMillivolts+0x1>
     b92:	08 95       	ret

00000b94 <_ZN14CircularBufferC1Eh>:
     b94:	cf 93       	push	r28
     b96:	df 93       	push	r29
     b98:	ec 01       	movw	r28, r24
     b9a:	6a 83       	std	Y+2, r22	; 0x02
     b9c:	86 2f       	mov	r24, r22
     b9e:	90 e0       	ldi	r25, 0x00	; 0
     ba0:	88 0f       	add	r24, r24
     ba2:	99 1f       	adc	r25, r25
     ba4:	88 0f       	add	r24, r24
     ba6:	99 1f       	adc	r25, r25
     ba8:	0e 94 d0 28 	call	0x51a0	; 0x51a0 <malloc>
     bac:	99 83       	std	Y+1, r25	; 0x01
     bae:	88 83       	st	Y, r24
     bb0:	1b 82       	std	Y+3, r1	; 0x03
     bb2:	1c 82       	std	Y+4, r1	; 0x04
     bb4:	1d 82       	std	Y+5, r1	; 0x05
     bb6:	1e 82       	std	Y+6, r1	; 0x06
     bb8:	1f 82       	std	Y+7, r1	; 0x07
     bba:	18 86       	std	Y+8, r1	; 0x08
     bbc:	19 86       	std	Y+9, r1	; 0x09
     bbe:	1a 86       	std	Y+10, r1	; 0x0a
     bc0:	1b 86       	std	Y+11, r1	; 0x0b
     bc2:	1c 86       	std	Y+12, r1	; 0x0c
     bc4:	df 91       	pop	r29
     bc6:	cf 91       	pop	r28
     bc8:	08 95       	ret

00000bca <_Z7initLEDv>:
     bca:	43 98       	cbi	0x08, 3	; 8
     bcc:	3b 9a       	sbi	0x07, 3	; 7
     bce:	08 95       	ret

00000bd0 <_Z12ledFlashSlowh>:
     bd0:	12 c0       	rjmp	.+36     	; 0xbf6 <_Z12ledFlashSlowh+0x26>
     bd2:	43 9a       	sbi	0x08, 3	; 8
     bd4:	ef e3       	ldi	r30, 0x3F	; 63
     bd6:	fc e9       	ldi	r31, 0x9C	; 156
     bd8:	31 97       	sbiw	r30, 0x01	; 1
     bda:	f1 f7       	brne	.-4      	; 0xbd8 <_Z12ledFlashSlowh+0x8>
     bdc:	00 c0       	rjmp	.+0      	; 0xbde <_Z12ledFlashSlowh+0xe>
     bde:	00 00       	nop
     be0:	43 98       	cbi	0x08, 3	; 8
     be2:	ff ef       	ldi	r31, 0xFF	; 255
     be4:	2d ee       	ldi	r18, 0xED	; 237
     be6:	32 e0       	ldi	r19, 0x02	; 2
     be8:	f1 50       	subi	r31, 0x01	; 1
     bea:	20 40       	sbci	r18, 0x00	; 0
     bec:	30 40       	sbci	r19, 0x00	; 0
     bee:	e1 f7       	brne	.-8      	; 0xbe8 <_Z12ledFlashSlowh+0x18>
     bf0:	00 c0       	rjmp	.+0      	; 0xbf2 <_Z12ledFlashSlowh+0x22>
     bf2:	00 00       	nop
     bf4:	81 50       	subi	r24, 0x01	; 1
     bf6:	81 11       	cpse	r24, r1
     bf8:	ec cf       	rjmp	.-40     	; 0xbd2 <_Z12ledFlashSlowh+0x2>
     bfa:	08 95       	ret

00000bfc <_Z12ledFlashFasth>:
     bfc:	12 c0       	rjmp	.+36     	; 0xc22 <_Z12ledFlashFasth+0x26>
     bfe:	43 9a       	sbi	0x08, 3	; 8
     c00:	ef e1       	ldi	r30, 0x1F	; 31
     c02:	fe e4       	ldi	r31, 0x4E	; 78
     c04:	31 97       	sbiw	r30, 0x01	; 1
     c06:	f1 f7       	brne	.-4      	; 0xc04 <_Z12ledFlashFasth+0x8>
     c08:	00 c0       	rjmp	.+0      	; 0xc0a <_Z12ledFlashFasth+0xe>
     c0a:	00 00       	nop
     c0c:	43 98       	cbi	0x08, 3	; 8
     c0e:	ff e7       	ldi	r31, 0x7F	; 127
     c10:	28 e3       	ldi	r18, 0x38	; 56
     c12:	31 e0       	ldi	r19, 0x01	; 1
     c14:	f1 50       	subi	r31, 0x01	; 1
     c16:	20 40       	sbci	r18, 0x00	; 0
     c18:	30 40       	sbci	r19, 0x00	; 0
     c1a:	e1 f7       	brne	.-8      	; 0xc14 <_Z12ledFlashFasth+0x18>
     c1c:	00 c0       	rjmp	.+0      	; 0xc1e <_Z12ledFlashFasth+0x22>
     c1e:	00 00       	nop
     c20:	81 50       	subi	r24, 0x01	; 1
     c22:	81 11       	cpse	r24, r1
     c24:	ec cf       	rjmp	.-40     	; 0xbfe <_Z12ledFlashFasth+0x2>
     c26:	08 95       	ret

00000c28 <_Z5ledOnv>:
     c28:	43 9a       	sbi	0x08, 3	; 8
     c2a:	08 95       	ret

00000c2c <_Z3ledb>:
     c2c:	81 11       	cpse	r24, r1
     c2e:	02 c0       	rjmp	.+4      	; 0xc34 <_Z3ledb+0x8>
     c30:	43 98       	cbi	0x08, 3	; 8
     c32:	08 95       	ret
     c34:	43 9a       	sbi	0x08, 3	; 8
     c36:	08 95       	ret

00000c38 <_Z12handleFlightj>:
     c38:	4f 92       	push	r4
     c3a:	5f 92       	push	r5
     c3c:	6f 92       	push	r6
     c3e:	7f 92       	push	r7
     c40:	8f 92       	push	r8
     c42:	9f 92       	push	r9
     c44:	af 92       	push	r10
     c46:	bf 92       	push	r11
     c48:	cf 92       	push	r12
     c4a:	df 92       	push	r13
     c4c:	ef 92       	push	r14
     c4e:	ff 92       	push	r15
     c50:	0f 93       	push	r16
     c52:	1f 93       	push	r17
     c54:	cf 93       	push	r28
     c56:	df 93       	push	r29
     c58:	cd b7       	in	r28, 0x3d	; 61
     c5a:	de b7       	in	r29, 0x3e	; 62
     c5c:	a4 97       	sbiw	r28, 0x24	; 36
     c5e:	0f b6       	in	r0, 0x3f	; 63
     c60:	f8 94       	cli
     c62:	de bf       	out	0x3e, r29	; 62
     c64:	0f be       	out	0x3f, r0	; 63
     c66:	cd bf       	out	0x3d, r28	; 61
     c68:	bc 01       	movw	r22, r24
     c6a:	80 e0       	ldi	r24, 0x00	; 0
     c6c:	90 e0       	ldi	r25, 0x00	; 0
     c6e:	0e 94 0f 27 	call	0x4e1e	; 0x4e1e <__floatunsisf>
     c72:	20 e0       	ldi	r18, 0x00	; 0
     c74:	34 e2       	ldi	r19, 0x24	; 36
     c76:	44 e7       	ldi	r20, 0x74	; 116
     c78:	59 e4       	ldi	r21, 0x49	; 73
     c7a:	0e 94 67 26 	call	0x4cce	; 0x4cce <__divsf3>
     c7e:	69 8b       	std	Y+17, r22	; 0x11
     c80:	7a 8b       	std	Y+18, r23	; 0x12
     c82:	8b 8b       	std	Y+19, r24	; 0x13
     c84:	9c 8b       	std	Y+20, r25	; 0x14
     c86:	9e 01       	movw	r18, r28
     c88:	29 5f       	subi	r18, 0xF9	; 249
     c8a:	3f 4f       	sbci	r19, 0xFF	; 255
     c8c:	ae 01       	movw	r20, r28
     c8e:	47 5f       	subi	r20, 0xF7	; 247
     c90:	5f 4f       	sbci	r21, 0xFF	; 255
     c92:	be 01       	movw	r22, r28
     c94:	65 5f       	subi	r22, 0xF5	; 245
     c96:	7f 4f       	sbci	r23, 0xFF	; 255
     c98:	84 ee       	ldi	r24, 0xE4	; 228
     c9a:	92 e0       	ldi	r25, 0x02	; 2
     c9c:	0e 94 26 17 	call	0x2e4c	; 0x2e4c <_ZN7MPU605015getAccelerationEPiS0_S0_>
     ca0:	9e 01       	movw	r18, r28
     ca2:	2f 5f       	subi	r18, 0xFF	; 255
     ca4:	3f 4f       	sbci	r19, 0xFF	; 255
     ca6:	ae 01       	movw	r20, r28
     ca8:	4d 5f       	subi	r20, 0xFD	; 253
     caa:	5f 4f       	sbci	r21, 0xFF	; 255
     cac:	be 01       	movw	r22, r28
     cae:	6b 5f       	subi	r22, 0xFB	; 251
     cb0:	7f 4f       	sbci	r23, 0xFF	; 255
     cb2:	84 ee       	ldi	r24, 0xE4	; 228
     cb4:	92 e0       	ldi	r25, 0x02	; 2
     cb6:	0e 94 63 17 	call	0x2ec6	; 0x2ec6 <_ZN7MPU605011getRotationEPiS0_S0_>
     cba:	6f 81       	ldd	r22, Y+7	; 0x07
     cbc:	78 85       	ldd	r23, Y+8	; 0x08
     cbe:	07 2e       	mov	r0, r23
     cc0:	00 0c       	add	r0, r0
     cc2:	88 0b       	sbc	r24, r24
     cc4:	99 0b       	sbc	r25, r25
     cc6:	0e 94 11 27 	call	0x4e22	; 0x4e22 <__floatsisf>
     cca:	6b 01       	movw	r12, r22
     ccc:	7c 01       	movw	r14, r24
     cce:	69 85       	ldd	r22, Y+9	; 0x09
     cd0:	7a 85       	ldd	r23, Y+10	; 0x0a
     cd2:	07 2e       	mov	r0, r23
     cd4:	00 0c       	add	r0, r0
     cd6:	88 0b       	sbc	r24, r24
     cd8:	99 0b       	sbc	r25, r25
     cda:	0e 94 11 27 	call	0x4e22	; 0x4e22 <__floatsisf>
     cde:	2b 01       	movw	r4, r22
     ce0:	3c 01       	movw	r6, r24
     ce2:	4b 01       	movw	r8, r22
     ce4:	5c 01       	movw	r10, r24
     ce6:	e8 94       	clt
     ce8:	b7 f8       	bld	r11, 7
     cea:	20 e0       	ldi	r18, 0x00	; 0
     cec:	30 e0       	ldi	r19, 0x00	; 0
     cee:	a9 01       	movw	r20, r18
     cf0:	c5 01       	movw	r24, r10
     cf2:	b4 01       	movw	r22, r8
     cf4:	0e 94 62 26 	call	0x4cc4	; 0x4cc4 <__cmpsf2>
     cf8:	81 11       	cpse	r24, r1
     cfa:	08 c0       	rjmp	.+16     	; 0xd0c <_Z12handleFlightj+0xd4>
     cfc:	3d eb       	ldi	r19, 0xBD	; 189
     cfe:	83 2e       	mov	r8, r19
     d00:	37 e3       	ldi	r19, 0x37	; 55
     d02:	93 2e       	mov	r9, r19
     d04:	36 e8       	ldi	r19, 0x86	; 134
     d06:	a3 2e       	mov	r10, r19
     d08:	35 e3       	ldi	r19, 0x35	; 53
     d0a:	b3 2e       	mov	r11, r19
     d0c:	20 e0       	ldi	r18, 0x00	; 0
     d0e:	30 e0       	ldi	r19, 0x00	; 0
     d10:	a9 01       	movw	r20, r18
     d12:	c7 01       	movw	r24, r14
     d14:	b6 01       	movw	r22, r12
     d16:	0e 94 62 26 	call	0x4cc4	; 0x4cc4 <__cmpsf2>
     d1a:	a5 01       	movw	r20, r10
     d1c:	94 01       	movw	r18, r8
     d1e:	87 fd       	sbrc	r24, 7
     d20:	27 c3       	rjmp	.+1614   	; 0x1370 <_Z12handleFlightj+0x738>
     d22:	c7 01       	movw	r24, r14
     d24:	b6 01       	movw	r22, r12
     d26:	0e 94 83 25 	call	0x4b06	; 0x4b06 <__subsf3>
     d2a:	6d 87       	std	Y+13, r22	; 0x0d
     d2c:	7e 87       	std	Y+14, r23	; 0x0e
     d2e:	8f 87       	std	Y+15, r24	; 0x0f
     d30:	98 8b       	std	Y+16, r25	; 0x10
     d32:	a5 01       	movw	r20, r10
     d34:	94 01       	movw	r18, r8
     d36:	c7 01       	movw	r24, r14
     d38:	b6 01       	movw	r22, r12
     d3a:	0e 94 84 25 	call	0x4b08	; 0x4b08 <__addsf3>
     d3e:	9b 01       	movw	r18, r22
     d40:	ac 01       	movw	r20, r24
     d42:	6d 85       	ldd	r22, Y+13	; 0x0d
     d44:	7e 85       	ldd	r23, Y+14	; 0x0e
     d46:	8f 85       	ldd	r24, Y+15	; 0x0f
     d48:	98 89       	ldd	r25, Y+16	; 0x10
     d4a:	0e 94 67 26 	call	0x4cce	; 0x4cce <__divsf3>
     d4e:	4b 01       	movw	r8, r22
     d50:	5c 01       	movw	r10, r24
     d52:	8b ed       	ldi	r24, 0xDB	; 219
     d54:	9f e0       	ldi	r25, 0x0F	; 15
     d56:	a9 e4       	ldi	r26, 0x49	; 73
     d58:	bf e3       	ldi	r27, 0x3F	; 63
     d5a:	8d 87       	std	Y+13, r24	; 0x0d
     d5c:	9e 87       	std	Y+14, r25	; 0x0e
     d5e:	af 87       	std	Y+15, r26	; 0x0f
     d60:	b8 8b       	std	Y+16, r27	; 0x10
     d62:	2e ed       	ldi	r18, 0xDE	; 222
     d64:	32 e0       	ldi	r19, 0x02	; 2
     d66:	49 e4       	ldi	r20, 0x49	; 73
     d68:	5e e3       	ldi	r21, 0x3E	; 62
     d6a:	c5 01       	movw	r24, r10
     d6c:	b4 01       	movw	r22, r8
     d6e:	0e 94 f5 27 	call	0x4fea	; 0x4fea <__mulsf3>
     d72:	a5 01       	movw	r20, r10
     d74:	94 01       	movw	r18, r8
     d76:	0e 94 f5 27 	call	0x4fea	; 0x4fea <__mulsf3>
     d7a:	21 eb       	ldi	r18, 0xB1	; 177
     d7c:	30 e5       	ldi	r19, 0x50	; 80
     d7e:	4b e7       	ldi	r20, 0x7B	; 123
     d80:	5f e3       	ldi	r21, 0x3F	; 63
     d82:	0e 94 83 25 	call	0x4b06	; 0x4b06 <__subsf3>
     d86:	a5 01       	movw	r20, r10
     d88:	94 01       	movw	r18, r8
     d8a:	0e 94 f5 27 	call	0x4fea	; 0x4fea <__mulsf3>
     d8e:	2d 85       	ldd	r18, Y+13	; 0x0d
     d90:	3e 85       	ldd	r19, Y+14	; 0x0e
     d92:	4f 85       	ldd	r20, Y+15	; 0x0f
     d94:	58 89       	ldd	r21, Y+16	; 0x10
     d96:	0e 94 84 25 	call	0x4b08	; 0x4b08 <__addsf3>
     d9a:	4b 01       	movw	r8, r22
     d9c:	5c 01       	movw	r10, r24
     d9e:	20 e0       	ldi	r18, 0x00	; 0
     da0:	30 e0       	ldi	r19, 0x00	; 0
     da2:	a9 01       	movw	r20, r18
     da4:	c3 01       	movw	r24, r6
     da6:	b2 01       	movw	r22, r4
     da8:	0e 94 62 26 	call	0x4cc4	; 0x4cc4 <__cmpsf2>
     dac:	87 fd       	sbrc	r24, 7
     dae:	dc c2       	rjmp	.+1464   	; 0x1368 <_Z12handleFlightj+0x730>
     db0:	c5 01       	movw	r24, r10
     db2:	b4 01       	movw	r22, r8
     db4:	21 ee       	ldi	r18, 0xE1	; 225
     db6:	3e e2       	ldi	r19, 0x2E	; 46
     db8:	45 e6       	ldi	r20, 0x65	; 101
     dba:	52 e4       	ldi	r21, 0x42	; 66
     dbc:	0e 94 f5 27 	call	0x4fea	; 0x4fea <__mulsf3>
     dc0:	6d 8b       	std	Y+21, r22	; 0x15
     dc2:	7e 8b       	std	Y+22, r23	; 0x16
     dc4:	8f 8b       	std	Y+23, r24	; 0x17
     dc6:	98 8f       	std	Y+24, r25	; 0x18
     dc8:	6b 85       	ldd	r22, Y+11	; 0x0b
     dca:	7c 85       	ldd	r23, Y+12	; 0x0c
     dcc:	07 2e       	mov	r0, r23
     dce:	00 0c       	add	r0, r0
     dd0:	88 0b       	sbc	r24, r24
     dd2:	99 0b       	sbc	r25, r25
     dd4:	0e 94 11 27 	call	0x4e22	; 0x4e22 <__floatsisf>
     dd8:	2b 01       	movw	r4, r22
     dda:	3c 01       	movw	r6, r24
     ddc:	4b 01       	movw	r8, r22
     dde:	5c 01       	movw	r10, r24
     de0:	e8 94       	clt
     de2:	b7 f8       	bld	r11, 7
     de4:	20 e0       	ldi	r18, 0x00	; 0
     de6:	30 e0       	ldi	r19, 0x00	; 0
     de8:	a9 01       	movw	r20, r18
     dea:	c5 01       	movw	r24, r10
     dec:	b4 01       	movw	r22, r8
     dee:	0e 94 62 26 	call	0x4cc4	; 0x4cc4 <__cmpsf2>
     df2:	81 11       	cpse	r24, r1
     df4:	08 c0       	rjmp	.+16     	; 0xe06 <_Z12handleFlightj+0x1ce>
     df6:	2d eb       	ldi	r18, 0xBD	; 189
     df8:	82 2e       	mov	r8, r18
     dfa:	27 e3       	ldi	r18, 0x37	; 55
     dfc:	92 2e       	mov	r9, r18
     dfe:	26 e8       	ldi	r18, 0x86	; 134
     e00:	a2 2e       	mov	r10, r18
     e02:	25 e3       	ldi	r18, 0x35	; 53
     e04:	b2 2e       	mov	r11, r18
     e06:	20 e0       	ldi	r18, 0x00	; 0
     e08:	30 e0       	ldi	r19, 0x00	; 0
     e0a:	a9 01       	movw	r20, r18
     e0c:	c7 01       	movw	r24, r14
     e0e:	b6 01       	movw	r22, r12
     e10:	0e 94 62 26 	call	0x4cc4	; 0x4cc4 <__cmpsf2>
     e14:	a5 01       	movw	r20, r10
     e16:	94 01       	movw	r18, r8
     e18:	87 fd       	sbrc	r24, 7
     e1a:	85 c2       	rjmp	.+1290   	; 0x1326 <_Z12handleFlightj+0x6ee>
     e1c:	c7 01       	movw	r24, r14
     e1e:	b6 01       	movw	r22, r12
     e20:	0e 94 83 25 	call	0x4b06	; 0x4b06 <__subsf3>
     e24:	6d 87       	std	Y+13, r22	; 0x0d
     e26:	7e 87       	std	Y+14, r23	; 0x0e
     e28:	8f 87       	std	Y+15, r24	; 0x0f
     e2a:	98 8b       	std	Y+16, r25	; 0x10
     e2c:	a5 01       	movw	r20, r10
     e2e:	94 01       	movw	r18, r8
     e30:	c7 01       	movw	r24, r14
     e32:	b6 01       	movw	r22, r12
     e34:	0e 94 84 25 	call	0x4b08	; 0x4b08 <__addsf3>
     e38:	9b 01       	movw	r18, r22
     e3a:	ac 01       	movw	r20, r24
     e3c:	6d 85       	ldd	r22, Y+13	; 0x0d
     e3e:	7e 85       	ldd	r23, Y+14	; 0x0e
     e40:	8f 85       	ldd	r24, Y+15	; 0x0f
     e42:	98 89       	ldd	r25, Y+16	; 0x10
     e44:	0e 94 67 26 	call	0x4cce	; 0x4cce <__divsf3>
     e48:	6b 01       	movw	r12, r22
     e4a:	7c 01       	movw	r14, r24
     e4c:	8b ed       	ldi	r24, 0xDB	; 219
     e4e:	88 2e       	mov	r8, r24
     e50:	8f e0       	ldi	r24, 0x0F	; 15
     e52:	98 2e       	mov	r9, r24
     e54:	89 e4       	ldi	r24, 0x49	; 73
     e56:	a8 2e       	mov	r10, r24
     e58:	8f e3       	ldi	r24, 0x3F	; 63
     e5a:	b8 2e       	mov	r11, r24
     e5c:	2e ed       	ldi	r18, 0xDE	; 222
     e5e:	32 e0       	ldi	r19, 0x02	; 2
     e60:	49 e4       	ldi	r20, 0x49	; 73
     e62:	5e e3       	ldi	r21, 0x3E	; 62
     e64:	c7 01       	movw	r24, r14
     e66:	b6 01       	movw	r22, r12
     e68:	0e 94 f5 27 	call	0x4fea	; 0x4fea <__mulsf3>
     e6c:	a7 01       	movw	r20, r14
     e6e:	96 01       	movw	r18, r12
     e70:	0e 94 f5 27 	call	0x4fea	; 0x4fea <__mulsf3>
     e74:	21 eb       	ldi	r18, 0xB1	; 177
     e76:	30 e5       	ldi	r19, 0x50	; 80
     e78:	4b e7       	ldi	r20, 0x7B	; 123
     e7a:	5f e3       	ldi	r21, 0x3F	; 63
     e7c:	0e 94 83 25 	call	0x4b06	; 0x4b06 <__subsf3>
     e80:	a7 01       	movw	r20, r14
     e82:	96 01       	movw	r18, r12
     e84:	0e 94 f5 27 	call	0x4fea	; 0x4fea <__mulsf3>
     e88:	a5 01       	movw	r20, r10
     e8a:	94 01       	movw	r18, r8
     e8c:	0e 94 84 25 	call	0x4b08	; 0x4b08 <__addsf3>
     e90:	6b 01       	movw	r12, r22
     e92:	7c 01       	movw	r14, r24
     e94:	20 e0       	ldi	r18, 0x00	; 0
     e96:	30 e0       	ldi	r19, 0x00	; 0
     e98:	a9 01       	movw	r20, r18
     e9a:	c3 01       	movw	r24, r6
     e9c:	b2 01       	movw	r22, r4
     e9e:	0e 94 62 26 	call	0x4cc4	; 0x4cc4 <__cmpsf2>
     ea2:	87 fd       	sbrc	r24, 7
     ea4:	38 c2       	rjmp	.+1136   	; 0x1316 <_Z12handleFlightj+0x6de>
     ea6:	cd 8e       	std	Y+29, r12	; 0x1d
     ea8:	de 8e       	std	Y+30, r13	; 0x1e
     eaa:	ef 8e       	std	Y+31, r14	; 0x1f
     eac:	f8 a2       	std	Y+32, r15	; 0x20
     eae:	8d 81       	ldd	r24, Y+5	; 0x05
     eb0:	9e 81       	ldd	r25, Y+6	; 0x06
     eb2:	63 e8       	ldi	r22, 0x83	; 131
     eb4:	70 e0       	ldi	r23, 0x00	; 0
     eb6:	0e 94 66 28 	call	0x50cc	; 0x50cc <__divmodhi4>
     eba:	07 2e       	mov	r0, r23
     ebc:	00 0c       	add	r0, r0
     ebe:	88 0b       	sbc	r24, r24
     ec0:	99 0b       	sbc	r25, r25
     ec2:	0e 94 11 27 	call	0x4e22	; 0x4e22 <__floatsisf>
     ec6:	29 89       	ldd	r18, Y+17	; 0x11
     ec8:	3a 89       	ldd	r19, Y+18	; 0x12
     eca:	4b 89       	ldd	r20, Y+19	; 0x13
     ecc:	5c 89       	ldd	r21, Y+20	; 0x14
     ece:	0e 94 f5 27 	call	0x4fea	; 0x4fea <__mulsf3>
     ed2:	6d 87       	std	Y+13, r22	; 0x0d
     ed4:	7e 87       	std	Y+14, r23	; 0x0e
     ed6:	8f 87       	std	Y+15, r24	; 0x0f
     ed8:	98 8b       	std	Y+16, r25	; 0x10
     eda:	8b 81       	ldd	r24, Y+3	; 0x03
     edc:	9c 81       	ldd	r25, Y+4	; 0x04
     ede:	0d e7       	ldi	r16, 0x7D	; 125
     ee0:	1f ef       	ldi	r17, 0xFF	; 255
     ee2:	b8 01       	movw	r22, r16
     ee4:	0e 94 66 28 	call	0x50cc	; 0x50cc <__divmodhi4>
     ee8:	07 2e       	mov	r0, r23
     eea:	00 0c       	add	r0, r0
     eec:	88 0b       	sbc	r24, r24
     eee:	99 0b       	sbc	r25, r25
     ef0:	0e 94 11 27 	call	0x4e22	; 0x4e22 <__floatsisf>
     ef4:	29 89       	ldd	r18, Y+17	; 0x11
     ef6:	3a 89       	ldd	r19, Y+18	; 0x12
     ef8:	4b 89       	ldd	r20, Y+19	; 0x13
     efa:	5c 89       	ldd	r21, Y+20	; 0x14
     efc:	0e 94 f5 27 	call	0x4fea	; 0x4fea <__mulsf3>
     f00:	69 8f       	std	Y+25, r22	; 0x19
     f02:	7a 8f       	std	Y+26, r23	; 0x1a
     f04:	8b 8f       	std	Y+27, r24	; 0x1b
     f06:	9c 8f       	std	Y+28, r25	; 0x1c
     f08:	89 81       	ldd	r24, Y+1	; 0x01
     f0a:	9a 81       	ldd	r25, Y+2	; 0x02
     f0c:	b8 01       	movw	r22, r16
     f0e:	0e 94 66 28 	call	0x50cc	; 0x50cc <__divmodhi4>
     f12:	07 2e       	mov	r0, r23
     f14:	00 0c       	add	r0, r0
     f16:	88 0b       	sbc	r24, r24
     f18:	99 0b       	sbc	r25, r25
     f1a:	0e 94 11 27 	call	0x4e22	; 0x4e22 <__floatsisf>
     f1e:	60 93 cd 02 	sts	0x02CD, r22	; 0x8002cd <yawRate>
     f22:	70 93 ce 02 	sts	0x02CE, r23	; 0x8002ce <yawRate+0x1>
     f26:	80 93 cf 02 	sts	0x02CF, r24	; 0x8002cf <yawRate+0x2>
     f2a:	90 93 d0 02 	sts	0x02D0, r25	; 0x8002d0 <yawRate+0x3>
     f2e:	20 91 d9 02 	lds	r18, 0x02D9	; 0x8002d9 <roll>
     f32:	30 91 da 02 	lds	r19, 0x02DA	; 0x8002da <roll+0x1>
     f36:	40 91 db 02 	lds	r20, 0x02DB	; 0x8002db <roll+0x2>
     f3a:	50 91 dc 02 	lds	r21, 0x02DC	; 0x8002dc <roll+0x3>
     f3e:	69 8d       	ldd	r22, Y+25	; 0x19
     f40:	7a 8d       	ldd	r23, Y+26	; 0x1a
     f42:	8b 8d       	ldd	r24, Y+27	; 0x1b
     f44:	9c 8d       	ldd	r25, Y+28	; 0x1c
     f46:	0e 94 84 25 	call	0x4b08	; 0x4b08 <__addsf3>
     f4a:	69 a3       	std	Y+33, r22	; 0x21
     f4c:	7a a3       	std	Y+34, r23	; 0x22
     f4e:	8b a3       	std	Y+35, r24	; 0x23
     f50:	9c a3       	std	Y+36, r25	; 0x24
     f52:	40 90 02 02 	lds	r4, 0x0202	; 0x800202 <compFilterAlpha>
     f56:	50 90 03 02 	lds	r5, 0x0203	; 0x800203 <compFilterAlpha+0x1>
     f5a:	60 90 04 02 	lds	r6, 0x0204	; 0x800204 <compFilterAlpha+0x2>
     f5e:	70 90 05 02 	lds	r7, 0x0205	; 0x800205 <compFilterAlpha+0x3>
     f62:	c0 90 fe 01 	lds	r12, 0x01FE	; 0x8001fe <oneMinusCompFilterAlpha>
     f66:	d0 90 ff 01 	lds	r13, 0x01FF	; 0x8001ff <oneMinusCompFilterAlpha+0x1>
     f6a:	e0 90 00 02 	lds	r14, 0x0200	; 0x800200 <oneMinusCompFilterAlpha+0x2>
     f6e:	f0 90 01 02 	lds	r15, 0x0201	; 0x800201 <oneMinusCompFilterAlpha+0x3>
     f72:	20 91 dd 02 	lds	r18, 0x02DD	; 0x8002dd <pitch>
     f76:	30 91 de 02 	lds	r19, 0x02DE	; 0x8002de <pitch+0x1>
     f7a:	40 91 df 02 	lds	r20, 0x02DF	; 0x8002df <pitch+0x2>
     f7e:	50 91 e0 02 	lds	r21, 0x02E0	; 0x8002e0 <pitch+0x3>
     f82:	6d 85       	ldd	r22, Y+13	; 0x0d
     f84:	7e 85       	ldd	r23, Y+14	; 0x0e
     f86:	8f 85       	ldd	r24, Y+15	; 0x0f
     f88:	98 89       	ldd	r25, Y+16	; 0x10
     f8a:	0e 94 84 25 	call	0x4b08	; 0x4b08 <__addsf3>
     f8e:	a3 01       	movw	r20, r6
     f90:	92 01       	movw	r18, r4
     f92:	0e 94 f5 27 	call	0x4fea	; 0x4fea <__mulsf3>
     f96:	4b 01       	movw	r8, r22
     f98:	5c 01       	movw	r10, r24
     f9a:	a7 01       	movw	r20, r14
     f9c:	96 01       	movw	r18, r12
     f9e:	6d 89       	ldd	r22, Y+21	; 0x15
     fa0:	7e 89       	ldd	r23, Y+22	; 0x16
     fa2:	8f 89       	ldd	r24, Y+23	; 0x17
     fa4:	98 8d       	ldd	r25, Y+24	; 0x18
     fa6:	0e 94 f5 27 	call	0x4fea	; 0x4fea <__mulsf3>
     faa:	9b 01       	movw	r18, r22
     fac:	ac 01       	movw	r20, r24
     fae:	c5 01       	movw	r24, r10
     fb0:	b4 01       	movw	r22, r8
     fb2:	0e 94 84 25 	call	0x4b08	; 0x4b08 <__addsf3>
     fb6:	4b 01       	movw	r8, r22
     fb8:	5c 01       	movw	r10, r24
     fba:	60 93 dd 02 	sts	0x02DD, r22	; 0x8002dd <pitch>
     fbe:	70 93 de 02 	sts	0x02DE, r23	; 0x8002de <pitch+0x1>
     fc2:	80 93 df 02 	sts	0x02DF, r24	; 0x8002df <pitch+0x2>
     fc6:	90 93 e0 02 	sts	0x02E0, r25	; 0x8002e0 <pitch+0x3>
     fca:	21 ee       	ldi	r18, 0xE1	; 225
     fcc:	3e e2       	ldi	r19, 0x2E	; 46
     fce:	45 e6       	ldi	r20, 0x65	; 101
     fd0:	52 e4       	ldi	r21, 0x42	; 66
     fd2:	6d 8d       	ldd	r22, Y+29	; 0x1d
     fd4:	7e 8d       	ldd	r23, Y+30	; 0x1e
     fd6:	8f 8d       	ldd	r24, Y+31	; 0x1f
     fd8:	98 a1       	ldd	r25, Y+32	; 0x20
     fda:	0e 94 f5 27 	call	0x4fea	; 0x4fea <__mulsf3>
     fde:	a7 01       	movw	r20, r14
     fe0:	96 01       	movw	r18, r12
     fe2:	0e 94 f5 27 	call	0x4fea	; 0x4fea <__mulsf3>
     fe6:	6b 01       	movw	r12, r22
     fe8:	7c 01       	movw	r14, r24
     fea:	a3 01       	movw	r20, r6
     fec:	92 01       	movw	r18, r4
     fee:	69 a1       	ldd	r22, Y+33	; 0x21
     ff0:	7a a1       	ldd	r23, Y+34	; 0x22
     ff2:	8b a1       	ldd	r24, Y+35	; 0x23
     ff4:	9c a1       	ldd	r25, Y+36	; 0x24
     ff6:	0e 94 f5 27 	call	0x4fea	; 0x4fea <__mulsf3>
     ffa:	9b 01       	movw	r18, r22
     ffc:	ac 01       	movw	r20, r24
     ffe:	c7 01       	movw	r24, r14
    1000:	b6 01       	movw	r22, r12
    1002:	0e 94 84 25 	call	0x4b08	; 0x4b08 <__addsf3>
    1006:	60 93 d9 02 	sts	0x02D9, r22	; 0x8002d9 <roll>
    100a:	70 93 da 02 	sts	0x02DA, r23	; 0x8002da <roll+0x1>
    100e:	80 93 db 02 	sts	0x02DB, r24	; 0x8002db <roll+0x2>
    1012:	90 93 dc 02 	sts	0x02DC, r25	; 0x8002dc <roll+0x3>
    1016:	60 91 0f 01 	lds	r22, 0x010F	; 0x80010f <rollThrust>
    101a:	70 e0       	ldi	r23, 0x00	; 0
    101c:	80 e0       	ldi	r24, 0x00	; 0
    101e:	90 e0       	ldi	r25, 0x00	; 0
    1020:	0e 94 0f 27 	call	0x4e1e	; 0x4e1e <__floatunsisf>
    1024:	20 e0       	ldi	r18, 0x00	; 0
    1026:	30 e0       	ldi	r19, 0x00	; 0
    1028:	40 e0       	ldi	r20, 0x00	; 0
    102a:	53 e4       	ldi	r21, 0x43	; 67
    102c:	0e 94 83 25 	call	0x4b06	; 0x4b06 <__subsf3>
    1030:	20 e0       	ldi	r18, 0x00	; 0
    1032:	30 e0       	ldi	r19, 0x00	; 0
    1034:	40 e0       	ldi	r20, 0x00	; 0
    1036:	5c e3       	ldi	r21, 0x3C	; 60
    1038:	0e 94 f5 27 	call	0x4fea	; 0x4fea <__mulsf3>
    103c:	20 91 0a 02 	lds	r18, 0x020A	; 0x80020a <rollDemandGain>
    1040:	30 91 0b 02 	lds	r19, 0x020B	; 0x80020b <rollDemandGain+0x1>
    1044:	40 91 0c 02 	lds	r20, 0x020C	; 0x80020c <rollDemandGain+0x2>
    1048:	50 91 0d 02 	lds	r21, 0x020D	; 0x80020d <rollDemandGain+0x3>
    104c:	0e 94 f5 27 	call	0x4fea	; 0x4fea <__mulsf3>
    1050:	0e 94 d9 26 	call	0x4db2	; 0x4db2 <__fixsfsi>
    1054:	6b 01       	movw	r12, r22
    1056:	7c 01       	movw	r14, r24
    1058:	60 91 0e 01 	lds	r22, 0x010E	; 0x80010e <yawThrust>
    105c:	70 e0       	ldi	r23, 0x00	; 0
    105e:	80 e0       	ldi	r24, 0x00	; 0
    1060:	90 e0       	ldi	r25, 0x00	; 0
    1062:	0e 94 0f 27 	call	0x4e1e	; 0x4e1e <__floatunsisf>
    1066:	20 e0       	ldi	r18, 0x00	; 0
    1068:	30 e0       	ldi	r19, 0x00	; 0
    106a:	40 e0       	ldi	r20, 0x00	; 0
    106c:	53 e4       	ldi	r21, 0x43	; 67
    106e:	0e 94 83 25 	call	0x4b06	; 0x4b06 <__subsf3>
    1072:	20 e0       	ldi	r18, 0x00	; 0
    1074:	30 e0       	ldi	r19, 0x00	; 0
    1076:	40 e0       	ldi	r20, 0x00	; 0
    1078:	5c e3       	ldi	r21, 0x3C	; 60
    107a:	0e 94 f5 27 	call	0x4fea	; 0x4fea <__mulsf3>
    107e:	20 91 06 02 	lds	r18, 0x0206	; 0x800206 <yawDemandGain>
    1082:	30 91 07 02 	lds	r19, 0x0207	; 0x800207 <yawDemandGain+0x1>
    1086:	40 91 08 02 	lds	r20, 0x0208	; 0x800208 <yawDemandGain+0x2>
    108a:	50 91 09 02 	lds	r21, 0x0209	; 0x800209 <yawDemandGain+0x3>
    108e:	0e 94 f5 27 	call	0x4fea	; 0x4fea <__mulsf3>
    1092:	0e 94 d9 26 	call	0x4db2	; 0x4db2 <__fixsfsi>
    1096:	6d 8b       	std	Y+21, r22	; 0x15
    1098:	7e 8b       	std	Y+22, r23	; 0x16
    109a:	8f 8b       	std	Y+23, r24	; 0x17
    109c:	98 8f       	std	Y+24, r25	; 0x18
    109e:	60 91 10 01 	lds	r22, 0x0110	; 0x800110 <pitchThrust>
    10a2:	70 e0       	ldi	r23, 0x00	; 0
    10a4:	80 e0       	ldi	r24, 0x00	; 0
    10a6:	90 e0       	ldi	r25, 0x00	; 0
    10a8:	0e 94 0f 27 	call	0x4e1e	; 0x4e1e <__floatunsisf>
    10ac:	20 e0       	ldi	r18, 0x00	; 0
    10ae:	30 e0       	ldi	r19, 0x00	; 0
    10b0:	40 e0       	ldi	r20, 0x00	; 0
    10b2:	53 e4       	ldi	r21, 0x43	; 67
    10b4:	0e 94 83 25 	call	0x4b06	; 0x4b06 <__subsf3>
    10b8:	20 e0       	ldi	r18, 0x00	; 0
    10ba:	30 e0       	ldi	r19, 0x00	; 0
    10bc:	40 e0       	ldi	r20, 0x00	; 0
    10be:	5c e3       	ldi	r21, 0x3C	; 60
    10c0:	0e 94 f5 27 	call	0x4fea	; 0x4fea <__mulsf3>
    10c4:	20 91 0e 02 	lds	r18, 0x020E	; 0x80020e <pitchDemandGain>
    10c8:	30 91 0f 02 	lds	r19, 0x020F	; 0x80020f <pitchDemandGain+0x1>
    10cc:	40 91 10 02 	lds	r20, 0x0210	; 0x800210 <pitchDemandGain+0x2>
    10d0:	50 91 11 02 	lds	r21, 0x0211	; 0x800211 <pitchDemandGain+0x3>
    10d4:	0e 94 f5 27 	call	0x4fea	; 0x4fea <__mulsf3>
    10d8:	0e 94 d9 26 	call	0x4db2	; 0x4db2 <__fixsfsi>
    10dc:	07 2e       	mov	r0, r23
    10de:	00 0c       	add	r0, r0
    10e0:	88 0b       	sbc	r24, r24
    10e2:	99 0b       	sbc	r25, r25
    10e4:	0e 94 11 27 	call	0x4e22	; 0x4e22 <__floatsisf>
    10e8:	2b 01       	movw	r4, r22
    10ea:	3c 01       	movw	r6, r24
    10ec:	20 91 16 02 	lds	r18, 0x0216	; 0x800216 <pitchTrim>
    10f0:	30 91 17 02 	lds	r19, 0x0217	; 0x800217 <pitchTrim+0x1>
    10f4:	40 91 18 02 	lds	r20, 0x0218	; 0x800218 <pitchTrim+0x2>
    10f8:	50 91 19 02 	lds	r21, 0x0219	; 0x800219 <pitchTrim+0x3>
    10fc:	c5 01       	movw	r24, r10
    10fe:	b4 01       	movw	r22, r8
    1100:	0e 94 84 25 	call	0x4b08	; 0x4b08 <__addsf3>
    1104:	9b 01       	movw	r18, r22
    1106:	ac 01       	movw	r20, r24
    1108:	c3 01       	movw	r24, r6
    110a:	b2 01       	movw	r22, r4
    110c:	0e 94 83 25 	call	0x4b06	; 0x4b06 <__subsf3>
    1110:	ab 01       	movw	r20, r22
    1112:	bc 01       	movw	r22, r24
    1114:	09 89       	ldd	r16, Y+17	; 0x11
    1116:	1a 89       	ldd	r17, Y+18	; 0x12
    1118:	2b 89       	ldd	r18, Y+19	; 0x13
    111a:	3c 89       	ldd	r19, Y+20	; 0x14
    111c:	8a e8       	ldi	r24, 0x8A	; 138
    111e:	92 e0       	ldi	r25, 0x02	; 2
    1120:	0e 94 b6 17 	call	0x2f6c	; 0x2f6c <_ZN13PIDController6updateEff>
    1124:	4b 01       	movw	r8, r22
    1126:	5c 01       	movw	r10, r24
    1128:	b6 01       	movw	r22, r12
    112a:	dd 0c       	add	r13, r13
    112c:	88 0b       	sbc	r24, r24
    112e:	99 0b       	sbc	r25, r25
    1130:	0e 94 11 27 	call	0x4e22	; 0x4e22 <__floatsisf>
    1134:	6b 01       	movw	r12, r22
    1136:	7c 01       	movw	r14, r24
    1138:	20 91 12 02 	lds	r18, 0x0212	; 0x800212 <rollTrim>
    113c:	30 91 13 02 	lds	r19, 0x0213	; 0x800213 <rollTrim+0x1>
    1140:	40 91 14 02 	lds	r20, 0x0214	; 0x800214 <rollTrim+0x2>
    1144:	50 91 15 02 	lds	r21, 0x0215	; 0x800215 <rollTrim+0x3>
    1148:	60 91 d9 02 	lds	r22, 0x02D9	; 0x8002d9 <roll>
    114c:	70 91 da 02 	lds	r23, 0x02DA	; 0x8002da <roll+0x1>
    1150:	80 91 db 02 	lds	r24, 0x02DB	; 0x8002db <roll+0x2>
    1154:	90 91 dc 02 	lds	r25, 0x02DC	; 0x8002dc <roll+0x3>
    1158:	0e 94 84 25 	call	0x4b08	; 0x4b08 <__addsf3>
    115c:	9b 01       	movw	r18, r22
    115e:	ac 01       	movw	r20, r24
    1160:	c7 01       	movw	r24, r14
    1162:	b6 01       	movw	r22, r12
    1164:	0e 94 83 25 	call	0x4b06	; 0x4b06 <__subsf3>
    1168:	ab 01       	movw	r20, r22
    116a:	bc 01       	movw	r22, r24
    116c:	09 89       	ldd	r16, Y+17	; 0x11
    116e:	1a 89       	ldd	r17, Y+18	; 0x12
    1170:	2b 89       	ldd	r18, Y+19	; 0x13
    1172:	3c 89       	ldd	r19, Y+20	; 0x14
    1174:	8e e6       	ldi	r24, 0x6E	; 110
    1176:	92 e0       	ldi	r25, 0x02	; 2
    1178:	0e 94 b6 17 	call	0x2f6c	; 0x2f6c <_ZN13PIDController6updateEff>
    117c:	6b 01       	movw	r12, r22
    117e:	7c 01       	movw	r14, r24
    1180:	2d 85       	ldd	r18, Y+13	; 0x0d
    1182:	3e 85       	ldd	r19, Y+14	; 0x0e
    1184:	4f 85       	ldd	r20, Y+15	; 0x0f
    1186:	58 89       	ldd	r21, Y+16	; 0x10
    1188:	c5 01       	movw	r24, r10
    118a:	b4 01       	movw	r22, r8
    118c:	0e 94 83 25 	call	0x4b06	; 0x4b06 <__subsf3>
    1190:	ab 01       	movw	r20, r22
    1192:	bc 01       	movw	r22, r24
    1194:	09 89       	ldd	r16, Y+17	; 0x11
    1196:	1a 89       	ldd	r17, Y+18	; 0x12
    1198:	2b 89       	ldd	r18, Y+19	; 0x13
    119a:	3c 89       	ldd	r19, Y+20	; 0x14
    119c:	82 e5       	ldi	r24, 0x52	; 82
    119e:	92 e0       	ldi	r25, 0x02	; 2
    11a0:	0e 94 b6 17 	call	0x2f6c	; 0x2f6c <_ZN13PIDController6updateEff>
    11a4:	0e 94 d9 26 	call	0x4db2	; 0x4db2 <__fixsfsi>
    11a8:	4b 01       	movw	r8, r22
    11aa:	5c 01       	movw	r10, r24
    11ac:	29 8d       	ldd	r18, Y+25	; 0x19
    11ae:	3a 8d       	ldd	r19, Y+26	; 0x1a
    11b0:	4b 8d       	ldd	r20, Y+27	; 0x1b
    11b2:	5c 8d       	ldd	r21, Y+28	; 0x1c
    11b4:	c7 01       	movw	r24, r14
    11b6:	b6 01       	movw	r22, r12
    11b8:	0e 94 83 25 	call	0x4b06	; 0x4b06 <__subsf3>
    11bc:	ab 01       	movw	r20, r22
    11be:	bc 01       	movw	r22, r24
    11c0:	09 89       	ldd	r16, Y+17	; 0x11
    11c2:	1a 89       	ldd	r17, Y+18	; 0x12
    11c4:	2b 89       	ldd	r18, Y+19	; 0x13
    11c6:	3c 89       	ldd	r19, Y+20	; 0x14
    11c8:	86 e3       	ldi	r24, 0x36	; 54
    11ca:	92 e0       	ldi	r25, 0x02	; 2
    11cc:	0e 94 b6 17 	call	0x2f6c	; 0x2f6c <_ZN13PIDController6updateEff>
    11d0:	0e 94 d9 26 	call	0x4db2	; 0x4db2 <__fixsfsi>
    11d4:	6b 01       	movw	r12, r22
    11d6:	7c 01       	movw	r14, r24
    11d8:	ad 89       	ldd	r26, Y+21	; 0x15
    11da:	be 89       	ldd	r27, Y+22	; 0x16
    11dc:	bd 01       	movw	r22, r26
    11de:	bb 0f       	add	r27, r27
    11e0:	88 0b       	sbc	r24, r24
    11e2:	99 0b       	sbc	r25, r25
    11e4:	0e 94 11 27 	call	0x4e22	; 0x4e22 <__floatsisf>
    11e8:	20 91 cd 02 	lds	r18, 0x02CD	; 0x8002cd <yawRate>
    11ec:	30 91 ce 02 	lds	r19, 0x02CE	; 0x8002ce <yawRate+0x1>
    11f0:	40 91 cf 02 	lds	r20, 0x02CF	; 0x8002cf <yawRate+0x2>
    11f4:	50 91 d0 02 	lds	r21, 0x02D0	; 0x8002d0 <yawRate+0x3>
    11f8:	0e 94 83 25 	call	0x4b06	; 0x4b06 <__subsf3>
    11fc:	ab 01       	movw	r20, r22
    11fe:	bc 01       	movw	r22, r24
    1200:	09 89       	ldd	r16, Y+17	; 0x11
    1202:	1a 89       	ldd	r17, Y+18	; 0x12
    1204:	2b 89       	ldd	r18, Y+19	; 0x13
    1206:	3c 89       	ldd	r19, Y+20	; 0x14
    1208:	8a e1       	ldi	r24, 0x1A	; 26
    120a:	92 e0       	ldi	r25, 0x02	; 2
    120c:	0e 94 b6 17 	call	0x2f6c	; 0x2f6c <_ZN13PIDController6updateEff>
    1210:	0e 94 d9 26 	call	0x4db2	; 0x4db2 <__fixsfsi>
    1214:	a0 91 ae 02 	lds	r26, 0x02AE	; 0x8002ae <throttle>
    1218:	4a 2f       	mov	r20, r26
    121a:	50 e0       	ldi	r21, 0x00	; 0
    121c:	9a 01       	movw	r18, r20
    121e:	28 19       	sub	r18, r8
    1220:	39 09       	sbc	r19, r9
    1222:	84 0e       	add	r8, r20
    1224:	95 1e       	adc	r9, r21
    1226:	a9 01       	movw	r20, r18
    1228:	4c 19       	sub	r20, r12
    122a:	5d 09       	sbc	r21, r13
    122c:	46 0f       	add	r20, r22
    122e:	57 1f       	adc	r21, r23
    1230:	50 93 ad 02 	sts	0x02AD, r21	; 0x8002ad <motor1Speed+0x1>
    1234:	40 93 ac 02 	sts	0x02AC, r20	; 0x8002ac <motor1Speed>
    1238:	f4 01       	movw	r30, r8
    123a:	ec 19       	sub	r30, r12
    123c:	fd 09       	sbc	r31, r13
    123e:	e6 1b       	sub	r30, r22
    1240:	f7 0b       	sbc	r31, r23
    1242:	f0 93 ab 02 	sts	0x02AB, r31	; 0x8002ab <motor2Speed+0x1>
    1246:	e0 93 aa 02 	sts	0x02AA, r30	; 0x8002aa <motor2Speed>
    124a:	8c 0c       	add	r8, r12
    124c:	9d 1c       	adc	r9, r13
    124e:	86 0e       	add	r8, r22
    1250:	97 1e       	adc	r9, r23
    1252:	90 92 a9 02 	sts	0x02A9, r9	; 0x8002a9 <motor3Speed+0x1>
    1256:	80 92 a8 02 	sts	0x02A8, r8	; 0x8002a8 <motor3Speed>
    125a:	c2 0e       	add	r12, r18
    125c:	d3 1e       	adc	r13, r19
    125e:	c6 1a       	sub	r12, r22
    1260:	d7 0a       	sbc	r13, r23
    1262:	d0 92 a7 02 	sts	0x02A7, r13	; 0x8002a7 <motor4Speed+0x1>
    1266:	c0 92 a6 02 	sts	0x02A6, r12	; 0x8002a6 <motor4Speed>
    126a:	a4 31       	cpi	r26, 0x14	; 20
    126c:	40 f5       	brcc	.+80     	; 0x12be <_Z12handleFlightj+0x686>
    126e:	10 92 ad 02 	sts	0x02AD, r1	; 0x8002ad <motor1Speed+0x1>
    1272:	10 92 ac 02 	sts	0x02AC, r1	; 0x8002ac <motor1Speed>
    1276:	10 92 ab 02 	sts	0x02AB, r1	; 0x8002ab <motor2Speed+0x1>
    127a:	10 92 aa 02 	sts	0x02AA, r1	; 0x8002aa <motor2Speed>
    127e:	10 92 a9 02 	sts	0x02A9, r1	; 0x8002a9 <motor3Speed+0x1>
    1282:	10 92 a8 02 	sts	0x02A8, r1	; 0x8002a8 <motor3Speed>
    1286:	10 92 a7 02 	sts	0x02A7, r1	; 0x8002a7 <motor4Speed+0x1>
    128a:	10 92 a6 02 	sts	0x02A6, r1	; 0x8002a6 <motor4Speed>
    128e:	8a e8       	ldi	r24, 0x8A	; 138
    1290:	92 e0       	ldi	r25, 0x02	; 2
    1292:	0e 94 69 18 	call	0x30d2	; 0x30d2 <_ZN13PIDController5resetEv>
    1296:	8e e6       	ldi	r24, 0x6E	; 110
    1298:	92 e0       	ldi	r25, 0x02	; 2
    129a:	0e 94 69 18 	call	0x30d2	; 0x30d2 <_ZN13PIDController5resetEv>
    129e:	82 e5       	ldi	r24, 0x52	; 82
    12a0:	92 e0       	ldi	r25, 0x02	; 2
    12a2:	0e 94 69 18 	call	0x30d2	; 0x30d2 <_ZN13PIDController5resetEv>
    12a6:	86 e3       	ldi	r24, 0x36	; 54
    12a8:	92 e0       	ldi	r25, 0x02	; 2
    12aa:	0e 94 69 18 	call	0x30d2	; 0x30d2 <_ZN13PIDController5resetEv>
    12ae:	8a e1       	ldi	r24, 0x1A	; 26
    12b0:	92 e0       	ldi	r25, 0x02	; 2
    12b2:	0e 94 69 18 	call	0x30d2	; 0x30d2 <_ZN13PIDController5resetEv>
    12b6:	40 91 ac 02 	lds	r20, 0x02AC	; 0x8002ac <motor1Speed>
    12ba:	50 91 ad 02 	lds	r21, 0x02AD	; 0x8002ad <motor1Speed+0x1>
    12be:	ca 01       	movw	r24, r20
    12c0:	0e 94 e4 13 	call	0x27c8	; 0x27c8 <_Z14setMotor1Speedi>
    12c4:	80 91 aa 02 	lds	r24, 0x02AA	; 0x8002aa <motor2Speed>
    12c8:	90 91 ab 02 	lds	r25, 0x02AB	; 0x8002ab <motor2Speed+0x1>
    12cc:	0e 94 f2 13 	call	0x27e4	; 0x27e4 <_Z14setMotor2Speedi>
    12d0:	80 91 a8 02 	lds	r24, 0x02A8	; 0x8002a8 <motor3Speed>
    12d4:	90 91 a9 02 	lds	r25, 0x02A9	; 0x8002a9 <motor3Speed+0x1>
    12d8:	0e 94 00 14 	call	0x2800	; 0x2800 <_Z14setMotor3Speedi>
    12dc:	80 91 a6 02 	lds	r24, 0x02A6	; 0x8002a6 <motor4Speed>
    12e0:	90 91 a7 02 	lds	r25, 0x02A7	; 0x8002a7 <motor4Speed+0x1>
    12e4:	0e 94 10 14 	call	0x2820	; 0x2820 <_Z14setMotor4Speedi>
    12e8:	a4 96       	adiw	r28, 0x24	; 36
    12ea:	0f b6       	in	r0, 0x3f	; 63
    12ec:	f8 94       	cli
    12ee:	de bf       	out	0x3e, r29	; 62
    12f0:	0f be       	out	0x3f, r0	; 63
    12f2:	cd bf       	out	0x3d, r28	; 61
    12f4:	df 91       	pop	r29
    12f6:	cf 91       	pop	r28
    12f8:	1f 91       	pop	r17
    12fa:	0f 91       	pop	r16
    12fc:	ff 90       	pop	r15
    12fe:	ef 90       	pop	r14
    1300:	df 90       	pop	r13
    1302:	cf 90       	pop	r12
    1304:	bf 90       	pop	r11
    1306:	af 90       	pop	r10
    1308:	9f 90       	pop	r9
    130a:	8f 90       	pop	r8
    130c:	7f 90       	pop	r7
    130e:	6f 90       	pop	r6
    1310:	5f 90       	pop	r5
    1312:	4f 90       	pop	r4
    1314:	08 95       	ret
    1316:	d7 01       	movw	r26, r14
    1318:	c6 01       	movw	r24, r12
    131a:	b0 58       	subi	r27, 0x80	; 128
    131c:	8d 8f       	std	Y+29, r24	; 0x1d
    131e:	9e 8f       	std	Y+30, r25	; 0x1e
    1320:	af 8f       	std	Y+31, r26	; 0x1f
    1322:	b8 a3       	std	Y+32, r27	; 0x20
    1324:	c4 cd       	rjmp	.-1144   	; 0xeae <_Z12handleFlightj+0x276>
    1326:	c7 01       	movw	r24, r14
    1328:	b6 01       	movw	r22, r12
    132a:	0e 94 84 25 	call	0x4b08	; 0x4b08 <__addsf3>
    132e:	6d 87       	std	Y+13, r22	; 0x0d
    1330:	7e 87       	std	Y+14, r23	; 0x0e
    1332:	8f 87       	std	Y+15, r24	; 0x0f
    1334:	98 8b       	std	Y+16, r25	; 0x10
    1336:	a7 01       	movw	r20, r14
    1338:	96 01       	movw	r18, r12
    133a:	c5 01       	movw	r24, r10
    133c:	b4 01       	movw	r22, r8
    133e:	0e 94 83 25 	call	0x4b06	; 0x4b06 <__subsf3>
    1342:	9b 01       	movw	r18, r22
    1344:	ac 01       	movw	r20, r24
    1346:	6d 85       	ldd	r22, Y+13	; 0x0d
    1348:	7e 85       	ldd	r23, Y+14	; 0x0e
    134a:	8f 85       	ldd	r24, Y+15	; 0x0f
    134c:	98 89       	ldd	r25, Y+16	; 0x10
    134e:	0e 94 67 26 	call	0x4cce	; 0x4cce <__divsf3>
    1352:	6b 01       	movw	r12, r22
    1354:	7c 01       	movw	r14, r24
    1356:	94 ee       	ldi	r25, 0xE4	; 228
    1358:	89 2e       	mov	r8, r25
    135a:	9b ec       	ldi	r25, 0xCB	; 203
    135c:	99 2e       	mov	r9, r25
    135e:	96 e1       	ldi	r25, 0x16	; 22
    1360:	a9 2e       	mov	r10, r25
    1362:	90 e4       	ldi	r25, 0x40	; 64
    1364:	b9 2e       	mov	r11, r25
    1366:	7a cd       	rjmp	.-1292   	; 0xe5c <_Z12handleFlightj+0x224>
    1368:	c5 01       	movw	r24, r10
    136a:	b4 01       	movw	r22, r8
    136c:	90 58       	subi	r25, 0x80	; 128
    136e:	22 cd       	rjmp	.-1468   	; 0xdb4 <_Z12handleFlightj+0x17c>
    1370:	c7 01       	movw	r24, r14
    1372:	b6 01       	movw	r22, r12
    1374:	0e 94 84 25 	call	0x4b08	; 0x4b08 <__addsf3>
    1378:	6d 87       	std	Y+13, r22	; 0x0d
    137a:	7e 87       	std	Y+14, r23	; 0x0e
    137c:	8f 87       	std	Y+15, r24	; 0x0f
    137e:	98 8b       	std	Y+16, r25	; 0x10
    1380:	a7 01       	movw	r20, r14
    1382:	96 01       	movw	r18, r12
    1384:	c5 01       	movw	r24, r10
    1386:	b4 01       	movw	r22, r8
    1388:	0e 94 83 25 	call	0x4b06	; 0x4b06 <__subsf3>
    138c:	9b 01       	movw	r18, r22
    138e:	ac 01       	movw	r20, r24
    1390:	6d 85       	ldd	r22, Y+13	; 0x0d
    1392:	7e 85       	ldd	r23, Y+14	; 0x0e
    1394:	8f 85       	ldd	r24, Y+15	; 0x0f
    1396:	98 89       	ldd	r25, Y+16	; 0x10
    1398:	0e 94 67 26 	call	0x4cce	; 0x4cce <__divsf3>
    139c:	4b 01       	movw	r8, r22
    139e:	5c 01       	movw	r10, r24
    13a0:	84 ee       	ldi	r24, 0xE4	; 228
    13a2:	9b ec       	ldi	r25, 0xCB	; 203
    13a4:	a6 e1       	ldi	r26, 0x16	; 22
    13a6:	b0 e4       	ldi	r27, 0x40	; 64
    13a8:	8d 87       	std	Y+13, r24	; 0x0d
    13aa:	9e 87       	std	Y+14, r25	; 0x0e
    13ac:	af 87       	std	Y+15, r26	; 0x0f
    13ae:	b8 8b       	std	Y+16, r27	; 0x10
    13b0:	d8 cc       	rjmp	.-1616   	; 0xd62 <_Z12handleFlightj+0x12a>

000013b2 <_Z12calibrateIMUv>:
    13b2:	2f 92       	push	r2
    13b4:	3f 92       	push	r3
    13b6:	4f 92       	push	r4
    13b8:	5f 92       	push	r5
    13ba:	6f 92       	push	r6
    13bc:	7f 92       	push	r7
    13be:	8f 92       	push	r8
    13c0:	9f 92       	push	r9
    13c2:	af 92       	push	r10
    13c4:	bf 92       	push	r11
    13c6:	cf 92       	push	r12
    13c8:	df 92       	push	r13
    13ca:	ef 92       	push	r14
    13cc:	ff 92       	push	r15
    13ce:	0f 93       	push	r16
    13d0:	1f 93       	push	r17
    13d2:	cf 93       	push	r28
    13d4:	df 93       	push	r29
    13d6:	cd b7       	in	r28, 0x3d	; 61
    13d8:	de b7       	in	r29, 0x3e	; 62
    13da:	66 97       	sbiw	r28, 0x16	; 22
    13dc:	0f b6       	in	r0, 0x3f	; 63
    13de:	f8 94       	cli
    13e0:	de bf       	out	0x3e, r29	; 62
    13e2:	0f be       	out	0x3f, r0	; 63
    13e4:	cd bf       	out	0x3d, r28	; 61
    13e6:	0e 94 14 06 	call	0xc28	; 0xc28 <_Z5ledOnv>
    13ea:	2f ef       	ldi	r18, 0xFF	; 255
    13ec:	84 e3       	ldi	r24, 0x34	; 52
    13ee:	9c e0       	ldi	r25, 0x0C	; 12
    13f0:	21 50       	subi	r18, 0x01	; 1
    13f2:	80 40       	sbci	r24, 0x00	; 0
    13f4:	90 40       	sbci	r25, 0x00	; 0
    13f6:	e1 f7       	brne	.-8      	; 0x13f0 <_Z12calibrateIMUv+0x3e>
    13f8:	00 c0       	rjmp	.+0      	; 0x13fa <_Z12calibrateIMUv+0x48>
    13fa:	00 00       	nop
    13fc:	1b 8a       	std	Y+19, r1	; 0x13
    13fe:	1c 8a       	std	Y+20, r1	; 0x14
    1400:	1d 8a       	std	Y+21, r1	; 0x15
    1402:	1e 8a       	std	Y+22, r1	; 0x16
    1404:	81 2c       	mov	r8, r1
    1406:	91 2c       	mov	r9, r1
    1408:	54 01       	movw	r10, r8
    140a:	24 01       	movw	r4, r8
    140c:	35 01       	movw	r6, r10
    140e:	00 e0       	ldi	r16, 0x00	; 0
    1410:	10 e0       	ldi	r17, 0x00	; 0
    1412:	8a e0       	ldi	r24, 0x0A	; 10
    1414:	28 2e       	mov	r2, r24
    1416:	31 2c       	mov	r3, r1
    1418:	06 c0       	rjmp	.+12     	; 0x1426 <_Z12calibrateIMUv+0x74>
    141a:	0f 5f       	subi	r16, 0xFF	; 255
    141c:	1f 4f       	sbci	r17, 0xFF	; 255
    141e:	02 33       	cpi	r16, 0x32	; 50
    1420:	11 05       	cpc	r17, r1
    1422:	09 f4       	brne	.+2      	; 0x1426 <_Z12calibrateIMUv+0x74>
    1424:	79 c0       	rjmp	.+242    	; 0x1518 <_Z12calibrateIMUv+0x166>
    1426:	8f e1       	ldi	r24, 0x1F	; 31
    1428:	9e e4       	ldi	r25, 0x4E	; 78
    142a:	01 97       	sbiw	r24, 0x01	; 1
    142c:	f1 f7       	brne	.-4      	; 0x142a <_Z12calibrateIMUv+0x78>
    142e:	00 c0       	rjmp	.+0      	; 0x1430 <_Z12calibrateIMUv+0x7e>
    1430:	00 00       	nop
    1432:	9e 01       	movw	r18, r28
    1434:	23 5f       	subi	r18, 0xF3	; 243
    1436:	3f 4f       	sbci	r19, 0xFF	; 255
    1438:	ae 01       	movw	r20, r28
    143a:	41 5f       	subi	r20, 0xF1	; 241
    143c:	5f 4f       	sbci	r21, 0xFF	; 255
    143e:	be 01       	movw	r22, r28
    1440:	6f 5e       	subi	r22, 0xEF	; 239
    1442:	7f 4f       	sbci	r23, 0xFF	; 255
    1444:	84 ee       	ldi	r24, 0xE4	; 228
    1446:	92 e0       	ldi	r25, 0x02	; 2
    1448:	0e 94 26 17 	call	0x2e4c	; 0x2e4c <_ZN7MPU605015getAccelerationEPiS0_S0_>
    144c:	6d 85       	ldd	r22, Y+13	; 0x0d
    144e:	7e 85       	ldd	r23, Y+14	; 0x0e
    1450:	07 2e       	mov	r0, r23
    1452:	00 0c       	add	r0, r0
    1454:	88 0b       	sbc	r24, r24
    1456:	99 0b       	sbc	r25, r25
    1458:	0e 94 11 27 	call	0x4e22	; 0x4e22 <__floatsisf>
    145c:	6b 01       	movw	r12, r22
    145e:	7c 01       	movw	r14, r24
    1460:	6f 85       	ldd	r22, Y+15	; 0x0f
    1462:	78 89       	ldd	r23, Y+16	; 0x10
    1464:	07 2e       	mov	r0, r23
    1466:	00 0c       	add	r0, r0
    1468:	88 0b       	sbc	r24, r24
    146a:	99 0b       	sbc	r25, r25
    146c:	0e 94 11 27 	call	0x4e22	; 0x4e22 <__floatsisf>
    1470:	a7 01       	movw	r20, r14
    1472:	96 01       	movw	r18, r12
    1474:	0e 94 03 26 	call	0x4c06	; 0x4c06 <atan2>
    1478:	20 e0       	ldi	r18, 0x00	; 0
    147a:	30 e0       	ldi	r19, 0x00	; 0
    147c:	44 e3       	ldi	r20, 0x34	; 52
    147e:	53 e4       	ldi	r21, 0x43	; 67
    1480:	0e 94 f5 27 	call	0x4fea	; 0x4fea <__mulsf3>
    1484:	2b ed       	ldi	r18, 0xDB	; 219
    1486:	3f e0       	ldi	r19, 0x0F	; 15
    1488:	49 e4       	ldi	r20, 0x49	; 73
    148a:	50 e4       	ldi	r21, 0x40	; 64
    148c:	0e 94 67 26 	call	0x4cce	; 0x4cce <__divsf3>
    1490:	9b 01       	movw	r18, r22
    1492:	ac 01       	movw	r20, r24
    1494:	c3 01       	movw	r24, r6
    1496:	b2 01       	movw	r22, r4
    1498:	0e 94 84 25 	call	0x4b08	; 0x4b08 <__addsf3>
    149c:	2b 01       	movw	r4, r22
    149e:	3c 01       	movw	r6, r24
    14a0:	69 89       	ldd	r22, Y+17	; 0x11
    14a2:	7a 89       	ldd	r23, Y+18	; 0x12
    14a4:	07 2e       	mov	r0, r23
    14a6:	00 0c       	add	r0, r0
    14a8:	88 0b       	sbc	r24, r24
    14aa:	99 0b       	sbc	r25, r25
    14ac:	0e 94 11 27 	call	0x4e22	; 0x4e22 <__floatsisf>
    14b0:	a7 01       	movw	r20, r14
    14b2:	96 01       	movw	r18, r12
    14b4:	0e 94 03 26 	call	0x4c06	; 0x4c06 <atan2>
    14b8:	20 e0       	ldi	r18, 0x00	; 0
    14ba:	30 e0       	ldi	r19, 0x00	; 0
    14bc:	44 e3       	ldi	r20, 0x34	; 52
    14be:	53 e4       	ldi	r21, 0x43	; 67
    14c0:	0e 94 f5 27 	call	0x4fea	; 0x4fea <__mulsf3>
    14c4:	2b ed       	ldi	r18, 0xDB	; 219
    14c6:	3f e0       	ldi	r19, 0x0F	; 15
    14c8:	49 e4       	ldi	r20, 0x49	; 73
    14ca:	50 e4       	ldi	r21, 0x40	; 64
    14cc:	0e 94 67 26 	call	0x4cce	; 0x4cce <__divsf3>
    14d0:	9b 01       	movw	r18, r22
    14d2:	ac 01       	movw	r20, r24
    14d4:	c5 01       	movw	r24, r10
    14d6:	b4 01       	movw	r22, r8
    14d8:	0e 94 84 25 	call	0x4b08	; 0x4b08 <__addsf3>
    14dc:	4b 01       	movw	r8, r22
    14de:	5c 01       	movw	r10, r24
    14e0:	a7 01       	movw	r20, r14
    14e2:	96 01       	movw	r18, r12
    14e4:	6b 89       	ldd	r22, Y+19	; 0x13
    14e6:	7c 89       	ldd	r23, Y+20	; 0x14
    14e8:	8d 89       	ldd	r24, Y+21	; 0x15
    14ea:	9e 89       	ldd	r25, Y+22	; 0x16
    14ec:	0e 94 84 25 	call	0x4b08	; 0x4b08 <__addsf3>
    14f0:	6b 8b       	std	Y+19, r22	; 0x13
    14f2:	7c 8b       	std	Y+20, r23	; 0x14
    14f4:	8d 8b       	std	Y+21, r24	; 0x15
    14f6:	9e 8b       	std	Y+22, r25	; 0x16
    14f8:	c8 01       	movw	r24, r16
    14fa:	b1 01       	movw	r22, r2
    14fc:	0e 94 66 28 	call	0x50cc	; 0x50cc <__divmodhi4>
    1500:	09 97       	sbiw	r24, 0x09	; 9
    1502:	09 f0       	breq	.+2      	; 0x1506 <_Z12calibrateIMUv+0x154>
    1504:	8a cf       	rjmp	.-236    	; 0x141a <_Z12calibrateIMUv+0x68>
    1506:	81 e0       	ldi	r24, 0x01	; 1
    1508:	0e 94 fe 05 	call	0xbfc	; 0xbfc <_Z12ledFlashFasth>
    150c:	0f 5f       	subi	r16, 0xFF	; 255
    150e:	1f 4f       	sbci	r17, 0xFF	; 255
    1510:	02 33       	cpi	r16, 0x32	; 50
    1512:	11 05       	cpc	r17, r1
    1514:	09 f0       	breq	.+2      	; 0x1518 <_Z12calibrateIMUv+0x166>
    1516:	87 cf       	rjmp	.-242    	; 0x1426 <_Z12calibrateIMUv+0x74>
    1518:	20 e0       	ldi	r18, 0x00	; 0
    151a:	30 e0       	ldi	r19, 0x00	; 0
    151c:	48 e4       	ldi	r20, 0x48	; 72
    151e:	52 e4       	ldi	r21, 0x42	; 66
    1520:	c3 01       	movw	r24, r6
    1522:	b2 01       	movw	r22, r4
    1524:	0e 94 67 26 	call	0x4cce	; 0x4cce <__divsf3>
    1528:	6b 01       	movw	r12, r22
    152a:	7c 01       	movw	r14, r24
    152c:	60 93 b7 02 	sts	0x02B7, r22	; 0x8002b7 <pitchCenter>
    1530:	70 93 b8 02 	sts	0x02B8, r23	; 0x8002b8 <pitchCenter+0x1>
    1534:	80 93 b9 02 	sts	0x02B9, r24	; 0x8002b9 <pitchCenter+0x2>
    1538:	90 93 ba 02 	sts	0x02BA, r25	; 0x8002ba <pitchCenter+0x3>
    153c:	20 e0       	ldi	r18, 0x00	; 0
    153e:	30 e0       	ldi	r19, 0x00	; 0
    1540:	48 e4       	ldi	r20, 0x48	; 72
    1542:	52 e4       	ldi	r21, 0x42	; 66
    1544:	c5 01       	movw	r24, r10
    1546:	b4 01       	movw	r22, r8
    1548:	0e 94 67 26 	call	0x4cce	; 0x4cce <__divsf3>
    154c:	4b 01       	movw	r8, r22
    154e:	5c 01       	movw	r10, r24
    1550:	60 93 b3 02 	sts	0x02B3, r22	; 0x8002b3 <rollCenter>
    1554:	70 93 b4 02 	sts	0x02B4, r23	; 0x8002b4 <rollCenter+0x1>
    1558:	80 93 b5 02 	sts	0x02B5, r24	; 0x8002b5 <rollCenter+0x2>
    155c:	90 93 b6 02 	sts	0x02B6, r25	; 0x8002b6 <rollCenter+0x3>
    1560:	20 e0       	ldi	r18, 0x00	; 0
    1562:	30 e0       	ldi	r19, 0x00	; 0
    1564:	48 e4       	ldi	r20, 0x48	; 72
    1566:	52 e4       	ldi	r21, 0x42	; 66
    1568:	6b 89       	ldd	r22, Y+19	; 0x13
    156a:	7c 89       	ldd	r23, Y+20	; 0x14
    156c:	8d 89       	ldd	r24, Y+21	; 0x15
    156e:	9e 89       	ldd	r25, Y+22	; 0x16
    1570:	0e 94 67 26 	call	0x4cce	; 0x4cce <__divsf3>
    1574:	60 93 af 02 	sts	0x02AF, r22	; 0x8002af <accelZCenter>
    1578:	70 93 b0 02 	sts	0x02B0, r23	; 0x8002b0 <accelZCenter+0x1>
    157c:	80 93 b1 02 	sts	0x02B1, r24	; 0x8002b1 <accelZCenter+0x2>
    1580:	90 93 b2 02 	sts	0x02B2, r25	; 0x8002b2 <accelZCenter+0x3>
    1584:	c9 82       	std	Y+1, r12	; 0x01
    1586:	da 82       	std	Y+2, r13	; 0x02
    1588:	eb 82       	std	Y+3, r14	; 0x03
    158a:	fc 82       	std	Y+4, r15	; 0x04
    158c:	8d 82       	std	Y+5, r8	; 0x05
    158e:	9e 82       	std	Y+6, r9	; 0x06
    1590:	af 82       	std	Y+7, r10	; 0x07
    1592:	b8 86       	std	Y+8, r11	; 0x08
    1594:	69 87       	std	Y+9, r22	; 0x09
    1596:	7a 87       	std	Y+10, r23	; 0x0a
    1598:	8b 87       	std	Y+11, r24	; 0x0b
    159a:	9c 87       	std	Y+12, r25	; 0x0c
    159c:	4c e0       	ldi	r20, 0x0C	; 12
    159e:	50 e0       	ldi	r21, 0x00	; 0
    15a0:	60 e0       	ldi	r22, 0x00	; 0
    15a2:	71 e0       	ldi	r23, 0x01	; 1
    15a4:	ce 01       	movw	r24, r28
    15a6:	01 96       	adiw	r24, 0x01	; 1
    15a8:	0e 94 09 2a 	call	0x5412	; 0x5412 <eeprom_write_block>
    15ac:	66 96       	adiw	r28, 0x16	; 22
    15ae:	0f b6       	in	r0, 0x3f	; 63
    15b0:	f8 94       	cli
    15b2:	de bf       	out	0x3e, r29	; 62
    15b4:	0f be       	out	0x3f, r0	; 63
    15b6:	cd bf       	out	0x3d, r28	; 61
    15b8:	df 91       	pop	r29
    15ba:	cf 91       	pop	r28
    15bc:	1f 91       	pop	r17
    15be:	0f 91       	pop	r16
    15c0:	ff 90       	pop	r15
    15c2:	ef 90       	pop	r14
    15c4:	df 90       	pop	r13
    15c6:	cf 90       	pop	r12
    15c8:	bf 90       	pop	r11
    15ca:	af 90       	pop	r10
    15cc:	9f 90       	pop	r9
    15ce:	8f 90       	pop	r8
    15d0:	7f 90       	pop	r7
    15d2:	6f 90       	pop	r6
    15d4:	5f 90       	pop	r5
    15d6:	4f 90       	pop	r4
    15d8:	3f 90       	pop	r3
    15da:	2f 90       	pop	r2
    15dc:	08 95       	ret

000015de <_Z20loadParamsFromEEPROMv>:
    15de:	cf 93       	push	r28
    15e0:	df 93       	push	r29
    15e2:	cd b7       	in	r28, 0x3d	; 61
    15e4:	de b7       	in	r29, 0x3e	; 62
    15e6:	c0 54       	subi	r28, 0x40	; 64
    15e8:	d1 09       	sbc	r29, r1
    15ea:	0f b6       	in	r0, 0x3f	; 63
    15ec:	f8 94       	cli
    15ee:	de bf       	out	0x3e, r29	; 62
    15f0:	0f be       	out	0x3f, r0	; 63
    15f2:	cd bf       	out	0x3d, r28	; 61
    15f4:	40 e2       	ldi	r20, 0x20	; 32
    15f6:	50 e0       	ldi	r21, 0x00	; 0
    15f8:	68 e0       	ldi	r22, 0x08	; 8
    15fa:	70 e0       	ldi	r23, 0x00	; 0
    15fc:	ce 01       	movw	r24, r28
    15fe:	01 96       	adiw	r24, 0x01	; 1
    1600:	0e 94 f1 29 	call	0x53e2	; 0x53e2 <eeprom_read_block>
    1604:	ea e8       	ldi	r30, 0x8A	; 138
    1606:	f2 e0       	ldi	r31, 0x02	; 2
    1608:	89 81       	ldd	r24, Y+1	; 0x01
    160a:	9a 81       	ldd	r25, Y+2	; 0x02
    160c:	ab 81       	ldd	r26, Y+3	; 0x03
    160e:	bc 81       	ldd	r27, Y+4	; 0x04
    1610:	80 83       	st	Z, r24
    1612:	91 83       	std	Z+1, r25	; 0x01
    1614:	a2 83       	std	Z+2, r26	; 0x02
    1616:	b3 83       	std	Z+3, r27	; 0x03
    1618:	8d 81       	ldd	r24, Y+5	; 0x05
    161a:	9e 81       	ldd	r25, Y+6	; 0x06
    161c:	af 81       	ldd	r26, Y+7	; 0x07
    161e:	b8 85       	ldd	r27, Y+8	; 0x08
    1620:	84 83       	std	Z+4, r24	; 0x04
    1622:	95 83       	std	Z+5, r25	; 0x05
    1624:	a6 83       	std	Z+6, r26	; 0x06
    1626:	b7 83       	std	Z+7, r27	; 0x07
    1628:	89 85       	ldd	r24, Y+9	; 0x09
    162a:	9a 85       	ldd	r25, Y+10	; 0x0a
    162c:	ab 85       	ldd	r26, Y+11	; 0x0b
    162e:	bc 85       	ldd	r27, Y+12	; 0x0c
    1630:	80 87       	std	Z+8, r24	; 0x08
    1632:	91 87       	std	Z+9, r25	; 0x09
    1634:	a2 87       	std	Z+10, r26	; 0x0a
    1636:	b3 87       	std	Z+11, r27	; 0x0b
    1638:	8d 85       	ldd	r24, Y+13	; 0x0d
    163a:	9e 85       	ldd	r25, Y+14	; 0x0e
    163c:	af 85       	ldd	r26, Y+15	; 0x0f
    163e:	b8 89       	ldd	r27, Y+16	; 0x10
    1640:	84 87       	std	Z+12, r24	; 0x0c
    1642:	95 87       	std	Z+13, r25	; 0x0d
    1644:	a6 87       	std	Z+14, r26	; 0x0e
    1646:	b7 87       	std	Z+15, r27	; 0x0f
    1648:	ee e6       	ldi	r30, 0x6E	; 110
    164a:	f2 e0       	ldi	r31, 0x02	; 2
    164c:	89 89       	ldd	r24, Y+17	; 0x11
    164e:	9a 89       	ldd	r25, Y+18	; 0x12
    1650:	ab 89       	ldd	r26, Y+19	; 0x13
    1652:	bc 89       	ldd	r27, Y+20	; 0x14
    1654:	80 83       	st	Z, r24
    1656:	91 83       	std	Z+1, r25	; 0x01
    1658:	a2 83       	std	Z+2, r26	; 0x02
    165a:	b3 83       	std	Z+3, r27	; 0x03
    165c:	8d 89       	ldd	r24, Y+21	; 0x15
    165e:	9e 89       	ldd	r25, Y+22	; 0x16
    1660:	af 89       	ldd	r26, Y+23	; 0x17
    1662:	b8 8d       	ldd	r27, Y+24	; 0x18
    1664:	84 83       	std	Z+4, r24	; 0x04
    1666:	95 83       	std	Z+5, r25	; 0x05
    1668:	a6 83       	std	Z+6, r26	; 0x06
    166a:	b7 83       	std	Z+7, r27	; 0x07
    166c:	89 8d       	ldd	r24, Y+25	; 0x19
    166e:	9a 8d       	ldd	r25, Y+26	; 0x1a
    1670:	ab 8d       	ldd	r26, Y+27	; 0x1b
    1672:	bc 8d       	ldd	r27, Y+28	; 0x1c
    1674:	80 87       	std	Z+8, r24	; 0x08
    1676:	91 87       	std	Z+9, r25	; 0x09
    1678:	a2 87       	std	Z+10, r26	; 0x0a
    167a:	b3 87       	std	Z+11, r27	; 0x0b
    167c:	8d 8d       	ldd	r24, Y+29	; 0x1d
    167e:	9e 8d       	ldd	r25, Y+30	; 0x1e
    1680:	af 8d       	ldd	r26, Y+31	; 0x1f
    1682:	b8 a1       	ldd	r27, Y+32	; 0x20
    1684:	84 87       	std	Z+12, r24	; 0x0c
    1686:	95 87       	std	Z+13, r25	; 0x0d
    1688:	a6 87       	std	Z+14, r26	; 0x0e
    168a:	b7 87       	std	Z+15, r27	; 0x0f
    168c:	40 e3       	ldi	r20, 0x30	; 48
    168e:	50 e0       	ldi	r21, 0x00	; 0
    1690:	68 e2       	ldi	r22, 0x28	; 40
    1692:	70 e0       	ldi	r23, 0x00	; 0
    1694:	ce 01       	movw	r24, r28
    1696:	01 96       	adiw	r24, 0x01	; 1
    1698:	0e 94 f1 29 	call	0x53e2	; 0x53e2 <eeprom_read_block>
    169c:	e2 e5       	ldi	r30, 0x52	; 82
    169e:	f2 e0       	ldi	r31, 0x02	; 2
    16a0:	89 81       	ldd	r24, Y+1	; 0x01
    16a2:	9a 81       	ldd	r25, Y+2	; 0x02
    16a4:	ab 81       	ldd	r26, Y+3	; 0x03
    16a6:	bc 81       	ldd	r27, Y+4	; 0x04
    16a8:	80 83       	st	Z, r24
    16aa:	91 83       	std	Z+1, r25	; 0x01
    16ac:	a2 83       	std	Z+2, r26	; 0x02
    16ae:	b3 83       	std	Z+3, r27	; 0x03
    16b0:	8d 81       	ldd	r24, Y+5	; 0x05
    16b2:	9e 81       	ldd	r25, Y+6	; 0x06
    16b4:	af 81       	ldd	r26, Y+7	; 0x07
    16b6:	b8 85       	ldd	r27, Y+8	; 0x08
    16b8:	84 83       	std	Z+4, r24	; 0x04
    16ba:	95 83       	std	Z+5, r25	; 0x05
    16bc:	a6 83       	std	Z+6, r26	; 0x06
    16be:	b7 83       	std	Z+7, r27	; 0x07
    16c0:	89 85       	ldd	r24, Y+9	; 0x09
    16c2:	9a 85       	ldd	r25, Y+10	; 0x0a
    16c4:	ab 85       	ldd	r26, Y+11	; 0x0b
    16c6:	bc 85       	ldd	r27, Y+12	; 0x0c
    16c8:	80 87       	std	Z+8, r24	; 0x08
    16ca:	91 87       	std	Z+9, r25	; 0x09
    16cc:	a2 87       	std	Z+10, r26	; 0x0a
    16ce:	b3 87       	std	Z+11, r27	; 0x0b
    16d0:	8d 85       	ldd	r24, Y+13	; 0x0d
    16d2:	9e 85       	ldd	r25, Y+14	; 0x0e
    16d4:	af 85       	ldd	r26, Y+15	; 0x0f
    16d6:	b8 89       	ldd	r27, Y+16	; 0x10
    16d8:	84 87       	std	Z+12, r24	; 0x0c
    16da:	95 87       	std	Z+13, r25	; 0x0d
    16dc:	a6 87       	std	Z+14, r26	; 0x0e
    16de:	b7 87       	std	Z+15, r27	; 0x0f
    16e0:	e6 e3       	ldi	r30, 0x36	; 54
    16e2:	f2 e0       	ldi	r31, 0x02	; 2
    16e4:	89 89       	ldd	r24, Y+17	; 0x11
    16e6:	9a 89       	ldd	r25, Y+18	; 0x12
    16e8:	ab 89       	ldd	r26, Y+19	; 0x13
    16ea:	bc 89       	ldd	r27, Y+20	; 0x14
    16ec:	80 83       	st	Z, r24
    16ee:	91 83       	std	Z+1, r25	; 0x01
    16f0:	a2 83       	std	Z+2, r26	; 0x02
    16f2:	b3 83       	std	Z+3, r27	; 0x03
    16f4:	8d 89       	ldd	r24, Y+21	; 0x15
    16f6:	9e 89       	ldd	r25, Y+22	; 0x16
    16f8:	af 89       	ldd	r26, Y+23	; 0x17
    16fa:	b8 8d       	ldd	r27, Y+24	; 0x18
    16fc:	84 83       	std	Z+4, r24	; 0x04
    16fe:	95 83       	std	Z+5, r25	; 0x05
    1700:	a6 83       	std	Z+6, r26	; 0x06
    1702:	b7 83       	std	Z+7, r27	; 0x07
    1704:	89 8d       	ldd	r24, Y+25	; 0x19
    1706:	9a 8d       	ldd	r25, Y+26	; 0x1a
    1708:	ab 8d       	ldd	r26, Y+27	; 0x1b
    170a:	bc 8d       	ldd	r27, Y+28	; 0x1c
    170c:	80 87       	std	Z+8, r24	; 0x08
    170e:	91 87       	std	Z+9, r25	; 0x09
    1710:	a2 87       	std	Z+10, r26	; 0x0a
    1712:	b3 87       	std	Z+11, r27	; 0x0b
    1714:	8d 8d       	ldd	r24, Y+29	; 0x1d
    1716:	9e 8d       	ldd	r25, Y+30	; 0x1e
    1718:	af 8d       	ldd	r26, Y+31	; 0x1f
    171a:	b8 a1       	ldd	r27, Y+32	; 0x20
    171c:	84 87       	std	Z+12, r24	; 0x0c
    171e:	95 87       	std	Z+13, r25	; 0x0d
    1720:	a6 87       	std	Z+14, r26	; 0x0e
    1722:	b7 87       	std	Z+15, r27	; 0x0f
    1724:	ea e1       	ldi	r30, 0x1A	; 26
    1726:	f2 e0       	ldi	r31, 0x02	; 2
    1728:	89 a1       	ldd	r24, Y+33	; 0x21
    172a:	9a a1       	ldd	r25, Y+34	; 0x22
    172c:	ab a1       	ldd	r26, Y+35	; 0x23
    172e:	bc a1       	ldd	r27, Y+36	; 0x24
    1730:	80 83       	st	Z, r24
    1732:	91 83       	std	Z+1, r25	; 0x01
    1734:	a2 83       	std	Z+2, r26	; 0x02
    1736:	b3 83       	std	Z+3, r27	; 0x03
    1738:	8d a1       	ldd	r24, Y+37	; 0x25
    173a:	9e a1       	ldd	r25, Y+38	; 0x26
    173c:	af a1       	ldd	r26, Y+39	; 0x27
    173e:	b8 a5       	ldd	r27, Y+40	; 0x28
    1740:	84 83       	std	Z+4, r24	; 0x04
    1742:	95 83       	std	Z+5, r25	; 0x05
    1744:	a6 83       	std	Z+6, r26	; 0x06
    1746:	b7 83       	std	Z+7, r27	; 0x07
    1748:	89 a5       	ldd	r24, Y+41	; 0x29
    174a:	9a a5       	ldd	r25, Y+42	; 0x2a
    174c:	ab a5       	ldd	r26, Y+43	; 0x2b
    174e:	bc a5       	ldd	r27, Y+44	; 0x2c
    1750:	80 87       	std	Z+8, r24	; 0x08
    1752:	91 87       	std	Z+9, r25	; 0x09
    1754:	a2 87       	std	Z+10, r26	; 0x0a
    1756:	b3 87       	std	Z+11, r27	; 0x0b
    1758:	8d a5       	ldd	r24, Y+45	; 0x2d
    175a:	9e a5       	ldd	r25, Y+46	; 0x2e
    175c:	af a5       	ldd	r26, Y+47	; 0x2f
    175e:	b8 a9       	ldd	r27, Y+48	; 0x30
    1760:	84 87       	std	Z+12, r24	; 0x0c
    1762:	95 87       	std	Z+13, r25	; 0x0d
    1764:	a6 87       	std	Z+14, r26	; 0x0e
    1766:	b7 87       	std	Z+15, r27	; 0x0f
    1768:	48 e1       	ldi	r20, 0x18	; 24
    176a:	50 e0       	ldi	r21, 0x00	; 0
    176c:	68 e5       	ldi	r22, 0x58	; 88
    176e:	70 e0       	ldi	r23, 0x00	; 0
    1770:	ce 01       	movw	r24, r28
    1772:	01 96       	adiw	r24, 0x01	; 1
    1774:	0e 94 f1 29 	call	0x53e2	; 0x53e2 <eeprom_read_block>
    1778:	89 81       	ldd	r24, Y+1	; 0x01
    177a:	9a 81       	ldd	r25, Y+2	; 0x02
    177c:	ab 81       	ldd	r26, Y+3	; 0x03
    177e:	bc 81       	ldd	r27, Y+4	; 0x04
    1780:	80 93 0e 02 	sts	0x020E, r24	; 0x80020e <pitchDemandGain>
    1784:	90 93 0f 02 	sts	0x020F, r25	; 0x80020f <pitchDemandGain+0x1>
    1788:	a0 93 10 02 	sts	0x0210, r26	; 0x800210 <pitchDemandGain+0x2>
    178c:	b0 93 11 02 	sts	0x0211, r27	; 0x800211 <pitchDemandGain+0x3>
    1790:	8d 81       	ldd	r24, Y+5	; 0x05
    1792:	9e 81       	ldd	r25, Y+6	; 0x06
    1794:	af 81       	ldd	r26, Y+7	; 0x07
    1796:	b8 85       	ldd	r27, Y+8	; 0x08
    1798:	80 93 0a 02 	sts	0x020A, r24	; 0x80020a <rollDemandGain>
    179c:	90 93 0b 02 	sts	0x020B, r25	; 0x80020b <rollDemandGain+0x1>
    17a0:	a0 93 0c 02 	sts	0x020C, r26	; 0x80020c <rollDemandGain+0x2>
    17a4:	b0 93 0d 02 	sts	0x020D, r27	; 0x80020d <rollDemandGain+0x3>
    17a8:	89 85       	ldd	r24, Y+9	; 0x09
    17aa:	9a 85       	ldd	r25, Y+10	; 0x0a
    17ac:	ab 85       	ldd	r26, Y+11	; 0x0b
    17ae:	bc 85       	ldd	r27, Y+12	; 0x0c
    17b0:	80 93 06 02 	sts	0x0206, r24	; 0x800206 <yawDemandGain>
    17b4:	90 93 07 02 	sts	0x0207, r25	; 0x800207 <yawDemandGain+0x1>
    17b8:	a0 93 08 02 	sts	0x0208, r26	; 0x800208 <yawDemandGain+0x2>
    17bc:	b0 93 09 02 	sts	0x0209, r27	; 0x800209 <yawDemandGain+0x3>
    17c0:	8d 85       	ldd	r24, Y+13	; 0x0d
    17c2:	9e 85       	ldd	r25, Y+14	; 0x0e
    17c4:	af 85       	ldd	r26, Y+15	; 0x0f
    17c6:	b8 89       	ldd	r27, Y+16	; 0x10
    17c8:	80 93 16 02 	sts	0x0216, r24	; 0x800216 <pitchTrim>
    17cc:	90 93 17 02 	sts	0x0217, r25	; 0x800217 <pitchTrim+0x1>
    17d0:	a0 93 18 02 	sts	0x0218, r26	; 0x800218 <pitchTrim+0x2>
    17d4:	b0 93 19 02 	sts	0x0219, r27	; 0x800219 <pitchTrim+0x3>
    17d8:	89 89       	ldd	r24, Y+17	; 0x11
    17da:	9a 89       	ldd	r25, Y+18	; 0x12
    17dc:	ab 89       	ldd	r26, Y+19	; 0x13
    17de:	bc 89       	ldd	r27, Y+20	; 0x14
    17e0:	80 93 12 02 	sts	0x0212, r24	; 0x800212 <rollTrim>
    17e4:	90 93 13 02 	sts	0x0213, r25	; 0x800213 <rollTrim+0x1>
    17e8:	a0 93 14 02 	sts	0x0214, r26	; 0x800214 <rollTrim+0x2>
    17ec:	b0 93 15 02 	sts	0x0215, r27	; 0x800215 <rollTrim+0x3>
    17f0:	2d 89       	ldd	r18, Y+21	; 0x15
    17f2:	3e 89       	ldd	r19, Y+22	; 0x16
    17f4:	4f 89       	ldd	r20, Y+23	; 0x17
    17f6:	58 8d       	ldd	r21, Y+24	; 0x18
    17f8:	20 93 02 02 	sts	0x0202, r18	; 0x800202 <compFilterAlpha>
    17fc:	30 93 03 02 	sts	0x0203, r19	; 0x800203 <compFilterAlpha+0x1>
    1800:	40 93 04 02 	sts	0x0204, r20	; 0x800204 <compFilterAlpha+0x2>
    1804:	50 93 05 02 	sts	0x0205, r21	; 0x800205 <compFilterAlpha+0x3>
    1808:	60 e0       	ldi	r22, 0x00	; 0
    180a:	70 e0       	ldi	r23, 0x00	; 0
    180c:	80 e8       	ldi	r24, 0x80	; 128
    180e:	9f e3       	ldi	r25, 0x3F	; 63
    1810:	0e 94 83 25 	call	0x4b06	; 0x4b06 <__subsf3>
    1814:	60 93 fe 01 	sts	0x01FE, r22	; 0x8001fe <oneMinusCompFilterAlpha>
    1818:	70 93 ff 01 	sts	0x01FF, r23	; 0x8001ff <oneMinusCompFilterAlpha+0x1>
    181c:	80 93 00 02 	sts	0x0200, r24	; 0x800200 <oneMinusCompFilterAlpha+0x2>
    1820:	90 93 01 02 	sts	0x0201, r25	; 0x800201 <oneMinusCompFilterAlpha+0x3>
    1824:	c0 5c       	subi	r28, 0xC0	; 192
    1826:	df 4f       	sbci	r29, 0xFF	; 255
    1828:	0f b6       	in	r0, 0x3f	; 63
    182a:	f8 94       	cli
    182c:	de bf       	out	0x3e, r29	; 62
    182e:	0f be       	out	0x3f, r0	; 63
    1830:	cd bf       	out	0x3d, r28	; 61
    1832:	df 91       	pop	r29
    1834:	cf 91       	pop	r28
    1836:	08 95       	ret

00001838 <_Z18saveParamsToEEPROMv>:
    1838:	cf 93       	push	r28
    183a:	df 93       	push	r29
    183c:	cd b7       	in	r28, 0x3d	; 61
    183e:	de b7       	in	r29, 0x3e	; 62
    1840:	c0 54       	subi	r28, 0x40	; 64
    1842:	d1 09       	sbc	r29, r1
    1844:	0f b6       	in	r0, 0x3f	; 63
    1846:	f8 94       	cli
    1848:	de bf       	out	0x3e, r29	; 62
    184a:	0f be       	out	0x3f, r0	; 63
    184c:	cd bf       	out	0x3d, r28	; 61
    184e:	ea e8       	ldi	r30, 0x8A	; 138
    1850:	f2 e0       	ldi	r31, 0x02	; 2
    1852:	80 81       	ld	r24, Z
    1854:	91 81       	ldd	r25, Z+1	; 0x01
    1856:	a2 81       	ldd	r26, Z+2	; 0x02
    1858:	b3 81       	ldd	r27, Z+3	; 0x03
    185a:	89 83       	std	Y+1, r24	; 0x01
    185c:	9a 83       	std	Y+2, r25	; 0x02
    185e:	ab 83       	std	Y+3, r26	; 0x03
    1860:	bc 83       	std	Y+4, r27	; 0x04
    1862:	84 81       	ldd	r24, Z+4	; 0x04
    1864:	95 81       	ldd	r25, Z+5	; 0x05
    1866:	a6 81       	ldd	r26, Z+6	; 0x06
    1868:	b7 81       	ldd	r27, Z+7	; 0x07
    186a:	8d 83       	std	Y+5, r24	; 0x05
    186c:	9e 83       	std	Y+6, r25	; 0x06
    186e:	af 83       	std	Y+7, r26	; 0x07
    1870:	b8 87       	std	Y+8, r27	; 0x08
    1872:	80 85       	ldd	r24, Z+8	; 0x08
    1874:	91 85       	ldd	r25, Z+9	; 0x09
    1876:	a2 85       	ldd	r26, Z+10	; 0x0a
    1878:	b3 85       	ldd	r27, Z+11	; 0x0b
    187a:	89 87       	std	Y+9, r24	; 0x09
    187c:	9a 87       	std	Y+10, r25	; 0x0a
    187e:	ab 87       	std	Y+11, r26	; 0x0b
    1880:	bc 87       	std	Y+12, r27	; 0x0c
    1882:	84 85       	ldd	r24, Z+12	; 0x0c
    1884:	95 85       	ldd	r25, Z+13	; 0x0d
    1886:	a6 85       	ldd	r26, Z+14	; 0x0e
    1888:	b7 85       	ldd	r27, Z+15	; 0x0f
    188a:	8d 87       	std	Y+13, r24	; 0x0d
    188c:	9e 87       	std	Y+14, r25	; 0x0e
    188e:	af 87       	std	Y+15, r26	; 0x0f
    1890:	b8 8b       	std	Y+16, r27	; 0x10
    1892:	ee e6       	ldi	r30, 0x6E	; 110
    1894:	f2 e0       	ldi	r31, 0x02	; 2
    1896:	80 81       	ld	r24, Z
    1898:	91 81       	ldd	r25, Z+1	; 0x01
    189a:	a2 81       	ldd	r26, Z+2	; 0x02
    189c:	b3 81       	ldd	r27, Z+3	; 0x03
    189e:	89 8b       	std	Y+17, r24	; 0x11
    18a0:	9a 8b       	std	Y+18, r25	; 0x12
    18a2:	ab 8b       	std	Y+19, r26	; 0x13
    18a4:	bc 8b       	std	Y+20, r27	; 0x14
    18a6:	84 81       	ldd	r24, Z+4	; 0x04
    18a8:	95 81       	ldd	r25, Z+5	; 0x05
    18aa:	a6 81       	ldd	r26, Z+6	; 0x06
    18ac:	b7 81       	ldd	r27, Z+7	; 0x07
    18ae:	8d 8b       	std	Y+21, r24	; 0x15
    18b0:	9e 8b       	std	Y+22, r25	; 0x16
    18b2:	af 8b       	std	Y+23, r26	; 0x17
    18b4:	b8 8f       	std	Y+24, r27	; 0x18
    18b6:	80 85       	ldd	r24, Z+8	; 0x08
    18b8:	91 85       	ldd	r25, Z+9	; 0x09
    18ba:	a2 85       	ldd	r26, Z+10	; 0x0a
    18bc:	b3 85       	ldd	r27, Z+11	; 0x0b
    18be:	89 8f       	std	Y+25, r24	; 0x19
    18c0:	9a 8f       	std	Y+26, r25	; 0x1a
    18c2:	ab 8f       	std	Y+27, r26	; 0x1b
    18c4:	bc 8f       	std	Y+28, r27	; 0x1c
    18c6:	84 85       	ldd	r24, Z+12	; 0x0c
    18c8:	95 85       	ldd	r25, Z+13	; 0x0d
    18ca:	a6 85       	ldd	r26, Z+14	; 0x0e
    18cc:	b7 85       	ldd	r27, Z+15	; 0x0f
    18ce:	8d 8f       	std	Y+29, r24	; 0x1d
    18d0:	9e 8f       	std	Y+30, r25	; 0x1e
    18d2:	af 8f       	std	Y+31, r26	; 0x1f
    18d4:	b8 a3       	std	Y+32, r27	; 0x20
    18d6:	40 e2       	ldi	r20, 0x20	; 32
    18d8:	50 e0       	ldi	r21, 0x00	; 0
    18da:	68 e0       	ldi	r22, 0x08	; 8
    18dc:	70 e0       	ldi	r23, 0x00	; 0
    18de:	ce 01       	movw	r24, r28
    18e0:	01 96       	adiw	r24, 0x01	; 1
    18e2:	0e 94 09 2a 	call	0x5412	; 0x5412 <eeprom_write_block>
    18e6:	e2 e5       	ldi	r30, 0x52	; 82
    18e8:	f2 e0       	ldi	r31, 0x02	; 2
    18ea:	80 81       	ld	r24, Z
    18ec:	91 81       	ldd	r25, Z+1	; 0x01
    18ee:	a2 81       	ldd	r26, Z+2	; 0x02
    18f0:	b3 81       	ldd	r27, Z+3	; 0x03
    18f2:	89 83       	std	Y+1, r24	; 0x01
    18f4:	9a 83       	std	Y+2, r25	; 0x02
    18f6:	ab 83       	std	Y+3, r26	; 0x03
    18f8:	bc 83       	std	Y+4, r27	; 0x04
    18fa:	84 81       	ldd	r24, Z+4	; 0x04
    18fc:	95 81       	ldd	r25, Z+5	; 0x05
    18fe:	a6 81       	ldd	r26, Z+6	; 0x06
    1900:	b7 81       	ldd	r27, Z+7	; 0x07
    1902:	8d 83       	std	Y+5, r24	; 0x05
    1904:	9e 83       	std	Y+6, r25	; 0x06
    1906:	af 83       	std	Y+7, r26	; 0x07
    1908:	b8 87       	std	Y+8, r27	; 0x08
    190a:	80 85       	ldd	r24, Z+8	; 0x08
    190c:	91 85       	ldd	r25, Z+9	; 0x09
    190e:	a2 85       	ldd	r26, Z+10	; 0x0a
    1910:	b3 85       	ldd	r27, Z+11	; 0x0b
    1912:	89 87       	std	Y+9, r24	; 0x09
    1914:	9a 87       	std	Y+10, r25	; 0x0a
    1916:	ab 87       	std	Y+11, r26	; 0x0b
    1918:	bc 87       	std	Y+12, r27	; 0x0c
    191a:	84 85       	ldd	r24, Z+12	; 0x0c
    191c:	95 85       	ldd	r25, Z+13	; 0x0d
    191e:	a6 85       	ldd	r26, Z+14	; 0x0e
    1920:	b7 85       	ldd	r27, Z+15	; 0x0f
    1922:	8d 87       	std	Y+13, r24	; 0x0d
    1924:	9e 87       	std	Y+14, r25	; 0x0e
    1926:	af 87       	std	Y+15, r26	; 0x0f
    1928:	b8 8b       	std	Y+16, r27	; 0x10
    192a:	e6 e3       	ldi	r30, 0x36	; 54
    192c:	f2 e0       	ldi	r31, 0x02	; 2
    192e:	80 81       	ld	r24, Z
    1930:	91 81       	ldd	r25, Z+1	; 0x01
    1932:	a2 81       	ldd	r26, Z+2	; 0x02
    1934:	b3 81       	ldd	r27, Z+3	; 0x03
    1936:	89 8b       	std	Y+17, r24	; 0x11
    1938:	9a 8b       	std	Y+18, r25	; 0x12
    193a:	ab 8b       	std	Y+19, r26	; 0x13
    193c:	bc 8b       	std	Y+20, r27	; 0x14
    193e:	84 81       	ldd	r24, Z+4	; 0x04
    1940:	95 81       	ldd	r25, Z+5	; 0x05
    1942:	a6 81       	ldd	r26, Z+6	; 0x06
    1944:	b7 81       	ldd	r27, Z+7	; 0x07
    1946:	8d 8b       	std	Y+21, r24	; 0x15
    1948:	9e 8b       	std	Y+22, r25	; 0x16
    194a:	af 8b       	std	Y+23, r26	; 0x17
    194c:	b8 8f       	std	Y+24, r27	; 0x18
    194e:	80 85       	ldd	r24, Z+8	; 0x08
    1950:	91 85       	ldd	r25, Z+9	; 0x09
    1952:	a2 85       	ldd	r26, Z+10	; 0x0a
    1954:	b3 85       	ldd	r27, Z+11	; 0x0b
    1956:	89 8f       	std	Y+25, r24	; 0x19
    1958:	9a 8f       	std	Y+26, r25	; 0x1a
    195a:	ab 8f       	std	Y+27, r26	; 0x1b
    195c:	bc 8f       	std	Y+28, r27	; 0x1c
    195e:	84 85       	ldd	r24, Z+12	; 0x0c
    1960:	95 85       	ldd	r25, Z+13	; 0x0d
    1962:	a6 85       	ldd	r26, Z+14	; 0x0e
    1964:	b7 85       	ldd	r27, Z+15	; 0x0f
    1966:	8d 8f       	std	Y+29, r24	; 0x1d
    1968:	9e 8f       	std	Y+30, r25	; 0x1e
    196a:	af 8f       	std	Y+31, r26	; 0x1f
    196c:	b8 a3       	std	Y+32, r27	; 0x20
    196e:	ea e1       	ldi	r30, 0x1A	; 26
    1970:	f2 e0       	ldi	r31, 0x02	; 2
    1972:	80 81       	ld	r24, Z
    1974:	91 81       	ldd	r25, Z+1	; 0x01
    1976:	a2 81       	ldd	r26, Z+2	; 0x02
    1978:	b3 81       	ldd	r27, Z+3	; 0x03
    197a:	89 a3       	std	Y+33, r24	; 0x21
    197c:	9a a3       	std	Y+34, r25	; 0x22
    197e:	ab a3       	std	Y+35, r26	; 0x23
    1980:	bc a3       	std	Y+36, r27	; 0x24
    1982:	84 81       	ldd	r24, Z+4	; 0x04
    1984:	95 81       	ldd	r25, Z+5	; 0x05
    1986:	a6 81       	ldd	r26, Z+6	; 0x06
    1988:	b7 81       	ldd	r27, Z+7	; 0x07
    198a:	8d a3       	std	Y+37, r24	; 0x25
    198c:	9e a3       	std	Y+38, r25	; 0x26
    198e:	af a3       	std	Y+39, r26	; 0x27
    1990:	b8 a7       	std	Y+40, r27	; 0x28
    1992:	80 85       	ldd	r24, Z+8	; 0x08
    1994:	91 85       	ldd	r25, Z+9	; 0x09
    1996:	a2 85       	ldd	r26, Z+10	; 0x0a
    1998:	b3 85       	ldd	r27, Z+11	; 0x0b
    199a:	89 a7       	std	Y+41, r24	; 0x29
    199c:	9a a7       	std	Y+42, r25	; 0x2a
    199e:	ab a7       	std	Y+43, r26	; 0x2b
    19a0:	bc a7       	std	Y+44, r27	; 0x2c
    19a2:	84 85       	ldd	r24, Z+12	; 0x0c
    19a4:	95 85       	ldd	r25, Z+13	; 0x0d
    19a6:	a6 85       	ldd	r26, Z+14	; 0x0e
    19a8:	b7 85       	ldd	r27, Z+15	; 0x0f
    19aa:	8d a7       	std	Y+45, r24	; 0x2d
    19ac:	9e a7       	std	Y+46, r25	; 0x2e
    19ae:	af a7       	std	Y+47, r26	; 0x2f
    19b0:	b8 ab       	std	Y+48, r27	; 0x30
    19b2:	40 e3       	ldi	r20, 0x30	; 48
    19b4:	50 e0       	ldi	r21, 0x00	; 0
    19b6:	68 e2       	ldi	r22, 0x28	; 40
    19b8:	70 e0       	ldi	r23, 0x00	; 0
    19ba:	ce 01       	movw	r24, r28
    19bc:	01 96       	adiw	r24, 0x01	; 1
    19be:	0e 94 09 2a 	call	0x5412	; 0x5412 <eeprom_write_block>
    19c2:	80 91 0e 02 	lds	r24, 0x020E	; 0x80020e <pitchDemandGain>
    19c6:	90 91 0f 02 	lds	r25, 0x020F	; 0x80020f <pitchDemandGain+0x1>
    19ca:	a0 91 10 02 	lds	r26, 0x0210	; 0x800210 <pitchDemandGain+0x2>
    19ce:	b0 91 11 02 	lds	r27, 0x0211	; 0x800211 <pitchDemandGain+0x3>
    19d2:	89 83       	std	Y+1, r24	; 0x01
    19d4:	9a 83       	std	Y+2, r25	; 0x02
    19d6:	ab 83       	std	Y+3, r26	; 0x03
    19d8:	bc 83       	std	Y+4, r27	; 0x04
    19da:	80 91 0a 02 	lds	r24, 0x020A	; 0x80020a <rollDemandGain>
    19de:	90 91 0b 02 	lds	r25, 0x020B	; 0x80020b <rollDemandGain+0x1>
    19e2:	a0 91 0c 02 	lds	r26, 0x020C	; 0x80020c <rollDemandGain+0x2>
    19e6:	b0 91 0d 02 	lds	r27, 0x020D	; 0x80020d <rollDemandGain+0x3>
    19ea:	8d 83       	std	Y+5, r24	; 0x05
    19ec:	9e 83       	std	Y+6, r25	; 0x06
    19ee:	af 83       	std	Y+7, r26	; 0x07
    19f0:	b8 87       	std	Y+8, r27	; 0x08
    19f2:	80 91 06 02 	lds	r24, 0x0206	; 0x800206 <yawDemandGain>
    19f6:	90 91 07 02 	lds	r25, 0x0207	; 0x800207 <yawDemandGain+0x1>
    19fa:	a0 91 08 02 	lds	r26, 0x0208	; 0x800208 <yawDemandGain+0x2>
    19fe:	b0 91 09 02 	lds	r27, 0x0209	; 0x800209 <yawDemandGain+0x3>
    1a02:	89 87       	std	Y+9, r24	; 0x09
    1a04:	9a 87       	std	Y+10, r25	; 0x0a
    1a06:	ab 87       	std	Y+11, r26	; 0x0b
    1a08:	bc 87       	std	Y+12, r27	; 0x0c
    1a0a:	80 91 16 02 	lds	r24, 0x0216	; 0x800216 <pitchTrim>
    1a0e:	90 91 17 02 	lds	r25, 0x0217	; 0x800217 <pitchTrim+0x1>
    1a12:	a0 91 18 02 	lds	r26, 0x0218	; 0x800218 <pitchTrim+0x2>
    1a16:	b0 91 19 02 	lds	r27, 0x0219	; 0x800219 <pitchTrim+0x3>
    1a1a:	8d 87       	std	Y+13, r24	; 0x0d
    1a1c:	9e 87       	std	Y+14, r25	; 0x0e
    1a1e:	af 87       	std	Y+15, r26	; 0x0f
    1a20:	b8 8b       	std	Y+16, r27	; 0x10
    1a22:	80 91 12 02 	lds	r24, 0x0212	; 0x800212 <rollTrim>
    1a26:	90 91 13 02 	lds	r25, 0x0213	; 0x800213 <rollTrim+0x1>
    1a2a:	a0 91 14 02 	lds	r26, 0x0214	; 0x800214 <rollTrim+0x2>
    1a2e:	b0 91 15 02 	lds	r27, 0x0215	; 0x800215 <rollTrim+0x3>
    1a32:	89 8b       	std	Y+17, r24	; 0x11
    1a34:	9a 8b       	std	Y+18, r25	; 0x12
    1a36:	ab 8b       	std	Y+19, r26	; 0x13
    1a38:	bc 8b       	std	Y+20, r27	; 0x14
    1a3a:	80 91 02 02 	lds	r24, 0x0202	; 0x800202 <compFilterAlpha>
    1a3e:	90 91 03 02 	lds	r25, 0x0203	; 0x800203 <compFilterAlpha+0x1>
    1a42:	a0 91 04 02 	lds	r26, 0x0204	; 0x800204 <compFilterAlpha+0x2>
    1a46:	b0 91 05 02 	lds	r27, 0x0205	; 0x800205 <compFilterAlpha+0x3>
    1a4a:	8d 8b       	std	Y+21, r24	; 0x15
    1a4c:	9e 8b       	std	Y+22, r25	; 0x16
    1a4e:	af 8b       	std	Y+23, r26	; 0x17
    1a50:	b8 8f       	std	Y+24, r27	; 0x18
    1a52:	48 e1       	ldi	r20, 0x18	; 24
    1a54:	50 e0       	ldi	r21, 0x00	; 0
    1a56:	68 e5       	ldi	r22, 0x58	; 88
    1a58:	70 e0       	ldi	r23, 0x00	; 0
    1a5a:	ce 01       	movw	r24, r28
    1a5c:	01 96       	adiw	r24, 0x01	; 1
    1a5e:	0e 94 09 2a 	call	0x5412	; 0x5412 <eeprom_write_block>
    1a62:	c0 5c       	subi	r28, 0xC0	; 192
    1a64:	df 4f       	sbci	r29, 0xFF	; 255
    1a66:	0f b6       	in	r0, 0x3f	; 63
    1a68:	f8 94       	cli
    1a6a:	de bf       	out	0x3e, r29	; 62
    1a6c:	0f be       	out	0x3f, r0	; 63
    1a6e:	cd bf       	out	0x3d, r28	; 61
    1a70:	df 91       	pop	r29
    1a72:	cf 91       	pop	r28
    1a74:	08 95       	ret

00001a76 <_Z31loadCalibrationParamsFromEEPROMv>:
    1a76:	cf 93       	push	r28
    1a78:	df 93       	push	r29
    1a7a:	cd b7       	in	r28, 0x3d	; 61
    1a7c:	de b7       	in	r29, 0x3e	; 62
    1a7e:	2c 97       	sbiw	r28, 0x0c	; 12
    1a80:	0f b6       	in	r0, 0x3f	; 63
    1a82:	f8 94       	cli
    1a84:	de bf       	out	0x3e, r29	; 62
    1a86:	0f be       	out	0x3f, r0	; 63
    1a88:	cd bf       	out	0x3d, r28	; 61
    1a8a:	4c e0       	ldi	r20, 0x0C	; 12
    1a8c:	50 e0       	ldi	r21, 0x00	; 0
    1a8e:	60 e0       	ldi	r22, 0x00	; 0
    1a90:	71 e0       	ldi	r23, 0x01	; 1
    1a92:	ce 01       	movw	r24, r28
    1a94:	01 96       	adiw	r24, 0x01	; 1
    1a96:	0e 94 f1 29 	call	0x53e2	; 0x53e2 <eeprom_read_block>
    1a9a:	89 81       	ldd	r24, Y+1	; 0x01
    1a9c:	9a 81       	ldd	r25, Y+2	; 0x02
    1a9e:	ab 81       	ldd	r26, Y+3	; 0x03
    1aa0:	bc 81       	ldd	r27, Y+4	; 0x04
    1aa2:	80 93 b7 02 	sts	0x02B7, r24	; 0x8002b7 <pitchCenter>
    1aa6:	90 93 b8 02 	sts	0x02B8, r25	; 0x8002b8 <pitchCenter+0x1>
    1aaa:	a0 93 b9 02 	sts	0x02B9, r26	; 0x8002b9 <pitchCenter+0x2>
    1aae:	b0 93 ba 02 	sts	0x02BA, r27	; 0x8002ba <pitchCenter+0x3>
    1ab2:	8d 81       	ldd	r24, Y+5	; 0x05
    1ab4:	9e 81       	ldd	r25, Y+6	; 0x06
    1ab6:	af 81       	ldd	r26, Y+7	; 0x07
    1ab8:	b8 85       	ldd	r27, Y+8	; 0x08
    1aba:	80 93 b3 02 	sts	0x02B3, r24	; 0x8002b3 <rollCenter>
    1abe:	90 93 b4 02 	sts	0x02B4, r25	; 0x8002b4 <rollCenter+0x1>
    1ac2:	a0 93 b5 02 	sts	0x02B5, r26	; 0x8002b5 <rollCenter+0x2>
    1ac6:	b0 93 b6 02 	sts	0x02B6, r27	; 0x8002b6 <rollCenter+0x3>
    1aca:	89 85       	ldd	r24, Y+9	; 0x09
    1acc:	9a 85       	ldd	r25, Y+10	; 0x0a
    1ace:	ab 85       	ldd	r26, Y+11	; 0x0b
    1ad0:	bc 85       	ldd	r27, Y+12	; 0x0c
    1ad2:	80 93 af 02 	sts	0x02AF, r24	; 0x8002af <accelZCenter>
    1ad6:	90 93 b0 02 	sts	0x02B0, r25	; 0x8002b0 <accelZCenter+0x1>
    1ada:	a0 93 b1 02 	sts	0x02B1, r26	; 0x8002b1 <accelZCenter+0x2>
    1ade:	b0 93 b2 02 	sts	0x02B2, r27	; 0x8002b2 <accelZCenter+0x3>
    1ae2:	2c 96       	adiw	r28, 0x0c	; 12
    1ae4:	0f b6       	in	r0, 0x3f	; 63
    1ae6:	f8 94       	cli
    1ae8:	de bf       	out	0x3e, r29	; 62
    1aea:	0f be       	out	0x3f, r0	; 63
    1aec:	cd bf       	out	0x3d, r28	; 61
    1aee:	df 91       	pop	r29
    1af0:	cf 91       	pop	r28
    1af2:	08 95       	ret

00001af4 <_Z19resetPIDControllersv>:
    1af4:	8a e8       	ldi	r24, 0x8A	; 138
    1af6:	92 e0       	ldi	r25, 0x02	; 2
    1af8:	0e 94 69 18 	call	0x30d2	; 0x30d2 <_ZN13PIDController5resetEv>
    1afc:	8e e6       	ldi	r24, 0x6E	; 110
    1afe:	92 e0       	ldi	r25, 0x02	; 2
    1b00:	0e 94 69 18 	call	0x30d2	; 0x30d2 <_ZN13PIDController5resetEv>
    1b04:	82 e5       	ldi	r24, 0x52	; 82
    1b06:	92 e0       	ldi	r25, 0x02	; 2
    1b08:	0e 94 69 18 	call	0x30d2	; 0x30d2 <_ZN13PIDController5resetEv>
    1b0c:	86 e3       	ldi	r24, 0x36	; 54
    1b0e:	92 e0       	ldi	r25, 0x02	; 2
    1b10:	0e 94 69 18 	call	0x30d2	; 0x30d2 <_ZN13PIDController5resetEv>
    1b14:	8a e1       	ldi	r24, 0x1A	; 26
    1b16:	92 e0       	ldi	r25, 0x02	; 2
    1b18:	0c 94 69 18 	jmp	0x30d2	; 0x30d2 <_ZN13PIDController5resetEv>

00001b1c <_Z14copyParamsFromhPh>:
    1b1c:	fb 01       	movw	r30, r22
    1b1e:	88 23       	and	r24, r24
    1b20:	39 f0       	breq	.+14     	; 0x1b30 <_Z14copyParamsFromhPh+0x14>
    1b22:	81 30       	cpi	r24, 0x01	; 1
    1b24:	09 f4       	brne	.+2      	; 0x1b28 <_Z14copyParamsFromhPh+0xc>
    1b26:	bc c0       	rjmp	.+376    	; 0x1ca0 <_Z14copyParamsFromhPh+0x184>
    1b28:	82 30       	cpi	r24, 0x02	; 2
    1b2a:	09 f4       	brne	.+2      	; 0x1b2e <_Z14copyParamsFromhPh+0x12>
    1b2c:	62 c0       	rjmp	.+196    	; 0x1bf2 <_Z14copyParamsFromhPh+0xd6>
    1b2e:	08 95       	ret
    1b30:	80 81       	ld	r24, Z
    1b32:	91 81       	ldd	r25, Z+1	; 0x01
    1b34:	a2 81       	ldd	r26, Z+2	; 0x02
    1b36:	b3 81       	ldd	r27, Z+3	; 0x03
    1b38:	80 93 8a 02 	sts	0x028A, r24	; 0x80028a <pitchPID>
    1b3c:	90 93 8b 02 	sts	0x028B, r25	; 0x80028b <pitchPID+0x1>
    1b40:	a0 93 8c 02 	sts	0x028C, r26	; 0x80028c <pitchPID+0x2>
    1b44:	b0 93 8d 02 	sts	0x028D, r27	; 0x80028d <pitchPID+0x3>
    1b48:	84 81       	ldd	r24, Z+4	; 0x04
    1b4a:	95 81       	ldd	r25, Z+5	; 0x05
    1b4c:	a6 81       	ldd	r26, Z+6	; 0x06
    1b4e:	b7 81       	ldd	r27, Z+7	; 0x07
    1b50:	80 93 8e 02 	sts	0x028E, r24	; 0x80028e <pitchPID+0x4>
    1b54:	90 93 8f 02 	sts	0x028F, r25	; 0x80028f <pitchPID+0x5>
    1b58:	a0 93 90 02 	sts	0x0290, r26	; 0x800290 <pitchPID+0x6>
    1b5c:	b0 93 91 02 	sts	0x0291, r27	; 0x800291 <pitchPID+0x7>
    1b60:	80 85       	ldd	r24, Z+8	; 0x08
    1b62:	91 85       	ldd	r25, Z+9	; 0x09
    1b64:	a2 85       	ldd	r26, Z+10	; 0x0a
    1b66:	b3 85       	ldd	r27, Z+11	; 0x0b
    1b68:	80 93 92 02 	sts	0x0292, r24	; 0x800292 <pitchPID+0x8>
    1b6c:	90 93 93 02 	sts	0x0293, r25	; 0x800293 <pitchPID+0x9>
    1b70:	a0 93 94 02 	sts	0x0294, r26	; 0x800294 <pitchPID+0xa>
    1b74:	b0 93 95 02 	sts	0x0295, r27	; 0x800295 <pitchPID+0xb>
    1b78:	84 85       	ldd	r24, Z+12	; 0x0c
    1b7a:	95 85       	ldd	r25, Z+13	; 0x0d
    1b7c:	a6 85       	ldd	r26, Z+14	; 0x0e
    1b7e:	b7 85       	ldd	r27, Z+15	; 0x0f
    1b80:	80 93 96 02 	sts	0x0296, r24	; 0x800296 <pitchPID+0xc>
    1b84:	90 93 97 02 	sts	0x0297, r25	; 0x800297 <pitchPID+0xd>
    1b88:	a0 93 98 02 	sts	0x0298, r26	; 0x800298 <pitchPID+0xe>
    1b8c:	b0 93 99 02 	sts	0x0299, r27	; 0x800299 <pitchPID+0xf>
    1b90:	80 89       	ldd	r24, Z+16	; 0x10
    1b92:	91 89       	ldd	r25, Z+17	; 0x11
    1b94:	a2 89       	ldd	r26, Z+18	; 0x12
    1b96:	b3 89       	ldd	r27, Z+19	; 0x13
    1b98:	80 93 6e 02 	sts	0x026E, r24	; 0x80026e <rollPID>
    1b9c:	90 93 6f 02 	sts	0x026F, r25	; 0x80026f <rollPID+0x1>
    1ba0:	a0 93 70 02 	sts	0x0270, r26	; 0x800270 <rollPID+0x2>
    1ba4:	b0 93 71 02 	sts	0x0271, r27	; 0x800271 <rollPID+0x3>
    1ba8:	84 89       	ldd	r24, Z+20	; 0x14
    1baa:	95 89       	ldd	r25, Z+21	; 0x15
    1bac:	a6 89       	ldd	r26, Z+22	; 0x16
    1bae:	b7 89       	ldd	r27, Z+23	; 0x17
    1bb0:	80 93 72 02 	sts	0x0272, r24	; 0x800272 <rollPID+0x4>
    1bb4:	90 93 73 02 	sts	0x0273, r25	; 0x800273 <rollPID+0x5>
    1bb8:	a0 93 74 02 	sts	0x0274, r26	; 0x800274 <rollPID+0x6>
    1bbc:	b0 93 75 02 	sts	0x0275, r27	; 0x800275 <rollPID+0x7>
    1bc0:	80 8d       	ldd	r24, Z+24	; 0x18
    1bc2:	91 8d       	ldd	r25, Z+25	; 0x19
    1bc4:	a2 8d       	ldd	r26, Z+26	; 0x1a
    1bc6:	b3 8d       	ldd	r27, Z+27	; 0x1b
    1bc8:	80 93 76 02 	sts	0x0276, r24	; 0x800276 <rollPID+0x8>
    1bcc:	90 93 77 02 	sts	0x0277, r25	; 0x800277 <rollPID+0x9>
    1bd0:	a0 93 78 02 	sts	0x0278, r26	; 0x800278 <rollPID+0xa>
    1bd4:	b0 93 79 02 	sts	0x0279, r27	; 0x800279 <rollPID+0xb>
    1bd8:	84 8d       	ldd	r24, Z+28	; 0x1c
    1bda:	95 8d       	ldd	r25, Z+29	; 0x1d
    1bdc:	a6 8d       	ldd	r26, Z+30	; 0x1e
    1bde:	b7 8d       	ldd	r27, Z+31	; 0x1f
    1be0:	80 93 7a 02 	sts	0x027A, r24	; 0x80027a <rollPID+0xc>
    1be4:	90 93 7b 02 	sts	0x027B, r25	; 0x80027b <rollPID+0xd>
    1be8:	a0 93 7c 02 	sts	0x027C, r26	; 0x80027c <rollPID+0xe>
    1bec:	b0 93 7d 02 	sts	0x027D, r27	; 0x80027d <rollPID+0xf>
    1bf0:	08 95       	ret
    1bf2:	80 81       	ld	r24, Z
    1bf4:	91 81       	ldd	r25, Z+1	; 0x01
    1bf6:	a2 81       	ldd	r26, Z+2	; 0x02
    1bf8:	b3 81       	ldd	r27, Z+3	; 0x03
    1bfa:	80 93 0e 02 	sts	0x020E, r24	; 0x80020e <pitchDemandGain>
    1bfe:	90 93 0f 02 	sts	0x020F, r25	; 0x80020f <pitchDemandGain+0x1>
    1c02:	a0 93 10 02 	sts	0x0210, r26	; 0x800210 <pitchDemandGain+0x2>
    1c06:	b0 93 11 02 	sts	0x0211, r27	; 0x800211 <pitchDemandGain+0x3>
    1c0a:	84 81       	ldd	r24, Z+4	; 0x04
    1c0c:	95 81       	ldd	r25, Z+5	; 0x05
    1c0e:	a6 81       	ldd	r26, Z+6	; 0x06
    1c10:	b7 81       	ldd	r27, Z+7	; 0x07
    1c12:	80 93 0a 02 	sts	0x020A, r24	; 0x80020a <rollDemandGain>
    1c16:	90 93 0b 02 	sts	0x020B, r25	; 0x80020b <rollDemandGain+0x1>
    1c1a:	a0 93 0c 02 	sts	0x020C, r26	; 0x80020c <rollDemandGain+0x2>
    1c1e:	b0 93 0d 02 	sts	0x020D, r27	; 0x80020d <rollDemandGain+0x3>
    1c22:	80 85       	ldd	r24, Z+8	; 0x08
    1c24:	91 85       	ldd	r25, Z+9	; 0x09
    1c26:	a2 85       	ldd	r26, Z+10	; 0x0a
    1c28:	b3 85       	ldd	r27, Z+11	; 0x0b
    1c2a:	80 93 06 02 	sts	0x0206, r24	; 0x800206 <yawDemandGain>
    1c2e:	90 93 07 02 	sts	0x0207, r25	; 0x800207 <yawDemandGain+0x1>
    1c32:	a0 93 08 02 	sts	0x0208, r26	; 0x800208 <yawDemandGain+0x2>
    1c36:	b0 93 09 02 	sts	0x0209, r27	; 0x800209 <yawDemandGain+0x3>
    1c3a:	84 85       	ldd	r24, Z+12	; 0x0c
    1c3c:	95 85       	ldd	r25, Z+13	; 0x0d
    1c3e:	a6 85       	ldd	r26, Z+14	; 0x0e
    1c40:	b7 85       	ldd	r27, Z+15	; 0x0f
    1c42:	80 93 16 02 	sts	0x0216, r24	; 0x800216 <pitchTrim>
    1c46:	90 93 17 02 	sts	0x0217, r25	; 0x800217 <pitchTrim+0x1>
    1c4a:	a0 93 18 02 	sts	0x0218, r26	; 0x800218 <pitchTrim+0x2>
    1c4e:	b0 93 19 02 	sts	0x0219, r27	; 0x800219 <pitchTrim+0x3>
    1c52:	80 89       	ldd	r24, Z+16	; 0x10
    1c54:	91 89       	ldd	r25, Z+17	; 0x11
    1c56:	a2 89       	ldd	r26, Z+18	; 0x12
    1c58:	b3 89       	ldd	r27, Z+19	; 0x13
    1c5a:	80 93 12 02 	sts	0x0212, r24	; 0x800212 <rollTrim>
    1c5e:	90 93 13 02 	sts	0x0213, r25	; 0x800213 <rollTrim+0x1>
    1c62:	a0 93 14 02 	sts	0x0214, r26	; 0x800214 <rollTrim+0x2>
    1c66:	b0 93 15 02 	sts	0x0215, r27	; 0x800215 <rollTrim+0x3>
    1c6a:	24 89       	ldd	r18, Z+20	; 0x14
    1c6c:	35 89       	ldd	r19, Z+21	; 0x15
    1c6e:	46 89       	ldd	r20, Z+22	; 0x16
    1c70:	57 89       	ldd	r21, Z+23	; 0x17
    1c72:	20 93 02 02 	sts	0x0202, r18	; 0x800202 <compFilterAlpha>
    1c76:	30 93 03 02 	sts	0x0203, r19	; 0x800203 <compFilterAlpha+0x1>
    1c7a:	40 93 04 02 	sts	0x0204, r20	; 0x800204 <compFilterAlpha+0x2>
    1c7e:	50 93 05 02 	sts	0x0205, r21	; 0x800205 <compFilterAlpha+0x3>
    1c82:	60 e0       	ldi	r22, 0x00	; 0
    1c84:	70 e0       	ldi	r23, 0x00	; 0
    1c86:	80 e8       	ldi	r24, 0x80	; 128
    1c88:	9f e3       	ldi	r25, 0x3F	; 63
    1c8a:	0e 94 83 25 	call	0x4b06	; 0x4b06 <__subsf3>
    1c8e:	60 93 fe 01 	sts	0x01FE, r22	; 0x8001fe <oneMinusCompFilterAlpha>
    1c92:	70 93 ff 01 	sts	0x01FF, r23	; 0x8001ff <oneMinusCompFilterAlpha+0x1>
    1c96:	80 93 00 02 	sts	0x0200, r24	; 0x800200 <oneMinusCompFilterAlpha+0x2>
    1c9a:	90 93 01 02 	sts	0x0201, r25	; 0x800201 <oneMinusCompFilterAlpha+0x3>
    1c9e:	08 95       	ret
    1ca0:	80 81       	ld	r24, Z
    1ca2:	91 81       	ldd	r25, Z+1	; 0x01
    1ca4:	a2 81       	ldd	r26, Z+2	; 0x02
    1ca6:	b3 81       	ldd	r27, Z+3	; 0x03
    1ca8:	80 93 52 02 	sts	0x0252, r24	; 0x800252 <pitchRatePID>
    1cac:	90 93 53 02 	sts	0x0253, r25	; 0x800253 <pitchRatePID+0x1>
    1cb0:	a0 93 54 02 	sts	0x0254, r26	; 0x800254 <pitchRatePID+0x2>
    1cb4:	b0 93 55 02 	sts	0x0255, r27	; 0x800255 <pitchRatePID+0x3>
    1cb8:	84 81       	ldd	r24, Z+4	; 0x04
    1cba:	95 81       	ldd	r25, Z+5	; 0x05
    1cbc:	a6 81       	ldd	r26, Z+6	; 0x06
    1cbe:	b7 81       	ldd	r27, Z+7	; 0x07
    1cc0:	80 93 56 02 	sts	0x0256, r24	; 0x800256 <pitchRatePID+0x4>
    1cc4:	90 93 57 02 	sts	0x0257, r25	; 0x800257 <pitchRatePID+0x5>
    1cc8:	a0 93 58 02 	sts	0x0258, r26	; 0x800258 <pitchRatePID+0x6>
    1ccc:	b0 93 59 02 	sts	0x0259, r27	; 0x800259 <pitchRatePID+0x7>
    1cd0:	80 85       	ldd	r24, Z+8	; 0x08
    1cd2:	91 85       	ldd	r25, Z+9	; 0x09
    1cd4:	a2 85       	ldd	r26, Z+10	; 0x0a
    1cd6:	b3 85       	ldd	r27, Z+11	; 0x0b
    1cd8:	80 93 5a 02 	sts	0x025A, r24	; 0x80025a <pitchRatePID+0x8>
    1cdc:	90 93 5b 02 	sts	0x025B, r25	; 0x80025b <pitchRatePID+0x9>
    1ce0:	a0 93 5c 02 	sts	0x025C, r26	; 0x80025c <pitchRatePID+0xa>
    1ce4:	b0 93 5d 02 	sts	0x025D, r27	; 0x80025d <pitchRatePID+0xb>
    1ce8:	84 85       	ldd	r24, Z+12	; 0x0c
    1cea:	95 85       	ldd	r25, Z+13	; 0x0d
    1cec:	a6 85       	ldd	r26, Z+14	; 0x0e
    1cee:	b7 85       	ldd	r27, Z+15	; 0x0f
    1cf0:	80 93 5e 02 	sts	0x025E, r24	; 0x80025e <pitchRatePID+0xc>
    1cf4:	90 93 5f 02 	sts	0x025F, r25	; 0x80025f <pitchRatePID+0xd>
    1cf8:	a0 93 60 02 	sts	0x0260, r26	; 0x800260 <pitchRatePID+0xe>
    1cfc:	b0 93 61 02 	sts	0x0261, r27	; 0x800261 <pitchRatePID+0xf>
    1d00:	80 89       	ldd	r24, Z+16	; 0x10
    1d02:	91 89       	ldd	r25, Z+17	; 0x11
    1d04:	a2 89       	ldd	r26, Z+18	; 0x12
    1d06:	b3 89       	ldd	r27, Z+19	; 0x13
    1d08:	80 93 36 02 	sts	0x0236, r24	; 0x800236 <rollRatePID>
    1d0c:	90 93 37 02 	sts	0x0237, r25	; 0x800237 <rollRatePID+0x1>
    1d10:	a0 93 38 02 	sts	0x0238, r26	; 0x800238 <rollRatePID+0x2>
    1d14:	b0 93 39 02 	sts	0x0239, r27	; 0x800239 <rollRatePID+0x3>
    1d18:	84 89       	ldd	r24, Z+20	; 0x14
    1d1a:	95 89       	ldd	r25, Z+21	; 0x15
    1d1c:	a6 89       	ldd	r26, Z+22	; 0x16
    1d1e:	b7 89       	ldd	r27, Z+23	; 0x17
    1d20:	80 93 3a 02 	sts	0x023A, r24	; 0x80023a <rollRatePID+0x4>
    1d24:	90 93 3b 02 	sts	0x023B, r25	; 0x80023b <rollRatePID+0x5>
    1d28:	a0 93 3c 02 	sts	0x023C, r26	; 0x80023c <rollRatePID+0x6>
    1d2c:	b0 93 3d 02 	sts	0x023D, r27	; 0x80023d <rollRatePID+0x7>
    1d30:	80 8d       	ldd	r24, Z+24	; 0x18
    1d32:	91 8d       	ldd	r25, Z+25	; 0x19
    1d34:	a2 8d       	ldd	r26, Z+26	; 0x1a
    1d36:	b3 8d       	ldd	r27, Z+27	; 0x1b
    1d38:	80 93 3e 02 	sts	0x023E, r24	; 0x80023e <rollRatePID+0x8>
    1d3c:	90 93 3f 02 	sts	0x023F, r25	; 0x80023f <rollRatePID+0x9>
    1d40:	a0 93 40 02 	sts	0x0240, r26	; 0x800240 <rollRatePID+0xa>
    1d44:	b0 93 41 02 	sts	0x0241, r27	; 0x800241 <rollRatePID+0xb>
    1d48:	84 8d       	ldd	r24, Z+28	; 0x1c
    1d4a:	95 8d       	ldd	r25, Z+29	; 0x1d
    1d4c:	a6 8d       	ldd	r26, Z+30	; 0x1e
    1d4e:	b7 8d       	ldd	r27, Z+31	; 0x1f
    1d50:	80 93 42 02 	sts	0x0242, r24	; 0x800242 <rollRatePID+0xc>
    1d54:	90 93 43 02 	sts	0x0243, r25	; 0x800243 <rollRatePID+0xd>
    1d58:	a0 93 44 02 	sts	0x0244, r26	; 0x800244 <rollRatePID+0xe>
    1d5c:	b0 93 45 02 	sts	0x0245, r27	; 0x800245 <rollRatePID+0xf>
    1d60:	80 a1       	ldd	r24, Z+32	; 0x20
    1d62:	91 a1       	ldd	r25, Z+33	; 0x21
    1d64:	a2 a1       	ldd	r26, Z+34	; 0x22
    1d66:	b3 a1       	ldd	r27, Z+35	; 0x23
    1d68:	80 93 1a 02 	sts	0x021A, r24	; 0x80021a <yawRatePID>
    1d6c:	90 93 1b 02 	sts	0x021B, r25	; 0x80021b <yawRatePID+0x1>
    1d70:	a0 93 1c 02 	sts	0x021C, r26	; 0x80021c <yawRatePID+0x2>
    1d74:	b0 93 1d 02 	sts	0x021D, r27	; 0x80021d <yawRatePID+0x3>
    1d78:	84 a1       	ldd	r24, Z+36	; 0x24
    1d7a:	95 a1       	ldd	r25, Z+37	; 0x25
    1d7c:	a6 a1       	ldd	r26, Z+38	; 0x26
    1d7e:	b7 a1       	ldd	r27, Z+39	; 0x27
    1d80:	80 93 1e 02 	sts	0x021E, r24	; 0x80021e <yawRatePID+0x4>
    1d84:	90 93 1f 02 	sts	0x021F, r25	; 0x80021f <yawRatePID+0x5>
    1d88:	a0 93 20 02 	sts	0x0220, r26	; 0x800220 <yawRatePID+0x6>
    1d8c:	b0 93 21 02 	sts	0x0221, r27	; 0x800221 <yawRatePID+0x7>
    1d90:	80 a5       	ldd	r24, Z+40	; 0x28
    1d92:	91 a5       	ldd	r25, Z+41	; 0x29
    1d94:	a2 a5       	ldd	r26, Z+42	; 0x2a
    1d96:	b3 a5       	ldd	r27, Z+43	; 0x2b
    1d98:	80 93 22 02 	sts	0x0222, r24	; 0x800222 <yawRatePID+0x8>
    1d9c:	90 93 23 02 	sts	0x0223, r25	; 0x800223 <yawRatePID+0x9>
    1da0:	a0 93 24 02 	sts	0x0224, r26	; 0x800224 <yawRatePID+0xa>
    1da4:	b0 93 25 02 	sts	0x0225, r27	; 0x800225 <yawRatePID+0xb>
    1da8:	84 a5       	ldd	r24, Z+44	; 0x2c
    1daa:	95 a5       	ldd	r25, Z+45	; 0x2d
    1dac:	a6 a5       	ldd	r26, Z+46	; 0x2e
    1dae:	b7 a5       	ldd	r27, Z+47	; 0x2f
    1db0:	80 93 26 02 	sts	0x0226, r24	; 0x800226 <yawRatePID+0xc>
    1db4:	90 93 27 02 	sts	0x0227, r25	; 0x800227 <yawRatePID+0xd>
    1db8:	a0 93 28 02 	sts	0x0228, r26	; 0x800228 <yawRatePID+0xe>
    1dbc:	b0 93 29 02 	sts	0x0229, r27	; 0x800229 <yawRatePID+0xf>
    1dc0:	08 95       	ret

00001dc2 <_Z12copyParamsTohPh>:
    1dc2:	cf 93       	push	r28
    1dc4:	df 93       	push	r29
    1dc6:	fb 01       	movw	r30, r22
    1dc8:	88 23       	and	r24, r24
    1dca:	61 f0       	breq	.+24     	; 0x1de4 <_Z12copyParamsTohPh+0x22>
    1dcc:	81 30       	cpi	r24, 0x01	; 1
    1dce:	09 f4       	brne	.+2      	; 0x1dd2 <_Z12copyParamsTohPh+0x10>
    1dd0:	6c c0       	rjmp	.+216    	; 0x1eaa <_Z12copyParamsTohPh+0xe8>
    1dd2:	82 30       	cpi	r24, 0x02	; 2
    1dd4:	09 f4       	brne	.+2      	; 0x1dd8 <_Z12copyParamsTohPh+0x16>
    1dd6:	fc c0       	rjmp	.+504    	; 0x1fd0 <_Z12copyParamsTohPh+0x20e>
    1dd8:	83 30       	cpi	r24, 0x03	; 3
    1dda:	09 f4       	brne	.+2      	; 0x1dde <_Z12copyParamsTohPh+0x1c>
    1ddc:	42 c1       	rjmp	.+644    	; 0x2062 <_Z12copyParamsTohPh+0x2a0>
    1dde:	df 91       	pop	r29
    1de0:	cf 91       	pop	r28
    1de2:	08 95       	ret
    1de4:	80 91 8a 02 	lds	r24, 0x028A	; 0x80028a <pitchPID>
    1de8:	90 91 8b 02 	lds	r25, 0x028B	; 0x80028b <pitchPID+0x1>
    1dec:	a0 91 8c 02 	lds	r26, 0x028C	; 0x80028c <pitchPID+0x2>
    1df0:	b0 91 8d 02 	lds	r27, 0x028D	; 0x80028d <pitchPID+0x3>
    1df4:	80 83       	st	Z, r24
    1df6:	91 83       	std	Z+1, r25	; 0x01
    1df8:	a2 83       	std	Z+2, r26	; 0x02
    1dfa:	b3 83       	std	Z+3, r27	; 0x03
    1dfc:	80 91 8e 02 	lds	r24, 0x028E	; 0x80028e <pitchPID+0x4>
    1e00:	90 91 8f 02 	lds	r25, 0x028F	; 0x80028f <pitchPID+0x5>
    1e04:	a0 91 90 02 	lds	r26, 0x0290	; 0x800290 <pitchPID+0x6>
    1e08:	b0 91 91 02 	lds	r27, 0x0291	; 0x800291 <pitchPID+0x7>
    1e0c:	84 83       	std	Z+4, r24	; 0x04
    1e0e:	95 83       	std	Z+5, r25	; 0x05
    1e10:	a6 83       	std	Z+6, r26	; 0x06
    1e12:	b7 83       	std	Z+7, r27	; 0x07
    1e14:	80 91 92 02 	lds	r24, 0x0292	; 0x800292 <pitchPID+0x8>
    1e18:	90 91 93 02 	lds	r25, 0x0293	; 0x800293 <pitchPID+0x9>
    1e1c:	a0 91 94 02 	lds	r26, 0x0294	; 0x800294 <pitchPID+0xa>
    1e20:	b0 91 95 02 	lds	r27, 0x0295	; 0x800295 <pitchPID+0xb>
    1e24:	80 87       	std	Z+8, r24	; 0x08
    1e26:	91 87       	std	Z+9, r25	; 0x09
    1e28:	a2 87       	std	Z+10, r26	; 0x0a
    1e2a:	b3 87       	std	Z+11, r27	; 0x0b
    1e2c:	80 91 96 02 	lds	r24, 0x0296	; 0x800296 <pitchPID+0xc>
    1e30:	90 91 97 02 	lds	r25, 0x0297	; 0x800297 <pitchPID+0xd>
    1e34:	a0 91 98 02 	lds	r26, 0x0298	; 0x800298 <pitchPID+0xe>
    1e38:	b0 91 99 02 	lds	r27, 0x0299	; 0x800299 <pitchPID+0xf>
    1e3c:	84 87       	std	Z+12, r24	; 0x0c
    1e3e:	95 87       	std	Z+13, r25	; 0x0d
    1e40:	a6 87       	std	Z+14, r26	; 0x0e
    1e42:	b7 87       	std	Z+15, r27	; 0x0f
    1e44:	80 91 6e 02 	lds	r24, 0x026E	; 0x80026e <rollPID>
    1e48:	90 91 6f 02 	lds	r25, 0x026F	; 0x80026f <rollPID+0x1>
    1e4c:	a0 91 70 02 	lds	r26, 0x0270	; 0x800270 <rollPID+0x2>
    1e50:	b0 91 71 02 	lds	r27, 0x0271	; 0x800271 <rollPID+0x3>
    1e54:	80 8b       	std	Z+16, r24	; 0x10
    1e56:	91 8b       	std	Z+17, r25	; 0x11
    1e58:	a2 8b       	std	Z+18, r26	; 0x12
    1e5a:	b3 8b       	std	Z+19, r27	; 0x13
    1e5c:	80 91 72 02 	lds	r24, 0x0272	; 0x800272 <rollPID+0x4>
    1e60:	90 91 73 02 	lds	r25, 0x0273	; 0x800273 <rollPID+0x5>
    1e64:	a0 91 74 02 	lds	r26, 0x0274	; 0x800274 <rollPID+0x6>
    1e68:	b0 91 75 02 	lds	r27, 0x0275	; 0x800275 <rollPID+0x7>
    1e6c:	84 8b       	std	Z+20, r24	; 0x14
    1e6e:	95 8b       	std	Z+21, r25	; 0x15
    1e70:	a6 8b       	std	Z+22, r26	; 0x16
    1e72:	b7 8b       	std	Z+23, r27	; 0x17
    1e74:	80 91 76 02 	lds	r24, 0x0276	; 0x800276 <rollPID+0x8>
    1e78:	90 91 77 02 	lds	r25, 0x0277	; 0x800277 <rollPID+0x9>
    1e7c:	a0 91 78 02 	lds	r26, 0x0278	; 0x800278 <rollPID+0xa>
    1e80:	b0 91 79 02 	lds	r27, 0x0279	; 0x800279 <rollPID+0xb>
    1e84:	80 8f       	std	Z+24, r24	; 0x18
    1e86:	91 8f       	std	Z+25, r25	; 0x19
    1e88:	a2 8f       	std	Z+26, r26	; 0x1a
    1e8a:	b3 8f       	std	Z+27, r27	; 0x1b
    1e8c:	80 91 7a 02 	lds	r24, 0x027A	; 0x80027a <rollPID+0xc>
    1e90:	90 91 7b 02 	lds	r25, 0x027B	; 0x80027b <rollPID+0xd>
    1e94:	a0 91 7c 02 	lds	r26, 0x027C	; 0x80027c <rollPID+0xe>
    1e98:	b0 91 7d 02 	lds	r27, 0x027D	; 0x80027d <rollPID+0xf>
    1e9c:	84 8f       	std	Z+28, r24	; 0x1c
    1e9e:	95 8f       	std	Z+29, r25	; 0x1d
    1ea0:	a6 8f       	std	Z+30, r26	; 0x1e
    1ea2:	b7 8f       	std	Z+31, r27	; 0x1f
    1ea4:	df 91       	pop	r29
    1ea6:	cf 91       	pop	r28
    1ea8:	08 95       	ret
    1eaa:	80 91 52 02 	lds	r24, 0x0252	; 0x800252 <pitchRatePID>
    1eae:	90 91 53 02 	lds	r25, 0x0253	; 0x800253 <pitchRatePID+0x1>
    1eb2:	a0 91 54 02 	lds	r26, 0x0254	; 0x800254 <pitchRatePID+0x2>
    1eb6:	b0 91 55 02 	lds	r27, 0x0255	; 0x800255 <pitchRatePID+0x3>
    1eba:	80 83       	st	Z, r24
    1ebc:	91 83       	std	Z+1, r25	; 0x01
    1ebe:	a2 83       	std	Z+2, r26	; 0x02
    1ec0:	b3 83       	std	Z+3, r27	; 0x03
    1ec2:	80 91 56 02 	lds	r24, 0x0256	; 0x800256 <pitchRatePID+0x4>
    1ec6:	90 91 57 02 	lds	r25, 0x0257	; 0x800257 <pitchRatePID+0x5>
    1eca:	a0 91 58 02 	lds	r26, 0x0258	; 0x800258 <pitchRatePID+0x6>
    1ece:	b0 91 59 02 	lds	r27, 0x0259	; 0x800259 <pitchRatePID+0x7>
    1ed2:	84 83       	std	Z+4, r24	; 0x04
    1ed4:	95 83       	std	Z+5, r25	; 0x05
    1ed6:	a6 83       	std	Z+6, r26	; 0x06
    1ed8:	b7 83       	std	Z+7, r27	; 0x07
    1eda:	80 91 5a 02 	lds	r24, 0x025A	; 0x80025a <pitchRatePID+0x8>
    1ede:	90 91 5b 02 	lds	r25, 0x025B	; 0x80025b <pitchRatePID+0x9>
    1ee2:	a0 91 5c 02 	lds	r26, 0x025C	; 0x80025c <pitchRatePID+0xa>
    1ee6:	b0 91 5d 02 	lds	r27, 0x025D	; 0x80025d <pitchRatePID+0xb>
    1eea:	80 87       	std	Z+8, r24	; 0x08
    1eec:	91 87       	std	Z+9, r25	; 0x09
    1eee:	a2 87       	std	Z+10, r26	; 0x0a
    1ef0:	b3 87       	std	Z+11, r27	; 0x0b
    1ef2:	80 91 5e 02 	lds	r24, 0x025E	; 0x80025e <pitchRatePID+0xc>
    1ef6:	90 91 5f 02 	lds	r25, 0x025F	; 0x80025f <pitchRatePID+0xd>
    1efa:	a0 91 60 02 	lds	r26, 0x0260	; 0x800260 <pitchRatePID+0xe>
    1efe:	b0 91 61 02 	lds	r27, 0x0261	; 0x800261 <pitchRatePID+0xf>
    1f02:	84 87       	std	Z+12, r24	; 0x0c
    1f04:	95 87       	std	Z+13, r25	; 0x0d
    1f06:	a6 87       	std	Z+14, r26	; 0x0e
    1f08:	b7 87       	std	Z+15, r27	; 0x0f
    1f0a:	80 91 36 02 	lds	r24, 0x0236	; 0x800236 <rollRatePID>
    1f0e:	90 91 37 02 	lds	r25, 0x0237	; 0x800237 <rollRatePID+0x1>
    1f12:	a0 91 38 02 	lds	r26, 0x0238	; 0x800238 <rollRatePID+0x2>
    1f16:	b0 91 39 02 	lds	r27, 0x0239	; 0x800239 <rollRatePID+0x3>
    1f1a:	80 8b       	std	Z+16, r24	; 0x10
    1f1c:	91 8b       	std	Z+17, r25	; 0x11
    1f1e:	a2 8b       	std	Z+18, r26	; 0x12
    1f20:	b3 8b       	std	Z+19, r27	; 0x13
    1f22:	80 91 3a 02 	lds	r24, 0x023A	; 0x80023a <rollRatePID+0x4>
    1f26:	90 91 3b 02 	lds	r25, 0x023B	; 0x80023b <rollRatePID+0x5>
    1f2a:	a0 91 3c 02 	lds	r26, 0x023C	; 0x80023c <rollRatePID+0x6>
    1f2e:	b0 91 3d 02 	lds	r27, 0x023D	; 0x80023d <rollRatePID+0x7>
    1f32:	84 8b       	std	Z+20, r24	; 0x14
    1f34:	95 8b       	std	Z+21, r25	; 0x15
    1f36:	a6 8b       	std	Z+22, r26	; 0x16
    1f38:	b7 8b       	std	Z+23, r27	; 0x17
    1f3a:	80 91 3e 02 	lds	r24, 0x023E	; 0x80023e <rollRatePID+0x8>
    1f3e:	90 91 3f 02 	lds	r25, 0x023F	; 0x80023f <rollRatePID+0x9>
    1f42:	a0 91 40 02 	lds	r26, 0x0240	; 0x800240 <rollRatePID+0xa>
    1f46:	b0 91 41 02 	lds	r27, 0x0241	; 0x800241 <rollRatePID+0xb>
    1f4a:	80 8f       	std	Z+24, r24	; 0x18
    1f4c:	91 8f       	std	Z+25, r25	; 0x19
    1f4e:	a2 8f       	std	Z+26, r26	; 0x1a
    1f50:	b3 8f       	std	Z+27, r27	; 0x1b
    1f52:	80 91 42 02 	lds	r24, 0x0242	; 0x800242 <rollRatePID+0xc>
    1f56:	90 91 43 02 	lds	r25, 0x0243	; 0x800243 <rollRatePID+0xd>
    1f5a:	a0 91 44 02 	lds	r26, 0x0244	; 0x800244 <rollRatePID+0xe>
    1f5e:	b0 91 45 02 	lds	r27, 0x0245	; 0x800245 <rollRatePID+0xf>
    1f62:	84 8f       	std	Z+28, r24	; 0x1c
    1f64:	95 8f       	std	Z+29, r25	; 0x1d
    1f66:	a6 8f       	std	Z+30, r26	; 0x1e
    1f68:	b7 8f       	std	Z+31, r27	; 0x1f
    1f6a:	80 91 1a 02 	lds	r24, 0x021A	; 0x80021a <yawRatePID>
    1f6e:	90 91 1b 02 	lds	r25, 0x021B	; 0x80021b <yawRatePID+0x1>
    1f72:	a0 91 1c 02 	lds	r26, 0x021C	; 0x80021c <yawRatePID+0x2>
    1f76:	b0 91 1d 02 	lds	r27, 0x021D	; 0x80021d <yawRatePID+0x3>
    1f7a:	80 a3       	std	Z+32, r24	; 0x20
    1f7c:	91 a3       	std	Z+33, r25	; 0x21
    1f7e:	a2 a3       	std	Z+34, r26	; 0x22
    1f80:	b3 a3       	std	Z+35, r27	; 0x23
    1f82:	80 91 1e 02 	lds	r24, 0x021E	; 0x80021e <yawRatePID+0x4>
    1f86:	90 91 1f 02 	lds	r25, 0x021F	; 0x80021f <yawRatePID+0x5>
    1f8a:	a0 91 20 02 	lds	r26, 0x0220	; 0x800220 <yawRatePID+0x6>
    1f8e:	b0 91 21 02 	lds	r27, 0x0221	; 0x800221 <yawRatePID+0x7>
    1f92:	84 a3       	std	Z+36, r24	; 0x24
    1f94:	95 a3       	std	Z+37, r25	; 0x25
    1f96:	a6 a3       	std	Z+38, r26	; 0x26
    1f98:	b7 a3       	std	Z+39, r27	; 0x27
    1f9a:	80 91 22 02 	lds	r24, 0x0222	; 0x800222 <yawRatePID+0x8>
    1f9e:	90 91 23 02 	lds	r25, 0x0223	; 0x800223 <yawRatePID+0x9>
    1fa2:	a0 91 24 02 	lds	r26, 0x0224	; 0x800224 <yawRatePID+0xa>
    1fa6:	b0 91 25 02 	lds	r27, 0x0225	; 0x800225 <yawRatePID+0xb>
    1faa:	80 a7       	std	Z+40, r24	; 0x28
    1fac:	91 a7       	std	Z+41, r25	; 0x29
    1fae:	a2 a7       	std	Z+42, r26	; 0x2a
    1fb0:	b3 a7       	std	Z+43, r27	; 0x2b
    1fb2:	80 91 26 02 	lds	r24, 0x0226	; 0x800226 <yawRatePID+0xc>
    1fb6:	90 91 27 02 	lds	r25, 0x0227	; 0x800227 <yawRatePID+0xd>
    1fba:	a0 91 28 02 	lds	r26, 0x0228	; 0x800228 <yawRatePID+0xe>
    1fbe:	b0 91 29 02 	lds	r27, 0x0229	; 0x800229 <yawRatePID+0xf>
    1fc2:	84 a7       	std	Z+44, r24	; 0x2c
    1fc4:	95 a7       	std	Z+45, r25	; 0x2d
    1fc6:	a6 a7       	std	Z+46, r26	; 0x2e
    1fc8:	b7 a7       	std	Z+47, r27	; 0x2f
    1fca:	df 91       	pop	r29
    1fcc:	cf 91       	pop	r28
    1fce:	08 95       	ret
    1fd0:	80 91 0e 02 	lds	r24, 0x020E	; 0x80020e <pitchDemandGain>
    1fd4:	90 91 0f 02 	lds	r25, 0x020F	; 0x80020f <pitchDemandGain+0x1>
    1fd8:	a0 91 10 02 	lds	r26, 0x0210	; 0x800210 <pitchDemandGain+0x2>
    1fdc:	b0 91 11 02 	lds	r27, 0x0211	; 0x800211 <pitchDemandGain+0x3>
    1fe0:	80 83       	st	Z, r24
    1fe2:	91 83       	std	Z+1, r25	; 0x01
    1fe4:	a2 83       	std	Z+2, r26	; 0x02
    1fe6:	b3 83       	std	Z+3, r27	; 0x03
    1fe8:	80 91 0a 02 	lds	r24, 0x020A	; 0x80020a <rollDemandGain>
    1fec:	90 91 0b 02 	lds	r25, 0x020B	; 0x80020b <rollDemandGain+0x1>
    1ff0:	a0 91 0c 02 	lds	r26, 0x020C	; 0x80020c <rollDemandGain+0x2>
    1ff4:	b0 91 0d 02 	lds	r27, 0x020D	; 0x80020d <rollDemandGain+0x3>
    1ff8:	84 83       	std	Z+4, r24	; 0x04
    1ffa:	95 83       	std	Z+5, r25	; 0x05
    1ffc:	a6 83       	std	Z+6, r26	; 0x06
    1ffe:	b7 83       	std	Z+7, r27	; 0x07
    2000:	80 91 06 02 	lds	r24, 0x0206	; 0x800206 <yawDemandGain>
    2004:	90 91 07 02 	lds	r25, 0x0207	; 0x800207 <yawDemandGain+0x1>
    2008:	a0 91 08 02 	lds	r26, 0x0208	; 0x800208 <yawDemandGain+0x2>
    200c:	b0 91 09 02 	lds	r27, 0x0209	; 0x800209 <yawDemandGain+0x3>
    2010:	80 87       	std	Z+8, r24	; 0x08
    2012:	91 87       	std	Z+9, r25	; 0x09
    2014:	a2 87       	std	Z+10, r26	; 0x0a
    2016:	b3 87       	std	Z+11, r27	; 0x0b
    2018:	80 91 16 02 	lds	r24, 0x0216	; 0x800216 <pitchTrim>
    201c:	90 91 17 02 	lds	r25, 0x0217	; 0x800217 <pitchTrim+0x1>
    2020:	a0 91 18 02 	lds	r26, 0x0218	; 0x800218 <pitchTrim+0x2>
    2024:	b0 91 19 02 	lds	r27, 0x0219	; 0x800219 <pitchTrim+0x3>
    2028:	84 87       	std	Z+12, r24	; 0x0c
    202a:	95 87       	std	Z+13, r25	; 0x0d
    202c:	a6 87       	std	Z+14, r26	; 0x0e
    202e:	b7 87       	std	Z+15, r27	; 0x0f
    2030:	80 91 12 02 	lds	r24, 0x0212	; 0x800212 <rollTrim>
    2034:	90 91 13 02 	lds	r25, 0x0213	; 0x800213 <rollTrim+0x1>
    2038:	a0 91 14 02 	lds	r26, 0x0214	; 0x800214 <rollTrim+0x2>
    203c:	b0 91 15 02 	lds	r27, 0x0215	; 0x800215 <rollTrim+0x3>
    2040:	80 8b       	std	Z+16, r24	; 0x10
    2042:	91 8b       	std	Z+17, r25	; 0x11
    2044:	a2 8b       	std	Z+18, r26	; 0x12
    2046:	b3 8b       	std	Z+19, r27	; 0x13
    2048:	80 91 02 02 	lds	r24, 0x0202	; 0x800202 <compFilterAlpha>
    204c:	90 91 03 02 	lds	r25, 0x0203	; 0x800203 <compFilterAlpha+0x1>
    2050:	a0 91 04 02 	lds	r26, 0x0204	; 0x800204 <compFilterAlpha+0x2>
    2054:	b0 91 05 02 	lds	r27, 0x0205	; 0x800205 <compFilterAlpha+0x3>
    2058:	84 8b       	std	Z+20, r24	; 0x14
    205a:	95 8b       	std	Z+21, r25	; 0x15
    205c:	a6 8b       	std	Z+22, r26	; 0x16
    205e:	b7 8b       	std	Z+23, r27	; 0x17
    2060:	be ce       	rjmp	.-644    	; 0x1dde <_Z12copyParamsTohPh+0x1c>
    2062:	eb 01       	movw	r28, r22
    2064:	80 91 e3 02 	lds	r24, 0x02E3	; 0x8002e3 <id>
    2068:	80 83       	st	Z, r24
    206a:	20 91 16 02 	lds	r18, 0x0216	; 0x800216 <pitchTrim>
    206e:	30 91 17 02 	lds	r19, 0x0217	; 0x800217 <pitchTrim+0x1>
    2072:	40 91 18 02 	lds	r20, 0x0218	; 0x800218 <pitchTrim+0x2>
    2076:	50 91 19 02 	lds	r21, 0x0219	; 0x800219 <pitchTrim+0x3>
    207a:	60 91 dd 02 	lds	r22, 0x02DD	; 0x8002dd <pitch>
    207e:	70 91 de 02 	lds	r23, 0x02DE	; 0x8002de <pitch+0x1>
    2082:	80 91 df 02 	lds	r24, 0x02DF	; 0x8002df <pitch+0x2>
    2086:	90 91 e0 02 	lds	r25, 0x02E0	; 0x8002e0 <pitch+0x3>
    208a:	0e 94 84 25 	call	0x4b08	; 0x4b08 <__addsf3>
    208e:	69 83       	std	Y+1, r22	; 0x01
    2090:	7a 83       	std	Y+2, r23	; 0x02
    2092:	8b 83       	std	Y+3, r24	; 0x03
    2094:	9c 83       	std	Y+4, r25	; 0x04
    2096:	20 91 12 02 	lds	r18, 0x0212	; 0x800212 <rollTrim>
    209a:	30 91 13 02 	lds	r19, 0x0213	; 0x800213 <rollTrim+0x1>
    209e:	40 91 14 02 	lds	r20, 0x0214	; 0x800214 <rollTrim+0x2>
    20a2:	50 91 15 02 	lds	r21, 0x0215	; 0x800215 <rollTrim+0x3>
    20a6:	60 91 d9 02 	lds	r22, 0x02D9	; 0x8002d9 <roll>
    20aa:	70 91 da 02 	lds	r23, 0x02DA	; 0x8002da <roll+0x1>
    20ae:	80 91 db 02 	lds	r24, 0x02DB	; 0x8002db <roll+0x2>
    20b2:	90 91 dc 02 	lds	r25, 0x02DC	; 0x8002dc <roll+0x3>
    20b6:	0e 94 84 25 	call	0x4b08	; 0x4b08 <__addsf3>
    20ba:	6d 83       	std	Y+5, r22	; 0x05
    20bc:	7e 83       	std	Y+6, r23	; 0x06
    20be:	8f 83       	std	Y+7, r24	; 0x07
    20c0:	98 87       	std	Y+8, r25	; 0x08
    20c2:	0e 94 c5 05 	call	0xb8a	; 0xb8a <_Z20getBatteryMillivoltsv>
    20c6:	a0 e0       	ldi	r26, 0x00	; 0
    20c8:	b0 e0       	ldi	r27, 0x00	; 0
    20ca:	89 87       	std	Y+9, r24	; 0x09
    20cc:	9a 87       	std	Y+10, r25	; 0x0a
    20ce:	ab 87       	std	Y+11, r26	; 0x0b
    20d0:	bc 87       	std	Y+12, r27	; 0x0c
    20d2:	80 91 e1 02 	lds	r24, 0x02E1	; 0x8002e1 <dt>
    20d6:	90 91 e2 02 	lds	r25, 0x02E2	; 0x8002e2 <dt+0x1>
    20da:	9e 87       	std	Y+14, r25	; 0x0e
    20dc:	8d 87       	std	Y+13, r24	; 0x0d
    20de:	7f ce       	rjmp	.-770    	; 0x1dde <_Z12copyParamsTohPh+0x1c>

000020e0 <_GLOBAL__sub_I_rfm>:
    20e0:	20 e0       	ldi	r18, 0x00	; 0
    20e2:	42 e0       	ldi	r20, 0x02	; 2
    20e4:	6a e0       	ldi	r22, 0x0A	; 10
    20e6:	83 ef       	ldi	r24, 0xF3	; 243
    20e8:	92 e0       	ldi	r25, 0x02	; 2
    20ea:	0e 94 b2 18 	call	0x3164	; 0x3164 <_ZN5RFM69C1Ehhb>
    20ee:	84 ee       	ldi	r24, 0xE4	; 228
    20f0:	92 e0       	ldi	r25, 0x02	; 2
    20f2:	0e 94 f9 16 	call	0x2df2	; 0x2df2 <_ZN7MPU6050C1Ev>
    20f6:	63 e0       	ldi	r22, 0x03	; 3
    20f8:	8b eb       	ldi	r24, 0xBB	; 187
    20fa:	92 e0       	ldi	r25, 0x02	; 2
    20fc:	0e 94 ca 05 	call	0xb94	; 0xb94 <_ZN14CircularBufferC1Eh>
    2100:	8a e8       	ldi	r24, 0x8A	; 138
    2102:	92 e0       	ldi	r25, 0x02	; 2
    2104:	0e 94 a0 17 	call	0x2f40	; 0x2f40 <_ZN13PIDControllerC1Ev>
    2108:	8e e6       	ldi	r24, 0x6E	; 110
    210a:	92 e0       	ldi	r25, 0x02	; 2
    210c:	0e 94 a0 17 	call	0x2f40	; 0x2f40 <_ZN13PIDControllerC1Ev>
    2110:	82 e5       	ldi	r24, 0x52	; 82
    2112:	92 e0       	ldi	r25, 0x02	; 2
    2114:	0e 94 a0 17 	call	0x2f40	; 0x2f40 <_ZN13PIDControllerC1Ev>
    2118:	86 e3       	ldi	r24, 0x36	; 54
    211a:	92 e0       	ldi	r25, 0x02	; 2
    211c:	0e 94 a0 17 	call	0x2f40	; 0x2f40 <_ZN13PIDControllerC1Ev>
    2120:	8a e1       	ldi	r24, 0x1A	; 26
    2122:	92 e0       	ldi	r25, 0x02	; 2
    2124:	0c 94 a0 17 	jmp	0x2f40	; 0x2f40 <_ZN13PIDControllerC1Ev>

00002128 <_Z13handleIMUTestj.part.3>:
    2128:	bf 92       	push	r11
    212a:	cf 92       	push	r12
    212c:	df 92       	push	r13
    212e:	ef 92       	push	r14
    2130:	ff 92       	push	r15
    2132:	0f 93       	push	r16
    2134:	1f 93       	push	r17
    2136:	cf 93       	push	r28
    2138:	df 93       	push	r29
    213a:	00 d0       	rcall	.+0      	; 0x213c <_Z13handleIMUTestj.part.3+0x14>
    213c:	00 d0       	rcall	.+0      	; 0x213e <_Z13handleIMUTestj.part.3+0x16>
    213e:	cd b7       	in	r28, 0x3d	; 61
    2140:	de b7       	in	r29, 0x3e	; 62
    2142:	20 91 ca 02 	lds	r18, 0x02CA	; 0x8002ca <imuStateUS>
    2146:	30 91 cb 02 	lds	r19, 0x02CB	; 0x8002cb <imuStateUS+0x1>
    214a:	82 0f       	add	r24, r18
    214c:	93 1f       	adc	r25, r19
    214e:	9c 01       	movw	r18, r24
    2150:	1c e0       	ldi	r17, 0x0C	; 12
    2152:	52 2f       	mov	r21, r18
    2154:	43 2f       	mov	r20, r19
    2156:	20 91 c8 02 	lds	r18, 0x02C8	; 0x8002c8 <imuStateMS>
    215a:	30 91 c9 02 	lds	r19, 0x02C9	; 0x8002c9 <imuStateMS+0x1>
    215e:	09 c0       	rjmp	.+18     	; 0x2172 <_Z13handleIMUTestj.part.3+0x4a>
    2160:	88 5e       	subi	r24, 0xE8	; 232
    2162:	93 40       	sbci	r25, 0x03	; 3
    2164:	2f 5f       	subi	r18, 0xFF	; 255
    2166:	3f 4f       	sbci	r19, 0xFF	; 255
    2168:	58 2f       	mov	r21, r24
    216a:	49 2f       	mov	r20, r25
    216c:	22 33       	cpi	r18, 0x32	; 50
    216e:	31 05       	cpc	r19, r1
    2170:	d0 f4       	brcc	.+52     	; 0x21a6 <_Z13handleIMUTestj.part.3+0x7e>
    2172:	88 3e       	cpi	r24, 0xE8	; 232
    2174:	63 e0       	ldi	r22, 0x03	; 3
    2176:	96 07       	cpc	r25, r22
    2178:	98 f7       	brcc	.-26     	; 0x2160 <_Z13handleIMUTestj.part.3+0x38>
    217a:	50 93 ca 02 	sts	0x02CA, r21	; 0x8002ca <imuStateUS>
    217e:	40 93 cb 02 	sts	0x02CB, r20	; 0x8002cb <imuStateUS+0x1>
    2182:	30 93 c9 02 	sts	0x02C9, r19	; 0x8002c9 <imuStateMS+0x1>
    2186:	20 93 c8 02 	sts	0x02C8, r18	; 0x8002c8 <imuStateMS>
    218a:	0f 90       	pop	r0
    218c:	0f 90       	pop	r0
    218e:	0f 90       	pop	r0
    2190:	0f 90       	pop	r0
    2192:	df 91       	pop	r29
    2194:	cf 91       	pop	r28
    2196:	1f 91       	pop	r17
    2198:	0f 91       	pop	r16
    219a:	ff 90       	pop	r15
    219c:	ef 90       	pop	r14
    219e:	df 90       	pop	r13
    21a0:	cf 90       	pop	r12
    21a2:	bf 90       	pop	r11
    21a4:	08 95       	ret
    21a6:	10 92 cb 02 	sts	0x02CB, r1	; 0x8002cb <imuStateUS+0x1>
    21aa:	10 92 ca 02 	sts	0x02CA, r1	; 0x8002ca <imuStateUS>
    21ae:	10 92 c9 02 	sts	0x02C9, r1	; 0x8002c9 <imuStateMS+0x1>
    21b2:	10 92 c8 02 	sts	0x02C8, r1	; 0x8002c8 <imuStateMS>
    21b6:	20 91 16 02 	lds	r18, 0x0216	; 0x800216 <pitchTrim>
    21ba:	30 91 17 02 	lds	r19, 0x0217	; 0x800217 <pitchTrim+0x1>
    21be:	40 91 18 02 	lds	r20, 0x0218	; 0x800218 <pitchTrim+0x2>
    21c2:	50 91 19 02 	lds	r21, 0x0219	; 0x800219 <pitchTrim+0x3>
    21c6:	60 91 dd 02 	lds	r22, 0x02DD	; 0x8002dd <pitch>
    21ca:	70 91 de 02 	lds	r23, 0x02DE	; 0x8002de <pitch+0x1>
    21ce:	80 91 df 02 	lds	r24, 0x02DF	; 0x8002df <pitch+0x2>
    21d2:	90 91 e0 02 	lds	r25, 0x02E0	; 0x8002e0 <pitch+0x3>
    21d6:	0e 94 84 25 	call	0x4b08	; 0x4b08 <__addsf3>
    21da:	6b 01       	movw	r12, r22
    21dc:	7c 01       	movw	r14, r24
    21de:	20 e0       	ldi	r18, 0x00	; 0
    21e0:	30 e0       	ldi	r19, 0x00	; 0
    21e2:	4e ef       	ldi	r20, 0xFE	; 254
    21e4:	52 ec       	ldi	r21, 0xC2	; 194
    21e6:	0e 94 62 26 	call	0x4cc4	; 0x4cc4 <__cmpsf2>
    21ea:	87 fd       	sbrc	r24, 7
    21ec:	89 c0       	rjmp	.+274    	; 0x2300 <_Z13handleIMUTestj.part.3+0x1d8>
    21ee:	20 e0       	ldi	r18, 0x00	; 0
    21f0:	30 e0       	ldi	r19, 0x00	; 0
    21f2:	4e ef       	ldi	r20, 0xFE	; 254
    21f4:	52 e4       	ldi	r21, 0x42	; 66
    21f6:	c7 01       	movw	r24, r14
    21f8:	b6 01       	movw	r22, r12
    21fa:	0e 94 e8 27 	call	0x4fd0	; 0x4fd0 <__gesf2>
    21fe:	18 16       	cp	r1, r24
    2200:	0c f4       	brge	.+2      	; 0x2204 <_Z13handleIMUTestj.part.3+0xdc>
    2202:	84 c0       	rjmp	.+264    	; 0x230c <_Z13handleIMUTestj.part.3+0x1e4>
    2204:	20 e0       	ldi	r18, 0x00	; 0
    2206:	30 e0       	ldi	r19, 0x00	; 0
    2208:	4e ef       	ldi	r20, 0xFE	; 254
    220a:	52 e4       	ldi	r21, 0x42	; 66
    220c:	c7 01       	movw	r24, r14
    220e:	b6 01       	movw	r22, r12
    2210:	0e 94 84 25 	call	0x4b08	; 0x4b08 <__addsf3>
    2214:	0e 94 e0 26 	call	0x4dc0	; 0x4dc0 <__fixunssfsi>
    2218:	b6 2e       	mov	r11, r22
    221a:	20 91 12 02 	lds	r18, 0x0212	; 0x800212 <rollTrim>
    221e:	30 91 13 02 	lds	r19, 0x0213	; 0x800213 <rollTrim+0x1>
    2222:	40 91 14 02 	lds	r20, 0x0214	; 0x800214 <rollTrim+0x2>
    2226:	50 91 15 02 	lds	r21, 0x0215	; 0x800215 <rollTrim+0x3>
    222a:	60 91 d9 02 	lds	r22, 0x02D9	; 0x8002d9 <roll>
    222e:	70 91 da 02 	lds	r23, 0x02DA	; 0x8002da <roll+0x1>
    2232:	80 91 db 02 	lds	r24, 0x02DB	; 0x8002db <roll+0x2>
    2236:	90 91 dc 02 	lds	r25, 0x02DC	; 0x8002dc <roll+0x3>
    223a:	0e 94 84 25 	call	0x4b08	; 0x4b08 <__addsf3>
    223e:	6b 01       	movw	r12, r22
    2240:	7c 01       	movw	r14, r24
    2242:	20 e0       	ldi	r18, 0x00	; 0
    2244:	30 e0       	ldi	r19, 0x00	; 0
    2246:	4e ef       	ldi	r20, 0xFE	; 254
    2248:	52 ec       	ldi	r21, 0xC2	; 194
    224a:	0e 94 62 26 	call	0x4cc4	; 0x4cc4 <__cmpsf2>
    224e:	87 fd       	sbrc	r24, 7
    2250:	5b c0       	rjmp	.+182    	; 0x2308 <_Z13handleIMUTestj.part.3+0x1e0>
    2252:	20 e0       	ldi	r18, 0x00	; 0
    2254:	30 e0       	ldi	r19, 0x00	; 0
    2256:	4e ef       	ldi	r20, 0xFE	; 254
    2258:	52 e4       	ldi	r21, 0x42	; 66
    225a:	c7 01       	movw	r24, r14
    225c:	b6 01       	movw	r22, r12
    225e:	0e 94 e8 27 	call	0x4fd0	; 0x4fd0 <__gesf2>
    2262:	18 16       	cp	r1, r24
    2264:	0c f4       	brge	.+2      	; 0x2268 <_Z13handleIMUTestj.part.3+0x140>
    2266:	57 c0       	rjmp	.+174    	; 0x2316 <_Z13handleIMUTestj.part.3+0x1ee>
    2268:	20 e0       	ldi	r18, 0x00	; 0
    226a:	30 e0       	ldi	r19, 0x00	; 0
    226c:	4e ef       	ldi	r20, 0xFE	; 254
    226e:	52 e4       	ldi	r21, 0x42	; 66
    2270:	c7 01       	movw	r24, r14
    2272:	b6 01       	movw	r22, r12
    2274:	0e 94 84 25 	call	0x4b08	; 0x4b08 <__addsf3>
    2278:	0e 94 e0 26 	call	0x4dc0	; 0x4dc0 <__fixunssfsi>
    227c:	06 2f       	mov	r16, r22
    227e:	c0 90 cd 02 	lds	r12, 0x02CD	; 0x8002cd <yawRate>
    2282:	d0 90 ce 02 	lds	r13, 0x02CE	; 0x8002ce <yawRate+0x1>
    2286:	e0 90 cf 02 	lds	r14, 0x02CF	; 0x8002cf <yawRate+0x2>
    228a:	f0 90 d0 02 	lds	r15, 0x02D0	; 0x8002d0 <yawRate+0x3>
    228e:	20 e0       	ldi	r18, 0x00	; 0
    2290:	30 e0       	ldi	r19, 0x00	; 0
    2292:	4e ef       	ldi	r20, 0xFE	; 254
    2294:	52 ec       	ldi	r21, 0xC2	; 194
    2296:	c7 01       	movw	r24, r14
    2298:	b6 01       	movw	r22, r12
    229a:	0e 94 62 26 	call	0x4cc4	; 0x4cc4 <__cmpsf2>
    229e:	87 fd       	sbrc	r24, 7
    22a0:	31 c0       	rjmp	.+98     	; 0x2304 <_Z13handleIMUTestj.part.3+0x1dc>
    22a2:	20 e0       	ldi	r18, 0x00	; 0
    22a4:	30 e0       	ldi	r19, 0x00	; 0
    22a6:	4e ef       	ldi	r20, 0xFE	; 254
    22a8:	52 e4       	ldi	r21, 0x42	; 66
    22aa:	c7 01       	movw	r24, r14
    22ac:	b6 01       	movw	r22, r12
    22ae:	0e 94 e8 27 	call	0x4fd0	; 0x4fd0 <__gesf2>
    22b2:	18 16       	cp	r1, r24
    22b4:	74 f1       	brlt	.+92     	; 0x2312 <_Z13handleIMUTestj.part.3+0x1ea>
    22b6:	20 e0       	ldi	r18, 0x00	; 0
    22b8:	30 e0       	ldi	r19, 0x00	; 0
    22ba:	4e ef       	ldi	r20, 0xFE	; 254
    22bc:	52 e4       	ldi	r21, 0x42	; 66
    22be:	c7 01       	movw	r24, r14
    22c0:	b6 01       	movw	r22, r12
    22c2:	0e 94 84 25 	call	0x4b08	; 0x4b08 <__addsf3>
    22c6:	0e 94 e0 26 	call	0x4dc0	; 0x4dc0 <__fixunssfsi>
    22ca:	19 83       	std	Y+1, r17	; 0x01
    22cc:	ba 82       	std	Y+2, r11	; 0x02
    22ce:	0b 83       	std	Y+3, r16	; 0x03
    22d0:	6c 83       	std	Y+4, r22	; 0x04
    22d2:	83 ef       	ldi	r24, 0xF3	; 243
    22d4:	92 e0       	ldi	r25, 0x02	; 2
    22d6:	0e 94 33 25 	call	0x4a66	; 0x4a66 <_ZN5RFM6911receiveDoneEv>
    22da:	00 e0       	ldi	r16, 0x00	; 0
    22dc:	24 e0       	ldi	r18, 0x04	; 4
    22de:	ae 01       	movw	r20, r28
    22e0:	4f 5f       	subi	r20, 0xFF	; 255
    22e2:	5f 4f       	sbci	r21, 0xFF	; 255
    22e4:	6b e2       	ldi	r22, 0x2B	; 43
    22e6:	83 ef       	ldi	r24, 0xF3	; 243
    22e8:	92 e0       	ldi	r25, 0x02	; 2
    22ea:	0e 94 2e 1d 	call	0x3a5c	; 0x3a5c <_ZN5RFM694sendEhPKvhb>
    22ee:	81 e0       	ldi	r24, 0x01	; 1
    22f0:	0e 94 fe 05 	call	0xbfc	; 0xbfc <_Z12ledFlashFasth>
    22f4:	20 91 ca 02 	lds	r18, 0x02CA	; 0x8002ca <imuStateUS>
    22f8:	30 91 cb 02 	lds	r19, 0x02CB	; 0x8002cb <imuStateUS+0x1>
    22fc:	c9 01       	movw	r24, r18
    22fe:	29 cf       	rjmp	.-430    	; 0x2152 <_Z13handleIMUTestj.part.3+0x2a>
    2300:	b1 2c       	mov	r11, r1
    2302:	8b cf       	rjmp	.-234    	; 0x221a <_Z13handleIMUTestj.part.3+0xf2>
    2304:	60 e0       	ldi	r22, 0x00	; 0
    2306:	e1 cf       	rjmp	.-62     	; 0x22ca <_Z13handleIMUTestj.part.3+0x1a2>
    2308:	00 e0       	ldi	r16, 0x00	; 0
    230a:	b9 cf       	rjmp	.-142    	; 0x227e <_Z13handleIMUTestj.part.3+0x156>
    230c:	8e ef       	ldi	r24, 0xFE	; 254
    230e:	b8 2e       	mov	r11, r24
    2310:	84 cf       	rjmp	.-248    	; 0x221a <_Z13handleIMUTestj.part.3+0xf2>
    2312:	6e ef       	ldi	r22, 0xFE	; 254
    2314:	da cf       	rjmp	.-76     	; 0x22ca <_Z13handleIMUTestj.part.3+0x1a2>
    2316:	0e ef       	ldi	r16, 0xFE	; 254
    2318:	b2 cf       	rjmp	.-156    	; 0x227e <_Z13handleIMUTestj.part.3+0x156>

0000231a <main>:
    231a:	cf 93       	push	r28
    231c:	df 93       	push	r29
    231e:	cd b7       	in	r28, 0x3d	; 61
    2320:	de b7       	in	r29, 0x3e	; 62
    2322:	c0 54       	subi	r28, 0x40	; 64
    2324:	d1 09       	sbc	r29, r1
    2326:	0f b6       	in	r0, 0x3f	; 63
    2328:	f8 94       	cli
    232a:	de bf       	out	0x3e, r29	; 62
    232c:	0f be       	out	0x3f, r0	; 63
    232e:	cd bf       	out	0x3d, r28	; 61
    2330:	0e 94 fd 03 	call	0x7fa	; 0x7fa <init>
    2334:	0e 94 74 13 	call	0x26e8	; 0x26e8 <_Z10initMotorsv>
    2338:	0e 94 e5 05 	call	0xbca	; 0xbca <_Z7initLEDv>
    233c:	81 e0       	ldi	r24, 0x01	; 1
    233e:	0e 94 e8 05 	call	0xbd0	; 0xbd0 <_Z12ledFlashSlowh>
    2342:	2f e7       	ldi	r18, 0x7F	; 127
    2344:	89 ea       	ldi	r24, 0xA9	; 169
    2346:	93 e0       	ldi	r25, 0x03	; 3
    2348:	21 50       	subi	r18, 0x01	; 1
    234a:	80 40       	sbci	r24, 0x00	; 0
    234c:	90 40       	sbci	r25, 0x00	; 0
    234e:	e1 f7       	brne	.-8      	; 0x2348 <main+0x2e>
    2350:	00 c0       	rjmp	.+0      	; 0x2352 <main+0x38>
    2352:	00 00       	nop
    2354:	80 e0       	ldi	r24, 0x00	; 0
    2356:	90 e0       	ldi	r25, 0x00	; 0
    2358:	0e 94 01 2a 	call	0x5402	; 0x5402 <eeprom_read_byte>
    235c:	80 93 e3 02 	sts	0x02E3, r24	; 0x8002e3 <id>
    2360:	8f 3f       	cpi	r24, 0xFF	; 255
    2362:	09 f4       	brne	.+2      	; 0x2366 <main+0x4c>
    2364:	be c1       	rjmp	.+892    	; 0x26e2 <main+0x3c8>
    2366:	0e 94 ef 0a 	call	0x15de	; 0x15de <_Z20loadParamsFromEEPROMv>
    236a:	0e 94 3b 0d 	call	0x1a76	; 0x1a76 <_Z31loadCalibrationParamsFromEEPROMv>
    236e:	0e 94 7a 0d 	call	0x1af4	; 0x1af4 <_Z19resetPIDControllersv>
    2372:	0e 94 20 05 	call	0xa40	; 0xa40 <_Z18initBatteryMonitorv>
    2376:	2d e2       	ldi	r18, 0x2D	; 45
    2378:	4c e2       	ldi	r20, 0x2C	; 44
    237a:	6b e5       	ldi	r22, 0x5B	; 91
    237c:	83 ef       	ldi	r24, 0xF3	; 243
    237e:	92 e0       	ldi	r25, 0x02	; 2
    2380:	0e 94 52 23 	call	0x46a4	; 0x46a4 <_ZN5RFM6910initializeEhhh>
    2384:	61 e0       	ldi	r22, 0x01	; 1
    2386:	83 ef       	ldi	r24, 0xF3	; 243
    2388:	92 e0       	ldi	r25, 0x02	; 2
    238a:	0e 94 44 1a 	call	0x3488	; 0x3488 <_ZN5RFM6912setHighPowerEb>
    238e:	6f e1       	ldi	r22, 0x1F	; 31
    2390:	83 ef       	ldi	r24, 0xF3	; 243
    2392:	92 e0       	ldi	r25, 0x02	; 2
    2394:	0e 94 23 19 	call	0x3246	; 0x3246 <_ZN5RFM6913setPowerLevelEh>
    2398:	81 e0       	ldi	r24, 0x01	; 1
    239a:	0e 94 e8 05 	call	0xbd0	; 0xbd0 <_Z12ledFlashSlowh>
    239e:	60 e0       	ldi	r22, 0x00	; 0
    23a0:	84 e6       	ldi	r24, 0x64	; 100
    23a2:	90 e0       	ldi	r25, 0x00	; 0
    23a4:	0e 94 12 16 	call	0x2c24	; 0x2c24 <_ZN8Fastwire5setupEib>
    23a8:	2f e7       	ldi	r18, 0x7F	; 127
    23aa:	89 ea       	ldi	r24, 0xA9	; 169
    23ac:	93 e0       	ldi	r25, 0x03	; 3
    23ae:	21 50       	subi	r18, 0x01	; 1
    23b0:	80 40       	sbci	r24, 0x00	; 0
    23b2:	90 40       	sbci	r25, 0x00	; 0
    23b4:	e1 f7       	brne	.-8      	; 0x23ae <main+0x94>
    23b6:	00 c0       	rjmp	.+0      	; 0x23b8 <main+0x9e>
    23b8:	00 00       	nop
    23ba:	84 ee       	ldi	r24, 0xE4	; 228
    23bc:	92 e0       	ldi	r25, 0x02	; 2
    23be:	0e 94 fd 16 	call	0x2dfa	; 0x2dfa <_ZN7MPU605010initializeEv>
    23c2:	81 e0       	ldi	r24, 0x01	; 1
    23c4:	0e 94 e8 05 	call	0xbd0	; 0xbd0 <_Z12ledFlashSlowh>
    23c8:	ff 24       	eor	r15, r15
    23ca:	f3 94       	inc	r15
    23cc:	1d e0       	ldi	r17, 0x0D	; 13
    23ce:	18 c0       	rjmp	.+48     	; 0x2400 <main+0xe6>
    23d0:	80 91 e1 02 	lds	r24, 0x02E1	; 0x8002e1 <dt>
    23d4:	90 91 e2 02 	lds	r25, 0x02E2	; 0x8002e2 <dt+0x1>
    23d8:	0e 94 1c 06 	call	0xc38	; 0xc38 <_Z12handleFlightj>
    23dc:	80 91 e1 02 	lds	r24, 0x02E1	; 0x8002e1 <dt>
    23e0:	90 91 e2 02 	lds	r25, 0x02E2	; 0x8002e2 <dt+0x1>
    23e4:	20 91 cc 02 	lds	r18, 0x02CC	; 0x8002cc <reportingIMUState>
    23e8:	21 11       	cpse	r18, r1
    23ea:	3e c0       	rjmp	.+124    	; 0x2468 <main+0x14e>
    23ec:	0e 94 3a 05 	call	0xa74	; 0xa74 <_Z20handleBatteryMonitorj>
    23f0:	0e 94 e5 03 	call	0x7ca	; 0x7ca <micros>
    23f4:	68 19       	sub	r22, r8
    23f6:	79 09       	sbc	r23, r9
    23f8:	70 93 e2 02 	sts	0x02E2, r23	; 0x8002e2 <dt+0x1>
    23fc:	60 93 e1 02 	sts	0x02E1, r22	; 0x8002e1 <dt>
    2400:	0e 94 e5 03 	call	0x7ca	; 0x7ca <micros>
    2404:	4b 01       	movw	r8, r22
    2406:	5c 01       	movw	r10, r24
    2408:	83 ef       	ldi	r24, 0xF3	; 243
    240a:	92 e0       	ldi	r25, 0x02	; 2
    240c:	0e 94 33 25 	call	0x4a66	; 0x4a66 <_ZN5RFM6911receiveDoneEv>
    2410:	88 23       	and	r24, r24
    2412:	f1 f2       	breq	.-68     	; 0x23d0 <main+0xb6>
    2414:	80 91 0a 03 	lds	r24, 0x030A	; 0x80030a <_ZN5RFM694DATAE>
    2418:	30 91 0b 03 	lds	r19, 0x030B	; 0x80030b <_ZN5RFM694DATAE+0x1>
    241c:	90 91 0c 03 	lds	r25, 0x030C	; 0x80030c <_ZN5RFM694DATAE+0x2>
    2420:	20 91 e3 02 	lds	r18, 0x02E3	; 0x8002e3 <id>
    2424:	92 17       	cp	r25, r18
    2426:	39 f1       	breq	.+78     	; 0x2476 <main+0x15c>
    2428:	9f 3f       	cpi	r25, 0xFF	; 255
    242a:	29 f1       	breq	.+74     	; 0x2476 <main+0x15c>
    242c:	86 30       	cpi	r24, 0x06	; 6
    242e:	81 f6       	brne	.-96     	; 0x23d0 <main+0xb6>
    2430:	33 23       	and	r19, r19
    2432:	71 f2       	breq	.-100    	; 0x23d0 <main+0xb6>
    2434:	ec e0       	ldi	r30, 0x0C	; 12
    2436:	f3 e0       	ldi	r31, 0x03	; 3
    2438:	80 e0       	ldi	r24, 0x00	; 0
    243a:	90 81       	ld	r25, Z
    243c:	29 17       	cp	r18, r25
    243e:	39 f0       	breq	.+14     	; 0x244e <main+0x134>
    2440:	35 96       	adiw	r30, 0x05	; 5
    2442:	8b 5f       	subi	r24, 0xFB	; 251
    2444:	83 17       	cp	r24, r19
    2446:	20 f6       	brcc	.-120    	; 0x23d0 <main+0xb6>
    2448:	90 81       	ld	r25, Z
    244a:	29 13       	cpse	r18, r25
    244c:	f9 cf       	rjmp	.-14     	; 0x2440 <main+0x126>
    244e:	81 81       	ldd	r24, Z+1	; 0x01
    2450:	80 93 0e 01 	sts	0x010E, r24	; 0x80010e <yawThrust>
    2454:	82 81       	ldd	r24, Z+2	; 0x02
    2456:	80 93 ae 02 	sts	0x02AE, r24	; 0x8002ae <throttle>
    245a:	83 81       	ldd	r24, Z+3	; 0x03
    245c:	80 93 0f 01 	sts	0x010F, r24	; 0x80010f <rollThrust>
    2460:	84 81       	ldd	r24, Z+4	; 0x04
    2462:	80 93 10 01 	sts	0x0110, r24	; 0x800110 <pitchThrust>
    2466:	b4 cf       	rjmp	.-152    	; 0x23d0 <main+0xb6>
    2468:	0e 94 94 10 	call	0x2128	; 0x2128 <_Z13handleIMUTestj.part.3>
    246c:	80 91 e1 02 	lds	r24, 0x02E1	; 0x8002e1 <dt>
    2470:	90 91 e2 02 	lds	r25, 0x02E2	; 0x8002e2 <dt+0x1>
    2474:	bb cf       	rjmp	.-138    	; 0x23ec <main+0xd2>
    2476:	86 30       	cpi	r24, 0x06	; 6
    2478:	d9 f2       	breq	.-74     	; 0x2430 <main+0x116>
    247a:	85 30       	cpi	r24, 0x05	; 5
    247c:	51 f1       	breq	.+84     	; 0x24d2 <main+0x1b8>
    247e:	90 91 ae 02 	lds	r25, 0x02AE	; 0x8002ae <throttle>
    2482:	9a 30       	cpi	r25, 0x0A	; 10
    2484:	08 f0       	brcs	.+2      	; 0x2488 <main+0x16e>
    2486:	a4 cf       	rjmp	.-184    	; 0x23d0 <main+0xb6>
    2488:	81 30       	cpi	r24, 0x01	; 1
    248a:	09 f4       	brne	.+2      	; 0x248e <main+0x174>
    248c:	65 c0       	rjmp	.+202    	; 0x2558 <main+0x23e>
    248e:	82 30       	cpi	r24, 0x02	; 2
    2490:	09 f4       	brne	.+2      	; 0x2494 <main+0x17a>
    2492:	f2 c0       	rjmp	.+484    	; 0x2678 <main+0x35e>
    2494:	83 30       	cpi	r24, 0x03	; 3
    2496:	09 f4       	brne	.+2      	; 0x249a <main+0x180>
    2498:	70 c0       	rjmp	.+224    	; 0x257a <main+0x260>
    249a:	84 30       	cpi	r24, 0x04	; 4
    249c:	09 f4       	brne	.+2      	; 0x24a0 <main+0x186>
    249e:	4a c0       	rjmp	.+148    	; 0x2534 <main+0x21a>
    24a0:	89 30       	cpi	r24, 0x09	; 9
    24a2:	09 f4       	brne	.+2      	; 0x24a6 <main+0x18c>
    24a4:	f2 c0       	rjmp	.+484    	; 0x268a <main+0x370>
    24a6:	8a 30       	cpi	r24, 0x0A	; 10
    24a8:	09 f4       	brne	.+2      	; 0x24ac <main+0x192>
    24aa:	ff c0       	rjmp	.+510    	; 0x26aa <main+0x390>
    24ac:	8b 30       	cpi	r24, 0x0B	; 11
    24ae:	09 f0       	breq	.+2      	; 0x24b2 <main+0x198>
    24b0:	8f cf       	rjmp	.-226    	; 0x23d0 <main+0xb6>
    24b2:	83 ef       	ldi	r24, 0xF3	; 243
    24b4:	92 e0       	ldi	r25, 0x02	; 2
    24b6:	0e 94 c1 18 	call	0x3182	; 0x3182 <_ZN5RFM6912ACKRequestedEv>
    24ba:	88 23       	and	r24, r24
    24bc:	39 f0       	breq	.+14     	; 0x24cc <main+0x1b2>
    24be:	40 e0       	ldi	r20, 0x00	; 0
    24c0:	65 e2       	ldi	r22, 0x25	; 37
    24c2:	71 e0       	ldi	r23, 0x01	; 1
    24c4:	83 ef       	ldi	r24, 0xF3	; 243
    24c6:	92 e0       	ldi	r25, 0x02	; 2
    24c8:	0e 94 82 1e 	call	0x3d04	; 0x3d04 <_ZN5RFM697sendACKEPKvh>
    24cc:	10 92 cc 02 	sts	0x02CC, r1	; 0x8002cc <reportingIMUState>
    24d0:	7f cf       	rjmp	.-258    	; 0x23d0 <main+0xb6>
    24d2:	80 91 0d 03 	lds	r24, 0x030D	; 0x80030d <_ZN5RFM694DATAE+0x3>
    24d6:	80 93 0e 01 	sts	0x010E, r24	; 0x80010e <yawThrust>
    24da:	60 91 0e 03 	lds	r22, 0x030E	; 0x80030e <_ZN5RFM694DATAE+0x4>
    24de:	80 91 0f 03 	lds	r24, 0x030F	; 0x80030f <_ZN5RFM694DATAE+0x5>
    24e2:	80 93 0f 01 	sts	0x010F, r24	; 0x80010f <rollThrust>
    24e6:	80 91 10 03 	lds	r24, 0x0310	; 0x800310 <_ZN5RFM694DATAE+0x6>
    24ea:	80 93 10 01 	sts	0x0110, r24	; 0x800110 <pitchThrust>
    24ee:	6a 30       	cpi	r22, 0x0A	; 10
    24f0:	98 f4       	brcc	.+38     	; 0x2518 <main+0x1fe>
    24f2:	41 2c       	mov	r4, r1
    24f4:	51 2c       	mov	r5, r1
    24f6:	32 01       	movw	r6, r4
    24f8:	60 91 0d 01 	lds	r22, 0x010D	; 0x80010d <maxThrust>
    24fc:	70 e0       	ldi	r23, 0x00	; 0
    24fe:	80 e0       	ldi	r24, 0x00	; 0
    2500:	90 e0       	ldi	r25, 0x00	; 0
    2502:	0e 94 11 27 	call	0x4e22	; 0x4e22 <__floatsisf>
    2506:	a3 01       	movw	r20, r6
    2508:	92 01       	movw	r18, r4
    250a:	0e 94 f5 27 	call	0x4fea	; 0x4fea <__mulsf3>
    250e:	0e 94 e0 26 	call	0x4dc0	; 0x4dc0 <__fixunssfsi>
    2512:	60 93 ae 02 	sts	0x02AE, r22	; 0x8002ae <throttle>
    2516:	5c cf       	rjmp	.-328    	; 0x23d0 <main+0xb6>
    2518:	70 e0       	ldi	r23, 0x00	; 0
    251a:	80 e0       	ldi	r24, 0x00	; 0
    251c:	90 e0       	ldi	r25, 0x00	; 0
    251e:	0e 94 0f 27 	call	0x4e1e	; 0x4e1e <__floatunsisf>
    2522:	20 e0       	ldi	r18, 0x00	; 0
    2524:	30 e0       	ldi	r19, 0x00	; 0
    2526:	4f e7       	ldi	r20, 0x7F	; 127
    2528:	53 e4       	ldi	r21, 0x43	; 67
    252a:	0e 94 67 26 	call	0x4cce	; 0x4cce <__divsf3>
    252e:	2b 01       	movw	r4, r22
    2530:	3c 01       	movw	r6, r24
    2532:	e2 cf       	rjmp	.-60     	; 0x24f8 <main+0x1de>
    2534:	80 91 0d 03 	lds	r24, 0x030D	; 0x80030d <_ZN5RFM694DATAE+0x3>
    2538:	88 23       	and	r24, r24
    253a:	09 f4       	brne	.+2      	; 0x253e <main+0x224>
    253c:	73 c0       	rjmp	.+230    	; 0x2624 <main+0x30a>
    253e:	81 30       	cpi	r24, 0x01	; 1
    2540:	09 f4       	brne	.+2      	; 0x2544 <main+0x22a>
    2542:	c3 c0       	rjmp	.+390    	; 0x26ca <main+0x3b0>
    2544:	82 30       	cpi	r24, 0x02	; 2
    2546:	09 f4       	brne	.+2      	; 0x254a <main+0x230>
    2548:	c4 c0       	rjmp	.+392    	; 0x26d2 <main+0x3b8>
    254a:	83 30       	cpi	r24, 0x03	; 3
    254c:	09 f4       	brne	.+2      	; 0x2550 <main+0x236>
    254e:	c5 c0       	rjmp	.+394    	; 0x26da <main+0x3c0>
    2550:	8a e0       	ldi	r24, 0x0A	; 10
    2552:	0e 94 fe 05 	call	0xbfc	; 0xbfc <_Z12ledFlashFasth>
    2556:	3c cf       	rjmp	.-392    	; 0x23d0 <main+0xb6>
    2558:	83 ef       	ldi	r24, 0xF3	; 243
    255a:	92 e0       	ldi	r25, 0x02	; 2
    255c:	0e 94 c1 18 	call	0x3182	; 0x3182 <_ZN5RFM6912ACKRequestedEv>
    2560:	88 23       	and	r24, r24
    2562:	39 f0       	breq	.+14     	; 0x2572 <main+0x258>
    2564:	40 e0       	ldi	r20, 0x00	; 0
    2566:	65 e2       	ldi	r22, 0x25	; 37
    2568:	71 e0       	ldi	r23, 0x01	; 1
    256a:	83 ef       	ldi	r24, 0xF3	; 243
    256c:	92 e0       	ldi	r25, 0x02	; 2
    256e:	0e 94 82 1e 	call	0x3d04	; 0x3d04 <_ZN5RFM697sendACKEPKvh>
    2572:	82 e0       	ldi	r24, 0x02	; 2
    2574:	0e 94 fe 05 	call	0xbfc	; 0xbfc <_Z12ledFlashFasth>
    2578:	2b cf       	rjmp	.-426    	; 0x23d0 <main+0xb6>
    257a:	83 ef       	ldi	r24, 0xF3	; 243
    257c:	92 e0       	ldi	r25, 0x02	; 2
    257e:	0e 94 c1 18 	call	0x3182	; 0x3182 <_ZN5RFM6912ACKRequestedEv>
    2582:	88 23       	and	r24, r24
    2584:	39 f0       	breq	.+14     	; 0x2594 <main+0x27a>
    2586:	40 e0       	ldi	r20, 0x00	; 0
    2588:	65 e2       	ldi	r22, 0x25	; 37
    258a:	71 e0       	ldi	r23, 0x01	; 1
    258c:	83 ef       	ldi	r24, 0xF3	; 243
    258e:	92 e0       	ldi	r25, 0x02	; 2
    2590:	0e 94 82 1e 	call	0x3d04	; 0x3d04 <_ZN5RFM697sendACKEPKvh>
    2594:	82 e0       	ldi	r24, 0x02	; 2
    2596:	0e 94 fe 05 	call	0xbfc	; 0xbfc <_Z12ledFlashFasth>
    259a:	80 91 0d 03 	lds	r24, 0x030D	; 0x80030d <_ZN5RFM694DATAE+0x3>
    259e:	6e e0       	ldi	r22, 0x0E	; 14
    25a0:	73 e0       	ldi	r23, 0x03	; 3
    25a2:	0e 94 8e 0d 	call	0x1b1c	; 0x1b1c <_Z14copyParamsFromhPh>
    25a6:	0e 94 1c 0c 	call	0x1838	; 0x1838 <_Z18saveParamsToEEPROMv>
    25aa:	8a e8       	ldi	r24, 0x8A	; 138
    25ac:	92 e0       	ldi	r25, 0x02	; 2
    25ae:	0e 94 69 18 	call	0x30d2	; 0x30d2 <_ZN13PIDController5resetEv>
    25b2:	8e e6       	ldi	r24, 0x6E	; 110
    25b4:	92 e0       	ldi	r25, 0x02	; 2
    25b6:	0e 94 69 18 	call	0x30d2	; 0x30d2 <_ZN13PIDController5resetEv>
    25ba:	82 e5       	ldi	r24, 0x52	; 82
    25bc:	92 e0       	ldi	r25, 0x02	; 2
    25be:	0e 94 69 18 	call	0x30d2	; 0x30d2 <_ZN13PIDController5resetEv>
    25c2:	86 e3       	ldi	r24, 0x36	; 54
    25c4:	92 e0       	ldi	r25, 0x02	; 2
    25c6:	0e 94 69 18 	call	0x30d2	; 0x30d2 <_ZN13PIDController5resetEv>
    25ca:	8a e1       	ldi	r24, 0x1A	; 26
    25cc:	92 e0       	ldi	r25, 0x02	; 2
    25ce:	0e 94 69 18 	call	0x30d2	; 0x30d2 <_ZN13PIDController5resetEv>
    25d2:	10 92 dd 02 	sts	0x02DD, r1	; 0x8002dd <pitch>
    25d6:	10 92 de 02 	sts	0x02DE, r1	; 0x8002de <pitch+0x1>
    25da:	10 92 df 02 	sts	0x02DF, r1	; 0x8002df <pitch+0x2>
    25de:	10 92 e0 02 	sts	0x02E0, r1	; 0x8002e0 <pitch+0x3>
    25e2:	10 92 d9 02 	sts	0x02D9, r1	; 0x8002d9 <roll>
    25e6:	10 92 da 02 	sts	0x02DA, r1	; 0x8002da <roll+0x1>
    25ea:	10 92 db 02 	sts	0x02DB, r1	; 0x8002db <roll+0x2>
    25ee:	10 92 dc 02 	sts	0x02DC, r1	; 0x8002dc <roll+0x3>
    25f2:	10 92 d5 02 	sts	0x02D5, r1	; 0x8002d5 <pitchRate>
    25f6:	10 92 d6 02 	sts	0x02D6, r1	; 0x8002d6 <pitchRate+0x1>
    25fa:	10 92 d7 02 	sts	0x02D7, r1	; 0x8002d7 <pitchRate+0x2>
    25fe:	10 92 d8 02 	sts	0x02D8, r1	; 0x8002d8 <pitchRate+0x3>
    2602:	10 92 d1 02 	sts	0x02D1, r1	; 0x8002d1 <rollRate>
    2606:	10 92 d2 02 	sts	0x02D2, r1	; 0x8002d2 <rollRate+0x1>
    260a:	10 92 d3 02 	sts	0x02D3, r1	; 0x8002d3 <rollRate+0x2>
    260e:	10 92 d4 02 	sts	0x02D4, r1	; 0x8002d4 <rollRate+0x3>
    2612:	10 92 cd 02 	sts	0x02CD, r1	; 0x8002cd <yawRate>
    2616:	10 92 ce 02 	sts	0x02CE, r1	; 0x8002ce <yawRate+0x1>
    261a:	10 92 cf 02 	sts	0x02CF, r1	; 0x8002cf <yawRate+0x2>
    261e:	10 92 d0 02 	sts	0x02D0, r1	; 0x8002d0 <yawRate+0x3>
    2622:	d6 ce       	rjmp	.-596    	; 0x23d0 <main+0xb6>
    2624:	54 e2       	ldi	r21, 0x24	; 36
    2626:	75 2e       	mov	r7, r21
    2628:	92 e2       	ldi	r25, 0x22	; 34
    262a:	19 83       	std	Y+1, r17	; 0x01
    262c:	9a 83       	std	Y+2, r25	; 0x02
    262e:	2b 83       	std	Y+3, r18	; 0x03
    2630:	8c 83       	std	Y+4, r24	; 0x04
    2632:	be 01       	movw	r22, r28
    2634:	6b 5f       	subi	r22, 0xFB	; 251
    2636:	7f 4f       	sbci	r23, 0xFF	; 255
    2638:	0e 94 e1 0e 	call	0x1dc2	; 0x1dc2 <_Z12copyParamsTohPh>
    263c:	8f e1       	ldi	r24, 0x1F	; 31
    263e:	9e e4       	ldi	r25, 0x4E	; 78
    2640:	01 97       	sbiw	r24, 0x01	; 1
    2642:	f1 f7       	brne	.-4      	; 0x2640 <main+0x326>
    2644:	00 c0       	rjmp	.+0      	; 0x2646 <main+0x32c>
    2646:	00 00       	nop
    2648:	83 ef       	ldi	r24, 0xF3	; 243
    264a:	92 e0       	ldi	r25, 0x02	; 2
    264c:	0e 94 33 25 	call	0x4a66	; 0x4a66 <_ZN5RFM6911receiveDoneEv>
    2650:	83 ef       	ldi	r24, 0xF3	; 243
    2652:	92 e0       	ldi	r25, 0x02	; 2
    2654:	0e 94 e9 1f 	call	0x3fd2	; 0x3fd2 <_ZN5RFM697canSendEv>
    2658:	88 23       	and	r24, r24
    265a:	d1 f3       	breq	.-12     	; 0x2650 <main+0x336>
    265c:	00 e0       	ldi	r16, 0x00	; 0
    265e:	27 2d       	mov	r18, r7
    2660:	ae 01       	movw	r20, r28
    2662:	4f 5f       	subi	r20, 0xFF	; 255
    2664:	5f 4f       	sbci	r21, 0xFF	; 255
    2666:	6b e2       	ldi	r22, 0x2B	; 43
    2668:	83 ef       	ldi	r24, 0xF3	; 243
    266a:	92 e0       	ldi	r25, 0x02	; 2
    266c:	0e 94 2e 1d 	call	0x3a5c	; 0x3a5c <_ZN5RFM694sendEhPKvhb>
    2670:	82 e0       	ldi	r24, 0x02	; 2
    2672:	0e 94 fe 05 	call	0xbfc	; 0xbfc <_Z12ledFlashFasth>
    2676:	ac ce       	rjmp	.-680    	; 0x23d0 <main+0xb6>
    2678:	60 91 0d 03 	lds	r22, 0x030D	; 0x80030d <_ZN5RFM694DATAE+0x3>
    267c:	60 93 e3 02 	sts	0x02E3, r22	; 0x8002e3 <id>
    2680:	80 e0       	ldi	r24, 0x00	; 0
    2682:	90 e0       	ldi	r25, 0x00	; 0
    2684:	0e 94 13 2a 	call	0x5426	; 0x5426 <eeprom_write_byte>
    2688:	74 cf       	rjmp	.-280    	; 0x2572 <main+0x258>
    268a:	83 ef       	ldi	r24, 0xF3	; 243
    268c:	92 e0       	ldi	r25, 0x02	; 2
    268e:	0e 94 c1 18 	call	0x3182	; 0x3182 <_ZN5RFM6912ACKRequestedEv>
    2692:	88 23       	and	r24, r24
    2694:	39 f0       	breq	.+14     	; 0x26a4 <main+0x38a>
    2696:	40 e0       	ldi	r20, 0x00	; 0
    2698:	65 e2       	ldi	r22, 0x25	; 37
    269a:	71 e0       	ldi	r23, 0x01	; 1
    269c:	83 ef       	ldi	r24, 0xF3	; 243
    269e:	92 e0       	ldi	r25, 0x02	; 2
    26a0:	0e 94 82 1e 	call	0x3d04	; 0x3d04 <_ZN5RFM697sendACKEPKvh>
    26a4:	0e 94 d9 09 	call	0x13b2	; 0x13b2 <_Z12calibrateIMUv>
    26a8:	93 ce       	rjmp	.-730    	; 0x23d0 <main+0xb6>
    26aa:	83 ef       	ldi	r24, 0xF3	; 243
    26ac:	92 e0       	ldi	r25, 0x02	; 2
    26ae:	0e 94 c1 18 	call	0x3182	; 0x3182 <_ZN5RFM6912ACKRequestedEv>
    26b2:	88 23       	and	r24, r24
    26b4:	39 f0       	breq	.+14     	; 0x26c4 <main+0x3aa>
    26b6:	40 e0       	ldi	r20, 0x00	; 0
    26b8:	65 e2       	ldi	r22, 0x25	; 37
    26ba:	71 e0       	ldi	r23, 0x01	; 1
    26bc:	83 ef       	ldi	r24, 0xF3	; 243
    26be:	92 e0       	ldi	r25, 0x02	; 2
    26c0:	0e 94 82 1e 	call	0x3d04	; 0x3d04 <_ZN5RFM697sendACKEPKvh>
    26c4:	f0 92 cc 02 	sts	0x02CC, r15	; 0x8002cc <reportingIMUState>
    26c8:	83 ce       	rjmp	.-762    	; 0x23d0 <main+0xb6>
    26ca:	44 e3       	ldi	r20, 0x34	; 52
    26cc:	74 2e       	mov	r7, r20
    26ce:	92 e3       	ldi	r25, 0x32	; 50
    26d0:	ac cf       	rjmp	.-168    	; 0x262a <main+0x310>
    26d2:	3c e1       	ldi	r19, 0x1C	; 28
    26d4:	73 2e       	mov	r7, r19
    26d6:	9a e1       	ldi	r25, 0x1A	; 26
    26d8:	a8 cf       	rjmp	.-176    	; 0x262a <main+0x310>
    26da:	93 e1       	ldi	r25, 0x13	; 19
    26dc:	79 2e       	mov	r7, r25
    26de:	91 e1       	ldi	r25, 0x11	; 17
    26e0:	a4 cf       	rjmp	.-184    	; 0x262a <main+0x310>
    26e2:	10 92 e3 02 	sts	0x02E3, r1	; 0x8002e3 <id>
    26e6:	3f ce       	rjmp	.-898    	; 0x2366 <main+0x4c>

000026e8 <_Z10initMotorsv>:
    26e8:	17 bc       	out	0x27, r1	; 39
    26ea:	5e 98       	cbi	0x0b, 6	; 11
    26ec:	56 9a       	sbi	0x0a, 6	; 10
    26ee:	84 b5       	in	r24, 0x24	; 36
    26f0:	81 60       	ori	r24, 0x01	; 1
    26f2:	84 bd       	out	0x24, r24	; 36
    26f4:	84 b5       	in	r24, 0x24	; 36
    26f6:	82 60       	ori	r24, 0x02	; 2
    26f8:	84 bd       	out	0x24, r24	; 36
    26fa:	85 b5       	in	r24, 0x25	; 37
    26fc:	87 7f       	andi	r24, 0xF7	; 247
    26fe:	85 bd       	out	0x25, r24	; 37
    2700:	85 b5       	in	r24, 0x25	; 37
    2702:	8b 7f       	andi	r24, 0xFB	; 251
    2704:	85 bd       	out	0x25, r24	; 37
    2706:	85 b5       	in	r24, 0x25	; 37
    2708:	8d 7f       	andi	r24, 0xFD	; 253
    270a:	85 bd       	out	0x25, r24	; 37
    270c:	85 b5       	in	r24, 0x25	; 37
    270e:	81 60       	ori	r24, 0x01	; 1
    2710:	85 bd       	out	0x25, r24	; 37
    2712:	5e 98       	cbi	0x0b, 6	; 11
    2714:	84 b5       	in	r24, 0x24	; 36
    2716:	80 68       	ori	r24, 0x80	; 128
    2718:	84 bd       	out	0x24, r24	; 36
    271a:	84 b5       	in	r24, 0x24	; 36
    271c:	8f 7b       	andi	r24, 0xBF	; 191
    271e:	84 bd       	out	0x24, r24	; 36
    2720:	18 bc       	out	0x28, r1	; 40
    2722:	5d 98       	cbi	0x0b, 5	; 11
    2724:	55 9a       	sbi	0x0a, 5	; 10
    2726:	5d 98       	cbi	0x0b, 5	; 11
    2728:	84 b5       	in	r24, 0x24	; 36
    272a:	80 62       	ori	r24, 0x20	; 32
    272c:	84 bd       	out	0x24, r24	; 36
    272e:	84 b5       	in	r24, 0x24	; 36
    2730:	8f 7e       	andi	r24, 0xEF	; 239
    2732:	84 bd       	out	0x24, r24	; 36
    2734:	10 92 b4 00 	sts	0x00B4, r1	; 0x8000b4 <__TEXT_REGION_LENGTH__+0x7e00b4>
    2738:	5b 98       	cbi	0x0b, 3	; 11
    273a:	53 9a       	sbi	0x0a, 3	; 10
    273c:	a1 eb       	ldi	r26, 0xB1	; 177
    273e:	b0 e0       	ldi	r27, 0x00	; 0
    2740:	8c 91       	ld	r24, X
    2742:	87 7f       	andi	r24, 0xF7	; 247
    2744:	8c 93       	st	X, r24
    2746:	e0 eb       	ldi	r30, 0xB0	; 176
    2748:	f0 e0       	ldi	r31, 0x00	; 0
    274a:	80 81       	ld	r24, Z
    274c:	82 60       	ori	r24, 0x02	; 2
    274e:	80 83       	st	Z, r24
    2750:	80 81       	ld	r24, Z
    2752:	81 60       	ori	r24, 0x01	; 1
    2754:	80 83       	st	Z, r24
    2756:	8c 91       	ld	r24, X
    2758:	8b 7f       	andi	r24, 0xFB	; 251
    275a:	8c 93       	st	X, r24
    275c:	8c 91       	ld	r24, X
    275e:	8d 7f       	andi	r24, 0xFD	; 253
    2760:	8c 93       	st	X, r24
    2762:	8c 91       	ld	r24, X
    2764:	81 60       	ori	r24, 0x01	; 1
    2766:	8c 93       	st	X, r24
    2768:	8b b1       	in	r24, 0x0b	; 11
    276a:	88 70       	andi	r24, 0x08	; 8
    276c:	8b b9       	out	0x0b, r24	; 11
    276e:	80 81       	ld	r24, Z
    2770:	80 62       	ori	r24, 0x20	; 32
    2772:	80 83       	st	Z, r24
    2774:	80 81       	ld	r24, Z
    2776:	8f 7e       	andi	r24, 0xEF	; 239
    2778:	80 83       	st	Z, r24
    277a:	10 92 89 00 	sts	0x0089, r1	; 0x800089 <__TEXT_REGION_LENGTH__+0x7e0089>
    277e:	10 92 88 00 	sts	0x0088, r1	; 0x800088 <__TEXT_REGION_LENGTH__+0x7e0088>
    2782:	29 98       	cbi	0x05, 1	; 5
    2784:	21 9a       	sbi	0x04, 1	; 4
    2786:	e1 e8       	ldi	r30, 0x81	; 129
    2788:	f0 e0       	ldi	r31, 0x00	; 0
    278a:	80 81       	ld	r24, Z
    278c:	8f 7e       	andi	r24, 0xEF	; 239
    278e:	80 83       	st	Z, r24
    2790:	80 81       	ld	r24, Z
    2792:	88 60       	ori	r24, 0x08	; 8
    2794:	80 83       	st	Z, r24
    2796:	a0 e8       	ldi	r26, 0x80	; 128
    2798:	b0 e0       	ldi	r27, 0x00	; 0
    279a:	8c 91       	ld	r24, X
    279c:	8d 7f       	andi	r24, 0xFD	; 253
    279e:	8c 93       	st	X, r24
    27a0:	8c 91       	ld	r24, X
    27a2:	81 60       	ori	r24, 0x01	; 1
    27a4:	8c 93       	st	X, r24
    27a6:	80 81       	ld	r24, Z
    27a8:	81 60       	ori	r24, 0x01	; 1
    27aa:	80 83       	st	Z, r24
    27ac:	80 81       	ld	r24, Z
    27ae:	8d 7f       	andi	r24, 0xFD	; 253
    27b0:	80 83       	st	Z, r24
    27b2:	80 81       	ld	r24, Z
    27b4:	8b 7f       	andi	r24, 0xFB	; 251
    27b6:	80 83       	st	Z, r24
    27b8:	29 98       	cbi	0x05, 1	; 5
    27ba:	8c 91       	ld	r24, X
    27bc:	80 68       	ori	r24, 0x80	; 128
    27be:	8c 93       	st	X, r24
    27c0:	8c 91       	ld	r24, X
    27c2:	8f 7b       	andi	r24, 0xBF	; 191
    27c4:	8c 93       	st	X, r24
    27c6:	08 95       	ret

000027c8 <_Z14setMotor1Speedi>:
    27c8:	8f 3f       	cpi	r24, 0xFF	; 255
    27ca:	91 05       	cpc	r25, r1
    27cc:	19 f0       	breq	.+6      	; 0x27d4 <_Z14setMotor1Speedi+0xc>
    27ce:	14 f0       	brlt	.+4      	; 0x27d4 <_Z14setMotor1Speedi+0xc>
    27d0:	8f ef       	ldi	r24, 0xFF	; 255
    27d2:	90 e0       	ldi	r25, 0x00	; 0
    27d4:	97 fd       	sbrc	r25, 7
    27d6:	02 c0       	rjmp	.+4      	; 0x27dc <_Z14setMotor1Speedi+0x14>
    27d8:	87 bd       	out	0x27, r24	; 39
    27da:	08 95       	ret
    27dc:	80 e0       	ldi	r24, 0x00	; 0
    27de:	90 e0       	ldi	r25, 0x00	; 0
    27e0:	87 bd       	out	0x27, r24	; 39
    27e2:	08 95       	ret

000027e4 <_Z14setMotor2Speedi>:
    27e4:	8f 3f       	cpi	r24, 0xFF	; 255
    27e6:	91 05       	cpc	r25, r1
    27e8:	19 f0       	breq	.+6      	; 0x27f0 <_Z14setMotor2Speedi+0xc>
    27ea:	14 f0       	brlt	.+4      	; 0x27f0 <_Z14setMotor2Speedi+0xc>
    27ec:	8f ef       	ldi	r24, 0xFF	; 255
    27ee:	90 e0       	ldi	r25, 0x00	; 0
    27f0:	97 fd       	sbrc	r25, 7
    27f2:	02 c0       	rjmp	.+4      	; 0x27f8 <_Z14setMotor2Speedi+0x14>
    27f4:	88 bd       	out	0x28, r24	; 40
    27f6:	08 95       	ret
    27f8:	80 e0       	ldi	r24, 0x00	; 0
    27fa:	90 e0       	ldi	r25, 0x00	; 0
    27fc:	88 bd       	out	0x28, r24	; 40
    27fe:	08 95       	ret

00002800 <_Z14setMotor3Speedi>:
    2800:	8f 3f       	cpi	r24, 0xFF	; 255
    2802:	91 05       	cpc	r25, r1
    2804:	19 f0       	breq	.+6      	; 0x280c <_Z14setMotor3Speedi+0xc>
    2806:	14 f0       	brlt	.+4      	; 0x280c <_Z14setMotor3Speedi+0xc>
    2808:	8f ef       	ldi	r24, 0xFF	; 255
    280a:	90 e0       	ldi	r25, 0x00	; 0
    280c:	97 fd       	sbrc	r25, 7
    280e:	03 c0       	rjmp	.+6      	; 0x2816 <_Z14setMotor3Speedi+0x16>
    2810:	80 93 b4 00 	sts	0x00B4, r24	; 0x8000b4 <__TEXT_REGION_LENGTH__+0x7e00b4>
    2814:	08 95       	ret
    2816:	80 e0       	ldi	r24, 0x00	; 0
    2818:	90 e0       	ldi	r25, 0x00	; 0
    281a:	80 93 b4 00 	sts	0x00B4, r24	; 0x8000b4 <__TEXT_REGION_LENGTH__+0x7e00b4>
    281e:	08 95       	ret

00002820 <_Z14setMotor4Speedi>:
