:100000000C947B000C9443030C946A030C94A3009F
:100010000C94A3000C94A3000C94A3000C94A002D5
:100020000C94A3000C94A3000C94A3000C94A300C4
:100030000C94A3000C94A3000C94A3000C94A300B4
:100040000C9491030C94A3000C94B5010C94E7015B
:100050000C94A3000C94A3000C94A3000C94A30094
:100060000C94A3000C94A300084AD73B3BCE016E2E
:1000700084BCBFFDC12F3D6C74319ABD56833DDAFF
:100080003D00C77F11BED9E4BB4C3E916BAAAABE0E
:10009000000000803F000200000008000201000094
:1000A0000304070000000000000000010204081023
:1000B00020408001020408102001020408102004DE
:1000C00004040404040404020202020202030303FF
:1000D00003030300000000230026002900000000A5
:1000E00000250028002B0000000000240027002A23
:1000F00000000D02701011241FBECFEFD8E0DEBF4C
:10010000CDBF11E0A0E0B1E0E6E4F4E502C0059067
:100110000D92A634B107D9F723E0A6E4B1E001C0FF
:100120001D92AB34B207E1F710E0CBE7D0E004C09A
:100130002197FE010E94CA28C937D107C9F70E943A
:100140008D110C94212A0C940000FC01918D228DBC
:10015000892F90E0805C9F4F821B91098F739927B4
:100160000895FC01918D828D981731F0828DE80FF2
:10017000F11D858D90E008958FEF9FEF0895FC01AC
:10018000918D828D981761F0828DDF01A80FB11DCE
:100190005D968C91928D9F5F9F73928F90E00895F2
:1001A0008FEF9FEF0895FC01238D348D231730F4DA
:1001B000832F90E0821B9109019708958FE390E0CF
:1001C000821B9109830F911D0895CF93DF93DC016A
:1001D00058968C915897882309F446C05296ED9111
:1001E000FC9153975096CD91DC915197908195FF5A
:1001F00038C00FB607FCFACF908195FFF7CF888102
:1002000085FFF4CF5C968C915C97FD01E80FF11DA2
:10021000E35AFF4F20815C968C915C9790E00196A9
:100220008F7399275C968C935C975696ED91FC9111
:10023000579720835096ED91FC915197808180646F
:1002400080835B969C915B975C968C915C979813EE
:10025000C5CF5296ED91FC91539780818F7D80831D
:10026000BDCF888186FFC5CFDF91CF910895FC0176
:1002700081E0808F938D848D981709F444C0238D7D
:1002800030E02F5F3F4F2F733327822F03C00FB60D
:1002900007FE14C0948D8917D1F3838DDF01A80F59
:1002A000B11DA35ABF4F6C93238F0288F389E02DB1
:1002B00080818062808381E090E00895A089B18987
:1002C0009C9195FFE7CF948DDF01A90FB11DA35A33
:1002D000BF4F9C91448D50E04F5F5F4F4F73552748
:1002E000448FA689B7899C93A089B1899C91906419
:1002F0009C93438D948D4913CDCFA289B3899C9152
:100300009F7D9C93C7CFA089B1898C9185FFB7CF82
:10031000A689B7896C930088F189E02D808180647B
:10032000808381E090E00895FC01848DDF01A80FB7
:10033000B11DA35ABF4F2C91848D90E001968F730D
:100340009927848FA689B7892C93A089B1898C912C
:1003500080648C93938D848D981308950288F3891B
:10036000E02D80818F7D808308951F920F920FB6BC
:100370000F9211242F938F939F93EF93FF93E0910C
:100380005601F09157018081E0915C01F0915D018F
:1003900082FF0BC08081FF91EF919F918F912F91F0
:1003A0000F900FBE0F901F901895208180915F01D4
:1003B0008F5F8F7390916001891769F3E0915F01FE
:1003C000F0E0EA5BFE4F258F80935F01E4CF1F9240
:1003D0000F920FB60F9211242F933F934F935F9379
:1003E0006F937F938F939F93AF93BF93EF93FF93FD
:1003F00086E491E00E949401FF91EF91BF91AF914B
:100400009F918F917F916F915F914F913F912F912C
:100410000F900FBE0F901F901895E6E4F1E0138245
:10042000128288EE93E0A0E0B0E084839583A683F7
:10043000B78387E191E09183808385EC90E0958795
:10044000848784EC90E09787868780EC90E0918B9E
:10045000808B81EC90E0938B828B82EC90E0958B8B
:10046000848B86EC90E0978B868B118E128E138E88
:10047000148E0895CF92DF92EF92FF920F931F9305
:10048000CF93DF934115510509F16A018C017B017E
:10049000C0E0D0E004C02196CC16DD0669F0D7019B
:1004A0006D917D01D801ED91FC910190F081E02DDD
:1004B000C8010995892B79F7CE01DF91CF911F9162
:1004C0000F91FF90EF90DF90CF900895C0E0D0E0C3
:1004D000F3CFCF93CFB7F8948091E301811125C07A
:1004E000E9ECF0E08491E5EBF0E09491E82FF0E0A6
:1004F000EE0FFF1FE951FF4FA591B491EC91E92355
:10050000D1F061E08AE00E9438048CB580618CBD36
:100510008CB580648CBD61E08DE00E94380461E0A0
:100520008BE00E9438048091E3018F5F8093E301A8
:10053000CFBFCF91089561E08AE00E947904E1CFB6
:100540001F920F920FB60F9211242F933F934F9348
:100550005F936F937F938F939F93AF93BF93EF932B
:10056000FF938091E7019091E801A091E901B0919A
:10057000EA01892B8A2B8B2BD1F19091E401E09138
:10058000E501F091E6018081892780838091E70170
:100590009091E801A091E901B091EA0118161906BD
:1005A0001A061B069CF48091E7019091E801A09146
:1005B000E901B091EA010197A109B1098093E7012E
:1005C0009093E801A093E901B093EA01FF91EF91C4
:1005D000BF91AF919F918F917F916F915F914F915B
:1005E0003F912F910F900FBE0F901F901895809103
:1005F0000601E6E9F0E0E4919FEF90930601E13017
:10060000D1F0B0F0E23081F4909170009D7F909332
:10061000700091E09093B0009091B100987F946049
:100620009093B1001092B30060E00E947904CECFA5
:1006300010926E00F9CF90916F009D7F90936F00A4
:10064000F3CF0895823008F00895E82FF0E0EE0F20
:10065000FF1FE95FFE4F71836083813061F48091F9
:100660006900837F440F551F440F551F482B40934B
:100670006900E99A0895809169008C7F482B409326
:100680006900E89A08951F920F920FB60F921124F5
:100690002F933F934F935F936F937F938F939F938A
:1006A000AF93BF93EF93FF93E0910701F09108019F
:1006B0000995FF91EF91BF91AF919F918F917F919C
:1006C0006F915F914F913F912F910F900FBE0F90BF
:1006D0001F9018951F920F920FB60F9211242F930F
:1006E0003F934F935F936F937F938F939F93AF93BA
:1006F000BF93EF93FF93E0910901F0910A010995EF
:10070000FF91EF91BF91AF919F918F917F916F91E9
:100710005F914F913F912F910F900FBE0F901F90BF
:1007200018951F920F920FB60F9211242F938F934B
:100730009F93AF93BF938091F1019091F201A091AB
:10074000F301B091F4018096A11DB11D8093F101D8
:100750009093F201A093F301B093F4018091EF0123
:100760009091F00180969093F0018093EF01809139
:10077000EF019091F001893E9340E8F08091EF0104
:100780009091F001885E93409093F0018093EF0187
:100790008091EB019091EC01A091ED01B091EE01FF
:1007A0000196A11DB11D8093EB019093EC01A093E4
:1007B000ED01B093EE01BF91AF919F918F912F9179
:1007C0000F900FBE0F901F9018952FB7F89460915F
:1007D000F1017091F2018091F3019091F4012FBF2A
:1007E00008952FB7F8946091EB017091EC0180911E
:1007F000ED019091EE012FBF0895789484B5826049
:1008000084BD84B5816084BD85B5826085BD85B5B4
:10081000816085BDEEE6F0E0808181608083E1E863
:10082000F0E010828081826080838081816080839B
:10083000E0E8F0E0808181608083E1EBF0E080819E
:1008400084608083E0EBF0E0808181608083EAE770
:10085000F0E08081846080838081826080838081F9
:100860008E7F80838081806880831092C10008958C
:10087000CF93DF9390E0FC01E555FF4F2491FC01FD
:10088000E154FF4F84918823B9F090E0880F991FBD
:10089000FC01E951FF4FA591B491FC01E352FF4FD8
:1008A000C591D491662359F06230B9F08FB7F894AE
:1008B000EC91E22BEC938FBFDF91CF9108959FB71E
:1008C000F8948C91E22FE0958E238C932881E2237B
:1008D000E8839FBFDF91CF9108959FB7F8948C91E3
:1008E000322F309583238C93E881E22BE8839FBFDE
:1008F000E3CF90E0FC01E956FF4F2491FC01E55560
:10090000FF4F3491FC01E154FF4F84918823A1F003
:10091000211118C0E82FF0E0EE0FFF1FE352FF4F48
:10092000A591B4918FB7F894611107C09C91E32F02
:10093000E095E923EC938FBF0895EC91E32BEC93C2
:100940008FBFFACF233029F160F02730E1F0283053
:10095000A1F02430F9F6909180009F7D9093800063
:10096000D9CF213031F02230A9F694B59F7D94BDC6
:10097000D1CF94B59F7794BDCDCF9091B0009F7D9E
:100980009093B000C7CF9091B0009F779093B00044
:10099000C1CF909180009F7790938000BBCF90E073
:1009A000FC01E956FF4F2491FC01E555FF4F3491BE
:1009B000FC01E154FF4F8491882391F0211113C071
:1009C000E82FF0E0EE0FFF1FED52FF4FA591B4911D
:1009D000EC91E32381E090E009F0089580E0089530
:1009E00080E090E00895233029F160F02730E1F0B5
:1009F0002830A1F0243021F7909180009F7D9093C2
:100A00008000DECF213031F02230D1F694B59F7DC9
:100A100094BDD6CF94B59F7794BDD2CF9091B000BE
:100A20009F7D9093B000CCCF9091B0009F77909332
:100A3000B000C6CF909180009F7790938000C0CF88
:100A40005098589AEAE7F0E0808180688083ECE76C
:100A5000F0E080818F7380838081807F808310921B
:100A6000FA011092FB011092FC011092FD0110920C
:100A7000F90108952091F7013091F801820F931F39
:100A8000E0910B01F0910C016091F5017091F6017C
:100A90009C010BC0285E3340AB014F5F5F4FC90123
:100AA000483EA3E05A07C0F4BA01283E43E03407A9
:100AB00088F77093F6016093F5019093F8018093A5
:100AC000F701F0930C01E0930B01349748F4809107
:100AD000F901811149C008953196675E7340E5CFF1
:100AE00010920C0110920B0180917A008064809327
:100AF0007A0080917A0086FDFCCF209178003091B9
:100B0000790080917A00806180937A00A7EFBCE041
:100B10000E949C289B01AC018AE056954795379529
:100B200027958A95D1F7A0E9B1E00E94AB282CE285
:100B300031E040E050E00E947A28BA01A90166271E
:100B400077274093FA015093FB016093FC01709367
:100B5000FD0181E0483D5E406105710578F48093B8
:100B6000F901882309F4B7CF81E02091F501309194
:100B7000F6012536310530F40C94160680E080939A
:100B8000F901EFCF80E00C9416068091FA01909164
:100B9000FB010895CF93DF93EC016A83862F90E0E9
:100BA000880F991F880F991F0E94D02899838883E6
:100BB0001B821C821D821E821F82188619861A863D
:100BC0001B861C86DF91CF91089543983B9A089528
:100BD00012C0439AEFE3FCE93197F1F700C000003F
:100BE0004398FFEF2DEE32E0F15020403040E1F726
:100BF00000C0000081508111ECCF089512C0439ACB
:100C0000EFE1FEE43197F1F700C000004398FFE701
:100C100028E331E0F15020403040E1F700C000000F
:100C200081508111ECCF0895439A0895811102C03B
:100C300043980895439A08954F925F926F927F92DE
:100C40008F929F92AF92BF92CF92DF92EF92FF92DC
:100C50000F931F93CF93DF93CDB7DEB7A4970FB653
:100C6000F894DEBF0FBECDBFBC0180E090E00E94D3
:100C70000F2720E034E244E759E40E946726698B9D
:100C80007A8B8B8B9C8B9E01295F3F4FAE01475F18
:100C90005F4FBE01655F7F4F84EE92E00E94261792
:100CA0009E012F5F3F4FAE014D5F5F4FBE016B5FF7
:100CB0007F4F84EE92E00E9463176F817885072E44
:100CC000000C880B990B0E9411276B017C01698530
:100CD0007A85072E000C880B990B0E9411272B0197
:100CE0003C014B015C01E894B7F820E030E0A90139
:100CF000C501B4010E946226811108C03DEB832E1C
:100D000037E3932E36E8A32E35E3B32E20E030E010
:100D1000A901C701B6010E946226A501940187FDC1
:100D200027C3C701B6010E9483256D877E878F8701
:100D3000988BA5019401C701B6010E9484259B01EF
:100D4000AC016D857E858F8598890E9467264B0151
:100D50005C018BED9FE0A9E4BFE38D879E87AF87A1
:100D6000B88B2EED32E049E45EE3C501B4010E9488
:100D7000F527A50194010E94F52721EB30E54BE70B
:100D80005FE30E948325A50194010E94F5272D852C
:100D90003E854F8558890E9484254B015C0120E0E7
:100DA00030E0A901C301B2010E94622687FDDCC2C6
:100DB000C501B40121EE3EE245E652E40E94F5276A
:100DC0006D8B7E8B8F8B988F6B857C85072E000CAF
:100DD000880B990B0E9411272B013C014B015C01F0
:100DE000E894B7F820E030E0A901C501B4010E9401
:100DF0006226811108C02DEB822E27E3922E26E871
:100E0000A22E25E3B22E20E030E0A901C701B601F1
:100E10000E946226A501940187FD85C2C701B60123
:100E20000E9483256D877E878F87988BA50194010B
:100E3000C701B6010E9484259B01AC016D857E85AA
:100E40008F8598890E9467266B017C018BED882E27
:100E50008FE0982E89E4A82E8FE3B82E2EED32E095
:100E600049E45EE3C701B6010E94F527A701960198
:100E70000E94F52721EB30E54BE75FE30E948325D5
:100E8000A70196010E94F527A50194010E948425DF
:100E90006B017C0120E030E0A901C301B2010E9496
:100EA000622687FD38C2CD8EDE8EEF8EF8A28D8150
:100EB0009E8163E870E00E946628072E000C880B74
:100EC000990B0E94112729893A894B895C890E94D4
:100ED000F5276D877E878F87988B8B819C810DE7A7
:100EE0001FEFB8010E946628072E000C880B990B93
:100EF0000E94112729893A894B895C890E94F5272C
:100F0000698F7A8F8B8F9C8F89819A81B8010E941B
:100F10006628072E000C880B990B0E9411276093FE
:100F2000CD027093CE028093CF029093D002209195
:100F3000D9023091DA024091DB025091DC02698DD6
:100F40007A8D8B8D9C8D0E94842569A37AA38BA3B7
:100F50009CA34090020250900302609004027090A3
:100F60000502C090FE01D090FF01E0900002F090D9
:100F700001022091DD023091DE024091DF025091AA
:100F8000E0026D857E858F8598890E948425A30166
:100F900092010E94F5274B015C01A70196016D8922
:100FA0007E898F89988D0E94F5279B01AC01C50130
:100FB000B4010E9484254B015C016093DD027093B3
:100FC000DE028093DF029093E00221EE3EE245E6EE
:100FD00052E46D8D7E8D8F8D98A10E94F527A7011B
:100FE00096010E94F5276B017C01A301920169A182
:100FF0007AA18BA19CA10E94F5279B01AC01C7019E
:10100000B6010E9484256093D9027093DA0280931E
:10101000DB029093DC0260910F0170E080E090E0D1
:101020000E940F2720E030E040E053E40E94832537
:1010300020E030E040E05CE30E94F52720910A02C6
:1010400030910B0240910C0250910D020E94F52745
:101050000E94D9266B017C0160910E0170E080E056
:1010600090E00E940F2720E030E040E053E40E942F
:10107000832520E030E040E05CE30E94F5272091EA
:1010800006023091070240910802509109020E9425
:10109000F5270E94D9266D8B7E8B8F8B988F609160
:1010A000100170E080E090E00E940F2720E030E027
:1010B00040E053E40E94832520E030E040E05CE320
:1010C0000E94F52720910E0230910F0240911002EC
:1010D000509111020E94F5270E94D926072E000C7C
:1010E000880B990B0E9411272B013C0120911602BD
:1010F000309117024091180250911902C501B401B4
:101100000E9484259B01AC01C301B2010E9483258A
:10111000AB01BC0109891A892B893C898AE892E0D4
:101120000E94B6174B015C01B601DD0C880B990BD0
:101130000E9411276B017C01209112023091130251
:1011400040911402509115026091D9027091DA0217
:101150008091DB029091DC020E9484259B01AC010E
:10116000C701B6010E948325AB01BC0109891A8918
:101170002B893C898EE692E00E94B6176B017C01B8
:101180002D853E854F855889C501B4010E94832570
:10119000AB01BC0109891A892B893C8982E592E05F
:1011A0000E94B6170E94D9264B015C01298D3A8D09
:1011B0004B8D5C8DC701B6010E948325AB01BC013C
:1011C00009891A892B893C8986E392E00E94B61727
:1011D0000E94D9266B017C01AD89BE89BD01BB0F80
:1011E000880B990B0E9411272091CD023091CE02DD
:1011F0004091CF025091D0020E948325AB01BC01E7
:1012000009891A892B893C898AE192E00E94B617E4
:101210000E94D926A091AE024A2F50E09A012819C7
:101220003909840E951EA9014C195D09460F571FF7
:101230005093AD024093AC02F401EC19FD09E61B9A
:10124000F70BF093AB02E093AA028C0C9D1C860E68
:10125000971E9092A9028092A802C20ED31EC61AAF
:10126000D70AD092A702C092A602A43140F51092EC
:10127000AD021092AC021092AB021092AA02109230
:10128000A9021092A8021092A7021092A6028AE860
:1012900092E00E9469188EE692E00E94691882E549
:1012A00092E00E94691886E392E00E9469188AE140
:1012B00092E00E9469184091AC025091AD02CA01BF
:1012C0000E94E4138091AA029091AB020E94F21353
:1012D0008091A8029091A9020E9400148091A60218
:1012E0009091A7020E941014A4960FB6F894DEBF46
:1012F0000FBECDBFDF91CF911F910F91FF90EF9067
:10130000DF90CF90BF90AF909F908F907F906F9025
:101310005F904F900895D701C601B0588D8F9E8F72
:10132000AF8FB8A3C4CDC701B6010E9484256D87D5
:101330007E878F87988BA7019601C501B4010E9413
:1013400083259B01AC016D857E858F8598890E94E0
:1013500067266B017C0194EE892E9BEC992E96E119
:10136000A92E90E4B92E7ACDC501B401905822CDB2
:10137000C701B6010E9484256D877E878F87988B71
:10138000A7019601C501B4010E9483259B01AC0110
:101390006D857E858F8598890E9467264B015C014B
:1013A00084EE9BECA6E1B0E48D879E87AF87B88B77
:1013B000D8CC2F923F924F925F926F927F928F92F2
:1013C0009F92AF92BF92CF92DF92EF92FF920F93D4
:1013D0001F93CF93DF93CDB7DEB766970FB6F89420
:1013E000DEBF0FBECDBF0E9414062FEF84E39CE04A
:1013F000215080409040E1F700C000001B8A1C8A09
:101400001D8A1E8A812C912C54012401350100E093
:1014100010E08AE0282E312C06C00F5F1F4F0233E8
:10142000110509F479C08FE19EE40197F1F700C03E
:1014300000009E01235F3F4FAE01415F5F4FBE0141
:101440006F5E7F4F84EE92E00E9426176D857E8549
:10145000072E000C880B990B0E9411276B017C0151
:101460006F857889072E000C880B990B0E94112735
:10147000A70196010E94032620E030E044E353E4F4
:101480000E94F5272BED3FE049E450E40E946726D7
:101490009B01AC01C301B2010E9484252B013C01D8
:1014A00069897A89072E000C880B990B0E941127F5
:1014B000A70196010E94032620E030E044E353E4B4
:1014C0000E94F5272BED3FE049E450E40E94672697
:1014D0009B01AC01C501B4010E9484254B015C0154
:1014E000A70196016B897C898D899E890E9484253C
:1014F0006B8B7C8B8D8B9E8BC801B1010E94662803
:10150000099709F08ACF81E00E94FE050F5F1F4F07
:101510000233110509F087CF20E030E048E452E4BF
:10152000C301B2010E9467266B017C016093B70280
:101530007093B8028093B9029093BA0220E030E031
:1015400048E452E4C501B4010E9467264B015C01E6
:101550006093B3027093B4028093B5029093B60285
:1015600020E030E048E452E46B897C898D899E89D3
:101570000E9467266093AF027093B0028093B1021D
:101580009093B202C982DA82EB82FC828D829E82C3
:10159000AF82B88669877A878B879C874CE050E05A
:1015A00060E071E0CE0101960E94092A66960FB6AE
:1015B000F894DEBF0FBECDBFDF91CF911F910F9189
:1015C000FF90EF90DF90CF90BF90AF909F908F9063
:1015D0007F906F905F904F903F902F900895CF93A2
:1015E000DF93CDB7DEB7C054D1090FB6F894DEBF94
:1015F0000FBECDBF40E250E068E070E0CE01019642
:101600000E94F129EAE8F2E089819A81AB81BC81EC
:1016100080839183A283B3838D819E81AF81B885BE
:1016200084839583A683B78389859A85AB85BC859A
:1016300080879187A287B3878D859E85AF85B8897E
:1016400084879587A687B787EEE6F2E089899A892D
:10165000AB89BC8980839183A283B3838D899E8962
:10166000AF89B88D84839583A683B783898D9A8D3E
:10167000AB8DBC8D80879187A287B3878D8D9E8D22
:10168000AF8DB8A184879587A687B78740E350E0E0
:1016900068E270E0CE0101960E94F129E2E5F2E0F5
:1016A00089819A81AB81BC8180839183A283B3833A
:1016B0008D819E81AF81B88584839583A683B7830E
:1016C00089859A85AB85BC8580879187A287B387FA
:1016D0008D859E85AF85B88984879587A687B787CE
:1016E000E6E3F2E089899A89AB89BC89808391839A
:1016F000A283B3838D899E89AF89B88D84839583B6
:10170000A683B783898D9A8DAB8DBC8D8087918799
:10171000A287B3878D8D9E8DAF8DB8A18487958765
:10172000A687B787EAE1F2E089A19AA1ABA1BCA1A3
:1017300080839183A283B3838DA19EA1AFA1B8A51D
:1017400084839583A683B78389A59AA5ABA5BCA5F9
:1017500080879187A287B3878DA59EA5AFA5B8A9DD
:1017600084879587A687B78748E150E068E570E0F1
:10177000CE0101960E94F12989819A81AB81BC81B9
:1017800080930E0290930F02A0931002B093110267
:101790008D819E81AF81B88580930A0290930B0260
:1017A000A0930C02B0930D0289859A85AB85BC8508
:1017B0008093060290930702A0930802B093090257
:1017C0008D859E85AF85B889809316029093170208
:1017D000A0931802B093190289899A89AB89BC89B0
:1017E0008093120290931302A0931402B0931502F7
:1017F0002D893E894F89588D209302023093030230
:10180000409304025093050260E070E080E89FE39B
:101810000E9483256093FE017093FF018093000274
:1018200090930102C05CDF4F0FB6F894DEBF0FBE8D
:10183000CDBFDF91CF910895CF93DF93CDB7DEB7C2
:10184000C054D1090FB6F894DEBF0FBECDBFEAE891
:10185000F2E080819181A281B38189839A83AB83F5
:10186000BC8384819581A681B7818D839E83AF835C
:10187000B88780859185A285B38589879A87AB874C
:10188000BC8784859585A685B7858D879E87AF871C
:10189000B88BEEE6F2E080819181A281B381898BE1
:1018A0009A8BAB8BBC8B84819581A681B7818D8B04
:1018B0009E8BAF8BB88F80859185A285B385898FEC
:1018C0009A8FAB8FBC8F84859585A685B7858D8FC4
:1018D0009E8FAF8FB8A340E250E068E070E0CE0189
:1018E00001960E94092AE2E5F2E080819181A281BD
:1018F000B38189839A83AB83BC8384819581A681DC
:10190000B7818D839E83AF83B88780859185A285BB
:10191000B38589879A87AB87BC8784859585A6859B
:10192000B7858D879E87AF87B88BE6E3F2E080812D
:101930009181A281B381898B9A8BAB8BBC8B848183
:101940009581A681B7818D8B9E8BAF8BB88F80855B
:101950009185A285B385898F9A8FAB8FBC8F848543
:101960009585A685B7858D8F9E8FAF8FB8A3EAE149
:10197000F2E080819181A281B38189A39AA3ABA374
:10198000BCA384819581A681B7818DA39EA3AFA3BB
:10199000B8A780859185A285B38589A79AA7ABA7AB
:1019A000BCA784859585A685B7858DA79EA7AFA77B
:1019B000B8AB40E350E068E270E0CE0101960E94CF
:1019C000092A80910E0290910F02A0911002B0910D
:1019D000110289839A83AB83BC8380910A02909120
:1019E0000B02A0910C02B0910D028D839E83AF83F8
:1019F000B8878091060290910702A0910802B091E9
:101A0000090289879A87AB87BC87809116029091DB
:101A10001702A0911802B09119028D879E87AF8797
:101A2000B88B8091120290911302A0911402B09190
:101A30001502898B9A8BAB8BBC8B809102029091A3
:101A40000302A0910402B09105028D8B9E8BAF8B97
:101A5000B88F48E150E068E570E0CE0101960E9441
:101A6000092AC05CDF4F0FB6F894DEBF0FBECDBFB2
:101A7000DF91CF910895CF93DF93CDB7DEB72C9749
:101A80000FB6F894DEBF0FBECDBF4CE050E060E073
:101A900071E0CE0101960E94F12989819A81AB8182
:101AA000BC818093B7029093B802A093B902B0931F
:101AB000BA028D819E81AF81B8858093B3029093E5
:101AC000B402A093B502B093B60289859A85AB851E
:101AD000BC858093AF029093B002A093B102B09303
:101AE000B2022C960FB6F894DEBF0FBECDBFDF91C9
:101AF000CF9108958AE892E00E9469188EE692E0FC
:101B00000E94691882E592E00E94691886E392E0DB
:101B10000E9469188AE192E00C946918FB018823FD
:101B200039F0813009F4BCC0823009F462C00895F4
:101B300080819181A281B38180938A0290938B02EC
:101B4000A0938C02B0938D0284819581A681B78188
:101B500080938E0290938F02A0939002B093910293
:101B600080859185A285B38580939202909393029C
:101B7000A0939402B093950284859585A685B78538
:101B80008093960290939702A0939802B093990243
:101B900080899189A289B38980936E0290936F02A4
:101BA000A0937002B093710284899589A689B78940
:101BB0008093720290937302A0937402B0937502A3
:101BC000808D918DA28DB38D809376029093770254
:101BD000A0937802B0937902848D958DA68DB78DF0
:101BE00080937A0290937B02A0937C02B0937D0253
:101BF000089580819181A281B38180930E02909398
:101C00000F02A0931002B093110284819581A681E6
:101C1000B78180930A0290930B02A0930C02B093B9
:101C20000D0280859185A285B385809306029093ED
:101C30000702A0930802B093090284859585A685C2
:101C4000B7858093160290931702A0931802B09361
:101C5000190280899189A289B38980931202909395
:101C60001302A0931402B093150224893589468982
:101C70005789209302023093030240930402509349
:101C8000050260E070E080E89FE30E948325609396
:101C9000FE017093FF01809300029093010208956A
:101CA00080819181A281B3818093520290935302EB
:101CB000A0935402B093550284819581A681B78187
:101CC0008093560290935702A0935802B093590202
:101CD00080859185A285B38580935A0290935B029B
:101CE000A0935C02B0935D0284859585A685B78537
:101CF00080935E0290935F02A0936002B0936102B2
:101D000080899189A289B3898093360290933702A2
:101D1000A0933802B093390284899589A689B7893E
:101D200080933A0290933B02A0933C02B0933D0211
:101D3000808D918DA28DB38D80933E0290933F0252
:101D4000A0934002B0934102848D958DA68DB78DEE
:101D50008093420290934302A0934402B0934502C1
:101D600080A191A1A2A1B3A180931A0290931B021A
:101D7000A0931C02B0931D0284A195A1A6A1B7A1B6
:101D800080931E0290931F02A0932002B093210221
:101D900080A591A5A2A5B3A58093220290932302CA
:101DA000A0932402B093250284A595A5A6A5B7A566
:101DB0008093260290932702A0932802B0932902D1
:101DC0000895CF93DF93FB01882361F0813009F4FC
:101DD0006CC0823009F4FCC0833009F442C1DF9149
:101DE000CF91089580918A0290918B02A0918C02EC
:101DF000B0918D0280839183A283B38380918E0200
:101E000090918F02A0919002B0919102848395836A
:101E1000A683B7838091920290919302A09194023D
:101E2000B091950280879187A287B38780919602AF
:101E300090919702A0919802B0919902848795871A
:101E4000A687B78780916E0290916F02A091700271
:101E5000B0917102808B918BA28BB38B80917202B7
:101E600090917302A0917402B0917502848B958B4E
:101E7000A68BB78B8091760290917702A091780221
:101E8000B0917902808F918FA28FB38F80917A0267
:101E900090917B02A0917C02B0917D02848F958FFE
:101EA000A68FB78FDF91CF910895809152029091C4
:101EB0005302A0915402B091550280839183A28372
:101EC000B3838091560290915702A0915802B0912D
:101ED000590284839583A683B78380915A02909197
:101EE0005B02A0915C02B0915D0280879187A2871E
:101EF000B38780915E0290915F02A0916002B091E1
:101F0000610284879587A687B78780913602909172
:101F10003702A0913802B0913902808B918BA28B4D
:101F2000B38B80913A0290913B02A0913C02B09118
:101F30003D02848B958BA68BB78B80913E0290914E
:101F40003F02A0914002B0914102808F918FA28FF9
:101F5000B38F8091420290914302A0914402B091CC
:101F60004502848F958FA68FB78F80911A0290912A
:101F70001B02A0911C02B0911D0280A391A3A2A3F9
:101F8000B3A380911E0290911F02A0912002B091F4
:101F9000210284A395A3A6A3B7A3809122029091C6
:101FA0002302A0912402B091250280A791A7A2A7A5
:101FB000B3A78091260290912702A0912802B091A8
:101FC000290284A795A7A6A7B7A7DF91CF91089567
:101FD00080910E0290910F02A0911002B091110217
:101FE00080839183A283B38380910A0290910B0234
:101FF000A0910C02B0910D0284839583A683B783D0
:102000008091060290910702A0910802B091090206
:1020100080879187A287B3878091160290911702DB
:10202000A0911802B091190284879587A687B78777
:102030008091120290911302A0911402B0911502A6
:10204000808B918BA28BB38B8091020290910302C3
:10205000A0910402B0910502848B958BA68BB78B5F
:10206000BECEEB018091E302808320911602309175
:10207000170240911802509119026091DD0270918F
:10208000DE028091DF029091E0020E948425698344
:102090007A838B839C8320911202309113024091AA
:1020A0001402509115026091D9027091DA02809168
:1020B000DB029091DC020E9484256D837E838F83F6
:1020C00098870E94C505A0E0B0E089879A87AB8712
:1020D000BC878091E1029091E2029E878D877FCE3E
:1020E00020E042E06AE083EF92E00E94B21884EEC2
:1020F00092E00E94F91663E08BEB92E00E94CA0521
:102100008AE892E00E94A0178EE692E00E94A01753
:1021100082E592E00E94A01786E392E00E94A01759
:102120008AE192E00C94A017BF92CF92DF92EF92D7
:10213000FF920F931F93CF93DF9300D000D0CDB7C2
:10214000DEB72091CA023091CB02820F931F9C010F
:102150001CE0522F432F2091C8023091C90209C0C0
:10216000885E93402F5F3F4F582F492F2233310510
:10217000D0F4883E63E0960798F75093CA024093E4
:10218000CB023093C9022093C8020F900F900F909A
:102190000F90DF91CF911F910F91FF90EF90DF9003
:1021A000CF90BF9008951092CB021092CA02109265
:1021B000C9021092C8022091160230911702409174
:1021C0001802509119026091DD027091DE02809137
:1021D000DF029091E0020E9484256B017C0120E0E7
:1021E00030E04EEF52EC0E94622687FD89C020E06D
:1021F00030E04EEF52E4C701B6010E94E8271816FE
:102200000CF484C020E030E04EEF52E4C701B60188
:102210000E9484250E94E026B62E20911202309161
:10222000130240911402509115026091D9027091ED
:10223000DA028091DB029091DC020E9484256B011E
:102240007C0120E030E04EEF52EC0E94622687FDD8
:102250005BC020E030E04EEF52E4C701B6010E94BF
:10226000E82718160CF457C020E030E04EEF52E497
:10227000C701B6010E9484250E94E026062FC09067
:10228000CD02D090CE02E090CF02F090D00220E0BC
:1022900030E04EEF52ECC701B6010E94622687FD86
:1022A00031C020E030E04EEF52E4C701B6010E9499
:1022B000E827181674F120E030E04EEF52E4C70131
:1022C000B6010E9484250E94E0261983BA820B83FE
:1022D0006C8383EF92E00E94332500E024E0AE019E
:1022E0004F5F5F4F6BE283EF92E00E942E1D81E013
:1022F0000E94FE052091CA023091CB02C90129CF6C
:10230000B12C8BCF60E0E1CF00E0B9CF8EEFB82EDB
:1023100084CF6EEFDACF0EEFB2CFCF93DF93CDB78E
:10232000DEB7C054D1090FB6F894DEBF0FBECDBFE3
:102330000E94FD030E9474130E94E50581E00E9443
:10234000E8052FE789EA93E0215080409040E1F7CB
:1023500000C0000080E090E00E94012A8093E30228
:102360008F3F09F4BEC10E94EF0A0E943B0D0E94FC
:102370007A0D0E9420052DE24CE26BE583EF92E09E
:102380000E94522361E083EF92E00E94441A6FE1C1
:1023900083EF92E00E94231981E00E94E80560E04B
:1023A00084E690E00E9412162FE789EA93E021501C
:1023B00080409040E1F700C0000084EE92E00E946F
:1023C000FD1681E00E94E805FF24F3941DE018C08B
:1023D0008091E1029091E2020E941C068091E1024C
:1023E0009091E2022091CC0221113EC00E943A0558
:1023F0000E94E503681979097093E2026093E10293
:102400000E94E5034B015C0183EF92E00E943325BB
:102410008823F1F280910A0330910B0390910C0311
:102420002091E302921739F19F3F29F1863081F61E
:10243000332371F2ECE0F3E080E09081291739F06A
:1024400035968B5F831720F690812913F9CF818110
:1024500080930E0182818093AE02838180930F016D
:10246000848180931001B4CF0E9494108091E10286
:102470009091E202BBCF8630D9F2853051F1909134
:10248000AE029A3008F0A4CF813009F465C08230E2
:1024900009F4F2C0833009F470C0843009F44AC0F2
:1024A000893009F4F2C08A3009F4FFC08B3009F09A
:1024B0008FCF83EF92E00E94C118882339F040E06B
:1024C00065E271E083EF92E00E94821E1092CC02DE
:1024D0007FCF80910D0380930E0160910E03809158
:1024E0000F0380930F0180911003809310016A30D5
:1024F00098F4412C512C320160910D0170E080E084
:1025000090E00E941127A30192010E94F5270E94EA
:10251000E0266093AE025CCF70E080E090E00E9425
:102520000F2720E030E04FE753E40E9467262B019D
:102530003C01E2CF80910D03882309F473C0813000
:1025400009F4C3C0823009F4C4C0833009F4C5C0A3
:102550008AE00E94FE053CCF83EF92E00E94C11802
:10256000882339F040E065E271E083EF92E00E9459
:10257000821E82E00E94FE052BCF83EF92E00E9434
:10258000C118882339F040E065E271E083EF92E002
:102590000E94821E82E00E94FE0580910D036EE083
:1025A00073E00E948E0D0E941C0C8AE892E00E944B
:1025B00069188EE692E00E94691882E592E00E9416
:1025C000691886E392E00E9469188AE192E00E940D
:1025D00069181092DD021092DE021092DF02109252
:1025E000E0021092D9021092DA021092DB021092ED
:1025F000DC021092D5021092D6021092D7021092ED
:10260000D8021092D1021092D2021092D3021092EC
:10261000D4021092CD021092CE021092CF021092EC
:10262000D002D6CE54E2752E92E219839A832B8380
:102630008C83BE016B5F7F4F0E94E10E8FE19EE4B1
:102640000197F1F700C0000083EF92E00E9433256C
:1026500083EF92E00E94E91F8823D1F300E0272D49
:10266000AE014F5F5F4F6BE283EF92E00E942E1D41
:1026700082E00E94FE05ACCE60910D036093E30200
:1026800080E090E00E94132A74CF83EF92E00E94D2
:10269000C118882339F040E065E271E083EF92E0F1
:1026A0000E94821E0E94D90993CE83EF92E00E947D
:1026B000C118882339F040E065E271E083EF92E0D1
:1026C0000E94821EF092CC0283CE44E3742E92E3E9
:1026D000ACCF3CE1732E9AE1A8CF93E1792E91E142
:1026E000A4CF1092E3023FCE17BC5E98569A84B5F1
:1026F000816084BD84B5826084BD85B5877F85BDDA
:1027000085B58B7F85BD85B58D7F85BD85B58160A0
:1027100085BD5E9884B5806884BD84B58F7B84BD9B
:1027200018BC5D98559A5D9884B5806284BD84B567
:102730008F7E84BD1092B4005B98539AA1EBB0E0F9
:102740008C91877F8C93E0EBF0E0808182608083C6
:102750008081816080838C918B7F8C938C918D7F25
:102760008C938C9181608C938BB188708BB98081B4
:102770008062808380818F7E808310928900109296
:1027800088002998219AE1E8F0E080818F7E80839B
:10279000808188608083A0E8B0E08C918D7F8C93ED
:1027A0008C9181608C9380818160808380818D7F1A
:1027B000808380818B7F808329988C9180688C9323
:1027C0008C918F7B8C9308958F3F910519F014F0B5
:1027D0008FEF90E097FD02C087BD089580E090E004
:1027E00087BD08958F3F910519F014F08FEF90E0A9
:1027F00097FD02C088BD089580E090E088BD0895EF
:102800008F3F910519F014F08FEF90E097FD03C012
:102810008093B400089580E090E08093B400089520
:102820008F3F910519F014F08FEF90E097FD05C0F0
:102830009093890080938800089580E090E09093C1
:102840008900809388000895DA01F3E054EBE82FC3
:10285000EE7F74E85093BC002BE430E09091BC0014
:1028600097FD05C021503109C8F780E10895232B59
:10287000E1F39091B900987F983011F09031F1F424
:10288000E093BB007093BC002BE430E09091BC005F
:1028900097FD05C021503109C8F782E10895232B27
:1028A000E1F39091B900987F903221F0983141F096
:1028B00083E10895F15071F683E1089581E108956F
:1028C0006093BB0094E89093BC002BE430E09091BF
:1028D000BC0097FD05C021503109C8F784E1089577
:1028E000232BE1F39091B900987F983211F085E1A4
:1028F000089543E064EB816054E86093BC002BE4EE
:1029000030E09091BC0097FD05C021503109C8F717
:1029100086E10895232BE1F39091B900987F9830D8
:1029200011F09031E9F48093BB005093BC002BE48C
:1029300030E09091BC0097FD05C021503109C8F7E7
:1029400088E10895232BE1F39091B900987F9834A2
:1029500021F0903439F089E10895415071F6FBCFB0
:1029600087E1089584E88093BC008BE490E0209197
:10297000BC0027FD04C00197D0F78AE10895892B98
:10298000E1F39091B900892F887F907F903509F00D
:1029900008958091BB008C9384E98093BC008CE403
:1029A00090E02091BC0027FD02C00197D1F780E0A4
:1029B0000895EF92FF920F931F93CF93DF931F928F
:1029C000CDB7DEB7162FE42EF22E082F000FAE0182
:1029D0004F5F5F4F802F0E94241481E090E001C080
:1029E000880FEA94EAF7F11073C0382F3095898187
:1029F0003823398363E044EB54E84093BC008BE414
:102A000090E02091BC0027FD30C00197D0F71093D3
:102A1000BB0084E88093BC008BE490E02091BC0074
:102A200027FD50C00197D0F73093BB0084E8809316
:102A3000BC008BE490E02091BC0027FD3DC00197D5
:102A4000D0F784E98093BC008CE490E02091BC0036
:102A500027FD02C00197D1F781E00F90DF91CF9160
:102A60001F910F91FF90EF900895892B81F2809133
:102A7000B900887F883011F0803149F60093BB009F
:102A80005093BC008BE490E02091BC0027FD07C070
:102A9000019708F4BCCF2091BC0027FFF9CF892B08
:102AA00009F4B5CF8091B900887F803209F0AFCFAB
:102AB000615009F0A2CFABCF892B09F4C2CF80912E
:102AC000B900BFCF892B09F4AFCF8091B900ACCF4B
:102AD0003981382B8ECFDF92EF92FF920F931F93A5
:102AE000CF93DF931F92CDB7DEB7162FE42ED22EF1
:102AF000F82EFF0CAE014F5F5F4F8F2D0E94241404
:102B00002E2D30E02D1931092F5F3F4F81E090E0ED
:102B100002C0880F991FDA94E2F70197022E01C0D4
:102B2000880F0A94EAF7402F50E0BA0102C0660FFE
:102B3000771F2A95E2F79B01382F30959981392329
:102B40008223382B398363E044EB54E84093BC0084
:102B50008BE490E02091BC0027FD31C00197D0F7B5
:102B60001093BB0084E88093BC008BE490E020913C
:102B7000BC0027FD51C00197D0F73093BB0084E81B
:102B80008093BC008BE490E02091BC0027FD3EC008
:102B90000197D0F784E98093BC008CE490E0209109
:102BA000BC0027FD02C00197D1F781E00F90DF91B3
:102BB000CF911F910F91FF90EF90DF900895892B97
:102BC00079F28091B900887F883011F0803141F628
:102BD000F092BB005093BC008BE490E02091BC00CD
:102BE00027FD07C0019708F4BBCF2091BC0027FF49
:102BF000F9CF892B09F4B4CF8091B900887F803256
:102C000009F0AECF615009F0A1CFAACF892B09F40A
:102C1000C1CF8091B900BECF892B09F4AECF80918E
:102C2000B900ABCF1092BC0088B161110BC08F7C92
:102C300088B91092B90081E28093B80084E0809353
:102C4000BC000895806388B9F4CFB3E034EBA82FBB
:102C5000AE7F74E83093BC00EBE4F0E09091BC00F0
:102C600097FD04C03197D0F780E10895EF2BE1F391
:102C70009091B900987F983011F09031E9F4A093C9
:102C8000BB007093BC00EBE4F0E09091BC0097FDBA
:102C900004C03197D0F782E10895EF2BE1F39091D2
:102CA000B900987F903221F0983141F083E1089586
:102CB000B15081F683E1089581E108956093BB00EE
:102CC00094E89093BC006BE470E09091BC0097FD99
:102CD00005C061507109C8F784E10895672BE1F3DD
:102CE0009091B900987F983211F085E1089533E012
:102CF000F4EB8160E4E8F093BC006BE470E0909149
:102D0000BC0097FD05C061507109C8F786E10895C0
:102D1000672BE1F39091B900987F983011F09031D2
:102D2000E9F48093BB00E093BC006BE470E0909109
:102D3000BC0097FD05C061507109C8F788E108958E
:102D4000672BE1F39091B900987F983421F090348B
:102D500039F089E10895315071F6FBCF87E108958C
:102D6000222361F1622F70E061507109FA0140E0A5
:102D700050E0A4EC34E846175707B1F0A093BC002C
:102D80008BE490E0B091BC00B7FD04C00197D0F790
:102D90008AE10895892BE1F38091B900982F907F03
:102DA000903529F0887F08953093BC00E9CF809159
:102DB000BB0081934F5F5F4F4217E8F284E9809335
:102DC000BC008CE490E02091BC0027FD02C001977C
:102DD000D1F780E00895CF93C42FA9012C2F880F3D
:102DE0000E942516811103C08C2FCF9108958FEF7B
:102DF000FCCF28E6FC01208308950F93CF93DF9347
:102E0000EC0101E023E042E06BE688810E946B1553
:102E100000E022E044E06BE188810E946B1522E033
:102E200044E06CE188810E946B1520E046E06BE68F
:102E300088810E94D91406E023E042E06AE188819B
:102E40000E946B15DF91CF910F910895AF92BF92C1
:102E5000CF92DF92EF92FF920F931F93CF93DF9366
:102E6000EC015B016A0179010091110110911201DD
:102E70009C012F5F3F4F46E06BE388810E94EB1679
:102E800089819A81982789279827F50191838083E2
:102E90008B819C81982789279827F60191838083CD
:102EA0008D819E81982789279827F70191838083B8
:102EB000DF91CF911F910F91FF90EF90DF90CF9016
:102EC000BF90AF900895AF92BF92CF92DF92EF92F2
:102ED000FF920F931F93CF93DF93EC015B016A0185
:102EE000790100911101109112019C012F5F3F4F58
:102EF00046E063E488810E94EB1689819A819827D5
:102F000089279827F501918380838B819C8198275D
:102F100089279827F601918380838D819E81982748
:102F200089279827F70191838083DF91CF911F91A3
:102F30000F91FF90EF90DF90CF90BF90AF900895EA
:102F4000FC01108211821282138214821582168271
:102F500017821086118612861386108A118A128AA9
:102F6000138A148A158A168A178A08952F923F9217
:102F70004F925F926F927F928F929F92AF92BF9289
:102F8000CF92DF92EF92FF920F931F93CF93DF9335
:102F9000EC014A015B0128013901A9019801C50131
:102FA000B4010E94F527288D398D4A8D5B8D0E94D2
:102FB0008425162F072F382E292E862F902FA32DEC
:102FC000B22D888F998FAA8FBB8FCC84DD84EE843D
:102FD000FF8420E030E0A901C701B6010E9462260B
:102FE000882341F1A7019601612F702F832D922D27
:102FF0000E94E827181644F4C88ED98EEA8EFB8EFC
:103000001C2D0D2D3E2C2F2CF7FAF094F7F8F09490
:10301000212F302F432D522DC701B6010E94E827E2
:10302000181644F4C88ED98EEA8EFB8E1C2D0D2DF9
:103030003E2C2F2C288139814A815B81C501B40146
:103040000E94F5276B017C012C813D814E815F81BF
:10305000612F702F832D922D0E94F5279B01AC01CB
:10306000C701B6010E9484256B017C01288939893A
:103070004A895B89C501B4010E948325A30192019D
:103080000E946726288539854A855B850E94F52739
:103090009B01AC01C701B6010E9484256C8B7D8B1E
:1030A0008E8B9F8B888A998AAA8ABB8ADF91CF915F
:1030B0001F910F91FF90EF90DF90CF90BF90AF9056
:1030C0009F908F907F906F905F904F903F902F9048
:1030D0000895FC01108A118A128A138A148A158AAB
:1030E000168A178A108E118E128E138E08950895E7
:1030F00081E0809300038091FE029091FF02DC0149
:10310000ED91FC910484F585E02D09951092000362
:103110000895FC01F8948CB581878DB582878CB5B4
:10312000837F8CBD8CB58F7D8CBD8CB58C7F8CBD29
:103130008DB58E7F8DBD60E082810C947904CF9334
:10314000DF93EC0161E08A810E94790489858CBD5E
:103150008A858DBD80910003811101C07894DF9133
:10316000CF910895FC018AE291E09183808362838C
:10317000438381E08093090316828FE18783208750
:10318000089580910403882331F09091060381E033
:103190009F3F09F0089580E008951F93CF93DF9338
:1031A000EC01162FE881F981008CF18DE02D88E18A
:1031B000E938F80709F044C0F8948CB589878DB5D3
:1031C0008A878CB5837F8CBD8CB58F7D8CBD8CB58B
:1031D0008C7F8CBD8DB58E7F8DBD60E08A810E9415
:1031E00079041F771EBD00000DB407FEFDCF8EB51C
:1031F0001EBC00000DB407FEFDCF1EB5E881F981AD
:10320000028CF38DE02D88E1EF39F80791F461E04D
:103210008A810E94790489858CBD8A858DBD8091C3
:103220000003811101C07894812FDF91CF911F910C
:103230000895CE010995812FDF91CF911F910895B7
:10324000CE010995CECF1F93CF93DF93EC0160326F
:1032500008F06FE16F838885882311F066956F838E
:1032600061E1CE010E94CD18807E9F81182F192B1D
:10327000E881F981008CF18DE02D88E1E938F807CB
:1032800009F041C0F8948CB589878DB58A878CB5D3
:10329000837F8CBD8CB58F7D8CBD8CB58C7F8CBDB8
:1032A0008DB58E7F8DBD60E08A810E94790481E9B1
:1032B0008EBD00000DB407FEFDCF8EB51EBD000013
:1032C0000DB407FEFDCF8EB5E881F981028CF38D38
:1032D000E02D88E1EF39F80789F461E08A810E94E6
:1032E000790489858CBD8A858DBD8091000381110B
:1032F00001C07894DF91CF911F910895CE01DF91A5
:10330000CF911F910994CE010995D1CF0F931F93AF
:10331000CF93DF93EC01162F042FE881F981008C05
:10332000F18DE02D88E1E938F80709F043C0F89401
:103330008CB589878DB58A878CB5837F8CBD8CB51C
:103340008F7D8CBD8CB58C7F8CBD8DB58E7F8DBDFA
:1033500060E08A810E94790410681EBD00000DB4EF
:1033600007FEFDCF8EB50EBD00000DB407FEFDCFEC
:103370008EB5E881F981028CF38DE02D88E1EF397B
:10338000F80791F461E08A810E94790489858CBDF7
:103390008A858DBD80910003811101C07894DF91F1
:1033A000CF911F910F910895CE01DF91CF911F9181
:1033B0000F910994CE010995CFCF0F931F93CF930F
:1033C000DF93EC01162F61114EC005E5E881F9810C
:1033D000008CF18DE02D88E1E938F80709F051C043
:1033E000F8948CB589878DB58A878CB5837F8CBD21
:1033F0008CB58F7D8CBD8CB58C7F8CBD8DB58E7F53
:103400008DBD60E08A810E9479048AED8EBD000046
:103410000DB407FEFDCF8EB50EBD00000DB407FE46
:10342000FDCF8EB5E881F981028CF38DE02D88E126
:10343000EF39F80719F561E08A810E9479048985DE
:103440008CBD8A858DBD80910003811101C0789467
:1034500011110BC040E76CE5CE01DF91CF911F91B8
:103460000F910C9486190DE5B1CF4CE76CE5CE01B8
:10347000DF91CF911F910F910C948619CE01099580
:10348000E7CFCE010995C1CF1F93CF93DF93EC0116
:10349000688761114FC01AE1E881F981008CF18DD4
:1034A000E02D88E1E938F80709F057C0F8948CB5A9
:1034B00089878DB58A878CB5837F8CBD8CB58F7DD0
:1034C0008CBD8CB58C7F8CBD8DB58E7F8DBD60E045
:1034D0008A810E94790483E98EBD00000DB407FE45
:1034E000FDCF8EB51EBD00000DB407FEFDCF8EB51D
:1034F000E881F981028CF38DE02D88E1EF39F8073E
:1035000049F561E08A810E94790489858CBD8A85AC
:103510008DBD80910003811101C07894888581114F
:103520000BC04F81406861E1CE01DF91CF911F91C7
:103530000C9486191FE0B0CF61E1CE010E94CD1836
:103540008F71482F406661E1CE01DF91CF911F91CD
:103550000C948619CE010995E1CFCE010995BBCF18
:103560000F931F93CF938C0190910903961709F144
:10357000C62F623009F46FC000F5662309F460C0FD
:103580006130B9F461E0C8010E94CD18837E482FF4
:10359000446061E0C8010E9486199091090391116D
:1035A00025C067E2C8010E94CD1887FF1BC0C093E9
:1035B0000903CF911F910F9108956330E9F06430B2
:1035C000C1F761E0C8010E94CD18837E482F4C608E
:1035D00061E0C8010E948619D80118968C9118974D
:1035E000811145C0909109039923D9F2C093090331
:1035F000CF911F910F91089561E0C8010E94CD18ED
:10360000837E482F406161E0C8010E948619F8015D
:103610008085882339F30190F081E02D0688F789B1
:10362000E02D89E1ED3DF807B1F545E56AE5C80112
:103630000E94861940E76CE5C8010E948619D2CF26
:1036400061E0C8010E94CD18482F437E61E0C801A7
:103650000E948619C7CF61E0C8010E94CD18837E01
:10366000482F486061E0C8010E948619BBCFED91E8
:10367000FC910688F789E02DB9E1ED3DFB0779F46F
:103680004DE56AE5C8010E9486194CE76CE5C80162
:103690000E948619A7CF60E0C8010995A3CF61E019
:1036A000C80109959FCF2F923F924F925F926F92E0
:1036B0007F928F929F92AF92BF92CF92DF92EF92C2
:1036C000FF920F931F93CF93DF93EC01162F5A01B4
:1036D000822E302ECE2CD12CE12CF12C212C87E205
:1036E000982EE881F9810190F081E02D01E0282DEC
:1036F000A501612FCE0109950E94F1032B013C0128
:1037000003C083E0809309030E94F103DC01CB0135
:1037100084199509A609B7098C159D05AE05BF0545
:1037200008F01EC1E881F9810480F581E02D85E271
:10373000E333F80709F0EEC0F89480910903833071
:1037400009F49CC080910903833009F495C0E88195
:10375000F9810288F389E02D8CE1EE3BF80709F04E
:10376000E4C010920803109207031092060310920F
:1037700005031092040310920303109202031092A7
:10378000010368E2CE010E94CD1882FF0AC06DE3FA
:10379000CE010E94CD18482F44606DE3CE010E94F7
:1037A000861940E465E2CE010E948619E881F9811C
:1037B0000488F589E02D8AE1E03BF80709F0B8C0FC
:1037C00080910903833009F49FCF61E0CE010E940C
:1037D000CD18837E482F406161E0CE010E9486199A
:1037E00088858111A9C08091090381118ACFE88160
:1037F000F981008CF18DE02D88E1E938F80709F0B6
:1038000091C0F8948CB589878DB58A878CB5837FF4
:103810008CBD8CB58F7D8CBD8CB58C7F8CBD8DB5F2
:103820008E7F8DBD60E08A810E9479049EBC00007D
:103830000DB407FEFDCF8EB51EBC00000DB407FE13
:10384000FDCF0EB5E881F981028CF38DE02D88E182
:10385000EF39F80709F063C061E08A810E947904BA
:1038600089858CBD8A858DBD80910003811101C041
:10387000789407FFB8CF45CF789446CF8091050361
:10388000882309F45FCFE881F9810488F589E02D68
:103890008AE1E03BF80709F069C0809109038130B3
:1038A00091F061E0CE010E94CD18837E482F4460E4
:1038B00061E0CE010E94861980910903882319F1E5
:1038C00081E08093090380910703181719F01F3FC7
:1038D00009F01ACF80910303882309F415CF81E002
:1038E000DF91CF911F910F91FF90EF90DF90CF90DC
:1038F000BF90AF909F908F907F906F905F904F9010
:103900003F902F90089567E2CE010E94CD1887FF67
:10391000D3CFD6CFCE0109958111D5CFF5CECE012B
:103920000995A7CFCE01099581CFCE010995ECCE9F
:1039300063E0CE010995E8CEE881F9810688F78930
:10394000E02D89E1ED3DF807A9F445E56AE5CE01F2
:103950000E94861940E76CE5CE010E94861943CF8C
:103960002394321408F0BDCE80E0BACF61E0CE01DE
:103970000995A9CF60E0CE01099535CFCF93DF93AC
:10398000EC011092080310920703109206031092A4
:103990000503109204031092030310920203109285
:1039A000010368E20E94CD1882FF0AC06DE3CE01D8
:1039B0000E94CD18482F44606DE3CE010E94861905
:1039C00040E465E2CE010E948619E881F98104880D
:1039D000F589E02D8AE1E03BF80719F580910903AC
:1039E0008330A9F061E0CE010E94CD18837E482F7C
:1039F000406161E0CE010E9486198885811116C060
:103A000080910903882331F083E080930903DF91DB
:103A1000CF91089567E2CE010E94CD1887FFF0CFC5
:103A2000F3CF63E0CE01DF91CF910994E881F98172
:103A30000688F789E02D89E1ED3DF80759F445E561
:103A40006AE5CE010E94861940E76CE5CE010E942E
:103A50008619D6CF60E0CE010995D2CF8F929F9282
:103A6000AF92BF92CF92DF92EF92FF920F931F938C
:103A7000CF93DF93EC01162F6A01F22E6DE30E94C3
:103A8000CD18482F44606DE3CE010E9486190E9434
:103A9000F1034B015C0180910903833009F493C069
:103AA0000E94F103DC01CB0188199909AA09BB091D
:103AB000883E9340A105B105C8F0A881B981509610
:103AC000ED91FC915197E12C2F2DA601612FCE0194
:103AD0000995DF91CF911F910F91FF90EF90DF90AB
:103AE000CF90BF90AF909F908F900895E881F9811B
:103AF0000480F581E02D85E2E333F80709F0D6C0B4
:103B0000F89480910903833009F4A2C080910903DD
:103B1000833009F49BC0E881F9810288F389E02DA4
:103B20002CE1EE3BF20709F0CAC010920803109294
:103B300007031092060310920503109204031092DB
:103B40000303109202031092010368E2CE010E9467
:103B5000CD1882FF0AC06DE3CE010E94CD18482F18
:103B600044606DE3CE010E94861940E465E2CE0117
:103B70000E948619E881F9810488F589E02D8AE19F
:103B8000E03BF80709F09EC080910903833009F4F7
:103B900082CF61E0CE010E94CD18837E482F406124
:103BA00061E0CE010E948619888581118FC08091C5
:103BB00009038823E9F183E08093090380910903D5
:103BC000833009F06DCF80910503811169CF64E2E4
:103BD000CE010E94CD1890E09195819591098C3489
:103BE0009F4F0CF05DCFA881B9815496ED91FC9167
:103BF00055978AE1E03BF80709F05BC08091090323
:103C0000813009F45CCF61E0CE010E94CD18837E43
:103C1000482F446061E0CE010E948619809109031B
:103C2000882369F081E080930903A881B98147CF97
:103C300067E2CE010E94CD1887FFB9CFBCCF67E203
:103C4000CE010E94CD1887FFE9CFECCF789423CF27
:103C500080910503882309F459CFE881F98104880C
:103C6000F589E02D8AE1E03BF80709F043C0809137
:103C70000903813009F40FCF61E0CE010E94CD1815
:103C8000837E482F446061E0CE010E9486198091B6
:103C90000903882321F081E080930903FCCE67E2C9
:103CA000CE010E94CD1887FFF2CFF5CFCE01099546
:103CB000F2CE61E0CE010995A881B98100CFCE0195
:103CC0000995E9CE63E0CE010995E5CEE881F98159
:103CD0000688F789E02D29E1ED3DF20779F445E505
:103CE0006AE5CE010E94861940E76CE5CE010E948C
:103CF00086195DCF61E0CE010995CDCE60E0CE01A1
:103D0000099555CF4F925F926F927F92AF92BF927B
:103D1000CF92DF92EF92FF920F931F93CF93DF9397
:103D2000EC015B01F42E1092040310910703C09084
:103D30000103D09002036DE30E94CD18482F446028
:103D40006DE3CE010E9486190E94F1032B013C0114
:103D500080910903833009F49DC00E94F103DC01C6
:103D6000CB0184199509A609B709883E9340A1059E
:103D7000B10518F1A881B981109307035096ED9110
:103D8000FC915197EE24E39400E02F2DA501612FC3
:103D9000CE010995D0920203C0920103DF91CF9129
:103DA0001F910F91FF90EF90DF90CF90BF90AF9059
:103DB0007F906F905F904F900895E881F981048023
:103DC000F581E02D85E2E333F80709F0D6C0F894D9
:103DD00080910903833009F4A2C0809109038330E4
:103DE00009F49BC0E881F9810288F389E02D2CE178
:103DF000EE3BF20709F0CAC01092080310920703C5
:103E0000109206031092050310920403109203030C
:103E1000109202031092010368E2CE010E94CD18B5
:103E200082FF0AC06DE3CE010E94CD18482F446086
:103E30006DE3CE010E94861940E465E2CE010E9446
:103E40008619E881F9810488F589E02D8AE1E03B53
:103E5000F80709F09EC080910903833009F478CFF8
:103E600061E0CE010E94CD18837E482F406161E061
:103E7000CE010E948619888581118FC08091090327
:103E80008823E9F183E0809309038091090383305B
:103E900009F063CF8091050381115FCF64E2CE0109
:103EA0000E94CD1890E09195819591098C349F4F97
:103EB0000CF053CFA881B9815496ED91FC915597A0
:103EC0008AE1E03BF80709F05BC08091090381308B
:103ED00009F452CF61E0CE010E94CD18837E482FB5
:103EE000446061E0CE010E94861980910903882315
:103EF00069F081E080930903A881B9813DCF67E231
:103F0000CE010E94CD1887FFB9CFBCCF67E2CE01AA
:103F10000E94CD1887FFE9CFECCF789419CF80911C
:103F20000503882309F459CFE881F9810488F589CC
:103F3000E02D8AE1E03BF80709F043C080910903D6
:103F4000813009F405CF61E0CE010E94CD18837E57
:103F5000482F446061E0CE010E94861980910903D8
:103F6000882321F081E080930903F2CE67E2CE013D
:103F70000E94CD1887FFF2CFF5CFCE010995E8CE8C
:103F800061E0CE010995A881B981F6CECE010995EF
:103F9000DFCE63E0CE010995DBCEE881F9810688AA
:103FA000F789E02D29E1ED3DF20779F445E56AE571
:103FB000CE010E94861940E76CE5CE010E94861969
:103FC0005DCF61E0CE010995C3CE60E0CE010995D9
:103FD00055CFCF93DF93EC0190910903933021F0FB
:103FE00080E0DF91CF910895809105038111F8CF92
:103FF00064E2CE010E94CD1890E0919581959109DF
:104000008C349F4F6CF7E881F9810488F589E02DA5
:104010008AE1E03BF80701F580910903813009F15D
:1040200061E0CE010E94CD18837E482F446061E09C
:10403000CE010E94861990910903992331F081E005
:1040400080930903DF91CF91089567E2CE010E942A
:10405000CD1887FFF0CFF3CF61E0CE01099581E065
:10406000C0CF81E0BECFCF92DF92EF92FF920F934D
:104070001F93CF93DF93EC01C62EF42ED52E122F73
:10408000E881F9810488F589E02D2AE1E03BF20717
:1040900009F031C180910903813091F061E0CE01D6
:1040A0000E94CD18837E482F446061E0CE010E94BB
:1040B0008619809109038823C1F081E08093090368
:1040C00067E2CE010E94CD1887FFFACF40E065E29B
:1040D000CE010E9486191E3308F01DE3E1100CC0CA
:1040E000002309F4E8C000E408C067E2CE010E94A2
:1040F000CD1887FFDECFE1CF00E8E881F981008CA1
:10410000F18DE02D88E1E938F80709F0F1C0F89465
:104110008CB589878DB58A878CB5837F8CBD8CB52E
:104120008F7D8CBD8CB58C7F8CBD8DB58E7F8DBD0C
:1041300060E08A810E94790480E88EBD00000DB4A1
:1041400007FEFDCF8EB583E0810F8EBD00000DB45C
:1041500007FEFDCF8EB5CEBC00000DB407FEFDCF2F
:104160008EB58D818EBD00000DB407FEFDCF8EB5DE
:104170000EBD00000DB407FEFDCF8EB5112391F0EA
:10418000EF2DFD2D1150812F90E001968E0F9F1F76
:1041900021912EBD00000DB407FEFDCF2EB58E1768
:1041A0009F07B1F7E881F981028CF38DE02D28E1BA
:1041B000EF39F20709F099C061E08A810E94790421
:1041C00089858CBD8A858DBD80910003811101C0D8
:1041D0007894E881F9810488F589E02D8AE1E03B53
:1041E000F80709F07EC0809109038430B1F061E0E6
:1041F000CE010E94CD18837E482F4C6061E0CE0135
:104200000E9486198885811158C0809109038823EE
:1042100009F443C084E0809309030E94F1036B0119
:104220007C018B810E94CF04892B49F1E881F981BF
:104230000488F589E02D8AE1E03BF80709F05EC0CB
:1042400080910903813091F061E0CE010E94CD1888
:10425000837E482F446061E0CE010E9486198091E0
:104260000903882309F181E080930903DF91CF914D
:104270001F910F91FF90EF90DF90CF9008950E94D3
:10428000F103DC01CB018C199D09AE09BF09883E01
:104290009340A105B10528F2C9CF67E2CE010E9483
:1042A000CD1887FFB2CFB6CF67E2CE010E94CD18FE
:1042B00087FFD5CFD8CF00E020CFE881F9810688ED
:1042C000F789E02D29E1ED3DF20719F54DE56AE5A5
:1042D000CE010E9486194CE76CE5CE010E9486193A
:1042E00094CF64E0CE01099598CFCE01099571CFA6
:1042F000CE01099521CF61E00995E2CE61E0CE01C2
:10430000DF91CF911F910F91FF90EF90DF90CF90B1
:10431000099461E0CE01099578CF0F931F93CF9355
:10432000DF93EC0180910903833099F064E2CE01C0
:104330000E94CD1890E0919581959109959587956A
:104340009093020380930103DF91CF911F910F910E
:10435000089568E2CE010E94CD1882FFE7CFA881C0
:10436000B9815496ED91FC9155978AE1E03BF807AD
:1043700009F062C1809109038130B1F061E0CE01A2
:104380000E94CD18837E482F446061E0CE010E94D8
:10439000861907E280910903882309F474C081E03B
:1043A00080930903A881B9815896ED91FC915997A2
:1043B00088E1E938F80709F04DC1F8948CB5898790
:1043C0008DB58A878CB5837F8CBD8CB58F7D8CBD78
:1043D0008CB58C7F8CBD8DB58E7F8DBD60E08A8164
:1043E0000E9479041EBC00000DB407FEFDCF8EB5FF
:1043F0001EBC00000DB407FEFDCF8EB580930503F3
:1044000080910503833408F00FC1809105038093E8
:1044100005031EBC00000DB407FEFDCF8EB58093D2
:1044200006038E81811174C0809106039D819817C7
:1044300009F46EC0809106038F3F09F469C01092A1
:104440000503E881F981028CF38DE02D88E1EF39D5
:10445000F80709F020C161E08A810E94790489850A
:104460008CBD8A858DBD80910003811101C0789437
:10447000E881F9810288F389E02DCE01DF91CF91A7
:104480001F910F910994E881F981008CF18DE02D45
:1044900088E1E938F80709F0CCC0F8948CB5898731
:1044A0008DB58A878CB5837F8CBD8CB58F7D8CBD97
:1044B0008CB58C7F8CBD8DB58E7F8DBD60E08A8183
:1044C0000E9479040EBD00000DB407FEFDCF8EB52D
:1044D0001EBC00000DB407FEFDCF1EB5E881F981BA
:1044E000028CF38DE02D88E1EF39F80709F09EC0CA
:1044F00061E08A810E94790489858CBD8A858DBDA1
:1045000080910003811101C0789417FF43CF47CFFA
:1045100080910503833008F492CF80910503835086
:10452000809308031EBC00000DB407FEFDCF8EB5BE
:10453000809307031EBC00000DB407FEFDCF6EB5CF
:10454000862F807880930303862F807480930403E2
:10455000E881F9810684F785E02D88E1E737F807DF
:1045600009F07EC080910803882389F080E0E82F5D
:10457000F0E01EBC00000DB407FEFDCF9EB5E65F67
:10458000FC4F90838F5F90910803891780F380918F
:1045900008038D3330F4E0910803F0E0E65FFC4F50
:1045A0001082E881F981028CF38DE02D88E1EF39EA
:1045B000F80709F052C061E08A810E947904898578
:1045C0008CBD8A858DBD80910003811101C07894D6
:1045D000E881F9810488F589E02D8AE1E03BF8075C
:1045E00009F041C080910903833009F49FCE61E056
:1045F000CE010E94CD18837E482F406161E0CE013C
:104600000E9486198885811132C080910903882310
:1046100021F083E08093090389CE67E2CE010E94F6
:10462000CD1887FFF2CFF5CF82E4F1CECE01099508
:104630006CCFCE01099546CF61E0CE010995A881E6
:10464000B9815896ED91FC91599788E1E938F807BE
:1046500009F4B3CECE010995C5CECE010995B8CFE8
:10466000CE0109957FCF63E0CE0109955FCEE88149
:10467000F9810688F789E02D89E1ED3DF80771F4AD
:1046800045E56AE5CE010E94861940E76CE5CE015A
:104690000E948619BACFCE010995EACE60E0CE011C
:1046A0000995B3CF4F925F926F927F929F92AF9294
:1046B000BF92CF92DF92EF92FF920F931F93CF930F
:1046C000DF93CDB7DEB7AE970FB6F894DEBF0FBE5F
:1046D000CDBF8C01942EDC0113968C91823009F4AD
:1046E000ABC1833009F4AAC18FEFF80184838EE255
:1046F000AE014F5F5F4F6A01DA01E82F1D92EA9524
:10470000E9F791E0998334E03A8342E04B8393E008
:104710009D834E833F8340E4488735E039879A87FD
:1047200096E09B8793E39C8737E03D8798E09F87DF
:1047300099E0998B99E19B8B92E49C8B55E25D8B80
:104740004E8B46E24F8B388F38E2398F30E13A8F0B
:1047500039E23B8F3CED3C8F8D8F88E88E8F8FE266
:104760008F8F8DE288A380E389A337E33BA330E9F1
:104770003CA338E33DA39EA39CE39FA39FE898A797
:104780009DE399A792E19AA79FE69BA78CA78FEF3D
:104790008DA76F3109F44CC16B3209F451C16635F4
:1047A00009F45DC184EE8E8780EC888B2AA361E0DA
:1047B000D80112968C910E94790461E0F8018281FF
:1047C0000E9438040E9469020E94F1032B013C01FF
:1047D0004AEA6FE2C8010E9486196FE2C8010E948E
:1047E000CD188A3A61F00E94F103DC01CB018419F3
:1047F0009509A609B709C297A105B10548F30E941A
:10480000F1032B013C0145E56FE2C8010E948619C6
:104810006FE2C8010E94CD18853561F00E94F10356
:10482000DC01CB0184199509A609B709C297A10536
:10483000B10548F3BB24B39444E082E0A82E61E0C4
:10484000EE24E394F12C0FC0EB2CF12CD701AA0F2E
:10485000BB1FAC0DBD1D880F991FF601E80FF91F96
:1048600041816A2DAC90C8010E948619C701B3949A
:10487000FFEFAF12E9CFD801ED91FC910488F589E3
:10488000E02DBAE1E03BFB0709F0E5C080910903A8
:10489000813099F061E0C8010E94CD18837E482FD5
:1048A000446061E0C8010E94861980910903882351
:1048B00009F48EC081E0809309036DE3C8010E9472
:1048C000CD18482F4E7F6DE3C8010E948619D8018C
:1048D000ED91FC9111970084F185E02D18966C9173
:1048E000BAE1E434FB0709F0B3C0662309F477C0EA
:1048F0004FE063E1C8010E948619F80180858111AB
:1049000078C04781406861E1C8010E948619D801DA
:10491000ED91FC910488F589E02DBAE1E03BFB07BD
:1049200009F092C080910903813091F061E0C801E3
:104930000E94CD18837E482F446061E0C8010E9428
:104940008619809109038823E1F181E080930903AE
:104950000E94F1036B017C0167E2C8010E94CD183F
:1049600087FD0CC00E94F103DC01CB018C199D096D
:10497000AE09BF09C297A105B10570F30E94F1030A
:10498000DC01CB018C199D09AE09BF09C297A105B5
:10499000B105D8F180E0AE960FB6F894DEBF0FBE39
:1049A000CDBFDF91CF911F910F91FF90EF90DF90DE
:1049B000CF90BF90AF909F907F906F905F904F90FF
:1049C000089567E2C8010E94CD1887FFBACFBDCF16
:1049D00067E2C8010E94CD1887FF67CF6BCF4AE11D
:1049E00063E1C8010E948619F8018085882309F4D3
:1049F00088CF61E1C8010E94CD188F71482F4066B1
:104A000061E1C8010E94861982CF1092000343E041
:104A100050E068E778E1F80184810E942203109356
:104A2000FF020093FE02D80115969C9281E0B3CF5D
:104A30008EE48E8780ECB9CE80E057CE81E055CEF3
:104A40008CE68E8780E4B1CE61E0C801099580CF05
:104A5000C80109955CCF61E0C80109952ECF89EDA9
:104A60008E8780E0A2CECF93DF93EC01F894809103
:104A700009038330A1F080910903833059F0E88164
:104A8000F9810288F389E02DCE01099580E0DF915C
:104A9000CF910895789480E0DF91CF91089580912F
:104AA0000503882341F3E881F9810488F589E02D25
:104AB0008AE1E03BF80701F580910903813009F1B3
:104AC00061E0CE010E94CD18837E482F446061E0F2
:104AD000CE010E94861980910903882331F081E07C
:104AE00080930903DF91CF91089567E2CE010E9480
:104AF000CD1887FFF0CFF3CF61E0CE01099581E0BB
:104B0000C6CF81E0C4CF5058BB27AA270E949B255F
:104B10000C94AE270E94A02738F00E94A72720F00F
:104B200039F49F3F19F426F40C9476270EF4E0959F
:104B3000E7FB0C947027E92F0E94BF2758F3BA17A0
:104B4000620773078407950720F079F4A6F50C94A3
:104B5000E1270EF4E0950B2EBA2FA02D0B01B90121
:104B600090010C01CA01A0011124FF27591B99F0E3
:104B7000593F50F4503E68F11A16F040A22F232FEF
:104B8000342F4427585FF3CF469537952795A7953F
:104B9000F0405395C9F77EF41F16BA0B620B730BE6
:104BA000840BBAF09150A1F0FF0FBB1F661F771F57
:104BB000881FC2F70EC0BA0F621F731F841F48F40C
:104BC000879577956795B795F7959E3F08F0B0CF95
:104BD0009395880F08F09927EE0F9795879508957C
:104BE0000E94A02760F080E891E009F49EEF0E9407
:104BF000A72728F040E851E071F45EEF0CC00C9458
:104C000076270C94E127E92FE0780E94BF2740F334
:104C1000092E052AB1F3261737074807590738F038
:104C20000E2E07F8E02569F0E025E0640AC0EF6386
:104C300007F8009407FADB01B9019D01DC01CA0104
:104C4000AD01EF930E947E260E94AE270E9433267C
:104C50005F91552339F02BED3FE049E450FD49ECDD
:104C60000C9484250895DF93DD27B92FBF7740E8A2
:104C70005FE31616170648075B0718F4D92F0E9442
:104C8000ED279F938F937F936F930E946228E8E6AE
:104C9000F0E00E9479270E94AE272F913F914F911B
:104CA0005F910E940828DD2351F09058A2EA2AED76
:104CB0003FE049EC5FE3D0785D270E949B25DF91C0
:104CC0000C94AE270E944C2708F481E008950E94BE
:104CD0007B260C94AE270E94A72758F00E94A0279D
:104CE00040F029F45F3F29F00C94702751110C9487
:104CF000E2270C9476270E94BF2768F39923B1F32B
:104D0000552391F3951B550BBB27AA2762177307F1
:104D1000840738F09F5F5F4F220F331F441FAA1F85
:104D2000A9F335D00E2E3AF0E0E832D09150504041
:104D3000E695001CCAF72BD0FE2F29D0660F771FEF
:104D4000881FBB1F261737074807AB07B0E809F0D5
:104D5000BB0B802DBF01FF2793585F4F3AF09E3F5A
:104D6000510578F00C9470270C94E2275F3FE4F330
:104D7000983ED4F3869577956795B795F7959F5F9D
:104D8000C9F7880F911D9695879597F90895E1E0E9
:104D9000660F771F881FBB1F621773078407BA0748
:104DA00020F0621B730B840BBA0BEE1F88F7E095A3
:104DB00008950E94E0266894B1110C94E2270895AA
:104DC0000E94C72788F09F5798F0B92F9927B751AD
:104DD000B0F0E1F0660F771F881F991F1AF0BA959F
:104DE000C9F714C0B13091F00E94E127B1E00895F5
:104DF0000C94E127672F782F8827B85F39F0B93FE7
:104E0000CCF3869577956795B395D9F73EF4909551
:104E10008095709561957F4F8F4F9F4F0895E894CF
:104E200009C097FB3EF490958095709561957F4FF2
:104E30008F4F9F4F9923A9F0F92F96E9BB279395A0
:104E4000F695879577956795B795F111F8CFFAF4B0
:104E5000BB0F11F460FF1BC06F5F7F4F8F4F9F4FE1
:104E600016C0882311F096E911C0772321F09EE83F
:104E7000872F762F05C0662371F096E8862F70E0A5
:104E800060E02AF09A95660F771F881FDAF7880F7F
:104E90009695879597F90895990F0008550FAA0BD5
:104EA000E0E8FEEF16161706E807F907C0F012163D
:104EB0001306E407F50798F0621B730B840B950B40
:104EC00039F40A2661F0232B242B252B21F4089595
:104ED0000A2609F4A140A6958FEF811D811D089532
:104EE00097F99F6780E870E060E008959FEF80EC9D
:104EF0000895DF93CF931F930F93FF92EF92DF926A
:104F00007B018C01689406C0DA2EEF010E9408280C
:104F1000FE01E894A5912591359145915591A6F30F
:104F2000EF010E949B25FE019701A801DA9469F721
:104F3000DF90EF90FF900F911F91CF91DF91089537
:104F400000240A9416161706180609060895002468
:104F50000A9412161306140605060895092E0394E2
:104F6000000C11F4882352F0BB0F40F4BF2B11F456
:104F700060FF04C06F5F7F4F8F4F9F4F089557FDB5
:104F80009058440F551F59F05F3F71F04795880FB7
:104F900097FB991F61F09F3F79F08795089512164E
:104FA00013061406551FF2CF4695F1DF08C01616FA
:104FB00017061806991FF1CF8695710561050894AB
:104FC0000895E894BB2766277727CB0197F90895C2
:104FD0000E944C2708F48FEF08959B01AC0160E01C
:104FE00070E080E89FE30C9467260E9408280C94E8
:104FF000AE270E94A02738F00E94A72720F0952313
:1050000011F00C9470270C94762711240C94E2274D
:105010000E94BF2770F3959FC1F3950F50E0551F75
:10502000629FF001729FBB27F00DB11D639FAA27FD
:10503000F00DB11DAA1F649F6627B00DA11D661F4C
:10504000829F2227B00DA11D621F739FB00DA11D6D
:10505000621F839FA00D611D221F749F3327A00D27
:10506000611D231F849F600D211D822F762F6A2FC3
:1050700011249F5750409AF0F1F088234AF0EE0F28
:10508000FF1FBB1F661F771F881F91505040A9F755
:105090009E3F510580F00C9470270C94E2275F3FEF
:1050A000E4F3983ED4F3869577956795B795F79591
:1050B000E7959F5FC1F7FE2B880F911D9695879509
:1050C00097F908959B01AC010C94F52797FB072EE7
:1050D00016F4009407D077FD09D00E94B62807FC8B
:1050E00005D03EF4909581959F4F089570956195F8
:1050F0007F4F0895A1E21A2EAA1BBB1BFD010DC014
:10510000AA1FBB1FEE1FFF1FA217B307E407F50777
:1051100020F0A21BB30BE40BF50B661F771F881F53
:10512000991F1A9469F760957095809590959B01E9
:10513000AC01BD01CF010895A29FB001B39FC00192
:10514000A39F700D811D1124911DB29F700D811DB3
:105150001124911D08950E949C28A59F900DB49F35
:10516000900DA49F800D911D11240895AA1BBB1BB7
:1051700051E107C0AA1FBB1FA617B70710F0A61B57
:10518000B70B881F991F5A95A9F780959095BC0178
:10519000CD010895EE0FFF1F0590F491E02D0994C5
:1051A0000F931F93CF93DF938230910510F482E029
:1051B00090E0E0914903F0914A0320E030E0A0E064
:1051C000B0E0309719F14081518102811381481775
:1051D0005907C8F08417950769F4109731F01296B3
:1051E0000C93129713961C9327C0009349031093B6
:1051F0004A0322C02115310519F04217530718F44C
:105200009A01BD01EF01DF01F801DBCF2115310566
:10521000F9F0281B390B2430310580F48A819B81F9
:105220006115710521F0FB019383828304C0909383
:105230004A0380934903FE01329644C0FE01E20F07
:10524000F31F8193919322503109398328833AC007
:105250002091470330914803232B41F42091020110
:1052600030910301309348032093470320910001BC
:10527000309101012115310541F42DB73EB7409120
:10528000040150910501241B350BE0914703F09177
:105290004803E217F307A0F42E1B3F0B281739072A
:1052A00078F0AC014E5F5F4F2417350748F04E0F82
:1052B0005F1F50934803409347038193919302C02B
:1052C000E0E0F0E0CF01DF91CF911F910F910895C1
:1052D000CF93DF93009709F481C0FC0132971382CA
:1052E0001282A0914903B0914A03109781F4208162
:1052F0003181820F931F2091470330914803281773
:10530000390751F5F0934803E093470367C0ED0177
:1053100020E030E0CE17DF0740F44A815B819E0138
:1053200041155105F1F0EA01F5CFD383C2834081E5
:105330005181840F951FC817D90759F48881998125
:10534000840F951F0296918380838A819B8193832A
:1053500082832115310529F4F0934A03E093490330
:105360003DC0E901FB83EA8349915991C40FD51FE0
:10537000EC17FD0761F480819181840F951F0296DF
:10538000E90199838883828193819B838A83E0E00A
:10539000F0E012968D919C911397009719F0FD0102
:1053A000DC01F7CF8D919C9111979D012E5F3F4FAE
:1053B000820F931F20914703309148032817390724
:1053C00069F4309729F410924A031092490302C0FD
:1053D00013821282B0934803A0934703DF91CF91C9
:1053E0000895DC01CB01FC01F999FECF06C0F2BDA6
:1053F000E1BDF89A319600B40D9241505040B8F793
:105400000895F999FECF92BD81BDF89A992780B58C
:105410000895DC01CB0103C02D910E94142A415054
:105420005040D0F70895262FF999FECF1FBA92BDAC
:1054300081BD20BD0FB6F894FA9AF99A0FBE019675
:065440000895F894FFCF6F
:1054460000004B032000FF210321030300E68080B8
:1054560080E8030000000037013A02D300E500A50A
:1054660000BF00B10000000000002E1D531B3325B5
:10547600821E441A23198D2177183320BE1CB01AB8
:06548600DD1989189F18D2
:00000001FF
