:100000000C9462000C9469010C9490010C947F0094
:100010000C947F000C947F000C947F000C94EC00F7
:100020000C947F000C947F000C947F000C947F0054
:100030000C947F000C947F000C947F000C947F0044
:100040000C94B7010C947F000C94C7040C948105A8
:100050000C947F000C947F000C947F000C947F0024
:100060000C947F000C947F00020000000800020145
:10007000000003040700000000000000000102046B
:10008000081020408001020408102001020408101A
:100090002004040404040404040202020202020311
:1000A00003030303030000000023002600290000CF
:1000B000000000250028002B00000000002400277D
:1000C000002A000011241FBECFEFD8E0DEBFCDBF55
:1000D00011E0A0E0B1E0E8E6F7E102C005900D9282
:1000E000A632B107D9F721E0A6E2B1E001C01D9226
:1000F000AB38B207E1F70E941E030C94B20B0C94CC
:100100000000CF93CFB7F89480912601811127C0CA
:10011000EBE9F0E08491E7E8F0E09491E82FF0E07B
:10012000EE0FFF1FE754FF4FA591B491EC91E92327
:1001300021F461E08AE00E94AD0261E08AE00E9461
:1001400071028CB580618CBD8CB580648CBD61E022
:100150008DE00E94710261E08BE00E94710280914B
:1001600026018F5F80932601CFBFCF910895813004
:1001700039F018F0823051F0089510926E00089511
:1001800080916F008D7F80936F0008958091700043
:100190008D7F8093700081E08093B0008091B100EA
:1001A000887F84608093B1001092B3000895CF934C
:1001B000C82F80910001C81307C0E8E6F0E08491E1
:1001C0009FEF9093000101C08FEF0E94B70060E0A5
:1001D0008C2FCF910C94AD021F920F920FB60F92FD
:1001E00011242F933F934F935F936F937F938F933C
:1001F0009F93AF93BF93EF93FF9380912A019091C8
:100200002B01A0912C01B0912D01892B8A2B8B2BD6
:1002100051F190912701E0912801F091290180810D
:100220008927808380912A0190912B01A0912C0134
:10023000B0912D01181619061A061B06C4F48091F8
:100240002A0190912B01A0912C01B0912D010197D1
:10025000A109B10980932A0190932B01A0932C014D
:10026000B0932D0104C0809100010E94D700FF913E
:10027000EF91BF91AF919F918F917F916F915F911E
:100280004F913F912F910F900FBE0F901F90189597
:1002900008958230E8F4E82FF0E0EE0FFF1FEF5FE3
:1002A000FE4F71836083813041F0809169008C7FC3
:1002B000482B40936900E89A089580916900837FF4
:1002C000440F551F440F551F482B40936900E99A6E
:1002D00008951F920F920FB60F9211242F933F9300
:1002E0004F935F936F937F938F939F93AF93BF933E
:1002F000EF93FF93E0910101F09102010995FF91C5
:10030000EF91BF91AF919F918F917F916F915F918D
:100310004F913F912F910F900FBE0F901F90189506
:100320001F920F920FB60F9211242F933F934F936A
:100330005F936F937F938F939F93AF93BF93EF934D
:10034000FF93E0910301F09104010995FF91EF9172
:10035000BF91AF919F918F917F916F915F914F91DD
:100360003F912F910F900FBE0F901F9018951F92E5
:100370000F920FB60F9211242F933F938F939F9359
:10038000AF93BF9380912F0190913001A0913101E3
:10039000B091320130912E0126E0230F2D3720F449
:1003A0000296A11DB11D05C029E8230F0396A11DCA
:1003B000B11D20932E0180932F0190933001A093C3
:1003C0003101B09332018091330190913401A091B9
:1003D0003501B09136010196A11DB11D8093330105
:1003E00090933401A0933501B0933601BF91AF9142
:1003F0009F918F913F912F910F900FBE0F901F9063
:1004000018952FB7F89460912F0170913001809169
:100410003101909132012FBF0895789484B58260A4
:1004200084BD84B5816084BD85B5826085BD85B598
:10043000816085BDEEE6F0E0808181608083E1E847
:10044000F0E010828081826080838081816080837F
:10045000E0E8F0E0808181608083E1EBF0E0808182
:1004600084608083E0EBF0E0808181608083EAE754
:10047000F0E08081846080838081826080838081DD
:100480008E7F80838081806880831092C100089570
:10049000833081F028F4813099F08230A1F0089502
:1004A0008730A9F08830B9F08430D1F48091800091
:1004B0008F7D03C0809180008F77809380000895A6
:1004C00084B58F7702C084B58F7D84BD08958091F7
:1004D000B0008F7703C08091B0008F7D8093B00013
:1004E0000895CF93DF9390E0FC01E358FF4F2491F0
:1004F000FC01EF56FF4F8491882361F190E0880F53
:10050000991FFC01E754FF4FC591D491FC01E155BF
:10051000FF4FA591B491611109C09FB7F8948881EC
:10052000209582238883EC912E230BC0623061F4E6
:100530009FB7F8948881322F309583238883EC917C
:100540002E2B2C939FBF06C08FB7F894E8812E2BDB
:1005500028838FBFDF91CF9108951F93CF93DF93AF
:10056000282F30E0F901E759FF4F8491F901E35852
:10057000FF4FD491F901EF56FF4FC491CC23C1F046
:10058000162F81110E944802EC2FF0E0EE0FFF1FA2
:10059000E155FF4FA591B4919FB7F894111104C094
:1005A0008C91D095D82302C0EC91DE2BDC939FBFB9
:1005B000DF91CF911F910895CF93DF93282F30E0E3
:1005C000F901E759FF4F8491F901E358FF4FD491A6
:1005D000F901EF56FF4FC491CC2391F081110E9495
:1005E0004802EC2FF0E0EE0FFF1FEB55FF4FA591F7
:1005F000B491EC91ED2381E090E021F480E002C021
:1006000080E090E0DF91CF91089543983B9A089560
:10061000882399F0439AEFE3FCE93197F1F700C0A2
:1006200000004398FFEF29EF30E0F15020403040C8
:10063000E1F700C000008150EBCF0895CF93DF9326
:10064000CDB7DEB7CB50D1400FB6F894DEBF0FBEAA
:10065000CDBF20E042E06AE0CE0193950E940A06F9
:100660000E940D020E9405032DE24BE26BE5CE01D4
:1006700093950E94500861E0CE0193950E944E0B25
:100680006FE1CE0193950E94380760E076E980E043
:1006900090E00E941C0584E00E9408030E94C504AB
:1006A0006FEFCE0101960E94BC0498E0F92EDD2484
:1006B000D3940E943A04823008F449C08981C55F0E
:1006C000DE4F8883CB50D1401A810E9401022B015A
:1006D0003C01A12EB12C2FEFA21AB20A0E943A04BB
:1006E00090E0A816B9060CF44CC00E940102DC018F
:1006F000CB0184199509A609B709883C9105A10584
:10070000B10560F31DC08550823008F489C084E1D2
:10071000E82E0AE0212FAE014F5F5F4F6CE2CE0161
:1007200093950E94320682E00E940803C55FDE4F67
:100730008881CB50D1408A3009F07DC0D0923701FA
:100740000E94C5046FEFCE0101960E94BC04809107
:100750003701882309F4ADCFCE0193950E94E105BE
:10076000882309F4A6CF80914E018C3009F0A1CFE7
:1007700064E08EE491E00E947F0581E00E9408031E
:1007800098CFC55FDE4F8881CB50D1401E5F84304B
:1007900009F0B9CF82E00E94080300E0212FAE01EA
:1007A0004F5F5F4F6CE2CE0193950E94830ACE01AA
:1007B00093950E94E1050E9401024B015C010E9499
:1007C0000102DC01CB0188199909AA09BB09883CFF
:1007D0009105A105B10598F30E9401024B015C014E
:1007E000CE0193950E94E10581112BC00E94010268
:1007F000DC01CB0188199909AA09BB09883E9340FD
:10080000A105B10568F38AE00E940803C55FDE4FC9
:10081000F882CB50D14061E0CE01855F9E4F27C06A
:1008200000E0212FAE014F5F5F4F6CE2CE01939548
:100830000E94830A7BCF8B3009F082CF1092370160
:100840007FCFCE0193950E948606882339F040E041
:1008500065E071E0CE0193950E94D20A62E08EE4D9
:1008600091E00E947F0560914F0180E591E00E9438
:100870007F0566CF80913A010895482F50E09AE0B5
:10088000899FF0011124E85CFE4F808591850097D7
:1008900021F032812481321780F08AE0849FF001B8
:1008A000859FF00D1124E85CFE4F9281848198139E
:1008B0000EC0858181110AC008952281DC01A20F3A
:1008C000B11D6C9382818F5F8283E7CF128208957E
:1008D000CF93DF939091C1009F779093C100C82F71
:1008E000D0E09AE0899FF0011124E85CFE4F20855A
:1008F0003185232B41F022819481291720F4909196
:10090000C00097FD11C08AE08C9FF0018D9FF00D13
:100910001124E85CFE4F808181110BC08091C100E1
:1009200080688093C10005C06091C6000E943D04AC
:10093000EACFDF91CF9108959091C1009F77909376
:10094000C1003AE0839FC0011124FC01E85CFE4F26
:10095000718760871282448325838081811105C05D
:100960008091C10080688093C1000895462F20E0E7
:10097000BC0180E00C949C040C94B60420E040E0A0
:1009800060E070E080E00C949C040C94BE041F9224
:100990000F920FB60F9211242F933F934F935F93B3
:1009A0006F937F938F939F93AF93BF93EF93FF9337
:1009B0006091C60080E00E943D04FF91EF91BF91DD
:1009C000AF919F918F917F916F915F914F913F91E7
:1009D0002F910F900FBE0F901F9018952AE0829FC5
:1009E000C0011124FC01E85CFE4F86819781892BB0
:1009F00059F091818381981738F48081811104C066
:100A00008091C100806203C08091C1008F7D80937E
:100A1000C10008959AE0899FF0011124E85CFE4F1F
:100A20009081911102C098E901C098E19093C100B2
:100A30000E94EE0478940895CF92DF92EF92FF9295
:100A40006B017C0180E00E940A05A8EFBFEFA701BF
:100A500096010E949E0B7E5E85489F4FE4E0220F28
:100A6000331F441F551FEA95D1F70E946E0B309338
:100A7000C5002093C400FF90EF90DF90CF900895C1
:100A80009AE0899FF0011124E85CFE4F26813781AE
:100A90002115310539F041819381491718F490915E
:100AA000C00095FF0C94EE049181D901A90FB11DEE
:100AB0009C919093C60091819F5F9183F3CFE1EC6D
:100AC000F0E080818F7D808380E00E94400580E09F
:100AD0000C94680490933F0180933E011092390179
:100AE00060933B0180E00E94EE0490913901809177
:100AF0003B01981719F00E945F05F7CF08950C94F9
:100B00006A051F920F920FB60F9211242F933F93F5
:100B10004F935F936F937F938F939F93AF93BF9305
:100B2000EF93FF9380E00E944005FF91EF91BF910A
:100B3000AF919F918F917F916F915F914F913F9175
:100B40002F910F900FBE0F901F901895089581E080
:100B5000809344018091420190914301DC01ED9129
:100B6000FC910484F585E02D0995109244010895C7
:100B7000FC01F8948CB581878DB582878CB5837F15
:100B80008CBD8CB58F7D8CBD8CB58C7F8CBD8DB5AF
:100B90008E7F8DBD60E082810C94AD02CF93DF9398
:100BA000EC0161E08A810E94AD0289858CBD8A8555
:100BB0008DBD80914401811101C07894DF91CF9166
:100BC0000895F89420914D01233021F4209149019A
:100BD00021110FC020914D01233011F4789407C0EA
:100BE000DC01ED91FC910288F389E02D099580E00C
:100BF0000895DC01ED91FC910488F589E02D61E018
:100C0000099581E008958EBD00000DB407FEFDCF6B
:100C10008EB50895FC018AE091E091838083628320
:100C2000438381E080934D0116828FE18783208783
:100C30000895CF93C62FDC01ED91FC910480F581DE
:100C4000E02D0995882361F080914B01C81711F0C0
:100C5000CF3F29F49091470181E0911101C080E0DC
:100C6000CF9108953F924F925F926F927F928F92B1
:100C70009F92AF92BF92CF92DF92EF92FF920F932B
:100C80001F93CF93DF93EC01162F5A01822E902EE3
:100C9000312CCE2CD12CE12CF12CE881F981019062
:100CA000F081E02D01E0282DA501612FCE010995ED
:100CB0000E9401022B013C010E940102DC01CB01D8
:100CC00084199509A609B7098C159D05AE05BF05C0
:100CD00038F4612FCE010E941906882369F304C0FD
:100CE00033949314D0F680E0DF91CF911F910F9150
:100CF000FF90EF90DF90CF90BF90AF909F908F903C
:100D00007F906F905F904F903F9008958091480141
:100D1000882329F090914A0181E09F3F09F480E007
:100D200008951F93CF93DF93EC01162FE881F9818B
:100D3000008CF18DE02D0995812F8F770E9403069D
:100D400080E00E940306182FE881F981028CF38D60
:100D5000E02DCE010995812FDF91CF911F9108954C
:100D60000F931F93CF93DF93EC01062F142FE8818D
:100D7000F981008CF18DE02D0995802F80680E940B
:100D80000306812F0E940306E881F981028CF38D0E
:100D9000E02DCE01DF91CF911F910F9109941F9308
:100DA000CF93DF9320914D01261709F45DC0162FD4
:100DB000EC016230E9F168F4662309F440C0613067
:100DC00009F052C061E00E949106837E482F446082
:100DD0003BC06330B9F0643009F046C061E00E9466
:100DE0009106837E482F4C6061E0CE010E94B006E0
:100DF0008885882369F1E881F9810688F789E02DE3
:100E000061E013C061E00E949106837E482F40613B
:100E100061E0CE010E94B00688858823C9F0E88190
:100E2000F9810688F789E02D60E0CE01099510C0B0
:100E300061E00E949106837E482F486005C061E012
:100E40000E949106482F437E61E0CE010E94B006C9
:100E500080914D01811106C067E2CE010E9491068A
:100E600087FFF6CF10934D01DF91CF911F91089529
:100E7000CF93DF93EC01603208F06FE16F838885D8
:100E8000882311F066956F8361E1CE010E9491067F
:100E9000807E9F81482F492B61E1CE01DF91CF9168
:100EA0000C94B006CF92DF92EF92FF920F931F93B4
:100EB000CF93DF93EC01F62ED42EC52E122FE881AE
:100EC000F9810488F589E02D61E0099567E2CE019A
:100ED0000E94910687FFFACF40E065E2CE010E94B2
:100EE000B0061E3308F01DE3E11004C0002321F01A
:100EF00000E403C000E801C000E0E881F981008C53
:100F0000F18DE02DCE01099580E80E94030683E073
:100F1000810F0E9403068F2D0E9403068D810E947F
:100F20000306802F0E9403060D2DED2CFC2C8E2D28
:100F3000801B811730F4F70181917F010E94030625
:100F4000F6CFE881F981028CF38DE02DCE01099571
:100F5000E881F9810488F589E02D64E0CE010995E6
:100F60000E9401026B017C018B810E94DC02892BB3
:100F700081F0E881F9810488F589E02D61E0CE01F6
:100F8000DF91CF911F910F91FF90EF90DF90CF9065
:100F900009940E940102DC01CB018C199D09AE0964
:100FA000BF09883E9340A105B105F0F2E2CFCF938F
:100FB000DF93EC0110924C0110924B0110924A0108
:100FC0001092490110924801109247011092460177
:100FD0001092450168E20E94910682FF0AC06DE30B
:100FE000CE010E949106482F44606DE3CE010E941D
:100FF000B00640E465E2CE010E94B006E881F981C6
:101000000488F589E02D63E0CE01DF91CF9109944A
:10101000CF92DF92EF92FF920F931F93CF93DF93C4
:10102000EC018B01E881F9810488F589E02D61E00C
:10103000099501151105F1F0E881F981008CF18D18
:10104000E02DCE0109958EEB0E9403067801680120
:1010500080E1C80ED11CF70181917F010E94030637
:10106000EC14FD04C1F7E881F981028CF38DE02DC9
:10107000CE0109956DE3CE010E9491068E7F41E07D
:10108000012B09F440E0482B6DE3CE01DF91CF91B5
:101090001F910F91FF90EF90DF90CF900C94B006CE
:1010A0008F929F92AF92BF92CF92DF92EF92FF9278
:1010B0000F931F93CF93DF93CDB7DEB7AE970FB6E5
:1010C000F894DEBF0FBECDBF8C01E42EDC01139679
:1010D0008C91823021F0833021F08FEF03C080E0CB
:1010E00001C081E0F80184838EE2AE014F5F5F4F63
:1010F0006A01DA01E82F1D92EA95E9F791E09983F8
:1011000034E03A8342E04B8393E09D834E833F83F8
:1011100040E4488735E039879A8796E09B8793E3D8
:101120009C8737E03D8798E09F8799E0998B99E10C
:101130009B8B92E49C8B55E25D8B4E8B46E24F8BF2
:10114000388F38E2398F30E13A8F39E23B8F3CED0E
:101150003C8F8D8F88E88E8F8FE28F8F8DE288A3F2
:1011600080E389A337E33BA330E93CA338E33DA305
:101170009EA39CE39FA39FE898A79DE399A792E174
:101180009AA79FE69BA78CA78FEF8DA76F3131F0B1
:101190006B3231F0663531F084EE05C08EE403C069
:1011A0008CE601C089ED8E876F3141F06B3221F002
:1011B000663521F480E003C080E401C080EC888BB8
:1011C0002AA361E0D80112968C910E94AD0261E0E1
:1011D000F80182810E9471020E9481000E94010236
:1011E0004B015C014AEA6FE2C8010E94B0066FE25F
:1011F000C8010E9491068A3A61F00E940102DC0156
:10120000CB0188199909AA09BB09C297A105B105A3
:1012100048F30E9401024B015C0145E56FE2C80101
:101220000E94B0066FE2C8010E949106853561F008
:101230000E940102DC01CB0188199909AA09BB09A6
:10124000C297A105B10548F3F12CF601EF0DF11D90
:10125000EF0DF11D60816F3F31F04181C8010E94A7
:10126000B006F394F2CF60E070E0C8010E94080875
:10127000D801ED91FC9111970084F185E02D18962D
:101280006C91C8010995D801ED91FC910488F5890C
:10129000E02D61E0C80109950E9401024B015C014B
:1012A00067E2C8010E94910687FD0CC00E940102FE
:1012B000DC01CB0188199909AA09BB09C297A105CC
:1012C000B10570F30E940102DC01CB018819990974
:1012D000AA09BB09C297A105B10598F4109244016F
:1012E00043E050E067EA75E0F80184810E9449011B
:1012F0001093430100934201D8011596EC9281E0CE
:1013000001C080E0AE960FB6F894DEBF0FBECDBF31
:10131000DF91CF911F910F91FF90EF90DF90CF90D1
:10132000BF90AF909F908F900895CF93DF93EC0183
:1013300061110DC064E2CE010E94910690E091958A
:101340008195910995958795DF91CF91089541E019
:1013500063E20E94B00663E2CE010E94910681FF23
:10136000FACFE8CFCF93DF9320914D012330A9F43A
:1013700020914901211111C0EC0160E00E94950902
:10138000863A9F4F54F4E881F9810488F589E02D6D
:1013900061E0CE01099581E001C080E0DF91CF914D
:1013A0000895EF92FF921F93CF93DF93EC0180910A
:1013B0004D01833001F568E2CE010E94910682FD65
:1013C00028C019C080914C018D3330F4E0914C015C
:1013D000F0E0E25BFE4F1082E881F981028CF38D30
:1013E000E02DCE010995E881F9810488F589E02D89
:1013F00063E0CE01099560E0CE010E9495099093CB
:10140000460180934501DF91CF911F91FF90EF90AE
:101410000895E881F9810488F589E02D61E0CE0125
:101420000995E881F981008CF18DE02DCE010995B7
:1014300080E00E94030680E00E9403068093490139
:10144000809149018334D0F480914901809349010E
:1014500080E00E94030680934A018E81811109C0B9
:1014600080914A019D81981721F080914A018F3F18
:1014700039F480914901833018F017C082E4E6CF37
:1014800010924901E881F981028CF38DE02DCE01A3
:101490000995E881F9810288F389E02DCE01DF9179
:1014A000CF911F91FF90EF90099480914901835053
:1014B00080934C0180E00E94030680934B0180E002
:1014C0000E940306982F907890934701982F90746C
:1014D00090934801E881F9810684F785E02D682F13
:1014E000CE01099510E080914C01181708F06ACFE1
:1014F000E12EF12C80E00E940306F701E25BFE4F33
:1015000080831F5FF0CF8F929F92AF92BF92CF9256
:10151000DF92EF92FF920F931F93CF93DF93EC0133
:10152000162F6A01F22E6DE30E949106482F446047
:101530006DE3CE010E94B0060E9401024B015C01E6
:10154000CE010E94B209811115C00E940102DC0186
:10155000CB0188199909AA09BB09883E9340A105C6
:10156000B10540F4E881F9810480F581E02DCE01D8
:101570000995E6CFE881F9810088F189E02DE12C19
:101580002F2DA601612FCE010995DF91CF911F91DB
:101590000F91FF90EF90DF90CF90BF90AF909F9012
:1015A0008F9008954F925F926F927F92AF92BF9209
:1015B000CF92DF92EF92FF920F931F93CF93DF931F
:1015C000EC015B01F42E1092480110914B01C09088
:1015D0004501D09046016DE30E949106482F44607A
:1015E0006DE3CE010E94B0060E9401022B013C0176
:1015F000CE010E94B209811115C00E940102DC01D6
:10160000CB0184199509A609B709883E9340A10525
:10161000B10540F4E881F9810480F581E02DCE0127
:101620000995E6CF10934B01E881F9810088F18993
:10163000E02DEE24E39400E02F2DA501612FCE01D3
:101640000995D0924601C0924501DF91CF911F913B
:101650000F91FF90EF90DF90CF90BF90AF907F9071
:101660006F905F904F9008951F93CF93DF93EC019D
:10167000162F611102C045E501C04DE56AE5CE01B6
:101680000E94B006111102C040E701C04CE76CE5B2
:10169000CE01DF91CF911F910C94B006CF93DF93D1
:1016A000EC016887611102C04AE101C04FE063E1CB
:1016B000CE010E94B0068885882341F061E1CE0109
:1016C0000E9491068F71482F406602C04F8140688A
:1016D00061E1CE01DF91CF910C94B006A1E21A2E08
:1016E000AA1BBB1BFD010DC0AA1FBB1FEE1FFF1FC6
:1016F000A217B307E407F50720F0A21BB30BE40B16
:10170000F50B661F771F881F991F1A9469F760955C
:101710007095809590959B01AC01BD01CF01089516
:101720000E94A30BA59F900DB49F900DA49F800DC8
:10173000911D11240895B7FF0C94900B0E94900BFB
:10174000821B930B0895A29FB001B39FC001A39F7A
:10175000700D811D1124911DB29F700D811D1124EA
:08176000911D0895F894FFCFDC
:10176800FF480148010000000000830A3206E10535
:10177800D20A4E0B3807D109A6055207D707CF065C
:06178800340BB805CE058C
:00000001FF
